{
	"contracts/MyHelloWorld.sol": {
		"MyHelloWorld": {
			"abi": [
				{
					"inputs": [],
					"stateMutability": "nonpayable",
					"type": "constructor"
				},
				{
					"inputs": [
						{
							"internalType": "string",
							"name": "_changeStr",
							"type": "string"
						}
					],
					"name": "changeSayHi",
					"outputs": [],
					"stateMutability": "nonpayable",
					"type": "function"
				},
				{
					"inputs": [],
					"name": "kata",
					"outputs": [
						{
							"internalType": "string",
							"name": "",
							"type": "string"
						}
					],
					"stateMutability": "view",
					"type": "function"
				},
				{
					"inputs": [],
					"name": "person",
					"outputs": [
						{
							"internalType": "string",
							"name": "",
							"type": "string"
						}
					],
					"stateMutability": "view",
					"type": "function"
				},
				{
					"inputs": [
						{
							"internalType": "string",
							"name": "_to",
							"type": "string"
						}
					],
					"name": "sayHello",
					"outputs": [
						{
							"internalType": "string",
							"name": "",
							"type": "string"
						}
					],
					"stateMutability": "view",
					"type": "function"
				},
				{
					"inputs": [],
					"name": "sayHi",
					"outputs": [
						{
							"internalType": "string",
							"name": "",
							"type": "string"
						}
					],
					"stateMutability": "view",
					"type": "function"
				},
				{
					"inputs": [
						{
							"internalType": "string",
							"name": "_newPerson",
							"type": "string"
						},
						{
							"internalType": "string",
							"name": "_newSayHi",
							"type": "string"
						}
					],
					"name": "simpleData",
					"outputs": [
						{
							"internalType": "string",
							"name": "",
							"type": "string"
						}
					],
					"stateMutability": "nonpayable",
					"type": "function"
				}
			],
			"devdoc": {
				"kind": "dev",
				"methods": {},
				"version": 1
			},
			"evm": {
				"assembly": "    /* \"contracts/MyHelloWorld.sol\":62:1123  contract MyHelloWorld {... */\n  mstore(0x40, 0x80)\n    /* \"contracts/MyHelloWorld.sol\":91:126  string public sayHi = \"Hello World\" */\n  mload(0x40)\n  dup1\n  0x40\n  add\n  0x40\n  mstore\n  dup1\n  0x0b\n  dup2\n  mstore\n  0x20\n  add\n  0x48656c6c6f20576f726c64000000000000000000000000000000000000000000\n  dup2\n  mstore\n  pop\n  0x00\n  swap1\n  dup1\n  mload\n  swap1\n  0x20\n  add\n  swap1\n  tag_1\n  swap3\n  swap2\n  swap1\n  tag_2\n  jump\t// in\ntag_1:\n  pop\n    /* \"contracts/MyHelloWorld.sol\":133:164  string public person = \"Hendry\" */\n  mload(0x40)\n  dup1\n  0x40\n  add\n  0x40\n  mstore\n  dup1\n  0x06\n  dup2\n  mstore\n  0x20\n  add\n  0x48656e6472790000000000000000000000000000000000000000000000000000\n  dup2\n  mstore\n  pop\n  0x01\n  swap1\n  dup1\n  mload\n  swap1\n  0x20\n  add\n  swap1\n  tag_3\n  swap3\n  swap2\n  swap1\n  tag_2\n  jump\t// in\ntag_3:\n  pop\n    /* \"contracts/MyHelloWorld.sol\":226:277  constructor() {... */\n  callvalue\n  dup1\n  iszero\n  tag_4\n  jumpi\n  0x00\n  dup1\n  revert\ntag_4:\n  pop\n    /* \"contracts/MyHelloWorld.sol\":259:269  msg.sender */\n  caller\n    /* \"contracts/MyHelloWorld.sol\":251:256  owner */\n  0x03\n  0x00\n    /* \"contracts/MyHelloWorld.sol\":251:269  owner = msg.sender */\n  0x0100\n  exp\n  dup2\n  sload\n  dup2\n  0xffffffffffffffffffffffffffffffffffffffff\n  mul\n  not\n  and\n  swap1\n  dup4\n  0xffffffffffffffffffffffffffffffffffffffff\n  and\n  mul\n  or\n  swap1\n  sstore\n  pop\n    /* \"contracts/MyHelloWorld.sol\":62:1123  contract MyHelloWorld {... */\n  jump(tag_7)\ntag_2:\n  dup3\n  dup1\n  sload\n  tag_8\n  swap1\n  tag_9\n  jump\t// in\ntag_8:\n  swap1\n  0x00\n  mstore\n  keccak256(0x00, 0x20)\n  swap1\n  0x1f\n  add\n  0x20\n  swap1\n  div\n  dup2\n  add\n  swap3\n  dup3\n  tag_11\n  jumpi\n  0x00\n  dup6\n  sstore\n  jump(tag_10)\ntag_11:\n  dup3\n  0x1f\n  lt\n  tag_12\n  jumpi\n  dup1\n  mload\n  not(0xff)\n  and\n  dup4\n  dup1\n  add\n  or\n  dup6\n  sstore\n  jump(tag_10)\ntag_12:\n  dup3\n  dup1\n  add\n  0x01\n  add\n  dup6\n  sstore\n  dup3\n  iszero\n  tag_10\n  jumpi\n  swap2\n  dup3\n  add\ntag_13:\n  dup3\n  dup2\n  gt\n  iszero\n  tag_14\n  jumpi\n  dup3\n  mload\n  dup3\n  sstore\n  swap2\n  0x20\n  add\n  swap2\n  swap1\n  0x01\n  add\n  swap1\n  jump(tag_13)\ntag_14:\ntag_10:\n  pop\n  swap1\n  pop\n  tag_15\n  swap2\n  swap1\n  tag_16\n  jump\t// in\ntag_15:\n  pop\n  swap1\n  jump\t// out\ntag_16:\ntag_17:\n  dup1\n  dup3\n  gt\n  iszero\n  tag_18\n  jumpi\n  0x00\n  dup2\n  0x00\n  swap1\n  sstore\n  pop\n  0x01\n  add\n  jump(tag_17)\ntag_18:\n  pop\n  swap1\n  jump\t// out\n    /* \"#utility.yul\":7:187   */\ntag_19:\n    /* \"#utility.yul\":55:132   */\n  0x4e487b7100000000000000000000000000000000000000000000000000000000\n    /* \"#utility.yul\":52:53   */\n  0x00\n    /* \"#utility.yul\":45:133   */\n  mstore\n    /* \"#utility.yul\":152:156   */\n  0x22\n    /* \"#utility.yul\":149:150   */\n  0x04\n    /* \"#utility.yul\":142:157   */\n  mstore\n    /* \"#utility.yul\":176:180   */\n  0x24\n    /* \"#utility.yul\":173:174   */\n  0x00\n    /* \"#utility.yul\":166:181   */\n  revert\n    /* \"#utility.yul\":193:513   */\ntag_9:\n    /* \"#utility.yul\":237:243   */\n  0x00\n    /* \"#utility.yul\":274:275   */\n  0x02\n    /* \"#utility.yul\":268:272   */\n  dup3\n    /* \"#utility.yul\":264:276   */\n  div\n    /* \"#utility.yul\":254:276   */\n  swap1\n  pop\n    /* \"#utility.yul\":321:322   */\n  0x01\n    /* \"#utility.yul\":315:319   */\n  dup3\n    /* \"#utility.yul\":311:323   */\n  and\n    /* \"#utility.yul\":342:360   */\n  dup1\n    /* \"#utility.yul\":332:413   */\n  tag_23\n  jumpi\n    /* \"#utility.yul\":398:402   */\n  0x7f\n    /* \"#utility.yul\":390:396   */\n  dup3\n    /* \"#utility.yul\":386:403   */\n  and\n    /* \"#utility.yul\":376:403   */\n  swap2\n  pop\n    /* \"#utility.yul\":332:413   */\ntag_23:\n    /* \"#utility.yul\":460:462   */\n  0x20\n    /* \"#utility.yul\":452:458   */\n  dup3\n    /* \"#utility.yul\":449:463   */\n  lt\n    /* \"#utility.yul\":429:447   */\n  dup2\n    /* \"#utility.yul\":426:464   */\n  sub\n    /* \"#utility.yul\":423:507   */\n  tag_24\n  jumpi\n    /* \"#utility.yul\":479:497   */\n  tag_25\n  tag_19\n  jump\t// in\ntag_25:\n    /* \"#utility.yul\":423:507   */\ntag_24:\n    /* \"#utility.yul\":244:513   */\n  pop\n    /* \"#utility.yul\":193:513   */\n  swap2\n  swap1\n  pop\n  jump\t// out\n    /* \"contracts/MyHelloWorld.sol\":62:1123  contract MyHelloWorld {... */\ntag_7:\n  dataSize(sub_0)\n  dup1\n  dataOffset(sub_0)\n  0x00\n  codecopy\n  0x00\n  return\nstop\n\nsub_0: assembly {\n        /* \"contracts/MyHelloWorld.sol\":62:1123  contract MyHelloWorld {... */\n      mstore(0x40, 0x80)\n      callvalue\n      dup1\n      iszero\n      tag_1\n      jumpi\n      0x00\n      dup1\n      revert\n    tag_1:\n      pop\n      jumpi(tag_2, lt(calldatasize, 0x04))\n      shr(0xe0, calldataload(0x00))\n      dup1\n      0x0c49c36c\n      eq\n      tag_3\n      jumpi\n      dup1\n      0x36509229\n      eq\n      tag_4\n      jumpi\n      dup1\n      0x3aef0218\n      eq\n      tag_5\n      jumpi\n      dup1\n      0x46ef230e\n      eq\n      tag_6\n      jumpi\n      dup1\n      0x77ec2b55\n      eq\n      tag_7\n      jumpi\n      dup1\n      0xc3a9b1c5\n      eq\n      tag_8\n      jumpi\n    tag_2:\n      0x00\n      dup1\n      revert\n        /* \"contracts/MyHelloWorld.sol\":91:126  string public sayHi = \"Hello World\" */\n    tag_3:\n      tag_9\n      tag_10\n      jump\t// in\n    tag_9:\n      mload(0x40)\n      tag_11\n      swap2\n      swap1\n      tag_12\n      jump\t// in\n    tag_11:\n      mload(0x40)\n      dup1\n      swap2\n      sub\n      swap1\n      return\n        /* \"contracts/MyHelloWorld.sol\":665:1109  function simpleData(string memory _newPerson, string memory _newSayHi) public onlyOwner returns (string memory){... */\n    tag_4:\n      tag_13\n      0x04\n      dup1\n      calldatasize\n      sub\n      dup2\n      add\n      swap1\n      tag_14\n      swap2\n      swap1\n      tag_15\n      jump\t// in\n    tag_14:\n      tag_16\n      jump\t// in\n    tag_13:\n      mload(0x40)\n      tag_17\n      swap2\n      swap1\n      tag_12\n      jump\t// in\n    tag_17:\n      mload(0x40)\n      dup1\n      swap2\n      sub\n      swap1\n      return\n        /* \"contracts/MyHelloWorld.sol\":556:657  function changeSayHi(string memory _changeStr) public onlyOwner {... */\n    tag_5:\n      tag_18\n      0x04\n      dup1\n      calldatasize\n      sub\n      dup2\n      add\n      swap1\n      tag_19\n      swap2\n      swap1\n      tag_20\n      jump\t// in\n    tag_19:\n      tag_21\n      jump\t// in\n    tag_18:\n      stop\n        /* \"contracts/MyHelloWorld.sol\":171:189  string public kata */\n    tag_6:\n      tag_22\n      tag_23\n      jump\t// in\n    tag_22:\n      mload(0x40)\n      tag_24\n      swap2\n      swap1\n      tag_12\n      jump\t// in\n    tag_24:\n      mload(0x40)\n      dup1\n      swap2\n      sub\n      swap1\n      return\n        /* \"contracts/MyHelloWorld.sol\":133:164  string public person = \"Hendry\" */\n    tag_7:\n      tag_25\n      tag_26\n      jump\t// in\n    tag_25:\n      mload(0x40)\n      tag_27\n      swap2\n      swap1\n      tag_12\n      jump\t// in\n    tag_27:\n      mload(0x40)\n      dup1\n      swap2\n      sub\n      swap1\n      return\n        /* \"contracts/MyHelloWorld.sol\":410:548  function sayHello(string memory _to) public view returns (string memory) {... */\n    tag_8:\n      tag_28\n      0x04\n      dup1\n      calldatasize\n      sub\n      dup2\n      add\n      swap1\n      tag_29\n      swap2\n      swap1\n      tag_20\n      jump\t// in\n    tag_29:\n      tag_30\n      jump\t// in\n    tag_28:\n      mload(0x40)\n      tag_31\n      swap2\n      swap1\n      tag_12\n      jump\t// in\n    tag_31:\n      mload(0x40)\n      dup1\n      swap2\n      sub\n      swap1\n      return\n        /* \"contracts/MyHelloWorld.sol\":91:126  string public sayHi = \"Hello World\" */\n    tag_10:\n      0x00\n      dup1\n      sload\n      tag_32\n      swap1\n      tag_33\n      jump\t// in\n    tag_32:\n      dup1\n      0x1f\n      add\n      0x20\n      dup1\n      swap2\n      div\n      mul\n      0x20\n      add\n      mload(0x40)\n      swap1\n      dup2\n      add\n      0x40\n      mstore\n      dup1\n      swap3\n      swap2\n      swap1\n      dup2\n      dup2\n      mstore\n      0x20\n      add\n      dup3\n      dup1\n      sload\n      tag_34\n      swap1\n      tag_33\n      jump\t// in\n    tag_34:\n      dup1\n      iszero\n      tag_35\n      jumpi\n      dup1\n      0x1f\n      lt\n      tag_36\n      jumpi\n      0x0100\n      dup1\n      dup4\n      sload\n      div\n      mul\n      dup4\n      mstore\n      swap2\n      0x20\n      add\n      swap2\n      jump(tag_35)\n    tag_36:\n      dup3\n      add\n      swap2\n      swap1\n      0x00\n      mstore\n      keccak256(0x00, 0x20)\n      swap1\n    tag_37:\n      dup2\n      sload\n      dup2\n      mstore\n      swap1\n      0x01\n      add\n      swap1\n      0x20\n      add\n      dup1\n      dup4\n      gt\n      tag_37\n      jumpi\n      dup3\n      swap1\n      sub\n      0x1f\n      and\n      dup3\n      add\n      swap2\n    tag_35:\n      pop\n      pop\n      pop\n      pop\n      pop\n      dup2\n      jump\t// out\n        /* \"contracts/MyHelloWorld.sol\":665:1109  function simpleData(string memory _newPerson, string memory _newSayHi) public onlyOwner returns (string memory){... */\n    tag_16:\n        /* \"contracts/MyHelloWorld.sol\":762:775  string memory */\n      0x60\n        /* \"contracts/MyHelloWorld.sol\":339:344  owner */\n      0x03\n      0x00\n      swap1\n      sload\n      swap1\n      0x0100\n      exp\n      swap1\n      div\n      0xffffffffffffffffffffffffffffffffffffffff\n      and\n        /* \"contracts/MyHelloWorld.sol\":325:344  msg.sender == owner */\n      0xffffffffffffffffffffffffffffffffffffffff\n      and\n        /* \"contracts/MyHelloWorld.sol\":325:335  msg.sender */\n      caller\n        /* \"contracts/MyHelloWorld.sol\":325:344  msg.sender == owner */\n      0xffffffffffffffffffffffffffffffffffffffff\n      and\n      eq\n        /* \"contracts/MyHelloWorld.sol\":317:382  require(msg.sender == owner, \"Only Owner can call this function\") */\n      tag_39\n      jumpi\n      mload(0x40)\n      0x08c379a000000000000000000000000000000000000000000000000000000000\n      dup2\n      mstore\n      0x04\n      add\n      tag_40\n      swap1\n      tag_41\n      jump\t// in\n    tag_40:\n      mload(0x40)\n      dup1\n      swap2\n      sub\n      swap1\n      revert\n    tag_39:\n        /* \"contracts/MyHelloWorld.sol\":796:806  _newPerson */\n      dup3\n        /* \"contracts/MyHelloWorld.sol\":787:793  person */\n      0x01\n        /* \"contracts/MyHelloWorld.sol\":787:806  person = _newPerson */\n      swap1\n      dup1\n      mload\n      swap1\n      0x20\n      add\n      swap1\n      tag_43\n      swap3\n      swap2\n      swap1\n      tag_44\n      jump\t// in\n    tag_43:\n      pop\n        /* \"contracts/MyHelloWorld.sol\":825:834  _newSayHi */\n      dup2\n        /* \"contracts/MyHelloWorld.sol\":817:822  sayHi */\n      0x00\n        /* \"contracts/MyHelloWorld.sol\":817:834  sayHi = _newSayHi */\n      swap1\n      dup1\n      mload\n      swap1\n      0x20\n      add\n      swap1\n      tag_45\n      swap3\n      swap2\n      swap1\n      tag_44\n      jump\t// in\n    tag_45:\n      pop\n        /* \"contracts/MyHelloWorld.sol\":878:883  sayHi */\n      0x00\n        /* \"contracts/MyHelloWorld.sol\":888:894  person */\n      0x01\n        /* \"contracts/MyHelloWorld.sol\":861:895  abi.encodePacked(sayHi,\" \",person) */\n      add(0x20, mload(0x40))\n      tag_46\n      swap3\n      swap2\n      swap1\n      tag_47\n      jump\t// in\n    tag_46:\n      mload(0x40)\n      0x20\n      dup2\n      dup4\n      sub\n      sub\n      dup2\n      mstore\n      swap1\n      0x40\n      mstore\n        /* \"contracts/MyHelloWorld.sol\":847:851  kata */\n      0x02\n        /* \"contracts/MyHelloWorld.sol\":847:896  kata = string(abi.encodePacked(sayHi,\" \",person)) */\n      swap1\n      dup1\n      mload\n      swap1\n      0x20\n      add\n      swap1\n      tag_48\n      swap3\n      swap2\n      swap1\n      tag_44\n      jump\t// in\n    tag_48:\n      pop\n        /* \"contracts/MyHelloWorld.sol\":917:921  kata */\n      0x02\n        /* \"contracts/MyHelloWorld.sol\":909:921  return  kata */\n      dup1\n      sload\n      tag_49\n      swap1\n      tag_33\n      jump\t// in\n    tag_49:\n      dup1\n      0x1f\n      add\n      0x20\n      dup1\n      swap2\n      div\n      mul\n      0x20\n      add\n      mload(0x40)\n      swap1\n      dup2\n      add\n      0x40\n      mstore\n      dup1\n      swap3\n      swap2\n      swap1\n      dup2\n      dup2\n      mstore\n      0x20\n      add\n      dup3\n      dup1\n      sload\n      tag_50\n      swap1\n      tag_33\n      jump\t// in\n    tag_50:\n      dup1\n      iszero\n      tag_51\n      jumpi\n      dup1\n      0x1f\n      lt\n      tag_52\n      jumpi\n      0x0100\n      dup1\n      dup4\n      sload\n      div\n      mul\n      dup4\n      mstore\n      swap2\n      0x20\n      add\n      swap2\n      jump(tag_51)\n    tag_52:\n      dup3\n      add\n      swap2\n      swap1\n      0x00\n      mstore\n      keccak256(0x00, 0x20)\n      swap1\n    tag_53:\n      dup2\n      sload\n      dup2\n      mstore\n      swap1\n      0x01\n      add\n      swap1\n      0x20\n      add\n      dup1\n      dup4\n      gt\n      tag_53\n      jumpi\n      dup3\n      swap1\n      sub\n      0x1f\n      and\n      dup3\n      add\n      swap2\n    tag_51:\n      pop\n      pop\n      pop\n      pop\n      pop\n      swap1\n      pop\n        /* \"contracts/MyHelloWorld.sol\":665:1109  function simpleData(string memory _newPerson, string memory _newSayHi) public onlyOwner returns (string memory){... */\n      swap3\n      swap2\n      pop\n      pop\n      jump\t// out\n        /* \"contracts/MyHelloWorld.sol\":556:657  function changeSayHi(string memory _changeStr) public onlyOwner {... */\n    tag_21:\n        /* \"contracts/MyHelloWorld.sol\":339:344  owner */\n      0x03\n      0x00\n      swap1\n      sload\n      swap1\n      0x0100\n      exp\n      swap1\n      div\n      0xffffffffffffffffffffffffffffffffffffffff\n      and\n        /* \"contracts/MyHelloWorld.sol\":325:344  msg.sender == owner */\n      0xffffffffffffffffffffffffffffffffffffffff\n      and\n        /* \"contracts/MyHelloWorld.sol\":325:335  msg.sender */\n      caller\n        /* \"contracts/MyHelloWorld.sol\":325:344  msg.sender == owner */\n      0xffffffffffffffffffffffffffffffffffffffff\n      and\n      eq\n        /* \"contracts/MyHelloWorld.sol\":317:382  require(msg.sender == owner, \"Only Owner can call this function\") */\n      tag_55\n      jumpi\n      mload(0x40)\n      0x08c379a000000000000000000000000000000000000000000000000000000000\n      dup2\n      mstore\n      0x04\n      add\n      tag_56\n      swap1\n      tag_41\n      jump\t// in\n    tag_56:\n      mload(0x40)\n      dup1\n      swap2\n      sub\n      swap1\n      revert\n    tag_55:\n        /* \"contracts/MyHelloWorld.sol\":639:649  _changeStr */\n      dup1\n        /* \"contracts/MyHelloWorld.sol\":631:636  sayHi */\n      0x00\n        /* \"contracts/MyHelloWorld.sol\":631:649  sayHi = _changeStr */\n      swap1\n      dup1\n      mload\n      swap1\n      0x20\n      add\n      swap1\n      tag_58\n      swap3\n      swap2\n      swap1\n      tag_44\n      jump\t// in\n    tag_58:\n      pop\n        /* \"contracts/MyHelloWorld.sol\":556:657  function changeSayHi(string memory _changeStr) public onlyOwner {... */\n      pop\n      jump\t// out\n        /* \"contracts/MyHelloWorld.sol\":171:189  string public kata */\n    tag_23:\n      0x02\n      dup1\n      sload\n      tag_59\n      swap1\n      tag_33\n      jump\t// in\n    tag_59:\n      dup1\n      0x1f\n      add\n      0x20\n      dup1\n      swap2\n      div\n      mul\n      0x20\n      add\n      mload(0x40)\n      swap1\n      dup2\n      add\n      0x40\n      mstore\n      dup1\n      swap3\n      swap2\n      swap1\n      dup2\n      dup2\n      mstore\n      0x20\n      add\n      dup3\n      dup1\n      sload\n      tag_60\n      swap1\n      tag_33\n      jump\t// in\n    tag_60:\n      dup1\n      iszero\n      tag_61\n      jumpi\n      dup1\n      0x1f\n      lt\n      tag_62\n      jumpi\n      0x0100\n      dup1\n      dup4\n      sload\n      div\n      mul\n      dup4\n      mstore\n      swap2\n      0x20\n      add\n      swap2\n      jump(tag_61)\n    tag_62:\n      dup3\n      add\n      swap2\n      swap1\n      0x00\n      mstore\n      keccak256(0x00, 0x20)\n      swap1\n    tag_63:\n      dup2\n      sload\n      dup2\n      mstore\n      swap1\n      0x01\n      add\n      swap1\n      0x20\n      add\n      dup1\n      dup4\n      gt\n      tag_63\n      jumpi\n      dup3\n      swap1\n      sub\n      0x1f\n      and\n      dup3\n      add\n      swap2\n    tag_61:\n      pop\n      pop\n      pop\n      pop\n      pop\n      dup2\n      jump\t// out\n        /* \"contracts/MyHelloWorld.sol\":133:164  string public person = \"Hendry\" */\n    tag_26:\n      0x01\n      dup1\n      sload\n      tag_64\n      swap1\n      tag_33\n      jump\t// in\n    tag_64:\n      dup1\n      0x1f\n      add\n      0x20\n      dup1\n      swap2\n      div\n      mul\n      0x20\n      add\n      mload(0x40)\n      swap1\n      dup2\n      add\n      0x40\n      mstore\n      dup1\n      swap3\n      swap2\n      swap1\n      dup2\n      dup2\n      mstore\n      0x20\n      add\n      dup3\n      dup1\n      sload\n      tag_65\n      swap1\n      tag_33\n      jump\t// in\n    tag_65:\n      dup1\n      iszero\n      tag_66\n      jumpi\n      dup1\n      0x1f\n      lt\n      tag_67\n      jumpi\n      0x0100\n      dup1\n      dup4\n      sload\n      div\n      mul\n      dup4\n      mstore\n      swap2\n      0x20\n      add\n      swap2\n      jump(tag_66)\n    tag_67:\n      dup3\n      add\n      swap2\n      swap1\n      0x00\n      mstore\n      keccak256(0x00, 0x20)\n      swap1\n    tag_68:\n      dup2\n      sload\n      dup2\n      mstore\n      swap1\n      0x01\n      add\n      swap1\n      0x20\n      add\n      dup1\n      dup4\n      gt\n      tag_68\n      jumpi\n      dup3\n      swap1\n      sub\n      0x1f\n      and\n      dup3\n      add\n      swap2\n    tag_66:\n      pop\n      pop\n      pop\n      pop\n      pop\n      dup2\n      jump\t// out\n        /* \"contracts/MyHelloWorld.sol\":410:548  function sayHello(string memory _to) public view returns (string memory) {... */\n    tag_30:\n        /* \"contracts/MyHelloWorld.sol\":468:481  string memory */\n      0x60\n        /* \"contracts/MyHelloWorld.sol\":525:530  sayHi */\n      0x00\n        /* \"contracts/MyHelloWorld.sol\":535:538  _to */\n      dup3\n        /* \"contracts/MyHelloWorld.sol\":508:539  abi.encodePacked(sayHi,\" \",_to) */\n      add(0x20, mload(0x40))\n      tag_70\n      swap3\n      swap2\n      swap1\n      tag_71\n      jump\t// in\n    tag_70:\n      mload(0x40)\n      0x20\n      dup2\n      dup4\n      sub\n      sub\n      dup2\n      mstore\n      swap1\n      0x40\n      mstore\n        /* \"contracts/MyHelloWorld.sol\":494:540  return string(abi.encodePacked(sayHi,\" \",_to)) */\n      swap1\n      pop\n        /* \"contracts/MyHelloWorld.sol\":410:548  function sayHello(string memory _to) public view returns (string memory) {... */\n      swap2\n      swap1\n      pop\n      jump\t// out\n    tag_44:\n      dup3\n      dup1\n      sload\n      tag_72\n      swap1\n      tag_33\n      jump\t// in\n    tag_72:\n      swap1\n      0x00\n      mstore\n      keccak256(0x00, 0x20)\n      swap1\n      0x1f\n      add\n      0x20\n      swap1\n      div\n      dup2\n      add\n      swap3\n      dup3\n      tag_74\n      jumpi\n      0x00\n      dup6\n      sstore\n      jump(tag_73)\n    tag_74:\n      dup3\n      0x1f\n      lt\n      tag_75\n      jumpi\n      dup1\n      mload\n      not(0xff)\n      and\n      dup4\n      dup1\n      add\n      or\n      dup6\n      sstore\n      jump(tag_73)\n    tag_75:\n      dup3\n      dup1\n      add\n      0x01\n      add\n      dup6\n      sstore\n      dup3\n      iszero\n      tag_73\n      jumpi\n      swap2\n      dup3\n      add\n    tag_76:\n      dup3\n      dup2\n      gt\n      iszero\n      tag_77\n      jumpi\n      dup3\n      mload\n      dup3\n      sstore\n      swap2\n      0x20\n      add\n      swap2\n      swap1\n      0x01\n      add\n      swap1\n      jump(tag_76)\n    tag_77:\n    tag_73:\n      pop\n      swap1\n      pop\n      tag_78\n      swap2\n      swap1\n      tag_79\n      jump\t// in\n    tag_78:\n      pop\n      swap1\n      jump\t// out\n    tag_79:\n    tag_80:\n      dup1\n      dup3\n      gt\n      iszero\n      tag_81\n      jumpi\n      0x00\n      dup2\n      0x00\n      swap1\n      sstore\n      pop\n      0x01\n      add\n      jump(tag_80)\n    tag_81:\n      pop\n      swap1\n      jump\t// out\n        /* \"#utility.yul\":7:106   */\n    tag_82:\n        /* \"#utility.yul\":59:65   */\n      0x00\n        /* \"#utility.yul\":93:98   */\n      dup2\n        /* \"#utility.yul\":87:99   */\n      mload\n        /* \"#utility.yul\":77:99   */\n      swap1\n      pop\n        /* \"#utility.yul\":7:106   */\n      swap2\n      swap1\n      pop\n      jump\t// out\n        /* \"#utility.yul\":112:281   */\n    tag_83:\n        /* \"#utility.yul\":196:207   */\n      0x00\n        /* \"#utility.yul\":230:236   */\n      dup3\n        /* \"#utility.yul\":225:228   */\n      dup3\n        /* \"#utility.yul\":218:237   */\n      mstore\n        /* \"#utility.yul\":270:274   */\n      0x20\n        /* \"#utility.yul\":265:268   */\n      dup3\n        /* \"#utility.yul\":261:275   */\n      add\n        /* \"#utility.yul\":246:275   */\n      swap1\n      pop\n        /* \"#utility.yul\":112:281   */\n      swap3\n      swap2\n      pop\n      pop\n      jump\t// out\n        /* \"#utility.yul\":287:594   */\n    tag_84:\n        /* \"#utility.yul\":355:356   */\n      0x00\n        /* \"#utility.yul\":365:478   */\n    tag_112:\n        /* \"#utility.yul\":379:385   */\n      dup4\n        /* \"#utility.yul\":376:377   */\n      dup2\n        /* \"#utility.yul\":373:386   */\n      lt\n        /* \"#utility.yul\":365:478   */\n      iszero\n      tag_114\n      jumpi\n        /* \"#utility.yul\":464:465   */\n      dup1\n        /* \"#utility.yul\":459:462   */\n      dup3\n        /* \"#utility.yul\":455:466   */\n      add\n        /* \"#utility.yul\":449:467   */\n      mload\n        /* \"#utility.yul\":445:446   */\n      dup2\n        /* \"#utility.yul\":440:443   */\n      dup5\n        /* \"#utility.yul\":436:447   */\n      add\n        /* \"#utility.yul\":429:468   */\n      mstore\n        /* \"#utility.yul\":401:403   */\n      0x20\n        /* \"#utility.yul\":398:399   */\n      dup2\n        /* \"#utility.yul\":394:404   */\n      add\n        /* \"#utility.yul\":389:404   */\n      swap1\n      pop\n        /* \"#utility.yul\":365:478   */\n      jump(tag_112)\n    tag_114:\n        /* \"#utility.yul\":496:502   */\n      dup4\n        /* \"#utility.yul\":493:494   */\n      dup2\n        /* \"#utility.yul\":490:503   */\n      gt\n        /* \"#utility.yul\":487:588   */\n      iszero\n      tag_115\n      jumpi\n        /* \"#utility.yul\":576:577   */\n      0x00\n        /* \"#utility.yul\":567:573   */\n      dup5\n        /* \"#utility.yul\":562:565   */\n      dup5\n        /* \"#utility.yul\":558:574   */\n      add\n        /* \"#utility.yul\":551:578   */\n      mstore\n        /* \"#utility.yul\":487:588   */\n    tag_115:\n        /* \"#utility.yul\":336:594   */\n      pop\n        /* \"#utility.yul\":287:594   */\n      pop\n      pop\n      pop\n      jump\t// out\n        /* \"#utility.yul\":600:702   */\n    tag_85:\n        /* \"#utility.yul\":641:647   */\n      0x00\n        /* \"#utility.yul\":692:694   */\n      0x1f\n        /* \"#utility.yul\":688:695   */\n      not\n        /* \"#utility.yul\":683:685   */\n      0x1f\n        /* \"#utility.yul\":676:681   */\n      dup4\n        /* \"#utility.yul\":672:686   */\n      add\n        /* \"#utility.yul\":668:696   */\n      and\n        /* \"#utility.yul\":658:696   */\n      swap1\n      pop\n        /* \"#utility.yul\":600:702   */\n      swap2\n      swap1\n      pop\n      jump\t// out\n        /* \"#utility.yul\":708:1072   */\n    tag_86:\n        /* \"#utility.yul\":796:799   */\n      0x00\n        /* \"#utility.yul\":824:863   */\n      tag_118\n        /* \"#utility.yul\":857:862   */\n      dup3\n        /* \"#utility.yul\":824:863   */\n      tag_82\n      jump\t// in\n    tag_118:\n        /* \"#utility.yul\":879:950   */\n      tag_119\n        /* \"#utility.yul\":943:949   */\n      dup2\n        /* \"#utility.yul\":938:941   */\n      dup6\n        /* \"#utility.yul\":879:950   */\n      tag_83\n      jump\t// in\n    tag_119:\n        /* \"#utility.yul\":872:950   */\n      swap4\n      pop\n        /* \"#utility.yul\":959:1011   */\n      tag_120\n        /* \"#utility.yul\":1004:1010   */\n      dup2\n        /* \"#utility.yul\":999:1002   */\n      dup6\n        /* \"#utility.yul\":992:996   */\n      0x20\n        /* \"#utility.yul\":985:990   */\n      dup7\n        /* \"#utility.yul\":981:997   */\n      add\n        /* \"#utility.yul\":959:1011   */\n      tag_84\n      jump\t// in\n    tag_120:\n        /* \"#utility.yul\":1036:1065   */\n      tag_121\n        /* \"#utility.yul\":1058:1064   */\n      dup2\n        /* \"#utility.yul\":1036:1065   */\n      tag_85\n      jump\t// in\n    tag_121:\n        /* \"#utility.yul\":1031:1034   */\n      dup5\n        /* \"#utility.yul\":1027:1066   */\n      add\n        /* \"#utility.yul\":1020:1066   */\n      swap2\n      pop\n        /* \"#utility.yul\":800:1072   */\n      pop\n        /* \"#utility.yul\":708:1072   */\n      swap3\n      swap2\n      pop\n      pop\n      jump\t// out\n        /* \"#utility.yul\":1078:1391   */\n    tag_12:\n        /* \"#utility.yul\":1191:1195   */\n      0x00\n        /* \"#utility.yul\":1229:1231   */\n      0x20\n        /* \"#utility.yul\":1218:1227   */\n      dup3\n        /* \"#utility.yul\":1214:1232   */\n      add\n        /* \"#utility.yul\":1206:1232   */\n      swap1\n      pop\n        /* \"#utility.yul\":1278:1287   */\n      dup2\n        /* \"#utility.yul\":1272:1276   */\n      dup2\n        /* \"#utility.yul\":1268:1288   */\n      sub\n        /* \"#utility.yul\":1264:1265   */\n      0x00\n        /* \"#utility.yul\":1253:1262   */\n      dup4\n        /* \"#utility.yul\":1249:1266   */\n      add\n        /* \"#utility.yul\":1242:1289   */\n      mstore\n        /* \"#utility.yul\":1306:1384   */\n      tag_123\n        /* \"#utility.yul\":1379:1383   */\n      dup2\n        /* \"#utility.yul\":1370:1376   */\n      dup5\n        /* \"#utility.yul\":1306:1384   */\n      tag_86\n      jump\t// in\n    tag_123:\n        /* \"#utility.yul\":1298:1384   */\n      swap1\n      pop\n        /* \"#utility.yul\":1078:1391   */\n      swap3\n      swap2\n      pop\n      pop\n      jump\t// out\n        /* \"#utility.yul\":1397:1472   */\n    tag_87:\n        /* \"#utility.yul\":1430:1436   */\n      0x00\n        /* \"#utility.yul\":1463:1465   */\n      0x40\n        /* \"#utility.yul\":1457:1466   */\n      mload\n        /* \"#utility.yul\":1447:1466   */\n      swap1\n      pop\n        /* \"#utility.yul\":1397:1472   */\n      swap1\n      jump\t// out\n        /* \"#utility.yul\":1478:1595   */\n    tag_88:\n        /* \"#utility.yul\":1587:1588   */\n      0x00\n        /* \"#utility.yul\":1584:1585   */\n      dup1\n        /* \"#utility.yul\":1577:1589   */\n      revert\n        /* \"#utility.yul\":1601:1718   */\n    tag_89:\n        /* \"#utility.yul\":1710:1711   */\n      0x00\n        /* \"#utility.yul\":1707:1708   */\n      dup1\n        /* \"#utility.yul\":1700:1712   */\n      revert\n        /* \"#utility.yul\":1724:1841   */\n    tag_90:\n        /* \"#utility.yul\":1833:1834   */\n      0x00\n        /* \"#utility.yul\":1830:1831   */\n      dup1\n        /* \"#utility.yul\":1823:1835   */\n      revert\n        /* \"#utility.yul\":1847:1964   */\n    tag_91:\n        /* \"#utility.yul\":1956:1957   */\n      0x00\n        /* \"#utility.yul\":1953:1954   */\n      dup1\n        /* \"#utility.yul\":1946:1958   */\n      revert\n        /* \"#utility.yul\":1970:2150   */\n    tag_92:\n        /* \"#utility.yul\":2018:2095   */\n      0x4e487b7100000000000000000000000000000000000000000000000000000000\n        /* \"#utility.yul\":2015:2016   */\n      0x00\n        /* \"#utility.yul\":2008:2096   */\n      mstore\n        /* \"#utility.yul\":2115:2119   */\n      0x41\n        /* \"#utility.yul\":2112:2113   */\n      0x04\n        /* \"#utility.yul\":2105:2120   */\n      mstore\n        /* \"#utility.yul\":2139:2143   */\n      0x24\n        /* \"#utility.yul\":2136:2137   */\n      0x00\n        /* \"#utility.yul\":2129:2144   */\n      revert\n        /* \"#utility.yul\":2156:2437   */\n    tag_93:\n        /* \"#utility.yul\":2239:2266   */\n      tag_131\n        /* \"#utility.yul\":2261:2265   */\n      dup3\n        /* \"#utility.yul\":2239:2266   */\n      tag_85\n      jump\t// in\n    tag_131:\n        /* \"#utility.yul\":2231:2237   */\n      dup2\n        /* \"#utility.yul\":2227:2267   */\n      add\n        /* \"#utility.yul\":2369:2375   */\n      dup2\n        /* \"#utility.yul\":2357:2367   */\n      dup2\n        /* \"#utility.yul\":2354:2376   */\n      lt\n        /* \"#utility.yul\":2333:2351   */\n      0xffffffffffffffff\n        /* \"#utility.yul\":2321:2331   */\n      dup3\n        /* \"#utility.yul\":2318:2352   */\n      gt\n        /* \"#utility.yul\":2315:2377   */\n      or\n        /* \"#utility.yul\":2312:2400   */\n      iszero\n      tag_132\n      jumpi\n        /* \"#utility.yul\":2380:2398   */\n      tag_133\n      tag_92\n      jump\t// in\n    tag_133:\n        /* \"#utility.yul\":2312:2400   */\n    tag_132:\n        /* \"#utility.yul\":2420:2430   */\n      dup1\n        /* \"#utility.yul\":2416:2418   */\n      0x40\n        /* \"#utility.yul\":2409:2431   */\n      mstore\n        /* \"#utility.yul\":2199:2437   */\n      pop\n        /* \"#utility.yul\":2156:2437   */\n      pop\n      pop\n      jump\t// out\n        /* \"#utility.yul\":2443:2572   */\n    tag_94:\n        /* \"#utility.yul\":2477:2483   */\n      0x00\n        /* \"#utility.yul\":2504:2524   */\n      tag_135\n      tag_87\n      jump\t// in\n    tag_135:\n        /* \"#utility.yul\":2494:2524   */\n      swap1\n      pop\n        /* \"#utility.yul\":2533:2566   */\n      tag_136\n        /* \"#utility.yul\":2561:2565   */\n      dup3\n        /* \"#utility.yul\":2553:2559   */\n      dup3\n        /* \"#utility.yul\":2533:2566   */\n      tag_93\n      jump\t// in\n    tag_136:\n        /* \"#utility.yul\":2443:2572   */\n      swap2\n      swap1\n      pop\n      jump\t// out\n        /* \"#utility.yul\":2578:2886   */\n    tag_95:\n        /* \"#utility.yul\":2640:2644   */\n      0x00\n        /* \"#utility.yul\":2730:2748   */\n      0xffffffffffffffff\n        /* \"#utility.yul\":2722:2728   */\n      dup3\n        /* \"#utility.yul\":2719:2749   */\n      gt\n        /* \"#utility.yul\":2716:2772   */\n      iszero\n      tag_138\n      jumpi\n        /* \"#utility.yul\":2752:2770   */\n      tag_139\n      tag_92\n      jump\t// in\n    tag_139:\n        /* \"#utility.yul\":2716:2772   */\n    tag_138:\n        /* \"#utility.yul\":2790:2819   */\n      tag_140\n        /* \"#utility.yul\":2812:2818   */\n      dup3\n        /* \"#utility.yul\":2790:2819   */\n      tag_85\n      jump\t// in\n    tag_140:\n        /* \"#utility.yul\":2782:2819   */\n      swap1\n      pop\n        /* \"#utility.yul\":2874:2878   */\n      0x20\n        /* \"#utility.yul\":2868:2872   */\n      dup2\n        /* \"#utility.yul\":2864:2879   */\n      add\n        /* \"#utility.yul\":2856:2879   */\n      swap1\n      pop\n        /* \"#utility.yul\":2578:2886   */\n      swap2\n      swap1\n      pop\n      jump\t// out\n        /* \"#utility.yul\":2892:3046   */\n    tag_96:\n        /* \"#utility.yul\":2976:2982   */\n      dup3\n        /* \"#utility.yul\":2971:2974   */\n      dup2\n        /* \"#utility.yul\":2966:2969   */\n      dup4\n        /* \"#utility.yul\":2953:2983   */\n      calldatacopy\n        /* \"#utility.yul\":3038:3039   */\n      0x00\n        /* \"#utility.yul\":3029:3035   */\n      dup4\n        /* \"#utility.yul\":3024:3027   */\n      dup4\n        /* \"#utility.yul\":3020:3036   */\n      add\n        /* \"#utility.yul\":3013:3040   */\n      mstore\n        /* \"#utility.yul\":2892:3046   */\n      pop\n      pop\n      pop\n      jump\t// out\n        /* \"#utility.yul\":3052:3464   */\n    tag_97:\n        /* \"#utility.yul\":3130:3135   */\n      0x00\n        /* \"#utility.yul\":3155:3221   */\n      tag_143\n        /* \"#utility.yul\":3171:3220   */\n      tag_144\n        /* \"#utility.yul\":3213:3219   */\n      dup5\n        /* \"#utility.yul\":3171:3220   */\n      tag_95\n      jump\t// in\n    tag_144:\n        /* \"#utility.yul\":3155:3221   */\n      tag_94\n      jump\t// in\n    tag_143:\n        /* \"#utility.yul\":3146:3221   */\n      swap1\n      pop\n        /* \"#utility.yul\":3244:3250   */\n      dup3\n        /* \"#utility.yul\":3237:3242   */\n      dup2\n        /* \"#utility.yul\":3230:3251   */\n      mstore\n        /* \"#utility.yul\":3282:3286   */\n      0x20\n        /* \"#utility.yul\":3275:3280   */\n      dup2\n        /* \"#utility.yul\":3271:3287   */\n      add\n        /* \"#utility.yul\":3320:3323   */\n      dup5\n        /* \"#utility.yul\":3311:3317   */\n      dup5\n        /* \"#utility.yul\":3306:3309   */\n      dup5\n        /* \"#utility.yul\":3302:3318   */\n      add\n        /* \"#utility.yul\":3299:3324   */\n      gt\n        /* \"#utility.yul\":3296:3408   */\n      iszero\n      tag_145\n      jumpi\n        /* \"#utility.yul\":3327:3406   */\n      tag_146\n      tag_91\n      jump\t// in\n    tag_146:\n        /* \"#utility.yul\":3296:3408   */\n    tag_145:\n        /* \"#utility.yul\":3417:3458   */\n      tag_147\n        /* \"#utility.yul\":3451:3457   */\n      dup5\n        /* \"#utility.yul\":3446:3449   */\n      dup3\n        /* \"#utility.yul\":3441:3444   */\n      dup6\n        /* \"#utility.yul\":3417:3458   */\n      tag_96\n      jump\t// in\n    tag_147:\n        /* \"#utility.yul\":3136:3464   */\n      pop\n        /* \"#utility.yul\":3052:3464   */\n      swap4\n      swap3\n      pop\n      pop\n      pop\n      jump\t// out\n        /* \"#utility.yul\":3484:3824   */\n    tag_98:\n        /* \"#utility.yul\":3540:3545   */\n      0x00\n        /* \"#utility.yul\":3589:3592   */\n      dup3\n        /* \"#utility.yul\":3582:3586   */\n      0x1f\n        /* \"#utility.yul\":3574:3580   */\n      dup4\n        /* \"#utility.yul\":3570:3587   */\n      add\n        /* \"#utility.yul\":3566:3593   */\n      slt\n        /* \"#utility.yul\":3556:3678   */\n      tag_149\n      jumpi\n        /* \"#utility.yul\":3597:3676   */\n      tag_150\n      tag_90\n      jump\t// in\n    tag_150:\n        /* \"#utility.yul\":3556:3678   */\n    tag_149:\n        /* \"#utility.yul\":3714:3720   */\n      dup2\n        /* \"#utility.yul\":3701:3721   */\n      calldataload\n        /* \"#utility.yul\":3739:3818   */\n      tag_151\n        /* \"#utility.yul\":3814:3817   */\n      dup5\n        /* \"#utility.yul\":3806:3812   */\n      dup3\n        /* \"#utility.yul\":3799:3803   */\n      0x20\n        /* \"#utility.yul\":3791:3797   */\n      dup7\n        /* \"#utility.yul\":3787:3804   */\n      add\n        /* \"#utility.yul\":3739:3818   */\n      tag_97\n      jump\t// in\n    tag_151:\n        /* \"#utility.yul\":3730:3818   */\n      swap2\n      pop\n        /* \"#utility.yul\":3546:3824   */\n      pop\n        /* \"#utility.yul\":3484:3824   */\n      swap3\n      swap2\n      pop\n      pop\n      jump\t// out\n        /* \"#utility.yul\":3830:4664   */\n    tag_15:\n        /* \"#utility.yul\":3918:3924   */\n      0x00\n        /* \"#utility.yul\":3926:3932   */\n      dup1\n        /* \"#utility.yul\":3975:3977   */\n      0x40\n        /* \"#utility.yul\":3963:3972   */\n      dup4\n        /* \"#utility.yul\":3954:3961   */\n      dup6\n        /* \"#utility.yul\":3950:3973   */\n      sub\n        /* \"#utility.yul\":3946:3978   */\n      slt\n        /* \"#utility.yul\":3943:4062   */\n      iszero\n      tag_153\n      jumpi\n        /* \"#utility.yul\":3981:4060   */\n      tag_154\n      tag_88\n      jump\t// in\n    tag_154:\n        /* \"#utility.yul\":3943:4062   */\n    tag_153:\n        /* \"#utility.yul\":4129:4130   */\n      0x00\n        /* \"#utility.yul\":4118:4127   */\n      dup4\n        /* \"#utility.yul\":4114:4131   */\n      add\n        /* \"#utility.yul\":4101:4132   */\n      calldataload\n        /* \"#utility.yul\":4159:4177   */\n      0xffffffffffffffff\n        /* \"#utility.yul\":4151:4157   */\n      dup2\n        /* \"#utility.yul\":4148:4178   */\n      gt\n        /* \"#utility.yul\":4145:4262   */\n      iszero\n      tag_155\n      jumpi\n        /* \"#utility.yul\":4181:4260   */\n      tag_156\n      tag_89\n      jump\t// in\n    tag_156:\n        /* \"#utility.yul\":4145:4262   */\n    tag_155:\n        /* \"#utility.yul\":4286:4349   */\n      tag_157\n        /* \"#utility.yul\":4341:4348   */\n      dup6\n        /* \"#utility.yul\":4332:4338   */\n      dup3\n        /* \"#utility.yul\":4321:4330   */\n      dup7\n        /* \"#utility.yul\":4317:4339   */\n      add\n        /* \"#utility.yul\":4286:4349   */\n      tag_98\n      jump\t// in\n    tag_157:\n        /* \"#utility.yul\":4276:4349   */\n      swap3\n      pop\n        /* \"#utility.yul\":4072:4359   */\n      pop\n        /* \"#utility.yul\":4426:4428   */\n      0x20\n        /* \"#utility.yul\":4415:4424   */\n      dup4\n        /* \"#utility.yul\":4411:4429   */\n      add\n        /* \"#utility.yul\":4398:4430   */\n      calldataload\n        /* \"#utility.yul\":4457:4475   */\n      0xffffffffffffffff\n        /* \"#utility.yul\":4449:4455   */\n      dup2\n        /* \"#utility.yul\":4446:4476   */\n      gt\n        /* \"#utility.yul\":4443:4560   */\n      iszero\n      tag_158\n      jumpi\n        /* \"#utility.yul\":4479:4558   */\n      tag_159\n      tag_89\n      jump\t// in\n    tag_159:\n        /* \"#utility.yul\":4443:4560   */\n    tag_158:\n        /* \"#utility.yul\":4584:4647   */\n      tag_160\n        /* \"#utility.yul\":4639:4646   */\n      dup6\n        /* \"#utility.yul\":4630:4636   */\n      dup3\n        /* \"#utility.yul\":4619:4628   */\n      dup7\n        /* \"#utility.yul\":4615:4637   */\n      add\n        /* \"#utility.yul\":4584:4647   */\n      tag_98\n      jump\t// in\n    tag_160:\n        /* \"#utility.yul\":4574:4647   */\n      swap2\n      pop\n        /* \"#utility.yul\":4369:4657   */\n      pop\n        /* \"#utility.yul\":3830:4664   */\n      swap3\n      pop\n      swap3\n      swap1\n      pop\n      jump\t// out\n        /* \"#utility.yul\":4670:5179   */\n    tag_20:\n        /* \"#utility.yul\":4739:4745   */\n      0x00\n        /* \"#utility.yul\":4788:4790   */\n      0x20\n        /* \"#utility.yul\":4776:4785   */\n      dup3\n        /* \"#utility.yul\":4767:4774   */\n      dup5\n        /* \"#utility.yul\":4763:4786   */\n      sub\n        /* \"#utility.yul\":4759:4791   */\n      slt\n        /* \"#utility.yul\":4756:4875   */\n      iszero\n      tag_162\n      jumpi\n        /* \"#utility.yul\":4794:4873   */\n      tag_163\n      tag_88\n      jump\t// in\n    tag_163:\n        /* \"#utility.yul\":4756:4875   */\n    tag_162:\n        /* \"#utility.yul\":4942:4943   */\n      0x00\n        /* \"#utility.yul\":4931:4940   */\n      dup3\n        /* \"#utility.yul\":4927:4944   */\n      add\n        /* \"#utility.yul\":4914:4945   */\n      calldataload\n        /* \"#utility.yul\":4972:4990   */\n      0xffffffffffffffff\n        /* \"#utility.yul\":4964:4970   */\n      dup2\n        /* \"#utility.yul\":4961:4991   */\n      gt\n        /* \"#utility.yul\":4958:5075   */\n      iszero\n      tag_164\n      jumpi\n        /* \"#utility.yul\":4994:5073   */\n      tag_165\n      tag_89\n      jump\t// in\n    tag_165:\n        /* \"#utility.yul\":4958:5075   */\n    tag_164:\n        /* \"#utility.yul\":5099:5162   */\n      tag_166\n        /* \"#utility.yul\":5154:5161   */\n      dup5\n        /* \"#utility.yul\":5145:5151   */\n      dup3\n        /* \"#utility.yul\":5134:5143   */\n      dup6\n        /* \"#utility.yul\":5130:5152   */\n      add\n        /* \"#utility.yul\":5099:5162   */\n      tag_98\n      jump\t// in\n    tag_166:\n        /* \"#utility.yul\":5089:5162   */\n      swap2\n      pop\n        /* \"#utility.yul\":4885:5172   */\n      pop\n        /* \"#utility.yul\":4670:5179   */\n      swap3\n      swap2\n      pop\n      pop\n      jump\t// out\n        /* \"#utility.yul\":5185:5365   */\n    tag_99:\n        /* \"#utility.yul\":5233:5310   */\n      0x4e487b7100000000000000000000000000000000000000000000000000000000\n        /* \"#utility.yul\":5230:5231   */\n      0x00\n        /* \"#utility.yul\":5223:5311   */\n      mstore\n        /* \"#utility.yul\":5330:5334   */\n      0x22\n        /* \"#utility.yul\":5327:5328   */\n      0x04\n        /* \"#utility.yul\":5320:5335   */\n      mstore\n        /* \"#utility.yul\":5354:5358   */\n      0x24\n        /* \"#utility.yul\":5351:5352   */\n      0x00\n        /* \"#utility.yul\":5344:5359   */\n      revert\n        /* \"#utility.yul\":5371:5691   */\n    tag_33:\n        /* \"#utility.yul\":5415:5421   */\n      0x00\n        /* \"#utility.yul\":5452:5453   */\n      0x02\n        /* \"#utility.yul\":5446:5450   */\n      dup3\n        /* \"#utility.yul\":5442:5454   */\n      div\n        /* \"#utility.yul\":5432:5454   */\n      swap1\n      pop\n        /* \"#utility.yul\":5499:5500   */\n      0x01\n        /* \"#utility.yul\":5493:5497   */\n      dup3\n        /* \"#utility.yul\":5489:5501   */\n      and\n        /* \"#utility.yul\":5520:5538   */\n      dup1\n        /* \"#utility.yul\":5510:5591   */\n      tag_169\n      jumpi\n        /* \"#utility.yul\":5576:5580   */\n      0x7f\n        /* \"#utility.yul\":5568:5574   */\n      dup3\n        /* \"#utility.yul\":5564:5581   */\n      and\n        /* \"#utility.yul\":5554:5581   */\n      swap2\n      pop\n        /* \"#utility.yul\":5510:5591   */\n    tag_169:\n        /* \"#utility.yul\":5638:5640   */\n      0x20\n        /* \"#utility.yul\":5630:5636   */\n      dup3\n        /* \"#utility.yul\":5627:5641   */\n      lt\n        /* \"#utility.yul\":5607:5625   */\n      dup2\n        /* \"#utility.yul\":5604:5642   */\n      sub\n        /* \"#utility.yul\":5601:5685   */\n      tag_170\n      jumpi\n        /* \"#utility.yul\":5657:5675   */\n      tag_171\n      tag_99\n      jump\t// in\n    tag_171:\n        /* \"#utility.yul\":5601:5685   */\n    tag_170:\n        /* \"#utility.yul\":5422:5691   */\n      pop\n        /* \"#utility.yul\":5371:5691   */\n      swap2\n      swap1\n      pop\n      jump\t// out\n        /* \"#utility.yul\":5697:5917   */\n    tag_100:\n        /* \"#utility.yul\":5837:5871   */\n      0x4f6e6c79204f776e65722063616e2063616c6c20746869732066756e6374696f\n        /* \"#utility.yul\":5833:5834   */\n      0x00\n        /* \"#utility.yul\":5825:5831   */\n      dup3\n        /* \"#utility.yul\":5821:5835   */\n      add\n        /* \"#utility.yul\":5814:5872   */\n      mstore\n        /* \"#utility.yul\":5906:5909   */\n      0x6e00000000000000000000000000000000000000000000000000000000000000\n        /* \"#utility.yul\":5901:5903   */\n      0x20\n        /* \"#utility.yul\":5893:5899   */\n      dup3\n        /* \"#utility.yul\":5889:5904   */\n      add\n        /* \"#utility.yul\":5882:5910   */\n      mstore\n        /* \"#utility.yul\":5697:5917   */\n      pop\n      jump\t// out\n        /* \"#utility.yul\":5923:6289   */\n    tag_101:\n        /* \"#utility.yul\":6065:6068   */\n      0x00\n        /* \"#utility.yul\":6086:6153   */\n      tag_174\n        /* \"#utility.yul\":6150:6152   */\n      0x21\n        /* \"#utility.yul\":6145:6148   */\n      dup4\n        /* \"#utility.yul\":6086:6153   */\n      tag_83\n      jump\t// in\n    tag_174:\n        /* \"#utility.yul\":6079:6153   */\n      swap2\n      pop\n        /* \"#utility.yul\":6162:6255   */\n      tag_175\n        /* \"#utility.yul\":6251:6254   */\n      dup3\n        /* \"#utility.yul\":6162:6255   */\n      tag_100\n      jump\t// in\n    tag_175:\n        /* \"#utility.yul\":6280:6282   */\n      0x40\n        /* \"#utility.yul\":6275:6278   */\n      dup3\n        /* \"#utility.yul\":6271:6283   */\n      add\n        /* \"#utility.yul\":6264:6283   */\n      swap1\n      pop\n        /* \"#utility.yul\":5923:6289   */\n      swap2\n      swap1\n      pop\n      jump\t// out\n        /* \"#utility.yul\":6295:6714   */\n    tag_41:\n        /* \"#utility.yul\":6461:6465   */\n      0x00\n        /* \"#utility.yul\":6499:6501   */\n      0x20\n        /* \"#utility.yul\":6488:6497   */\n      dup3\n        /* \"#utility.yul\":6484:6502   */\n      add\n        /* \"#utility.yul\":6476:6502   */\n      swap1\n      pop\n        /* \"#utility.yul\":6548:6557   */\n      dup2\n        /* \"#utility.yul\":6542:6546   */\n      dup2\n        /* \"#utility.yul\":6538:6558   */\n      sub\n        /* \"#utility.yul\":6534:6535   */\n      0x00\n        /* \"#utility.yul\":6523:6532   */\n      dup4\n        /* \"#utility.yul\":6519:6536   */\n      add\n        /* \"#utility.yul\":6512:6559   */\n      mstore\n        /* \"#utility.yul\":6576:6707   */\n      tag_177\n        /* \"#utility.yul\":6702:6706   */\n      dup2\n        /* \"#utility.yul\":6576:6707   */\n      tag_101\n      jump\t// in\n    tag_177:\n        /* \"#utility.yul\":6568:6707   */\n      swap1\n      pop\n        /* \"#utility.yul\":6295:6714   */\n      swap2\n      swap1\n      pop\n      jump\t// out\n        /* \"#utility.yul\":6720:6868   */\n    tag_102:\n        /* \"#utility.yul\":6822:6833   */\n      0x00\n        /* \"#utility.yul\":6859:6862   */\n      dup2\n        /* \"#utility.yul\":6844:6862   */\n      swap1\n      pop\n        /* \"#utility.yul\":6720:6868   */\n      swap3\n      swap2\n      pop\n      pop\n      jump\t// out\n        /* \"#utility.yul\":6874:7015   */\n    tag_103:\n        /* \"#utility.yul\":6923:6927   */\n      0x00\n        /* \"#utility.yul\":6946:6949   */\n      dup2\n        /* \"#utility.yul\":6938:6949   */\n      swap1\n      pop\n        /* \"#utility.yul\":6969:6972   */\n      dup2\n        /* \"#utility.yul\":6966:6967   */\n      0x00\n        /* \"#utility.yul\":6959:6973   */\n      mstore\n        /* \"#utility.yul\":7003:7007   */\n      0x20\n        /* \"#utility.yul\":7000:7001   */\n      0x00\n        /* \"#utility.yul\":6990:7008   */\n      keccak256\n        /* \"#utility.yul\":6982:7008   */\n      swap1\n      pop\n        /* \"#utility.yul\":6874:7015   */\n      swap2\n      swap1\n      pop\n      jump\t// out\n        /* \"#utility.yul\":7045:7890   */\n    tag_104:\n        /* \"#utility.yul\":7148:7151   */\n      0x00\n        /* \"#utility.yul\":7185:7190   */\n      dup2\n        /* \"#utility.yul\":7179:7191   */\n      sload\n        /* \"#utility.yul\":7214:7250   */\n      tag_181\n        /* \"#utility.yul\":7240:7249   */\n      dup2\n        /* \"#utility.yul\":7214:7250   */\n      tag_33\n      jump\t// in\n    tag_181:\n        /* \"#utility.yul\":7266:7355   */\n      tag_182\n        /* \"#utility.yul\":7348:7354   */\n      dup2\n        /* \"#utility.yul\":7343:7346   */\n      dup7\n        /* \"#utility.yul\":7266:7355   */\n      tag_102\n      jump\t// in\n    tag_182:\n        /* \"#utility.yul\":7259:7355   */\n      swap5\n      pop\n        /* \"#utility.yul\":7386:7387   */\n      0x01\n        /* \"#utility.yul\":7375:7384   */\n      dup3\n        /* \"#utility.yul\":7371:7388   */\n      and\n        /* \"#utility.yul\":7402:7403   */\n      0x00\n        /* \"#utility.yul\":7397:7534   */\n      dup2\n      eq\n      tag_184\n      jumpi\n        /* \"#utility.yul\":7548:7549   */\n      0x01\n        /* \"#utility.yul\":7543:7884   */\n      dup2\n      eq\n      tag_185\n      jumpi\n        /* \"#utility.yul\":7364:7884   */\n      jump(tag_183)\n        /* \"#utility.yul\":7397:7534   */\n    tag_184:\n        /* \"#utility.yul\":7481:7485   */\n      0xff\n        /* \"#utility.yul\":7477:7486   */\n      not\n        /* \"#utility.yul\":7466:7475   */\n      dup4\n        /* \"#utility.yul\":7462:7487   */\n      and\n        /* \"#utility.yul\":7457:7460   */\n      dup7\n        /* \"#utility.yul\":7450:7488   */\n      mstore\n        /* \"#utility.yul\":7517:7523   */\n      dup2\n        /* \"#utility.yul\":7512:7515   */\n      dup7\n        /* \"#utility.yul\":7508:7524   */\n      add\n        /* \"#utility.yul\":7501:7524   */\n      swap4\n      pop\n        /* \"#utility.yul\":7397:7534   */\n      jump(tag_183)\n        /* \"#utility.yul\":7543:7884   */\n    tag_185:\n        /* \"#utility.yul\":7610:7648   */\n      tag_186\n        /* \"#utility.yul\":7642:7647   */\n      dup6\n        /* \"#utility.yul\":7610:7648   */\n      tag_103\n      jump\t// in\n    tag_186:\n        /* \"#utility.yul\":7670:7671   */\n      0x00\n        /* \"#utility.yul\":7684:7838   */\n    tag_187:\n        /* \"#utility.yul\":7698:7704   */\n      dup4\n        /* \"#utility.yul\":7695:7696   */\n      dup2\n        /* \"#utility.yul\":7692:7705   */\n      lt\n        /* \"#utility.yul\":7684:7838   */\n      iszero\n      tag_189\n      jumpi\n        /* \"#utility.yul\":7772:7779   */\n      dup2\n        /* \"#utility.yul\":7766:7780   */\n      sload\n        /* \"#utility.yul\":7762:7763   */\n      dup2\n        /* \"#utility.yul\":7757:7760   */\n      dup10\n        /* \"#utility.yul\":7753:7764   */\n      add\n        /* \"#utility.yul\":7746:7781   */\n      mstore\n        /* \"#utility.yul\":7822:7823   */\n      0x01\n        /* \"#utility.yul\":7813:7820   */\n      dup3\n        /* \"#utility.yul\":7809:7824   */\n      add\n        /* \"#utility.yul\":7798:7824   */\n      swap2\n      pop\n        /* \"#utility.yul\":7720:7724   */\n      0x20\n        /* \"#utility.yul\":7717:7718   */\n      dup2\n        /* \"#utility.yul\":7713:7725   */\n      add\n        /* \"#utility.yul\":7708:7725   */\n      swap1\n      pop\n        /* \"#utility.yul\":7684:7838   */\n      jump(tag_187)\n    tag_189:\n        /* \"#utility.yul\":7867:7873   */\n      dup4\n        /* \"#utility.yul\":7862:7865   */\n      dup9\n        /* \"#utility.yul\":7858:7874   */\n      add\n        /* \"#utility.yul\":7851:7874   */\n      swap6\n      pop\n        /* \"#utility.yul\":7550:7884   */\n      pop\n      pop\n        /* \"#utility.yul\":7364:7884   */\n    tag_183:\n      pop\n        /* \"#utility.yul\":7152:7890   */\n      pop\n      pop\n        /* \"#utility.yul\":7045:7890   */\n      swap3\n      swap2\n      pop\n      pop\n      jump\t// out\n        /* \"#utility.yul\":7896:8047   */\n    tag_105:\n        /* \"#utility.yul\":8036:8039   */\n      0x2000000000000000000000000000000000000000000000000000000000000000\n        /* \"#utility.yul\":8032:8033   */\n      0x00\n        /* \"#utility.yul\":8024:8030   */\n      dup3\n        /* \"#utility.yul\":8020:8034   */\n      add\n        /* \"#utility.yul\":8013:8040   */\n      mstore\n        /* \"#utility.yul\":7896:8047   */\n      pop\n      jump\t// out\n        /* \"#utility.yul\":8053:8453   */\n    tag_106:\n        /* \"#utility.yul\":8213:8216   */\n      0x00\n        /* \"#utility.yul\":8234:8318   */\n      tag_192\n        /* \"#utility.yul\":8316:8317   */\n      0x01\n        /* \"#utility.yul\":8311:8314   */\n      dup4\n        /* \"#utility.yul\":8234:8318   */\n      tag_102\n      jump\t// in\n    tag_192:\n        /* \"#utility.yul\":8227:8318   */\n      swap2\n      pop\n        /* \"#utility.yul\":8327:8420   */\n      tag_193\n        /* \"#utility.yul\":8416:8419   */\n      dup3\n        /* \"#utility.yul\":8327:8420   */\n      tag_105\n      jump\t// in\n    tag_193:\n        /* \"#utility.yul\":8445:8446   */\n      0x01\n        /* \"#utility.yul\":8440:8443   */\n      dup3\n        /* \"#utility.yul\":8436:8447   */\n      add\n        /* \"#utility.yul\":8429:8447   */\n      swap1\n      pop\n        /* \"#utility.yul\":8053:8453   */\n      swap2\n      swap1\n      pop\n      jump\t// out\n        /* \"#utility.yul\":8459:9148   */\n    tag_47:\n        /* \"#utility.yul\":8734:8737   */\n      0x00\n        /* \"#utility.yul\":8756:8848   */\n      tag_195\n        /* \"#utility.yul\":8844:8847   */\n      dup3\n        /* \"#utility.yul\":8835:8841   */\n      dup6\n        /* \"#utility.yul\":8756:8848   */\n      tag_104\n      jump\t// in\n    tag_195:\n        /* \"#utility.yul\":8749:8848   */\n      swap2\n      pop\n        /* \"#utility.yul\":8865:9013   */\n      tag_196\n        /* \"#utility.yul\":9009:9012   */\n      dup3\n        /* \"#utility.yul\":8865:9013   */\n      tag_106\n      jump\t// in\n    tag_196:\n        /* \"#utility.yul\":8858:9013   */\n      swap2\n      pop\n        /* \"#utility.yul\":9030:9122   */\n      tag_197\n        /* \"#utility.yul\":9118:9121   */\n      dup3\n        /* \"#utility.yul\":9109:9115   */\n      dup5\n        /* \"#utility.yul\":9030:9122   */\n      tag_104\n      jump\t// in\n    tag_197:\n        /* \"#utility.yul\":9023:9122   */\n      swap2\n      pop\n        /* \"#utility.yul\":9139:9142   */\n      dup2\n        /* \"#utility.yul\":9132:9142   */\n      swap1\n      pop\n        /* \"#utility.yul\":8459:9148   */\n      swap4\n      swap3\n      pop\n      pop\n      pop\n      jump\t// out\n        /* \"#utility.yul\":9154:9531   */\n    tag_107:\n        /* \"#utility.yul\":9260:9263   */\n      0x00\n        /* \"#utility.yul\":9288:9327   */\n      tag_199\n        /* \"#utility.yul\":9321:9326   */\n      dup3\n        /* \"#utility.yul\":9288:9327   */\n      tag_82\n      jump\t// in\n    tag_199:\n        /* \"#utility.yul\":9343:9432   */\n      tag_200\n        /* \"#utility.yul\":9425:9431   */\n      dup2\n        /* \"#utility.yul\":9420:9423   */\n      dup6\n        /* \"#utility.yul\":9343:9432   */\n      tag_102\n      jump\t// in\n    tag_200:\n        /* \"#utility.yul\":9336:9432   */\n      swap4\n      pop\n        /* \"#utility.yul\":9441:9493   */\n      tag_201\n        /* \"#utility.yul\":9486:9492   */\n      dup2\n        /* \"#utility.yul\":9481:9484   */\n      dup6\n        /* \"#utility.yul\":9474:9478   */\n      0x20\n        /* \"#utility.yul\":9467:9472   */\n      dup7\n        /* \"#utility.yul\":9463:9479   */\n      add\n        /* \"#utility.yul\":9441:9493   */\n      tag_84\n      jump\t// in\n    tag_201:\n        /* \"#utility.yul\":9518:9524   */\n      dup1\n        /* \"#utility.yul\":9513:9516   */\n      dup5\n        /* \"#utility.yul\":9509:9525   */\n      add\n        /* \"#utility.yul\":9502:9525   */\n      swap2\n      pop\n        /* \"#utility.yul\":9264:9531   */\n      pop\n        /* \"#utility.yul\":9154:9531   */\n      swap3\n      swap2\n      pop\n      pop\n      jump\t// out\n        /* \"#utility.yul\":9537:10232   */\n    tag_71:\n        /* \"#utility.yul\":9815:9818   */\n      0x00\n        /* \"#utility.yul\":9837:9929   */\n      tag_203\n        /* \"#utility.yul\":9925:9928   */\n      dup3\n        /* \"#utility.yul\":9916:9922   */\n      dup6\n        /* \"#utility.yul\":9837:9929   */\n      tag_104\n      jump\t// in\n    tag_203:\n        /* \"#utility.yul\":9830:9929   */\n      swap2\n      pop\n        /* \"#utility.yul\":9946:10094   */\n      tag_204\n        /* \"#utility.yul\":10090:10093   */\n      dup3\n        /* \"#utility.yul\":9946:10094   */\n      tag_106\n      jump\t// in\n    tag_204:\n        /* \"#utility.yul\":9939:10094   */\n      swap2\n      pop\n        /* \"#utility.yul\":10111:10206   */\n      tag_205\n        /* \"#utility.yul\":10202:10205   */\n      dup3\n        /* \"#utility.yul\":10193:10199   */\n      dup5\n        /* \"#utility.yul\":10111:10206   */\n      tag_107\n      jump\t// in\n    tag_205:\n        /* \"#utility.yul\":10104:10206   */\n      swap2\n      pop\n        /* \"#utility.yul\":10223:10226   */\n      dup2\n        /* \"#utility.yul\":10216:10226   */\n      swap1\n      pop\n        /* \"#utility.yul\":9537:10232   */\n      swap4\n      swap3\n      pop\n      pop\n      pop\n      jump\t// out\n\n    auxdata: 0xa2646970667358221220293b9fbb5f52aa778af29484d4597b9040ac6ef88f330f3dd2fe33e67cfd419464736f6c634300080e0033\n}\n",
				"bytecode": {
					"linkReferences": {},
					"object": "60806040526040518060400160405280600b81526020017f48656c6c6f20576f726c640000000000000000000000000000000000000000008152506000908051906020019062000051929190620000f5565b506040518060400160405280600681526020017f48656e6472790000000000000000000000000000000000000000000000000000815250600190805190602001906200009f929190620000f5565b50348015620000ad57600080fd5b5033600360006101000a81548173ffffffffffffffffffffffffffffffffffffffff021916908373ffffffffffffffffffffffffffffffffffffffff16021790555062000209565b8280546200010390620001d4565b90600052602060002090601f01602090048101928262000127576000855562000173565b82601f106200014257805160ff191683800117855562000173565b8280016001018555821562000173579182015b828111156200017257825182559160200191906001019062000155565b5b50905062000182919062000186565b5090565b5b80821115620001a157600081600090555060010162000187565b5090565b7f4e487b7100000000000000000000000000000000000000000000000000000000600052602260045260246000fd5b60006002820490506001821680620001ed57607f821691505b602082108103620002035762000202620001a5565b5b50919050565b610b5480620002196000396000f3fe608060405234801561001057600080fd5b50600436106100625760003560e01c80630c49c36c1461006757806336509229146100855780633aef0218146100b557806346ef230e146100d157806377ec2b55146100ef578063c3a9b1c51461010d575b600080fd5b61006f61013d565b60405161007c9190610686565b60405180910390f35b61009f600480360381019061009a91906107f1565b6101cb565b6040516100ac9190610686565b60405180910390f35b6100cf60048036038101906100ca9190610869565b610358565b005b6100d9610402565b6040516100e69190610686565b60405180910390f35b6100f7610490565b6040516101049190610686565b60405180910390f35b61012760048036038101906101229190610869565b61051e565b6040516101349190610686565b60405180910390f35b6000805461014a906108e1565b80601f0160208091040260200160405190810160405280929190818152602001828054610176906108e1565b80156101c35780601f10610198576101008083540402835291602001916101c3565b820191906000526020600020905b8154815290600101906020018083116101a657829003601f168201915b505050505081565b6060600360009054906101000a900473ffffffffffffffffffffffffffffffffffffffff1673ffffffffffffffffffffffffffffffffffffffff163373ffffffffffffffffffffffffffffffffffffffff161461025d576040517f08c379a000000000000000000000000000000000000000000000000000000000815260040161025490610984565b60405180910390fd5b826001908051906020019061027392919061054a565b50816000908051906020019061028a92919061054a565b50600060016040516020016102a0929190610a8f565b604051602081830303815290604052600290805190602001906102c492919061054a565b50600280546102d2906108e1565b80601f01602080910402602001604051908101604052809291908181526020018280546102fe906108e1565b801561034b5780601f106103205761010080835404028352916020019161034b565b820191906000526020600020905b81548152906001019060200180831161032e57829003601f168201915b5050505050905092915050565b600360009054906101000a900473ffffffffffffffffffffffffffffffffffffffff1673ffffffffffffffffffffffffffffffffffffffff163373ffffffffffffffffffffffffffffffffffffffff16146103e8576040517f08c379a00000000000000000000000000000000000000000000000000000000081526004016103df90610984565b60405180910390fd5b80600090805190602001906103fe92919061054a565b5050565b6002805461040f906108e1565b80601f016020809104026020016040519081016040528092919081815260200182805461043b906108e1565b80156104885780601f1061045d57610100808354040283529160200191610488565b820191906000526020600020905b81548152906001019060200180831161046b57829003601f168201915b505050505081565b6001805461049d906108e1565b80601f01602080910402602001604051908101604052809291908181526020018280546104c9906108e1565b80156105165780601f106104eb57610100808354040283529160200191610516565b820191906000526020600020905b8154815290600101906020018083116104f957829003601f168201915b505050505081565b6060600082604051602001610534929190610aef565b6040516020818303038152906040529050919050565b828054610556906108e1565b90600052602060002090601f01602090048101928261057857600085556105bf565b82601f1061059157805160ff19168380011785556105bf565b828001600101855582156105bf579182015b828111156105be5782518255916020019190600101906105a3565b5b5090506105cc91906105d0565b5090565b5b808211156105e95760008160009055506001016105d1565b5090565b600081519050919050565b600082825260208201905092915050565b60005b8381101561062757808201518184015260208101905061060c565b83811115610636576000848401525b50505050565b6000601f19601f8301169050919050565b6000610658826105ed565b61066281856105f8565b9350610672818560208601610609565b61067b8161063c565b840191505092915050565b600060208201905081810360008301526106a0818461064d565b905092915050565b6000604051905090565b600080fd5b600080fd5b600080fd5b600080fd5b7f4e487b7100000000000000000000000000000000000000000000000000000000600052604160045260246000fd5b6106fe8261063c565b810181811067ffffffffffffffff8211171561071d5761071c6106c6565b5b80604052505050565b60006107306106a8565b905061073c82826106f5565b919050565b600067ffffffffffffffff82111561075c5761075b6106c6565b5b6107658261063c565b9050602081019050919050565b82818337600083830152505050565b600061079461078f84610741565b610726565b9050828152602081018484840111156107b0576107af6106c1565b5b6107bb848285610772565b509392505050565b600082601f8301126107d8576107d76106bc565b5b81356107e8848260208601610781565b91505092915050565b60008060408385031215610808576108076106b2565b5b600083013567ffffffffffffffff811115610826576108256106b7565b5b610832858286016107c3565b925050602083013567ffffffffffffffff811115610853576108526106b7565b5b61085f858286016107c3565b9150509250929050565b60006020828403121561087f5761087e6106b2565b5b600082013567ffffffffffffffff81111561089d5761089c6106b7565b5b6108a9848285016107c3565b91505092915050565b7f4e487b7100000000000000000000000000000000000000000000000000000000600052602260045260246000fd5b600060028204905060018216806108f957607f821691505b60208210810361090c5761090b6108b2565b5b50919050565b7f4f6e6c79204f776e65722063616e2063616c6c20746869732066756e6374696f60008201527f6e00000000000000000000000000000000000000000000000000000000000000602082015250565b600061096e6021836105f8565b915061097982610912565b604082019050919050565b6000602082019050818103600083015261099d81610961565b9050919050565b600081905092915050565b60008190508160005260206000209050919050565b600081546109d1816108e1565b6109db81866109a4565b945060018216600081146109f65760018114610a0757610a3a565b60ff19831686528186019350610a3a565b610a10856109af565b60005b83811015610a3257815481890152600182019150602081019050610a13565b838801955050505b50505092915050565b7f2000000000000000000000000000000000000000000000000000000000000000600082015250565b6000610a796001836109a4565b9150610a8482610a43565b600182019050919050565b6000610a9b82856109c4565b9150610aa682610a6c565b9150610ab282846109c4565b91508190509392505050565b6000610ac9826105ed565b610ad381856109a4565b9350610ae3818560208601610609565b80840191505092915050565b6000610afb82856109c4565b9150610b0682610a6c565b9150610b128284610abe565b9150819050939250505056fea2646970667358221220293b9fbb5f52aa778af29484d4597b9040ac6ef88f330f3dd2fe33e67cfd419464736f6c634300080e0033",
					"opcodes": "PUSH1 0x80 PUSH1 0x40 MSTORE PUSH1 0x40 MLOAD DUP1 PUSH1 0x40 ADD PUSH1 0x40 MSTORE DUP1 PUSH1 0xB DUP2 MSTORE PUSH1 0x20 ADD PUSH32 0x48656C6C6F20576F726C64000000000000000000000000000000000000000000 DUP2 MSTORE POP PUSH1 0x0 SWAP1 DUP1 MLOAD SWAP1 PUSH1 0x20 ADD SWAP1 PUSH3 0x51 SWAP3 SWAP2 SWAP1 PUSH3 0xF5 JUMP JUMPDEST POP PUSH1 0x40 MLOAD DUP1 PUSH1 0x40 ADD PUSH1 0x40 MSTORE DUP1 PUSH1 0x6 DUP2 MSTORE PUSH1 0x20 ADD PUSH32 0x48656E6472790000000000000000000000000000000000000000000000000000 DUP2 MSTORE POP PUSH1 0x1 SWAP1 DUP1 MLOAD SWAP1 PUSH1 0x20 ADD SWAP1 PUSH3 0x9F SWAP3 SWAP2 SWAP1 PUSH3 0xF5 JUMP JUMPDEST POP CALLVALUE DUP1 ISZERO PUSH3 0xAD JUMPI PUSH1 0x0 DUP1 REVERT JUMPDEST POP CALLER PUSH1 0x3 PUSH1 0x0 PUSH2 0x100 EXP DUP2 SLOAD DUP2 PUSH20 0xFFFFFFFFFFFFFFFFFFFFFFFFFFFFFFFFFFFFFFFF MUL NOT AND SWAP1 DUP4 PUSH20 0xFFFFFFFFFFFFFFFFFFFFFFFFFFFFFFFFFFFFFFFF AND MUL OR SWAP1 SSTORE POP PUSH3 0x209 JUMP JUMPDEST DUP3 DUP1 SLOAD PUSH3 0x103 SWAP1 PUSH3 0x1D4 JUMP JUMPDEST SWAP1 PUSH1 0x0 MSTORE PUSH1 0x20 PUSH1 0x0 KECCAK256 SWAP1 PUSH1 0x1F ADD PUSH1 0x20 SWAP1 DIV DUP2 ADD SWAP3 DUP3 PUSH3 0x127 JUMPI PUSH1 0x0 DUP6 SSTORE PUSH3 0x173 JUMP JUMPDEST DUP3 PUSH1 0x1F LT PUSH3 0x142 JUMPI DUP1 MLOAD PUSH1 0xFF NOT AND DUP4 DUP1 ADD OR DUP6 SSTORE PUSH3 0x173 JUMP JUMPDEST DUP3 DUP1 ADD PUSH1 0x1 ADD DUP6 SSTORE DUP3 ISZERO PUSH3 0x173 JUMPI SWAP2 DUP3 ADD JUMPDEST DUP3 DUP2 GT ISZERO PUSH3 0x172 JUMPI DUP3 MLOAD DUP3 SSTORE SWAP2 PUSH1 0x20 ADD SWAP2 SWAP1 PUSH1 0x1 ADD SWAP1 PUSH3 0x155 JUMP JUMPDEST JUMPDEST POP SWAP1 POP PUSH3 0x182 SWAP2 SWAP1 PUSH3 0x186 JUMP JUMPDEST POP SWAP1 JUMP JUMPDEST JUMPDEST DUP1 DUP3 GT ISZERO PUSH3 0x1A1 JUMPI PUSH1 0x0 DUP2 PUSH1 0x0 SWAP1 SSTORE POP PUSH1 0x1 ADD PUSH3 0x187 JUMP JUMPDEST POP SWAP1 JUMP JUMPDEST PUSH32 0x4E487B7100000000000000000000000000000000000000000000000000000000 PUSH1 0x0 MSTORE PUSH1 0x22 PUSH1 0x4 MSTORE PUSH1 0x24 PUSH1 0x0 REVERT JUMPDEST PUSH1 0x0 PUSH1 0x2 DUP3 DIV SWAP1 POP PUSH1 0x1 DUP3 AND DUP1 PUSH3 0x1ED JUMPI PUSH1 0x7F DUP3 AND SWAP2 POP JUMPDEST PUSH1 0x20 DUP3 LT DUP2 SUB PUSH3 0x203 JUMPI PUSH3 0x202 PUSH3 0x1A5 JUMP JUMPDEST JUMPDEST POP SWAP2 SWAP1 POP JUMP JUMPDEST PUSH2 0xB54 DUP1 PUSH3 0x219 PUSH1 0x0 CODECOPY PUSH1 0x0 RETURN INVALID PUSH1 0x80 PUSH1 0x40 MSTORE CALLVALUE DUP1 ISZERO PUSH2 0x10 JUMPI PUSH1 0x0 DUP1 REVERT JUMPDEST POP PUSH1 0x4 CALLDATASIZE LT PUSH2 0x62 JUMPI PUSH1 0x0 CALLDATALOAD PUSH1 0xE0 SHR DUP1 PUSH4 0xC49C36C EQ PUSH2 0x67 JUMPI DUP1 PUSH4 0x36509229 EQ PUSH2 0x85 JUMPI DUP1 PUSH4 0x3AEF0218 EQ PUSH2 0xB5 JUMPI DUP1 PUSH4 0x46EF230E EQ PUSH2 0xD1 JUMPI DUP1 PUSH4 0x77EC2B55 EQ PUSH2 0xEF JUMPI DUP1 PUSH4 0xC3A9B1C5 EQ PUSH2 0x10D JUMPI JUMPDEST PUSH1 0x0 DUP1 REVERT JUMPDEST PUSH2 0x6F PUSH2 0x13D JUMP JUMPDEST PUSH1 0x40 MLOAD PUSH2 0x7C SWAP2 SWAP1 PUSH2 0x686 JUMP JUMPDEST PUSH1 0x40 MLOAD DUP1 SWAP2 SUB SWAP1 RETURN JUMPDEST PUSH2 0x9F PUSH1 0x4 DUP1 CALLDATASIZE SUB DUP2 ADD SWAP1 PUSH2 0x9A SWAP2 SWAP1 PUSH2 0x7F1 JUMP JUMPDEST PUSH2 0x1CB JUMP JUMPDEST PUSH1 0x40 MLOAD PUSH2 0xAC SWAP2 SWAP1 PUSH2 0x686 JUMP JUMPDEST PUSH1 0x40 MLOAD DUP1 SWAP2 SUB SWAP1 RETURN JUMPDEST PUSH2 0xCF PUSH1 0x4 DUP1 CALLDATASIZE SUB DUP2 ADD SWAP1 PUSH2 0xCA SWAP2 SWAP1 PUSH2 0x869 JUMP JUMPDEST PUSH2 0x358 JUMP JUMPDEST STOP JUMPDEST PUSH2 0xD9 PUSH2 0x402 JUMP JUMPDEST PUSH1 0x40 MLOAD PUSH2 0xE6 SWAP2 SWAP1 PUSH2 0x686 JUMP JUMPDEST PUSH1 0x40 MLOAD DUP1 SWAP2 SUB SWAP1 RETURN JUMPDEST PUSH2 0xF7 PUSH2 0x490 JUMP JUMPDEST PUSH1 0x40 MLOAD PUSH2 0x104 SWAP2 SWAP1 PUSH2 0x686 JUMP JUMPDEST PUSH1 0x40 MLOAD DUP1 SWAP2 SUB SWAP1 RETURN JUMPDEST PUSH2 0x127 PUSH1 0x4 DUP1 CALLDATASIZE SUB DUP2 ADD SWAP1 PUSH2 0x122 SWAP2 SWAP1 PUSH2 0x869 JUMP JUMPDEST PUSH2 0x51E JUMP JUMPDEST PUSH1 0x40 MLOAD PUSH2 0x134 SWAP2 SWAP1 PUSH2 0x686 JUMP JUMPDEST PUSH1 0x40 MLOAD DUP1 SWAP2 SUB SWAP1 RETURN JUMPDEST PUSH1 0x0 DUP1 SLOAD PUSH2 0x14A SWAP1 PUSH2 0x8E1 JUMP JUMPDEST DUP1 PUSH1 0x1F ADD PUSH1 0x20 DUP1 SWAP2 DIV MUL PUSH1 0x20 ADD PUSH1 0x40 MLOAD SWAP1 DUP2 ADD PUSH1 0x40 MSTORE DUP1 SWAP3 SWAP2 SWAP1 DUP2 DUP2 MSTORE PUSH1 0x20 ADD DUP3 DUP1 SLOAD PUSH2 0x176 SWAP1 PUSH2 0x8E1 JUMP JUMPDEST DUP1 ISZERO PUSH2 0x1C3 JUMPI DUP1 PUSH1 0x1F LT PUSH2 0x198 JUMPI PUSH2 0x100 DUP1 DUP4 SLOAD DIV MUL DUP4 MSTORE SWAP2 PUSH1 0x20 ADD SWAP2 PUSH2 0x1C3 JUMP JUMPDEST DUP3 ADD SWAP2 SWAP1 PUSH1 0x0 MSTORE PUSH1 0x20 PUSH1 0x0 KECCAK256 SWAP1 JUMPDEST DUP2 SLOAD DUP2 MSTORE SWAP1 PUSH1 0x1 ADD SWAP1 PUSH1 0x20 ADD DUP1 DUP4 GT PUSH2 0x1A6 JUMPI DUP3 SWAP1 SUB PUSH1 0x1F AND DUP3 ADD SWAP2 JUMPDEST POP POP POP POP POP DUP2 JUMP JUMPDEST PUSH1 0x60 PUSH1 0x3 PUSH1 0x0 SWAP1 SLOAD SWAP1 PUSH2 0x100 EXP SWAP1 DIV PUSH20 0xFFFFFFFFFFFFFFFFFFFFFFFFFFFFFFFFFFFFFFFF AND PUSH20 0xFFFFFFFFFFFFFFFFFFFFFFFFFFFFFFFFFFFFFFFF AND CALLER PUSH20 0xFFFFFFFFFFFFFFFFFFFFFFFFFFFFFFFFFFFFFFFF AND EQ PUSH2 0x25D JUMPI PUSH1 0x40 MLOAD PUSH32 0x8C379A000000000000000000000000000000000000000000000000000000000 DUP2 MSTORE PUSH1 0x4 ADD PUSH2 0x254 SWAP1 PUSH2 0x984 JUMP JUMPDEST PUSH1 0x40 MLOAD DUP1 SWAP2 SUB SWAP1 REVERT JUMPDEST DUP3 PUSH1 0x1 SWAP1 DUP1 MLOAD SWAP1 PUSH1 0x20 ADD SWAP1 PUSH2 0x273 SWAP3 SWAP2 SWAP1 PUSH2 0x54A JUMP JUMPDEST POP DUP2 PUSH1 0x0 SWAP1 DUP1 MLOAD SWAP1 PUSH1 0x20 ADD SWAP1 PUSH2 0x28A SWAP3 SWAP2 SWAP1 PUSH2 0x54A JUMP JUMPDEST POP PUSH1 0x0 PUSH1 0x1 PUSH1 0x40 MLOAD PUSH1 0x20 ADD PUSH2 0x2A0 SWAP3 SWAP2 SWAP1 PUSH2 0xA8F JUMP JUMPDEST PUSH1 0x40 MLOAD PUSH1 0x20 DUP2 DUP4 SUB SUB DUP2 MSTORE SWAP1 PUSH1 0x40 MSTORE PUSH1 0x2 SWAP1 DUP1 MLOAD SWAP1 PUSH1 0x20 ADD SWAP1 PUSH2 0x2C4 SWAP3 SWAP2 SWAP1 PUSH2 0x54A JUMP JUMPDEST POP PUSH1 0x2 DUP1 SLOAD PUSH2 0x2D2 SWAP1 PUSH2 0x8E1 JUMP JUMPDEST DUP1 PUSH1 0x1F ADD PUSH1 0x20 DUP1 SWAP2 DIV MUL PUSH1 0x20 ADD PUSH1 0x40 MLOAD SWAP1 DUP2 ADD PUSH1 0x40 MSTORE DUP1 SWAP3 SWAP2 SWAP1 DUP2 DUP2 MSTORE PUSH1 0x20 ADD DUP3 DUP1 SLOAD PUSH2 0x2FE SWAP1 PUSH2 0x8E1 JUMP JUMPDEST DUP1 ISZERO PUSH2 0x34B JUMPI DUP1 PUSH1 0x1F LT PUSH2 0x320 JUMPI PUSH2 0x100 DUP1 DUP4 SLOAD DIV MUL DUP4 MSTORE SWAP2 PUSH1 0x20 ADD SWAP2 PUSH2 0x34B JUMP JUMPDEST DUP3 ADD SWAP2 SWAP1 PUSH1 0x0 MSTORE PUSH1 0x20 PUSH1 0x0 KECCAK256 SWAP1 JUMPDEST DUP2 SLOAD DUP2 MSTORE SWAP1 PUSH1 0x1 ADD SWAP1 PUSH1 0x20 ADD DUP1 DUP4 GT PUSH2 0x32E JUMPI DUP3 SWAP1 SUB PUSH1 0x1F AND DUP3 ADD SWAP2 JUMPDEST POP POP POP POP POP SWAP1 POP SWAP3 SWAP2 POP POP JUMP JUMPDEST PUSH1 0x3 PUSH1 0x0 SWAP1 SLOAD SWAP1 PUSH2 0x100 EXP SWAP1 DIV PUSH20 0xFFFFFFFFFFFFFFFFFFFFFFFFFFFFFFFFFFFFFFFF AND PUSH20 0xFFFFFFFFFFFFFFFFFFFFFFFFFFFFFFFFFFFFFFFF AND CALLER PUSH20 0xFFFFFFFFFFFFFFFFFFFFFFFFFFFFFFFFFFFFFFFF AND EQ PUSH2 0x3E8 JUMPI PUSH1 0x40 MLOAD PUSH32 0x8C379A000000000000000000000000000000000000000000000000000000000 DUP2 MSTORE PUSH1 0x4 ADD PUSH2 0x3DF SWAP1 PUSH2 0x984 JUMP JUMPDEST PUSH1 0x40 MLOAD DUP1 SWAP2 SUB SWAP1 REVERT JUMPDEST DUP1 PUSH1 0x0 SWAP1 DUP1 MLOAD SWAP1 PUSH1 0x20 ADD SWAP1 PUSH2 0x3FE SWAP3 SWAP2 SWAP1 PUSH2 0x54A JUMP JUMPDEST POP POP JUMP JUMPDEST PUSH1 0x2 DUP1 SLOAD PUSH2 0x40F SWAP1 PUSH2 0x8E1 JUMP JUMPDEST DUP1 PUSH1 0x1F ADD PUSH1 0x20 DUP1 SWAP2 DIV MUL PUSH1 0x20 ADD PUSH1 0x40 MLOAD SWAP1 DUP2 ADD PUSH1 0x40 MSTORE DUP1 SWAP3 SWAP2 SWAP1 DUP2 DUP2 MSTORE PUSH1 0x20 ADD DUP3 DUP1 SLOAD PUSH2 0x43B SWAP1 PUSH2 0x8E1 JUMP JUMPDEST DUP1 ISZERO PUSH2 0x488 JUMPI DUP1 PUSH1 0x1F LT PUSH2 0x45D JUMPI PUSH2 0x100 DUP1 DUP4 SLOAD DIV MUL DUP4 MSTORE SWAP2 PUSH1 0x20 ADD SWAP2 PUSH2 0x488 JUMP JUMPDEST DUP3 ADD SWAP2 SWAP1 PUSH1 0x0 MSTORE PUSH1 0x20 PUSH1 0x0 KECCAK256 SWAP1 JUMPDEST DUP2 SLOAD DUP2 MSTORE SWAP1 PUSH1 0x1 ADD SWAP1 PUSH1 0x20 ADD DUP1 DUP4 GT PUSH2 0x46B JUMPI DUP3 SWAP1 SUB PUSH1 0x1F AND DUP3 ADD SWAP2 JUMPDEST POP POP POP POP POP DUP2 JUMP JUMPDEST PUSH1 0x1 DUP1 SLOAD PUSH2 0x49D SWAP1 PUSH2 0x8E1 JUMP JUMPDEST DUP1 PUSH1 0x1F ADD PUSH1 0x20 DUP1 SWAP2 DIV MUL PUSH1 0x20 ADD PUSH1 0x40 MLOAD SWAP1 DUP2 ADD PUSH1 0x40 MSTORE DUP1 SWAP3 SWAP2 SWAP1 DUP2 DUP2 MSTORE PUSH1 0x20 ADD DUP3 DUP1 SLOAD PUSH2 0x4C9 SWAP1 PUSH2 0x8E1 JUMP JUMPDEST DUP1 ISZERO PUSH2 0x516 JUMPI DUP1 PUSH1 0x1F LT PUSH2 0x4EB JUMPI PUSH2 0x100 DUP1 DUP4 SLOAD DIV MUL DUP4 MSTORE SWAP2 PUSH1 0x20 ADD SWAP2 PUSH2 0x516 JUMP JUMPDEST DUP3 ADD SWAP2 SWAP1 PUSH1 0x0 MSTORE PUSH1 0x20 PUSH1 0x0 KECCAK256 SWAP1 JUMPDEST DUP2 SLOAD DUP2 MSTORE SWAP1 PUSH1 0x1 ADD SWAP1 PUSH1 0x20 ADD DUP1 DUP4 GT PUSH2 0x4F9 JUMPI DUP3 SWAP1 SUB PUSH1 0x1F AND DUP3 ADD SWAP2 JUMPDEST POP POP POP POP POP DUP2 JUMP JUMPDEST PUSH1 0x60 PUSH1 0x0 DUP3 PUSH1 0x40 MLOAD PUSH1 0x20 ADD PUSH2 0x534 SWAP3 SWAP2 SWAP1 PUSH2 0xAEF JUMP JUMPDEST PUSH1 0x40 MLOAD PUSH1 0x20 DUP2 DUP4 SUB SUB DUP2 MSTORE SWAP1 PUSH1 0x40 MSTORE SWAP1 POP SWAP2 SWAP1 POP JUMP JUMPDEST DUP3 DUP1 SLOAD PUSH2 0x556 SWAP1 PUSH2 0x8E1 JUMP JUMPDEST SWAP1 PUSH1 0x0 MSTORE PUSH1 0x20 PUSH1 0x0 KECCAK256 SWAP1 PUSH1 0x1F ADD PUSH1 0x20 SWAP1 DIV DUP2 ADD SWAP3 DUP3 PUSH2 0x578 JUMPI PUSH1 0x0 DUP6 SSTORE PUSH2 0x5BF JUMP JUMPDEST DUP3 PUSH1 0x1F LT PUSH2 0x591 JUMPI DUP1 MLOAD PUSH1 0xFF NOT AND DUP4 DUP1 ADD OR DUP6 SSTORE PUSH2 0x5BF JUMP JUMPDEST DUP3 DUP1 ADD PUSH1 0x1 ADD DUP6 SSTORE DUP3 ISZERO PUSH2 0x5BF JUMPI SWAP2 DUP3 ADD JUMPDEST DUP3 DUP2 GT ISZERO PUSH2 0x5BE JUMPI DUP3 MLOAD DUP3 SSTORE SWAP2 PUSH1 0x20 ADD SWAP2 SWAP1 PUSH1 0x1 ADD SWAP1 PUSH2 0x5A3 JUMP JUMPDEST JUMPDEST POP SWAP1 POP PUSH2 0x5CC SWAP2 SWAP1 PUSH2 0x5D0 JUMP JUMPDEST POP SWAP1 JUMP JUMPDEST JUMPDEST DUP1 DUP3 GT ISZERO PUSH2 0x5E9 JUMPI PUSH1 0x0 DUP2 PUSH1 0x0 SWAP1 SSTORE POP PUSH1 0x1 ADD PUSH2 0x5D1 JUMP JUMPDEST POP SWAP1 JUMP JUMPDEST PUSH1 0x0 DUP2 MLOAD SWAP1 POP SWAP2 SWAP1 POP JUMP JUMPDEST PUSH1 0x0 DUP3 DUP3 MSTORE PUSH1 0x20 DUP3 ADD SWAP1 POP SWAP3 SWAP2 POP POP JUMP JUMPDEST PUSH1 0x0 JUMPDEST DUP4 DUP2 LT ISZERO PUSH2 0x627 JUMPI DUP1 DUP3 ADD MLOAD DUP2 DUP5 ADD MSTORE PUSH1 0x20 DUP2 ADD SWAP1 POP PUSH2 0x60C JUMP JUMPDEST DUP4 DUP2 GT ISZERO PUSH2 0x636 JUMPI PUSH1 0x0 DUP5 DUP5 ADD MSTORE JUMPDEST POP POP POP POP JUMP JUMPDEST PUSH1 0x0 PUSH1 0x1F NOT PUSH1 0x1F DUP4 ADD AND SWAP1 POP SWAP2 SWAP1 POP JUMP JUMPDEST PUSH1 0x0 PUSH2 0x658 DUP3 PUSH2 0x5ED JUMP JUMPDEST PUSH2 0x662 DUP2 DUP6 PUSH2 0x5F8 JUMP JUMPDEST SWAP4 POP PUSH2 0x672 DUP2 DUP6 PUSH1 0x20 DUP7 ADD PUSH2 0x609 JUMP JUMPDEST PUSH2 0x67B DUP2 PUSH2 0x63C JUMP JUMPDEST DUP5 ADD SWAP2 POP POP SWAP3 SWAP2 POP POP JUMP JUMPDEST PUSH1 0x0 PUSH1 0x20 DUP3 ADD SWAP1 POP DUP2 DUP2 SUB PUSH1 0x0 DUP4 ADD MSTORE PUSH2 0x6A0 DUP2 DUP5 PUSH2 0x64D JUMP JUMPDEST SWAP1 POP SWAP3 SWAP2 POP POP JUMP JUMPDEST PUSH1 0x0 PUSH1 0x40 MLOAD SWAP1 POP SWAP1 JUMP JUMPDEST PUSH1 0x0 DUP1 REVERT JUMPDEST PUSH1 0x0 DUP1 REVERT JUMPDEST PUSH1 0x0 DUP1 REVERT JUMPDEST PUSH1 0x0 DUP1 REVERT JUMPDEST PUSH32 0x4E487B7100000000000000000000000000000000000000000000000000000000 PUSH1 0x0 MSTORE PUSH1 0x41 PUSH1 0x4 MSTORE PUSH1 0x24 PUSH1 0x0 REVERT JUMPDEST PUSH2 0x6FE DUP3 PUSH2 0x63C JUMP JUMPDEST DUP2 ADD DUP2 DUP2 LT PUSH8 0xFFFFFFFFFFFFFFFF DUP3 GT OR ISZERO PUSH2 0x71D JUMPI PUSH2 0x71C PUSH2 0x6C6 JUMP JUMPDEST JUMPDEST DUP1 PUSH1 0x40 MSTORE POP POP POP JUMP JUMPDEST PUSH1 0x0 PUSH2 0x730 PUSH2 0x6A8 JUMP JUMPDEST SWAP1 POP PUSH2 0x73C DUP3 DUP3 PUSH2 0x6F5 JUMP JUMPDEST SWAP2 SWAP1 POP JUMP JUMPDEST PUSH1 0x0 PUSH8 0xFFFFFFFFFFFFFFFF DUP3 GT ISZERO PUSH2 0x75C JUMPI PUSH2 0x75B PUSH2 0x6C6 JUMP JUMPDEST JUMPDEST PUSH2 0x765 DUP3 PUSH2 0x63C JUMP JUMPDEST SWAP1 POP PUSH1 0x20 DUP2 ADD SWAP1 POP SWAP2 SWAP1 POP JUMP JUMPDEST DUP3 DUP2 DUP4 CALLDATACOPY PUSH1 0x0 DUP4 DUP4 ADD MSTORE POP POP POP JUMP JUMPDEST PUSH1 0x0 PUSH2 0x794 PUSH2 0x78F DUP5 PUSH2 0x741 JUMP JUMPDEST PUSH2 0x726 JUMP JUMPDEST SWAP1 POP DUP3 DUP2 MSTORE PUSH1 0x20 DUP2 ADD DUP5 DUP5 DUP5 ADD GT ISZERO PUSH2 0x7B0 JUMPI PUSH2 0x7AF PUSH2 0x6C1 JUMP JUMPDEST JUMPDEST PUSH2 0x7BB DUP5 DUP3 DUP6 PUSH2 0x772 JUMP JUMPDEST POP SWAP4 SWAP3 POP POP POP JUMP JUMPDEST PUSH1 0x0 DUP3 PUSH1 0x1F DUP4 ADD SLT PUSH2 0x7D8 JUMPI PUSH2 0x7D7 PUSH2 0x6BC JUMP JUMPDEST JUMPDEST DUP2 CALLDATALOAD PUSH2 0x7E8 DUP5 DUP3 PUSH1 0x20 DUP7 ADD PUSH2 0x781 JUMP JUMPDEST SWAP2 POP POP SWAP3 SWAP2 POP POP JUMP JUMPDEST PUSH1 0x0 DUP1 PUSH1 0x40 DUP4 DUP6 SUB SLT ISZERO PUSH2 0x808 JUMPI PUSH2 0x807 PUSH2 0x6B2 JUMP JUMPDEST JUMPDEST PUSH1 0x0 DUP4 ADD CALLDATALOAD PUSH8 0xFFFFFFFFFFFFFFFF DUP2 GT ISZERO PUSH2 0x826 JUMPI PUSH2 0x825 PUSH2 0x6B7 JUMP JUMPDEST JUMPDEST PUSH2 0x832 DUP6 DUP3 DUP7 ADD PUSH2 0x7C3 JUMP JUMPDEST SWAP3 POP POP PUSH1 0x20 DUP4 ADD CALLDATALOAD PUSH8 0xFFFFFFFFFFFFFFFF DUP2 GT ISZERO PUSH2 0x853 JUMPI PUSH2 0x852 PUSH2 0x6B7 JUMP JUMPDEST JUMPDEST PUSH2 0x85F DUP6 DUP3 DUP7 ADD PUSH2 0x7C3 JUMP JUMPDEST SWAP2 POP POP SWAP3 POP SWAP3 SWAP1 POP JUMP JUMPDEST PUSH1 0x0 PUSH1 0x20 DUP3 DUP5 SUB SLT ISZERO PUSH2 0x87F JUMPI PUSH2 0x87E PUSH2 0x6B2 JUMP JUMPDEST JUMPDEST PUSH1 0x0 DUP3 ADD CALLDATALOAD PUSH8 0xFFFFFFFFFFFFFFFF DUP2 GT ISZERO PUSH2 0x89D JUMPI PUSH2 0x89C PUSH2 0x6B7 JUMP JUMPDEST JUMPDEST PUSH2 0x8A9 DUP5 DUP3 DUP6 ADD PUSH2 0x7C3 JUMP JUMPDEST SWAP2 POP POP SWAP3 SWAP2 POP POP JUMP JUMPDEST PUSH32 0x4E487B7100000000000000000000000000000000000000000000000000000000 PUSH1 0x0 MSTORE PUSH1 0x22 PUSH1 0x4 MSTORE PUSH1 0x24 PUSH1 0x0 REVERT JUMPDEST PUSH1 0x0 PUSH1 0x2 DUP3 DIV SWAP1 POP PUSH1 0x1 DUP3 AND DUP1 PUSH2 0x8F9 JUMPI PUSH1 0x7F DUP3 AND SWAP2 POP JUMPDEST PUSH1 0x20 DUP3 LT DUP2 SUB PUSH2 0x90C JUMPI PUSH2 0x90B PUSH2 0x8B2 JUMP JUMPDEST JUMPDEST POP SWAP2 SWAP1 POP JUMP JUMPDEST PUSH32 0x4F6E6C79204F776E65722063616E2063616C6C20746869732066756E6374696F PUSH1 0x0 DUP3 ADD MSTORE PUSH32 0x6E00000000000000000000000000000000000000000000000000000000000000 PUSH1 0x20 DUP3 ADD MSTORE POP JUMP JUMPDEST PUSH1 0x0 PUSH2 0x96E PUSH1 0x21 DUP4 PUSH2 0x5F8 JUMP JUMPDEST SWAP2 POP PUSH2 0x979 DUP3 PUSH2 0x912 JUMP JUMPDEST PUSH1 0x40 DUP3 ADD SWAP1 POP SWAP2 SWAP1 POP JUMP JUMPDEST PUSH1 0x0 PUSH1 0x20 DUP3 ADD SWAP1 POP DUP2 DUP2 SUB PUSH1 0x0 DUP4 ADD MSTORE PUSH2 0x99D DUP2 PUSH2 0x961 JUMP JUMPDEST SWAP1 POP SWAP2 SWAP1 POP JUMP JUMPDEST PUSH1 0x0 DUP2 SWAP1 POP SWAP3 SWAP2 POP POP JUMP JUMPDEST PUSH1 0x0 DUP2 SWAP1 POP DUP2 PUSH1 0x0 MSTORE PUSH1 0x20 PUSH1 0x0 KECCAK256 SWAP1 POP SWAP2 SWAP1 POP JUMP JUMPDEST PUSH1 0x0 DUP2 SLOAD PUSH2 0x9D1 DUP2 PUSH2 0x8E1 JUMP JUMPDEST PUSH2 0x9DB DUP2 DUP7 PUSH2 0x9A4 JUMP JUMPDEST SWAP5 POP PUSH1 0x1 DUP3 AND PUSH1 0x0 DUP2 EQ PUSH2 0x9F6 JUMPI PUSH1 0x1 DUP2 EQ PUSH2 0xA07 JUMPI PUSH2 0xA3A JUMP JUMPDEST PUSH1 0xFF NOT DUP4 AND DUP7 MSTORE DUP2 DUP7 ADD SWAP4 POP PUSH2 0xA3A JUMP JUMPDEST PUSH2 0xA10 DUP6 PUSH2 0x9AF JUMP JUMPDEST PUSH1 0x0 JUMPDEST DUP4 DUP2 LT ISZERO PUSH2 0xA32 JUMPI DUP2 SLOAD DUP2 DUP10 ADD MSTORE PUSH1 0x1 DUP3 ADD SWAP2 POP PUSH1 0x20 DUP2 ADD SWAP1 POP PUSH2 0xA13 JUMP JUMPDEST DUP4 DUP9 ADD SWAP6 POP POP POP JUMPDEST POP POP POP SWAP3 SWAP2 POP POP JUMP JUMPDEST PUSH32 0x2000000000000000000000000000000000000000000000000000000000000000 PUSH1 0x0 DUP3 ADD MSTORE POP JUMP JUMPDEST PUSH1 0x0 PUSH2 0xA79 PUSH1 0x1 DUP4 PUSH2 0x9A4 JUMP JUMPDEST SWAP2 POP PUSH2 0xA84 DUP3 PUSH2 0xA43 JUMP JUMPDEST PUSH1 0x1 DUP3 ADD SWAP1 POP SWAP2 SWAP1 POP JUMP JUMPDEST PUSH1 0x0 PUSH2 0xA9B DUP3 DUP6 PUSH2 0x9C4 JUMP JUMPDEST SWAP2 POP PUSH2 0xAA6 DUP3 PUSH2 0xA6C JUMP JUMPDEST SWAP2 POP PUSH2 0xAB2 DUP3 DUP5 PUSH2 0x9C4 JUMP JUMPDEST SWAP2 POP DUP2 SWAP1 POP SWAP4 SWAP3 POP POP POP JUMP JUMPDEST PUSH1 0x0 PUSH2 0xAC9 DUP3 PUSH2 0x5ED JUMP JUMPDEST PUSH2 0xAD3 DUP2 DUP6 PUSH2 0x9A4 JUMP JUMPDEST SWAP4 POP PUSH2 0xAE3 DUP2 DUP6 PUSH1 0x20 DUP7 ADD PUSH2 0x609 JUMP JUMPDEST DUP1 DUP5 ADD SWAP2 POP POP SWAP3 SWAP2 POP POP JUMP JUMPDEST PUSH1 0x0 PUSH2 0xAFB DUP3 DUP6 PUSH2 0x9C4 JUMP JUMPDEST SWAP2 POP PUSH2 0xB06 DUP3 PUSH2 0xA6C JUMP JUMPDEST SWAP2 POP PUSH2 0xB12 DUP3 DUP5 PUSH2 0xABE JUMP JUMPDEST SWAP2 POP DUP2 SWAP1 POP SWAP4 SWAP3 POP POP POP JUMP INVALID LOG2 PUSH5 0x6970667358 0x22 SLT KECCAK256 0x29 EXTCODESIZE SWAP16 0xBB 0x5F MSTORE 0xAA PUSH24 0x8AF29484D4597B9040AC6EF88F330F3DD2FE33E67CFD4194 PUSH5 0x736F6C6343 STOP ADDMOD 0xE STOP CALLER "
				},
				"gasEstimates": {
					"creation": {
						"codeDepositCost": "580000",
						"executionCost": "infinite",
						"totalCost": "infinite"
					},
					"external": {
						"changeSayHi(string)": "infinite",
						"kata()": "infinite",
						"person()": "infinite",
						"sayHello(string)": "infinite",
						"sayHi()": "infinite",
						"simpleData(string,string)": "infinite"
					}
				},
				"methodIdentifiers": {
					"changeSayHi(string)": "3aef0218",
					"kata()": "46ef230e",
					"person()": "77ec2b55",
					"sayHello(string)": "c3a9b1c5",
					"sayHi()": "0c49c36c",
					"simpleData(string,string)": "36509229"
				}
			},
			"storageLayout": {
				"storage": [
					{
						"astId": 4,
						"contract": "contracts/MyHelloWorld.sol:MyHelloWorld",
						"label": "sayHi",
						"offset": 0,
						"slot": "0",
						"type": "t_string_storage"
					},
					{
						"astId": 7,
						"contract": "contracts/MyHelloWorld.sol:MyHelloWorld",
						"label": "person",
						"offset": 0,
						"slot": "1",
						"type": "t_string_storage"
					},
					{
						"astId": 9,
						"contract": "contracts/MyHelloWorld.sol:MyHelloWorld",
						"label": "kata",
						"offset": 0,
						"slot": "2",
						"type": "t_string_storage"
					},
					{
						"astId": 11,
						"contract": "contracts/MyHelloWorld.sol:MyHelloWorld",
						"label": "owner",
						"offset": 0,
						"slot": "3",
						"type": "t_address"
					}
				],
				"types": {
					"t_address": {
						"encoding": "inplace",
						"label": "address",
						"numberOfBytes": "20"
					},
					"t_string_storage": {
						"encoding": "bytes",
						"label": "string",
						"numberOfBytes": "32"
					}
				}
			},
			"userdoc": {
				"kind": "user",
				"methods": {},
				"version": 1
			}
		}
	}
}