{
	"contracts/SistemAkademik.sol": {
		"SistemAkademik": {
			"abi": [
				{
					"inputs": [],
					"stateMutability": "nonpayable",
					"type": "constructor"
				},
				{
					"anonymous": false,
					"inputs": [
						{
							"indexed": false,
							"internalType": "uint256",
							"name": "nim",
							"type": "uint256"
						},
						{
							"indexed": false,
							"internalType": "string",
							"name": "nama",
							"type": "string"
						}
					],
					"name": "MahasiswaEnrolled",
					"type": "event"
				},
				{
					"anonymous": false,
					"inputs": [
						{
							"indexed": false,
							"internalType": "uint256",
							"name": "nim",
							"type": "uint256"
						},
						{
							"indexed": false,
							"internalType": "uint256",
							"name": "nilai",
							"type": "uint256"
						}
					],
					"name": "NilaiAdded",
					"type": "event"
				},
				{
					"inputs": [
						{
							"internalType": "uint256",
							"name": "_nim",
							"type": "uint256"
						},
						{
							"internalType": "uint8",
							"name": "_NilaiBaru",
							"type": "uint8"
						}
					],
					"name": "addGrade",
					"outputs": [],
					"stateMutability": "nonpayable",
					"type": "function"
				},
				{
					"inputs": [
						{
							"internalType": "address",
							"name": "",
							"type": "address"
						}
					],
					"name": "authorized",
					"outputs": [
						{
							"internalType": "bool",
							"name": "",
							"type": "bool"
						}
					],
					"stateMutability": "view",
					"type": "function"
				},
				{
					"inputs": [
						{
							"internalType": "uint256",
							"name": "",
							"type": "uint256"
						}
					],
					"name": "daftarNIM",
					"outputs": [
						{
							"internalType": "uint256",
							"name": "",
							"type": "uint256"
						}
					],
					"stateMutability": "view",
					"type": "function"
				},
				{
					"inputs": [
						{
							"internalType": "string",
							"name": "_nama",
							"type": "string"
						},
						{
							"internalType": "string",
							"name": "_jurusan",
							"type": "string"
						}
					],
					"name": "enrollment",
					"outputs": [],
					"stateMutability": "nonpayable",
					"type": "function"
				},
				{
					"inputs": [
						{
							"internalType": "uint256",
							"name": "_nim",
							"type": "uint256"
						}
					],
					"name": "getStudent",
					"outputs": [
						{
							"internalType": "string",
							"name": "nama",
							"type": "string"
						},
						{
							"internalType": "uint256",
							"name": "nim",
							"type": "uint256"
						},
						{
							"internalType": "string",
							"name": "jurusan",
							"type": "string"
						},
						{
							"internalType": "uint256[]",
							"name": "nilai",
							"type": "uint256[]"
						},
						{
							"internalType": "bool",
							"name": "isActive",
							"type": "bool"
						}
					],
					"stateMutability": "view",
					"type": "function"
				},
				{
					"inputs": [
						{
							"internalType": "uint256",
							"name": "",
							"type": "uint256"
						}
					],
					"name": "mahasiswa",
					"outputs": [
						{
							"internalType": "string",
							"name": "nama",
							"type": "string"
						},
						{
							"internalType": "uint256",
							"name": "nim",
							"type": "uint256"
						},
						{
							"internalType": "string",
							"name": "jurusan",
							"type": "string"
						},
						{
							"internalType": "bool",
							"name": "isActive",
							"type": "bool"
						}
					],
					"stateMutability": "view",
					"type": "function"
				}
			],
			"devdoc": {
				"kind": "dev",
				"methods": {},
				"version": 1
			},
			"evm": {
				"assembly": "    /* \"contracts/SistemAkademik.sol\":61:2088  contract SistemAkademik {... */\n  mstore(0x40, 0x80)\n    /* \"contracts/SistemAkademik.sol\":626:688  constructor() {... */\n  callvalue\n  dup1\n  iszero\n  tag_1\n  jumpi\n  revert(0x00, 0x00)\ntag_1:\n  pop\n    /* \"contracts/SistemAkademik.sol\":676:680  true */\n  0x01\n    /* \"contracts/SistemAkademik.sol\":651:661  authorized */\n  dup1\n    /* \"contracts/SistemAkademik.sol\":651:673  authorized[msg.sender] */\n  0x00\n    /* \"contracts/SistemAkademik.sol\":662:672  msg.sender */\n  caller\n    /* \"contracts/SistemAkademik.sol\":651:673  authorized[msg.sender] */\n  0xffffffffffffffffffffffffffffffffffffffff\n  and\n  0xffffffffffffffffffffffffffffffffffffffff\n  and\n  dup2\n  mstore\n  0x20\n  add\n  swap1\n  dup2\n  mstore\n  0x20\n  add\n  0x00\n  keccak256\n  0x00\n    /* \"contracts/SistemAkademik.sol\":651:680  authorized[msg.sender] = true */\n  0x0100\n  exp\n  dup2\n  sload\n  dup2\n  0xff\n  mul\n  not\n  and\n  swap1\n  dup4\n  iszero\n  iszero\n  mul\n  or\n  swap1\n  sstore\n  pop\n    /* \"contracts/SistemAkademik.sol\":61:2088  contract SistemAkademik {... */\n  dataSize(sub_0)\n  dup1\n  dataOffset(sub_0)\n  0x00\n  codecopy\n  0x00\n  return\nstop\n\nsub_0: assembly {\n        /* \"contracts/SistemAkademik.sol\":61:2088  contract SistemAkademik {... */\n      mstore(0x40, 0x80)\n      callvalue\n      dup1\n      iszero\n      tag_1\n      jumpi\n      revert(0x00, 0x00)\n    tag_1:\n      pop\n      jumpi(tag_2, lt(calldatasize, 0x04))\n      shr(0xe0, calldataload(0x00))\n      dup1\n      0x252bf6\n      eq\n      tag_3\n      jumpi\n      dup1\n      0x2d8eeabf\n      eq\n      tag_4\n      jumpi\n      dup1\n      0x315fecd2\n      eq\n      tag_5\n      jumpi\n      dup1\n      0x32c69833\n      eq\n      tag_6\n      jumpi\n      dup1\n      0x642f9163\n      eq\n      tag_7\n      jumpi\n      dup1\n      0xb9181611\n      eq\n      tag_8\n      jumpi\n    tag_2:\n      revert(0x00, 0x00)\n        /* \"contracts/SistemAkademik.sol\":350:376  uint256[] public daftarNIM */\n    tag_3:\n      tag_9\n      0x04\n      dup1\n      calldatasize\n      sub\n      dup2\n      add\n      swap1\n      tag_10\n      swap2\n      swap1\n      tag_11\n      jump\t// in\n    tag_10:\n      tag_12\n      jump\t// in\n    tag_9:\n      mload(0x40)\n      tag_13\n      swap2\n      swap1\n      tag_14\n      jump\t// in\n    tag_13:\n      mload(0x40)\n      dup1\n      swap2\n      sub\n      swap1\n      return\n        /* \"contracts/SistemAkademik.sol\":248:294  mapping(uint256 => Mahasiswa) public mahasiswa */\n    tag_4:\n      tag_15\n      0x04\n      dup1\n      calldatasize\n      sub\n      dup2\n      add\n      swap1\n      tag_16\n      swap2\n      swap1\n      tag_11\n      jump\t// in\n    tag_16:\n      tag_17\n      jump\t// in\n    tag_15:\n      mload(0x40)\n      tag_18\n      swap5\n      swap4\n      swap3\n      swap2\n      swap1\n      tag_19\n      jump\t// in\n    tag_18:\n      mload(0x40)\n      dup1\n      swap2\n      sub\n      swap1\n      return\n        /* \"contracts/SistemAkademik.sol\":1558:1687  function addGrade(uint256 _nim, uint8 _NilaiBaru) public onlyAuthorized {... */\n    tag_5:\n      tag_20\n      0x04\n      dup1\n      calldatasize\n      sub\n      dup2\n      add\n      swap1\n      tag_21\n      swap2\n      swap1\n      tag_22\n      jump\t// in\n    tag_21:\n      tag_23\n      jump\t// in\n    tag_20:\n      stop\n        /* \"contracts/SistemAkademik.sol\":750:1503  function enrollment(string memory _nama, string memory _jurusan) public  {... */\n    tag_6:\n      tag_24\n      0x04\n      dup1\n      calldatasize\n      sub\n      dup2\n      add\n      swap1\n      tag_25\n      swap2\n      swap1\n      tag_26\n      jump\t// in\n    tag_25:\n      tag_27\n      jump\t// in\n    tag_24:\n      stop\n        /* \"contracts/SistemAkademik.sol\":1751:2085  function getStudent(uint256 _nim) public view returns (... */\n    tag_7:\n      tag_28\n      0x04\n      dup1\n      calldatasize\n      sub\n      dup2\n      add\n      swap1\n      tag_29\n      swap2\n      swap1\n      tag_11\n      jump\t// in\n    tag_29:\n      tag_30\n      jump\t// in\n    tag_28:\n      mload(0x40)\n      tag_31\n      swap6\n      swap5\n      swap4\n      swap3\n      swap2\n      swap1\n      tag_32\n      jump\t// in\n    tag_31:\n      mload(0x40)\n      dup1\n      swap2\n      sub\n      swap1\n      return\n        /* \"contracts/SistemAkademik.sol\":301:343  mapping(address => bool) public authorized */\n    tag_8:\n      tag_33\n      0x04\n      dup1\n      calldatasize\n      sub\n      dup2\n      add\n      swap1\n      tag_34\n      swap2\n      swap1\n      tag_35\n      jump\t// in\n    tag_34:\n      tag_36\n      jump\t// in\n    tag_33:\n      mload(0x40)\n      tag_37\n      swap2\n      swap1\n      tag_38\n      jump\t// in\n    tag_37:\n      mload(0x40)\n      dup1\n      swap2\n      sub\n      swap1\n      return\n        /* \"contracts/SistemAkademik.sol\":350:376  uint256[] public daftarNIM */\n    tag_12:\n      0x02\n      dup2\n      dup2\n      sload\n      dup2\n      lt\n      tag_39\n      jumpi\n      0x00\n      dup1\n      revert\n    tag_39:\n      swap1\n      0x00\n      mstore\n      keccak256(0x00, 0x20)\n      add\n      0x00\n      swap2\n      pop\n      swap1\n      pop\n      sload\n      dup2\n      jump\t// out\n        /* \"contracts/SistemAkademik.sol\":248:294  mapping(uint256 => Mahasiswa) public mahasiswa */\n    tag_17:\n      mstore(0x20, 0x00)\n      dup1\n      0x00\n      mstore\n      keccak256(0x00, 0x40)\n      0x00\n      swap2\n      pop\n      swap1\n      pop\n      dup1\n      0x00\n      add\n      dup1\n      sload\n      tag_41\n      swap1\n      tag_42\n      jump\t// in\n    tag_41:\n      dup1\n      0x1f\n      add\n      0x20\n      dup1\n      swap2\n      div\n      mul\n      0x20\n      add\n      mload(0x40)\n      swap1\n      dup2\n      add\n      0x40\n      mstore\n      dup1\n      swap3\n      swap2\n      swap1\n      dup2\n      dup2\n      mstore\n      0x20\n      add\n      dup3\n      dup1\n      sload\n      tag_43\n      swap1\n      tag_42\n      jump\t// in\n    tag_43:\n      dup1\n      iszero\n      tag_44\n      jumpi\n      dup1\n      0x1f\n      lt\n      tag_45\n      jumpi\n      0x0100\n      dup1\n      dup4\n      sload\n      div\n      mul\n      dup4\n      mstore\n      swap2\n      0x20\n      add\n      swap2\n      jump(tag_44)\n    tag_45:\n      dup3\n      add\n      swap2\n      swap1\n      0x00\n      mstore\n      keccak256(0x00, 0x20)\n      swap1\n    tag_46:\n      dup2\n      sload\n      dup2\n      mstore\n      swap1\n      0x01\n      add\n      swap1\n      0x20\n      add\n      dup1\n      dup4\n      gt\n      tag_46\n      jumpi\n      dup3\n      swap1\n      sub\n      0x1f\n      and\n      dup3\n      add\n      swap2\n    tag_44:\n      pop\n      pop\n      pop\n      pop\n      pop\n      swap1\n      dup1\n      0x01\n      add\n      sload\n      swap1\n      dup1\n      0x02\n      add\n      dup1\n      sload\n      tag_47\n      swap1\n      tag_42\n      jump\t// in\n    tag_47:\n      dup1\n      0x1f\n      add\n      0x20\n      dup1\n      swap2\n      div\n      mul\n      0x20\n      add\n      mload(0x40)\n      swap1\n      dup2\n      add\n      0x40\n      mstore\n      dup1\n      swap3\n      swap2\n      swap1\n      dup2\n      dup2\n      mstore\n      0x20\n      add\n      dup3\n      dup1\n      sload\n      tag_48\n      swap1\n      tag_42\n      jump\t// in\n    tag_48:\n      dup1\n      iszero\n      tag_49\n      jumpi\n      dup1\n      0x1f\n      lt\n      tag_50\n      jumpi\n      0x0100\n      dup1\n      dup4\n      sload\n      div\n      mul\n      dup4\n      mstore\n      swap2\n      0x20\n      add\n      swap2\n      jump(tag_49)\n    tag_50:\n      dup3\n      add\n      swap2\n      swap1\n      0x00\n      mstore\n      keccak256(0x00, 0x20)\n      swap1\n    tag_51:\n      dup2\n      sload\n      dup2\n      mstore\n      swap1\n      0x01\n      add\n      swap1\n      0x20\n      add\n      dup1\n      dup4\n      gt\n      tag_51\n      jumpi\n      dup3\n      swap1\n      sub\n      0x1f\n      and\n      dup3\n      add\n      swap2\n    tag_49:\n      pop\n      pop\n      pop\n      pop\n      pop\n      swap1\n      dup1\n      0x04\n      add\n      0x00\n      swap1\n      sload\n      swap1\n      0x0100\n      exp\n      swap1\n      div\n      0xff\n      and\n      swap1\n      pop\n      dup5\n      jump\t// out\n        /* \"contracts/SistemAkademik.sol\":1558:1687  function addGrade(uint256 _nim, uint8 _NilaiBaru) public onlyAuthorized {... */\n    tag_23:\n        /* \"contracts/SistemAkademik.sol\":547:557  authorized */\n      0x01\n        /* \"contracts/SistemAkademik.sol\":547:569  authorized[msg.sender] */\n      0x00\n        /* \"contracts/SistemAkademik.sol\":558:568  msg.sender */\n      caller\n        /* \"contracts/SistemAkademik.sol\":547:569  authorized[msg.sender] */\n      0xffffffffffffffffffffffffffffffffffffffff\n      and\n      0xffffffffffffffffffffffffffffffffffffffff\n      and\n      dup2\n      mstore\n      0x20\n      add\n      swap1\n      dup2\n      mstore\n      0x20\n      add\n      0x00\n      keccak256\n      0x00\n      swap1\n      sload\n      swap1\n      0x0100\n      exp\n      swap1\n      div\n      0xff\n      and\n        /* \"contracts/SistemAkademik.sol\":539:594  require(authorized[msg.sender], \"Tidak memiliki akses\") */\n      tag_53\n      jumpi\n      mload(0x40)\n      0x08c379a000000000000000000000000000000000000000000000000000000000\n      dup2\n      mstore\n      0x04\n      add\n      tag_54\n      swap1\n      tag_55\n      jump\t// in\n    tag_54:\n      mload(0x40)\n      dup1\n      swap2\n      sub\n      swap1\n      revert\n    tag_53:\n        /* \"contracts/SistemAkademik.sol\":1641:1650  mahasiswa */\n      0x00\n        /* \"contracts/SistemAkademik.sol\":1641:1656  mahasiswa[_nim] */\n      0x00\n        /* \"contracts/SistemAkademik.sol\":1651:1655  _nim */\n      dup4\n        /* \"contracts/SistemAkademik.sol\":1641:1656  mahasiswa[_nim] */\n      dup2\n      mstore\n      0x20\n      add\n      swap1\n      dup2\n      mstore\n      0x20\n      add\n      0x00\n      keccak256\n        /* \"contracts/SistemAkademik.sol\":1641:1662  mahasiswa[_nim].nilai */\n      0x03\n      add\n        /* \"contracts/SistemAkademik.sol\":1668:1678  _NilaiBaru */\n      dup2\n        /* \"contracts/SistemAkademik.sol\":1641:1679  mahasiswa[_nim].nilai.push(_NilaiBaru) */\n      swap1\n      dup1\n      0x01\n      dup2\n      sload\n      add\n      dup1\n      dup3\n      sstore\n      dup1\n      swap2\n      pop\n      pop\n      0x01\n      swap1\n      sub\n      swap1\n      0x00\n      mstore\n      keccak256(0x00, 0x20)\n      add\n      0x00\n      swap1\n      swap2\n      0xff\n      and\n      swap1\n      swap2\n      swap1\n      swap2\n      pop\n      sstore\n        /* \"contracts/SistemAkademik.sol\":1558:1687  function addGrade(uint256 _nim, uint8 _NilaiBaru) public onlyAuthorized {... */\n      pop\n      pop\n      jump\t// out\n        /* \"contracts/SistemAkademik.sol\":750:1503  function enrollment(string memory _nama, string memory _jurusan) public  {... */\n    tag_27:\n        /* \"contracts/SistemAkademik.sol\":864:865  0 */\n      0x00\n        /* \"contracts/SistemAkademik.sol\":848:853  _nama */\n      dup3\n        /* \"contracts/SistemAkademik.sol\":842:861  bytes(_nama).length */\n      mload\n        /* \"contracts/SistemAkademik.sol\":842:865  bytes(_nama).length > 0 */\n      gt\n        /* \"contracts/SistemAkademik.sol\":834:894  require(bytes(_nama).length > 0, \"Nama Tidak Boleh Kosong!\") */\n      tag_59\n      jumpi\n      mload(0x40)\n      0x08c379a000000000000000000000000000000000000000000000000000000000\n      dup2\n      mstore\n      0x04\n      add\n      tag_60\n      swap1\n      tag_61\n      jump\t// in\n    tag_60:\n      mload(0x40)\n      dup1\n      swap2\n      sub\n      swap1\n      revert\n    tag_59:\n        /* \"contracts/SistemAkademik.sol\":938:939  0 */\n      0x00\n        /* \"contracts/SistemAkademik.sol\":919:927  _jurusan */\n      dup2\n        /* \"contracts/SistemAkademik.sol\":913:935  bytes(_jurusan).length */\n      mload\n        /* \"contracts/SistemAkademik.sol\":913:939  bytes(_jurusan).length > 0 */\n      gt\n        /* \"contracts/SistemAkademik.sol\":905:971  require(bytes(_jurusan).length > 0, \"Jurusan Tidak Boleh Kosong!\") */\n      tag_62\n      jumpi\n      mload(0x40)\n      0x08c379a000000000000000000000000000000000000000000000000000000000\n      dup2\n      mstore\n      0x04\n      add\n      tag_63\n      swap1\n      tag_64\n      jump\t// in\n    tag_63:\n      mload(0x40)\n      dup1\n      swap2\n      sub\n      swap1\n      revert\n    tag_62:\n        /* \"contracts/SistemAkademik.sol\":984:999  uint256 nimBaru */\n      0x00\n        /* \"contracts/SistemAkademik.sol\":1002:1011  daftarNIM */\n      0x02\n        /* \"contracts/SistemAkademik.sol\":1002:1018  daftarNIM.length */\n      dup1\n      sload\n      swap1\n      pop\n        /* \"contracts/SistemAkademik.sol\":984:1018  uint256 nimBaru = daftarNIM.length */\n      swap1\n      pop\n        /* \"contracts/SistemAkademik.sol\":1029:1052  uint256[] memory _nilai */\n      0x60\n        /* \"contracts/SistemAkademik.sol\":1069:1078  mahasiswa */\n      0x00\n        /* \"contracts/SistemAkademik.sol\":1069:1087  mahasiswa[nimBaru] */\n      0x00\n        /* \"contracts/SistemAkademik.sol\":1079:1086  nimBaru */\n      dup4\n        /* \"contracts/SistemAkademik.sol\":1069:1087  mahasiswa[nimBaru] */\n      dup2\n      mstore\n      0x20\n      add\n      swap1\n      dup2\n      mstore\n      0x20\n      add\n      0x00\n      keccak256\n        /* \"contracts/SistemAkademik.sol\":1069:1096  mahasiswa[nimBaru].isActive */\n      0x04\n      add\n      0x00\n      swap1\n      sload\n      swap1\n      0x0100\n      exp\n      swap1\n      div\n      0xff\n      and\n        /* \"contracts/SistemAkademik.sol\":1065:1443  if(!mahasiswa[nimBaru].isActive) {... */\n      tag_65\n      jumpi\n        /* \"contracts/SistemAkademik.sol\":1134:1327  Mahasiswa({... */\n      mload(0x40)\n      dup1\n      0xa0\n      add\n      0x40\n      mstore\n      dup1\n        /* \"contracts/SistemAkademik.sol\":1170:1175  _nama */\n      dup6\n        /* \"contracts/SistemAkademik.sol\":1134:1327  Mahasiswa({... */\n      dup2\n      mstore\n      0x20\n      add\n        /* \"contracts/SistemAkademik.sol\":1199:1206  nimBaru */\n      dup4\n        /* \"contracts/SistemAkademik.sol\":1134:1327  Mahasiswa({... */\n      dup2\n      mstore\n      0x20\n      add\n        /* \"contracts/SistemAkademik.sol\":1235:1243  _jurusan */\n      dup5\n        /* \"contracts/SistemAkademik.sol\":1134:1327  Mahasiswa({... */\n      dup2\n      mstore\n      0x20\n      add\n        /* \"contracts/SistemAkademik.sol\":1269:1275  _nilai */\n      dup3\n        /* \"contracts/SistemAkademik.sol\":1134:1327  Mahasiswa({... */\n      dup2\n      mstore\n      0x20\n      add\n        /* \"contracts/SistemAkademik.sol\":1305:1309  true */\n      0x01\n        /* \"contracts/SistemAkademik.sol\":1134:1327  Mahasiswa({... */\n      iszero\n      iszero\n      dup2\n      mstore\n      pop\n        /* \"contracts/SistemAkademik.sol\":1113:1122  mahasiswa */\n      0x00\n        /* \"contracts/SistemAkademik.sol\":1113:1131  mahasiswa[nimBaru] */\n      0x00\n        /* \"contracts/SistemAkademik.sol\":1123:1130  nimBaru */\n      dup5\n        /* \"contracts/SistemAkademik.sol\":1113:1131  mahasiswa[nimBaru] */\n      dup2\n      mstore\n      0x20\n      add\n      swap1\n      dup2\n      mstore\n      0x20\n      add\n      0x00\n      keccak256\n        /* \"contracts/SistemAkademik.sol\":1113:1327  mahasiswa[nimBaru] = Mahasiswa({... */\n      0x00\n      dup3\n      add\n      mload\n      dup2\n      0x00\n      add\n      swap1\n      dup2\n      tag_66\n      swap2\n      swap1\n      tag_67\n      jump\t// in\n    tag_66:\n      pop\n      0x20\n      dup3\n      add\n      mload\n      dup2\n      0x01\n      add\n      sstore\n      0x40\n      dup3\n      add\n      mload\n      dup2\n      0x02\n      add\n      swap1\n      dup2\n      tag_68\n      swap2\n      swap1\n      tag_67\n      jump\t// in\n    tag_68:\n      pop\n      0x60\n      dup3\n      add\n      mload\n      dup2\n      0x03\n      add\n      swap1\n      dup1\n      mload\n      swap1\n      0x20\n      add\n      swap1\n      tag_69\n      swap3\n      swap2\n      swap1\n      tag_70\n      jump\t// in\n    tag_69:\n      pop\n      0x80\n      dup3\n      add\n      mload\n      dup2\n      0x04\n      add\n      exp(0x0100, 0x00)\n      dup2\n      sload\n      dup2\n      0xff\n      mul\n      not\n      and\n      swap1\n      dup4\n      iszero\n      iszero\n      mul\n      or\n      swap1\n      sstore\n      pop\n      swap1\n      pop\n      pop\n        /* \"contracts/SistemAkademik.sol\":1344:1353  daftarNIM */\n      0x02\n        /* \"contracts/SistemAkademik.sol\":1359:1366  nimBaru */\n      dup3\n        /* \"contracts/SistemAkademik.sol\":1344:1367  daftarNIM.push(nimBaru) */\n      swap1\n      dup1\n      0x01\n      dup2\n      sload\n      add\n      dup1\n      dup3\n      sstore\n      dup1\n      swap2\n      pop\n      pop\n      0x01\n      swap1\n      sub\n      swap1\n      0x00\n      mstore\n      keccak256(0x00, 0x20)\n      add\n      0x00\n      swap1\n      swap2\n      swap1\n      swap2\n      swap1\n      swap2\n      pop\n      sstore\n        /* \"contracts/SistemAkademik.sol\":1065:1443  if(!mahasiswa[nimBaru].isActive) {... */\n      jump(tag_72)\n    tag_65:\n        /* \"contracts/SistemAkademik.sol\":1400:1431  revert(\"Kamu Sudah terdafter!\") */\n      mload(0x40)\n      0x08c379a000000000000000000000000000000000000000000000000000000000\n      dup2\n      mstore\n      0x04\n      add\n      tag_73\n      swap1\n      tag_74\n      jump\t// in\n    tag_73:\n      mload(0x40)\n      dup1\n      swap2\n      sub\n      swap1\n      revert\n        /* \"contracts/SistemAkademik.sol\":1065:1443  if(!mahasiswa[nimBaru].isActive) {... */\n    tag_72:\n        /* \"contracts/SistemAkademik.sol\":1460:1493  MahasiswaEnrolled(nimBaru, _nama) */\n      0x84c0940fcd7427394db63e40d363f4f9e1a5cd24650d3c841512d92ab617a181\n        /* \"contracts/SistemAkademik.sol\":1478:1485  nimBaru */\n      dup3\n        /* \"contracts/SistemAkademik.sol\":1487:1492  _nama */\n      dup6\n        /* \"contracts/SistemAkademik.sol\":1460:1493  MahasiswaEnrolled(nimBaru, _nama) */\n      mload(0x40)\n      tag_75\n      swap3\n      swap2\n      swap1\n      tag_76\n      jump\t// in\n    tag_75:\n      mload(0x40)\n      dup1\n      swap2\n      sub\n      swap1\n      log1\n        /* \"contracts/SistemAkademik.sol\":823:1503  {... */\n      pop\n      pop\n        /* \"contracts/SistemAkademik.sol\":750:1503  function enrollment(string memory _nama, string memory _jurusan) public  {... */\n      pop\n      pop\n      jump\t// out\n        /* \"contracts/SistemAkademik.sol\":1751:2085  function getStudent(uint256 _nim) public view returns (... */\n    tag_30:\n        /* \"contracts/SistemAkademik.sol\":1816:1834  string memory nama */\n      0x60\n        /* \"contracts/SistemAkademik.sol\":1845:1856  uint256 nim */\n      0x00\n        /* \"contracts/SistemAkademik.sol\":1867:1888  string memory jurusan */\n      0x60\n        /* \"contracts/SistemAkademik.sol\":1899:1921  uint256[] memory nilai */\n      dup1\n        /* \"contracts/SistemAkademik.sol\":1932:1945  bool isActive */\n      0x00\n        /* \"contracts/SistemAkademik.sol\":1964:1984  Mahasiswa memory mhs */\n      0x00\n        /* \"contracts/SistemAkademik.sol\":1987:1996  mahasiswa */\n      0x00\n        /* \"contracts/SistemAkademik.sol\":1987:2002  mahasiswa[_nim] */\n      0x00\n        /* \"contracts/SistemAkademik.sol\":1997:2001  _nim */\n      dup9\n        /* \"contracts/SistemAkademik.sol\":1987:2002  mahasiswa[_nim] */\n      dup2\n      mstore\n      0x20\n      add\n      swap1\n      dup2\n      mstore\n      0x20\n      add\n      0x00\n      keccak256\n        /* \"contracts/SistemAkademik.sol\":1964:2002  Mahasiswa memory mhs = mahasiswa[_nim] */\n      mload(0x40)\n      dup1\n      0xa0\n      add\n      0x40\n      mstore\n      swap1\n      dup2\n      0x00\n      dup3\n      add\n      dup1\n      sload\n      tag_78\n      swap1\n      tag_42\n      jump\t// in\n    tag_78:\n      dup1\n      0x1f\n      add\n      0x20\n      dup1\n      swap2\n      div\n      mul\n      0x20\n      add\n      mload(0x40)\n      swap1\n      dup2\n      add\n      0x40\n      mstore\n      dup1\n      swap3\n      swap2\n      swap1\n      dup2\n      dup2\n      mstore\n      0x20\n      add\n      dup3\n      dup1\n      sload\n      tag_79\n      swap1\n      tag_42\n      jump\t// in\n    tag_79:\n      dup1\n      iszero\n      tag_80\n      jumpi\n      dup1\n      0x1f\n      lt\n      tag_81\n      jumpi\n      0x0100\n      dup1\n      dup4\n      sload\n      div\n      mul\n      dup4\n      mstore\n      swap2\n      0x20\n      add\n      swap2\n      jump(tag_80)\n    tag_81:\n      dup3\n      add\n      swap2\n      swap1\n      0x00\n      mstore\n      keccak256(0x00, 0x20)\n      swap1\n    tag_82:\n      dup2\n      sload\n      dup2\n      mstore\n      swap1\n      0x01\n      add\n      swap1\n      0x20\n      add\n      dup1\n      dup4\n      gt\n      tag_82\n      jumpi\n      dup3\n      swap1\n      sub\n      0x1f\n      and\n      dup3\n      add\n      swap2\n    tag_80:\n      pop\n      pop\n      pop\n      pop\n      pop\n      dup2\n      mstore\n      0x20\n      add\n      0x01\n      dup3\n      add\n      sload\n      dup2\n      mstore\n      0x20\n      add\n      0x02\n      dup3\n      add\n      dup1\n      sload\n      tag_83\n      swap1\n      tag_42\n      jump\t// in\n    tag_83:\n      dup1\n      0x1f\n      add\n      0x20\n      dup1\n      swap2\n      div\n      mul\n      0x20\n      add\n      mload(0x40)\n      swap1\n      dup2\n      add\n      0x40\n      mstore\n      dup1\n      swap3\n      swap2\n      swap1\n      dup2\n      dup2\n      mstore\n      0x20\n      add\n      dup3\n      dup1\n      sload\n      tag_84\n      swap1\n      tag_42\n      jump\t// in\n    tag_84:\n      dup1\n      iszero\n      tag_85\n      jumpi\n      dup1\n      0x1f\n      lt\n      tag_86\n      jumpi\n      0x0100\n      dup1\n      dup4\n      sload\n      div\n      mul\n      dup4\n      mstore\n      swap2\n      0x20\n      add\n      swap2\n      jump(tag_85)\n    tag_86:\n      dup3\n      add\n      swap2\n      swap1\n      0x00\n      mstore\n      keccak256(0x00, 0x20)\n      swap1\n    tag_87:\n      dup2\n      sload\n      dup2\n      mstore\n      swap1\n      0x01\n      add\n      swap1\n      0x20\n      add\n      dup1\n      dup4\n      gt\n      tag_87\n      jumpi\n      dup3\n      swap1\n      sub\n      0x1f\n      and\n      dup3\n      add\n      swap2\n    tag_85:\n      pop\n      pop\n      pop\n      pop\n      pop\n      dup2\n      mstore\n      0x20\n      add\n      0x03\n      dup3\n      add\n      dup1\n      sload\n      dup1\n      0x20\n      mul\n      0x20\n      add\n      mload(0x40)\n      swap1\n      dup2\n      add\n      0x40\n      mstore\n      dup1\n      swap3\n      swap2\n      swap1\n      dup2\n      dup2\n      mstore\n      0x20\n      add\n      dup3\n      dup1\n      sload\n      dup1\n      iszero\n      tag_88\n      jumpi\n      0x20\n      mul\n      dup3\n      add\n      swap2\n      swap1\n      0x00\n      mstore\n      keccak256(0x00, 0x20)\n      swap1\n    tag_89:\n      dup2\n      sload\n      dup2\n      mstore\n      0x20\n      add\n      swap1\n      0x01\n      add\n      swap1\n      dup1\n      dup4\n      gt\n      tag_89\n      jumpi\n    tag_88:\n      pop\n      pop\n      pop\n      pop\n      pop\n      dup2\n      mstore\n      0x20\n      add\n      0x04\n      dup3\n      add\n      0x00\n      swap1\n      sload\n      swap1\n      0x0100\n      exp\n      swap1\n      div\n      0xff\n      and\n      iszero\n      iszero\n      iszero\n      iszero\n      dup2\n      mstore\n      pop\n      pop\n      swap1\n      pop\n        /* \"contracts/SistemAkademik.sol\":2021:2024  mhs */\n      dup1\n        /* \"contracts/SistemAkademik.sol\":2021:2029  mhs.nama */\n      0x00\n      add\n      mload\n        /* \"contracts/SistemAkademik.sol\":2031:2034  mhs */\n      dup2\n        /* \"contracts/SistemAkademik.sol\":2031:2038  mhs.nim */\n      0x20\n      add\n      mload\n        /* \"contracts/SistemAkademik.sol\":2040:2043  mhs */\n      dup3\n        /* \"contracts/SistemAkademik.sol\":2040:2051  mhs.jurusan */\n      0x40\n      add\n      mload\n        /* \"contracts/SistemAkademik.sol\":2053:2056  mhs */\n      dup4\n        /* \"contracts/SistemAkademik.sol\":2053:2062  mhs.nilai */\n      0x60\n      add\n      mload\n        /* \"contracts/SistemAkademik.sol\":2064:2067  mhs */\n      dup5\n        /* \"contracts/SistemAkademik.sol\":2064:2076  mhs.isActive */\n      0x80\n      add\n      mload\n        /* \"contracts/SistemAkademik.sol\":2013:2077  return (mhs.nama, mhs.nim, mhs.jurusan, mhs.nilai, mhs.isActive) */\n      swap6\n      pop\n      swap6\n      pop\n      swap6\n      pop\n      swap6\n      pop\n      swap6\n      pop\n      pop\n        /* \"contracts/SistemAkademik.sol\":1751:2085  function getStudent(uint256 _nim) public view returns (... */\n      swap2\n      swap4\n      swap6\n      swap1\n      swap3\n      swap5\n      pop\n      jump\t// out\n        /* \"contracts/SistemAkademik.sol\":301:343  mapping(address => bool) public authorized */\n    tag_36:\n      mstore(0x20, 0x01)\n      dup1\n      0x00\n      mstore\n      keccak256(0x00, 0x40)\n      0x00\n      swap2\n      pop\n      sload\n      swap1\n      0x0100\n      exp\n      swap1\n      div\n      0xff\n      and\n      dup2\n      jump\t// out\n    tag_70:\n      dup3\n      dup1\n      sload\n      dup3\n      dup3\n      sstore\n      swap1\n      0x00\n      mstore\n      keccak256(0x00, 0x20)\n      swap1\n      dup2\n      add\n      swap3\n      dup3\n      iszero\n      tag_90\n      jumpi\n      swap2\n      0x20\n      mul\n      dup3\n      add\n    tag_91:\n      dup3\n      dup2\n      gt\n      iszero\n      tag_92\n      jumpi\n      dup3\n      mload\n      dup3\n      sstore\n      swap2\n      0x20\n      add\n      swap2\n      swap1\n      0x01\n      add\n      swap1\n      jump(tag_91)\n    tag_92:\n    tag_90:\n      pop\n      swap1\n      pop\n      tag_93\n      swap2\n      swap1\n      tag_94\n      jump\t// in\n    tag_93:\n      pop\n      swap1\n      jump\t// out\n    tag_94:\n    tag_95:\n      dup1\n      dup3\n      gt\n      iszero\n      tag_96\n      jumpi\n      0x00\n      dup2\n      0x00\n      swap1\n      sstore\n      pop\n      0x01\n      add\n      jump(tag_95)\n    tag_96:\n      pop\n      swap1\n      jump\t// out\n        /* \"#utility.yul\":7:82   */\n    tag_97:\n        /* \"#utility.yul\":40:46   */\n      0x00\n        /* \"#utility.yul\":73:75   */\n      0x40\n        /* \"#utility.yul\":67:76   */\n      mload\n        /* \"#utility.yul\":57:76   */\n      swap1\n      pop\n        /* \"#utility.yul\":7:82   */\n      swap1\n      jump\t// out\n        /* \"#utility.yul\":88:205   */\n    tag_98:\n        /* \"#utility.yul\":197:198   */\n      0x00\n        /* \"#utility.yul\":194:195   */\n      0x00\n        /* \"#utility.yul\":187:199   */\n      revert\n        /* \"#utility.yul\":211:328   */\n    tag_99:\n        /* \"#utility.yul\":320:321   */\n      0x00\n        /* \"#utility.yul\":317:318   */\n      0x00\n        /* \"#utility.yul\":310:322   */\n      revert\n        /* \"#utility.yul\":334:411   */\n    tag_100:\n        /* \"#utility.yul\":371:378   */\n      0x00\n        /* \"#utility.yul\":400:405   */\n      dup2\n        /* \"#utility.yul\":389:405   */\n      swap1\n      pop\n        /* \"#utility.yul\":334:411   */\n      swap2\n      swap1\n      pop\n      jump\t// out\n        /* \"#utility.yul\":417:539   */\n    tag_101:\n        /* \"#utility.yul\":490:514   */\n      tag_164\n        /* \"#utility.yul\":508:513   */\n      dup2\n        /* \"#utility.yul\":490:514   */\n      tag_100\n      jump\t// in\n    tag_164:\n        /* \"#utility.yul\":483:488   */\n      dup2\n        /* \"#utility.yul\":480:515   */\n      eq\n        /* \"#utility.yul\":470:533   */\n      tag_165\n      jumpi\n        /* \"#utility.yul\":529:530   */\n      0x00\n        /* \"#utility.yul\":526:527   */\n      0x00\n        /* \"#utility.yul\":519:531   */\n      revert\n        /* \"#utility.yul\":470:533   */\n    tag_165:\n        /* \"#utility.yul\":417:539   */\n      pop\n      jump\t// out\n        /* \"#utility.yul\":545:684   */\n    tag_102:\n        /* \"#utility.yul\":591:596   */\n      0x00\n        /* \"#utility.yul\":629:635   */\n      dup2\n        /* \"#utility.yul\":616:636   */\n      calldataload\n        /* \"#utility.yul\":607:636   */\n      swap1\n      pop\n        /* \"#utility.yul\":645:678   */\n      tag_167\n        /* \"#utility.yul\":672:677   */\n      dup2\n        /* \"#utility.yul\":645:678   */\n      tag_101\n      jump\t// in\n    tag_167:\n        /* \"#utility.yul\":545:684   */\n      swap3\n      swap2\n      pop\n      pop\n      jump\t// out\n        /* \"#utility.yul\":690:1019   */\n    tag_11:\n        /* \"#utility.yul\":749:755   */\n      0x00\n        /* \"#utility.yul\":798:800   */\n      0x20\n        /* \"#utility.yul\":786:795   */\n      dup3\n        /* \"#utility.yul\":777:784   */\n      dup5\n        /* \"#utility.yul\":773:796   */\n      sub\n        /* \"#utility.yul\":769:801   */\n      slt\n        /* \"#utility.yul\":766:885   */\n      iszero\n      tag_169\n      jumpi\n        /* \"#utility.yul\":804:883   */\n      tag_170\n      tag_98\n      jump\t// in\n    tag_170:\n        /* \"#utility.yul\":766:885   */\n    tag_169:\n        /* \"#utility.yul\":924:925   */\n      0x00\n        /* \"#utility.yul\":949:1002   */\n      tag_171\n        /* \"#utility.yul\":994:1001   */\n      dup5\n        /* \"#utility.yul\":985:991   */\n      dup3\n        /* \"#utility.yul\":974:983   */\n      dup6\n        /* \"#utility.yul\":970:992   */\n      add\n        /* \"#utility.yul\":949:1002   */\n      tag_102\n      jump\t// in\n    tag_171:\n        /* \"#utility.yul\":939:1002   */\n      swap2\n      pop\n        /* \"#utility.yul\":895:1012   */\n      pop\n        /* \"#utility.yul\":690:1019   */\n      swap3\n      swap2\n      pop\n      pop\n      jump\t// out\n        /* \"#utility.yul\":1025:1143   */\n    tag_103:\n        /* \"#utility.yul\":1112:1136   */\n      tag_173\n        /* \"#utility.yul\":1130:1135   */\n      dup2\n        /* \"#utility.yul\":1112:1136   */\n      tag_100\n      jump\t// in\n    tag_173:\n        /* \"#utility.yul\":1107:1110   */\n      dup3\n        /* \"#utility.yul\":1100:1137   */\n      mstore\n        /* \"#utility.yul\":1025:1143   */\n      pop\n      pop\n      jump\t// out\n        /* \"#utility.yul\":1149:1371   */\n    tag_14:\n        /* \"#utility.yul\":1242:1246   */\n      0x00\n        /* \"#utility.yul\":1280:1282   */\n      0x20\n        /* \"#utility.yul\":1269:1278   */\n      dup3\n        /* \"#utility.yul\":1265:1283   */\n      add\n        /* \"#utility.yul\":1257:1283   */\n      swap1\n      pop\n        /* \"#utility.yul\":1293:1364   */\n      tag_175\n        /* \"#utility.yul\":1361:1362   */\n      0x00\n        /* \"#utility.yul\":1350:1359   */\n      dup4\n        /* \"#utility.yul\":1346:1363   */\n      add\n        /* \"#utility.yul\":1337:1343   */\n      dup5\n        /* \"#utility.yul\":1293:1364   */\n      tag_103\n      jump\t// in\n    tag_175:\n        /* \"#utility.yul\":1149:1371   */\n      swap3\n      swap2\n      pop\n      pop\n      jump\t// out\n        /* \"#utility.yul\":1377:1476   */\n    tag_104:\n        /* \"#utility.yul\":1429:1435   */\n      0x00\n        /* \"#utility.yul\":1463:1468   */\n      dup2\n        /* \"#utility.yul\":1457:1469   */\n      mload\n        /* \"#utility.yul\":1447:1469   */\n      swap1\n      pop\n        /* \"#utility.yul\":1377:1476   */\n      swap2\n      swap1\n      pop\n      jump\t// out\n        /* \"#utility.yul\":1482:1651   */\n    tag_105:\n        /* \"#utility.yul\":1566:1577   */\n      0x00\n        /* \"#utility.yul\":1600:1606   */\n      dup3\n        /* \"#utility.yul\":1595:1598   */\n      dup3\n        /* \"#utility.yul\":1588:1607   */\n      mstore\n        /* \"#utility.yul\":1640:1644   */\n      0x20\n        /* \"#utility.yul\":1635:1638   */\n      dup3\n        /* \"#utility.yul\":1631:1645   */\n      add\n        /* \"#utility.yul\":1616:1645   */\n      swap1\n      pop\n        /* \"#utility.yul\":1482:1651   */\n      swap3\n      swap2\n      pop\n      pop\n      jump\t// out\n        /* \"#utility.yul\":1657:1796   */\n    tag_106:\n        /* \"#utility.yul\":1746:1752   */\n      dup3\n        /* \"#utility.yul\":1741:1744   */\n      dup2\n        /* \"#utility.yul\":1736:1739   */\n      dup4\n        /* \"#utility.yul\":1730:1753   */\n      mcopy\n        /* \"#utility.yul\":1787:1788   */\n      0x00\n        /* \"#utility.yul\":1778:1784   */\n      dup4\n        /* \"#utility.yul\":1773:1776   */\n      dup4\n        /* \"#utility.yul\":1769:1785   */\n      add\n        /* \"#utility.yul\":1762:1789   */\n      mstore\n        /* \"#utility.yul\":1657:1796   */\n      pop\n      pop\n      pop\n      jump\t// out\n        /* \"#utility.yul\":1802:1904   */\n    tag_107:\n        /* \"#utility.yul\":1843:1849   */\n      0x00\n        /* \"#utility.yul\":1894:1896   */\n      0x1f\n        /* \"#utility.yul\":1890:1897   */\n      not\n        /* \"#utility.yul\":1885:1887   */\n      0x1f\n        /* \"#utility.yul\":1878:1883   */\n      dup4\n        /* \"#utility.yul\":1874:1888   */\n      add\n        /* \"#utility.yul\":1870:1898   */\n      and\n        /* \"#utility.yul\":1860:1898   */\n      swap1\n      pop\n        /* \"#utility.yul\":1802:1904   */\n      swap2\n      swap1\n      pop\n      jump\t// out\n        /* \"#utility.yul\":1910:2287   */\n    tag_108:\n        /* \"#utility.yul\":1998:2001   */\n      0x00\n        /* \"#utility.yul\":2026:2065   */\n      tag_181\n        /* \"#utility.yul\":2059:2064   */\n      dup3\n        /* \"#utility.yul\":2026:2065   */\n      tag_104\n      jump\t// in\n    tag_181:\n        /* \"#utility.yul\":2081:2152   */\n      tag_182\n        /* \"#utility.yul\":2145:2151   */\n      dup2\n        /* \"#utility.yul\":2140:2143   */\n      dup6\n        /* \"#utility.yul\":2081:2152   */\n      tag_105\n      jump\t// in\n    tag_182:\n        /* \"#utility.yul\":2074:2152   */\n      swap4\n      pop\n        /* \"#utility.yul\":2161:2226   */\n      tag_183\n        /* \"#utility.yul\":2219:2225   */\n      dup2\n        /* \"#utility.yul\":2214:2217   */\n      dup6\n        /* \"#utility.yul\":2207:2211   */\n      0x20\n        /* \"#utility.yul\":2200:2205   */\n      dup7\n        /* \"#utility.yul\":2196:2212   */\n      add\n        /* \"#utility.yul\":2161:2226   */\n      tag_106\n      jump\t// in\n    tag_183:\n        /* \"#utility.yul\":2251:2280   */\n      tag_184\n        /* \"#utility.yul\":2273:2279   */\n      dup2\n        /* \"#utility.yul\":2251:2280   */\n      tag_107\n      jump\t// in\n    tag_184:\n        /* \"#utility.yul\":2246:2249   */\n      dup5\n        /* \"#utility.yul\":2242:2281   */\n      add\n        /* \"#utility.yul\":2235:2281   */\n      swap2\n      pop\n        /* \"#utility.yul\":2002:2287   */\n      pop\n        /* \"#utility.yul\":1910:2287   */\n      swap3\n      swap2\n      pop\n      pop\n      jump\t// out\n        /* \"#utility.yul\":2293:2383   */\n    tag_109:\n        /* \"#utility.yul\":2327:2334   */\n      0x00\n        /* \"#utility.yul\":2370:2375   */\n      dup2\n        /* \"#utility.yul\":2363:2376   */\n      iszero\n        /* \"#utility.yul\":2356:2377   */\n      iszero\n        /* \"#utility.yul\":2345:2377   */\n      swap1\n      pop\n        /* \"#utility.yul\":2293:2383   */\n      swap2\n      swap1\n      pop\n      jump\t// out\n        /* \"#utility.yul\":2389:2498   */\n    tag_110:\n        /* \"#utility.yul\":2470:2491   */\n      tag_187\n        /* \"#utility.yul\":2485:2490   */\n      dup2\n        /* \"#utility.yul\":2470:2491   */\n      tag_109\n      jump\t// in\n    tag_187:\n        /* \"#utility.yul\":2465:2468   */\n      dup3\n        /* \"#utility.yul\":2458:2492   */\n      mstore\n        /* \"#utility.yul\":2389:2498   */\n      pop\n      pop\n      jump\t// out\n        /* \"#utility.yul\":2504:3227   */\n    tag_19:\n        /* \"#utility.yul\":2715:2719   */\n      0x00\n        /* \"#utility.yul\":2753:2756   */\n      0x80\n        /* \"#utility.yul\":2742:2751   */\n      dup3\n        /* \"#utility.yul\":2738:2757   */\n      add\n        /* \"#utility.yul\":2730:2757   */\n      swap1\n      pop\n        /* \"#utility.yul\":2803:2812   */\n      dup2\n        /* \"#utility.yul\":2797:2801   */\n      dup2\n        /* \"#utility.yul\":2793:2813   */\n      sub\n        /* \"#utility.yul\":2789:2790   */\n      0x00\n        /* \"#utility.yul\":2778:2787   */\n      dup4\n        /* \"#utility.yul\":2774:2791   */\n      add\n        /* \"#utility.yul\":2767:2814   */\n      mstore\n        /* \"#utility.yul\":2831:2909   */\n      tag_189\n        /* \"#utility.yul\":2904:2908   */\n      dup2\n        /* \"#utility.yul\":2895:2901   */\n      dup8\n        /* \"#utility.yul\":2831:2909   */\n      tag_108\n      jump\t// in\n    tag_189:\n        /* \"#utility.yul\":2823:2909   */\n      swap1\n      pop\n        /* \"#utility.yul\":2919:2991   */\n      tag_190\n        /* \"#utility.yul\":2987:2989   */\n      0x20\n        /* \"#utility.yul\":2976:2985   */\n      dup4\n        /* \"#utility.yul\":2972:2990   */\n      add\n        /* \"#utility.yul\":2963:2969   */\n      dup7\n        /* \"#utility.yul\":2919:2991   */\n      tag_103\n      jump\t// in\n    tag_190:\n        /* \"#utility.yul\":3038:3047   */\n      dup2\n        /* \"#utility.yul\":3032:3036   */\n      dup2\n        /* \"#utility.yul\":3028:3048   */\n      sub\n        /* \"#utility.yul\":3023:3025   */\n      0x40\n        /* \"#utility.yul\":3012:3021   */\n      dup4\n        /* \"#utility.yul\":3008:3026   */\n      add\n        /* \"#utility.yul\":3001:3049   */\n      mstore\n        /* \"#utility.yul\":3066:3144   */\n      tag_191\n        /* \"#utility.yul\":3139:3143   */\n      dup2\n        /* \"#utility.yul\":3130:3136   */\n      dup6\n        /* \"#utility.yul\":3066:3144   */\n      tag_108\n      jump\t// in\n    tag_191:\n        /* \"#utility.yul\":3058:3144   */\n      swap1\n      pop\n        /* \"#utility.yul\":3154:3220   */\n      tag_192\n        /* \"#utility.yul\":3216:3218   */\n      0x60\n        /* \"#utility.yul\":3205:3214   */\n      dup4\n        /* \"#utility.yul\":3201:3219   */\n      add\n        /* \"#utility.yul\":3192:3198   */\n      dup5\n        /* \"#utility.yul\":3154:3220   */\n      tag_110\n      jump\t// in\n    tag_192:\n        /* \"#utility.yul\":2504:3227   */\n      swap6\n      swap5\n      pop\n      pop\n      pop\n      pop\n      pop\n      jump\t// out\n        /* \"#utility.yul\":3233:3319   */\n    tag_111:\n        /* \"#utility.yul\":3268:3275   */\n      0x00\n        /* \"#utility.yul\":3308:3312   */\n      0xff\n        /* \"#utility.yul\":3301:3306   */\n      dup3\n        /* \"#utility.yul\":3297:3313   */\n      and\n        /* \"#utility.yul\":3286:3313   */\n      swap1\n      pop\n        /* \"#utility.yul\":3233:3319   */\n      swap2\n      swap1\n      pop\n      jump\t// out\n        /* \"#utility.yul\":3325:3443   */\n    tag_112:\n        /* \"#utility.yul\":3396:3418   */\n      tag_195\n        /* \"#utility.yul\":3412:3417   */\n      dup2\n        /* \"#utility.yul\":3396:3418   */\n      tag_111\n      jump\t// in\n    tag_195:\n        /* \"#utility.yul\":3389:3394   */\n      dup2\n        /* \"#utility.yul\":3386:3419   */\n      eq\n        /* \"#utility.yul\":3376:3437   */\n      tag_196\n      jumpi\n        /* \"#utility.yul\":3433:3434   */\n      0x00\n        /* \"#utility.yul\":3430:3431   */\n      0x00\n        /* \"#utility.yul\":3423:3435   */\n      revert\n        /* \"#utility.yul\":3376:3437   */\n    tag_196:\n        /* \"#utility.yul\":3325:3443   */\n      pop\n      jump\t// out\n        /* \"#utility.yul\":3449:3584   */\n    tag_113:\n        /* \"#utility.yul\":3493:3498   */\n      0x00\n        /* \"#utility.yul\":3531:3537   */\n      dup2\n        /* \"#utility.yul\":3518:3538   */\n      calldataload\n        /* \"#utility.yul\":3509:3538   */\n      swap1\n      pop\n        /* \"#utility.yul\":3547:3578   */\n      tag_198\n        /* \"#utility.yul\":3572:3577   */\n      dup2\n        /* \"#utility.yul\":3547:3578   */\n      tag_112\n      jump\t// in\n    tag_198:\n        /* \"#utility.yul\":3449:3584   */\n      swap3\n      swap2\n      pop\n      pop\n      jump\t// out\n        /* \"#utility.yul\":3590:4060   */\n    tag_22:\n        /* \"#utility.yul\":3656:3662   */\n      0x00\n        /* \"#utility.yul\":3664:3670   */\n      0x00\n        /* \"#utility.yul\":3713:3715   */\n      0x40\n        /* \"#utility.yul\":3701:3710   */\n      dup4\n        /* \"#utility.yul\":3692:3699   */\n      dup6\n        /* \"#utility.yul\":3688:3711   */\n      sub\n        /* \"#utility.yul\":3684:3716   */\n      slt\n        /* \"#utility.yul\":3681:3800   */\n      iszero\n      tag_200\n      jumpi\n        /* \"#utility.yul\":3719:3798   */\n      tag_201\n      tag_98\n      jump\t// in\n    tag_201:\n        /* \"#utility.yul\":3681:3800   */\n    tag_200:\n        /* \"#utility.yul\":3839:3840   */\n      0x00\n        /* \"#utility.yul\":3864:3917   */\n      tag_202\n        /* \"#utility.yul\":3909:3916   */\n      dup6\n        /* \"#utility.yul\":3900:3906   */\n      dup3\n        /* \"#utility.yul\":3889:3898   */\n      dup7\n        /* \"#utility.yul\":3885:3907   */\n      add\n        /* \"#utility.yul\":3864:3917   */\n      tag_102\n      jump\t// in\n    tag_202:\n        /* \"#utility.yul\":3854:3917   */\n      swap3\n      pop\n        /* \"#utility.yul\":3810:3927   */\n      pop\n        /* \"#utility.yul\":3966:3968   */\n      0x20\n        /* \"#utility.yul\":3992:4043   */\n      tag_203\n        /* \"#utility.yul\":4035:4042   */\n      dup6\n        /* \"#utility.yul\":4026:4032   */\n      dup3\n        /* \"#utility.yul\":4015:4024   */\n      dup7\n        /* \"#utility.yul\":4011:4033   */\n      add\n        /* \"#utility.yul\":3992:4043   */\n      tag_113\n      jump\t// in\n    tag_203:\n        /* \"#utility.yul\":3982:4043   */\n      swap2\n      pop\n        /* \"#utility.yul\":3937:4053   */\n      pop\n        /* \"#utility.yul\":3590:4060   */\n      swap3\n      pop\n      swap3\n      swap1\n      pop\n      jump\t// out\n        /* \"#utility.yul\":4066:4183   */\n    tag_114:\n        /* \"#utility.yul\":4175:4176   */\n      0x00\n        /* \"#utility.yul\":4172:4173   */\n      0x00\n        /* \"#utility.yul\":4165:4177   */\n      revert\n        /* \"#utility.yul\":4189:4306   */\n    tag_115:\n        /* \"#utility.yul\":4298:4299   */\n      0x00\n        /* \"#utility.yul\":4295:4296   */\n      0x00\n        /* \"#utility.yul\":4288:4300   */\n      revert\n        /* \"#utility.yul\":4312:4492   */\n    tag_116:\n        /* \"#utility.yul\":4360:4437   */\n      0x4e487b7100000000000000000000000000000000000000000000000000000000\n        /* \"#utility.yul\":4357:4358   */\n      0x00\n        /* \"#utility.yul\":4350:4438   */\n      mstore\n        /* \"#utility.yul\":4457:4461   */\n      0x41\n        /* \"#utility.yul\":4454:4455   */\n      0x04\n        /* \"#utility.yul\":4447:4462   */\n      mstore\n        /* \"#utility.yul\":4481:4485   */\n      0x24\n        /* \"#utility.yul\":4478:4479   */\n      0x00\n        /* \"#utility.yul\":4471:4486   */\n      revert\n        /* \"#utility.yul\":4498:4779   */\n    tag_117:\n        /* \"#utility.yul\":4581:4608   */\n      tag_208\n        /* \"#utility.yul\":4603:4607   */\n      dup3\n        /* \"#utility.yul\":4581:4608   */\n      tag_107\n      jump\t// in\n    tag_208:\n        /* \"#utility.yul\":4573:4579   */\n      dup2\n        /* \"#utility.yul\":4569:4609   */\n      add\n        /* \"#utility.yul\":4711:4717   */\n      dup2\n        /* \"#utility.yul\":4699:4709   */\n      dup2\n        /* \"#utility.yul\":4696:4718   */\n      lt\n        /* \"#utility.yul\":4675:4693   */\n      0xffffffffffffffff\n        /* \"#utility.yul\":4663:4673   */\n      dup3\n        /* \"#utility.yul\":4660:4694   */\n      gt\n        /* \"#utility.yul\":4657:4719   */\n      or\n        /* \"#utility.yul\":4654:4742   */\n      iszero\n      tag_209\n      jumpi\n        /* \"#utility.yul\":4722:4740   */\n      tag_210\n      tag_116\n      jump\t// in\n    tag_210:\n        /* \"#utility.yul\":4654:4742   */\n    tag_209:\n        /* \"#utility.yul\":4762:4772   */\n      dup1\n        /* \"#utility.yul\":4758:4760   */\n      0x40\n        /* \"#utility.yul\":4751:4773   */\n      mstore\n        /* \"#utility.yul\":4541:4779   */\n      pop\n        /* \"#utility.yul\":4498:4779   */\n      pop\n      pop\n      jump\t// out\n        /* \"#utility.yul\":4785:4914   */\n    tag_118:\n        /* \"#utility.yul\":4819:4825   */\n      0x00\n        /* \"#utility.yul\":4846:4866   */\n      tag_212\n      tag_97\n      jump\t// in\n    tag_212:\n        /* \"#utility.yul\":4836:4866   */\n      swap1\n      pop\n        /* \"#utility.yul\":4875:4908   */\n      tag_213\n        /* \"#utility.yul\":4903:4907   */\n      dup3\n        /* \"#utility.yul\":4895:4901   */\n      dup3\n        /* \"#utility.yul\":4875:4908   */\n      tag_117\n      jump\t// in\n    tag_213:\n        /* \"#utility.yul\":4785:4914   */\n      swap2\n      swap1\n      pop\n      jump\t// out\n        /* \"#utility.yul\":4920:5228   */\n    tag_119:\n        /* \"#utility.yul\":4982:4986   */\n      0x00\n        /* \"#utility.yul\":5072:5090   */\n      0xffffffffffffffff\n        /* \"#utility.yul\":5064:5070   */\n      dup3\n        /* \"#utility.yul\":5061:5091   */\n      gt\n        /* \"#utility.yul\":5058:5114   */\n      iszero\n      tag_215\n      jumpi\n        /* \"#utility.yul\":5094:5112   */\n      tag_216\n      tag_116\n      jump\t// in\n    tag_216:\n        /* \"#utility.yul\":5058:5114   */\n    tag_215:\n        /* \"#utility.yul\":5132:5161   */\n      tag_217\n        /* \"#utility.yul\":5154:5160   */\n      dup3\n        /* \"#utility.yul\":5132:5161   */\n      tag_107\n      jump\t// in\n    tag_217:\n        /* \"#utility.yul\":5124:5161   */\n      swap1\n      pop\n        /* \"#utility.yul\":5216:5220   */\n      0x20\n        /* \"#utility.yul\":5210:5214   */\n      dup2\n        /* \"#utility.yul\":5206:5221   */\n      add\n        /* \"#utility.yul\":5198:5221   */\n      swap1\n      pop\n        /* \"#utility.yul\":4920:5228   */\n      swap2\n      swap1\n      pop\n      jump\t// out\n        /* \"#utility.yul\":5234:5382   */\n    tag_120:\n        /* \"#utility.yul\":5332:5338   */\n      dup3\n        /* \"#utility.yul\":5327:5330   */\n      dup2\n        /* \"#utility.yul\":5322:5325   */\n      dup4\n        /* \"#utility.yul\":5309:5339   */\n      calldatacopy\n        /* \"#utility.yul\":5373:5374   */\n      0x00\n        /* \"#utility.yul\":5364:5370   */\n      dup4\n        /* \"#utility.yul\":5359:5362   */\n      dup4\n        /* \"#utility.yul\":5355:5371   */\n      add\n        /* \"#utility.yul\":5348:5375   */\n      mstore\n        /* \"#utility.yul\":5234:5382   */\n      pop\n      pop\n      pop\n      jump\t// out\n        /* \"#utility.yul\":5388:5813   */\n    tag_121:\n        /* \"#utility.yul\":5466:5471   */\n      0x00\n        /* \"#utility.yul\":5491:5557   */\n      tag_220\n        /* \"#utility.yul\":5507:5556   */\n      tag_221\n        /* \"#utility.yul\":5549:5555   */\n      dup5\n        /* \"#utility.yul\":5507:5556   */\n      tag_119\n      jump\t// in\n    tag_221:\n        /* \"#utility.yul\":5491:5557   */\n      tag_118\n      jump\t// in\n    tag_220:\n        /* \"#utility.yul\":5482:5557   */\n      swap1\n      pop\n        /* \"#utility.yul\":5580:5586   */\n      dup3\n        /* \"#utility.yul\":5573:5578   */\n      dup2\n        /* \"#utility.yul\":5566:5587   */\n      mstore\n        /* \"#utility.yul\":5618:5622   */\n      0x20\n        /* \"#utility.yul\":5611:5616   */\n      dup2\n        /* \"#utility.yul\":5607:5623   */\n      add\n        /* \"#utility.yul\":5656:5659   */\n      dup5\n        /* \"#utility.yul\":5647:5653   */\n      dup5\n        /* \"#utility.yul\":5642:5645   */\n      dup5\n        /* \"#utility.yul\":5638:5654   */\n      add\n        /* \"#utility.yul\":5635:5660   */\n      gt\n        /* \"#utility.yul\":5632:5744   */\n      iszero\n      tag_222\n      jumpi\n        /* \"#utility.yul\":5663:5742   */\n      tag_223\n      tag_115\n      jump\t// in\n    tag_223:\n        /* \"#utility.yul\":5632:5744   */\n    tag_222:\n        /* \"#utility.yul\":5753:5807   */\n      tag_224\n        /* \"#utility.yul\":5800:5806   */\n      dup5\n        /* \"#utility.yul\":5795:5798   */\n      dup3\n        /* \"#utility.yul\":5790:5793   */\n      dup6\n        /* \"#utility.yul\":5753:5807   */\n      tag_120\n      jump\t// in\n    tag_224:\n        /* \"#utility.yul\":5472:5813   */\n      pop\n        /* \"#utility.yul\":5388:5813   */\n      swap4\n      swap3\n      pop\n      pop\n      pop\n      jump\t// out\n        /* \"#utility.yul\":5833:6173   */\n    tag_122:\n        /* \"#utility.yul\":5889:5894   */\n      0x00\n        /* \"#utility.yul\":5938:5941   */\n      dup3\n        /* \"#utility.yul\":5931:5935   */\n      0x1f\n        /* \"#utility.yul\":5923:5929   */\n      dup4\n        /* \"#utility.yul\":5919:5936   */\n      add\n        /* \"#utility.yul\":5915:5942   */\n      slt\n        /* \"#utility.yul\":5905:6027   */\n      tag_226\n      jumpi\n        /* \"#utility.yul\":5946:6025   */\n      tag_227\n      tag_114\n      jump\t// in\n    tag_227:\n        /* \"#utility.yul\":5905:6027   */\n    tag_226:\n        /* \"#utility.yul\":6063:6069   */\n      dup2\n        /* \"#utility.yul\":6050:6070   */\n      calldataload\n        /* \"#utility.yul\":6088:6167   */\n      tag_228\n        /* \"#utility.yul\":6163:6166   */\n      dup5\n        /* \"#utility.yul\":6155:6161   */\n      dup3\n        /* \"#utility.yul\":6148:6152   */\n      0x20\n        /* \"#utility.yul\":6140:6146   */\n      dup7\n        /* \"#utility.yul\":6136:6153   */\n      add\n        /* \"#utility.yul\":6088:6167   */\n      tag_121\n      jump\t// in\n    tag_228:\n        /* \"#utility.yul\":6079:6167   */\n      swap2\n      pop\n        /* \"#utility.yul\":5895:6173   */\n      pop\n        /* \"#utility.yul\":5833:6173   */\n      swap3\n      swap2\n      pop\n      pop\n      jump\t// out\n        /* \"#utility.yul\":6179:7013   */\n    tag_26:\n        /* \"#utility.yul\":6267:6273   */\n      0x00\n        /* \"#utility.yul\":6275:6281   */\n      0x00\n        /* \"#utility.yul\":6324:6326   */\n      0x40\n        /* \"#utility.yul\":6312:6321   */\n      dup4\n        /* \"#utility.yul\":6303:6310   */\n      dup6\n        /* \"#utility.yul\":6299:6322   */\n      sub\n        /* \"#utility.yul\":6295:6327   */\n      slt\n        /* \"#utility.yul\":6292:6411   */\n      iszero\n      tag_230\n      jumpi\n        /* \"#utility.yul\":6330:6409   */\n      tag_231\n      tag_98\n      jump\t// in\n    tag_231:\n        /* \"#utility.yul\":6292:6411   */\n    tag_230:\n        /* \"#utility.yul\":6478:6479   */\n      0x00\n        /* \"#utility.yul\":6467:6476   */\n      dup4\n        /* \"#utility.yul\":6463:6480   */\n      add\n        /* \"#utility.yul\":6450:6481   */\n      calldataload\n        /* \"#utility.yul\":6508:6526   */\n      0xffffffffffffffff\n        /* \"#utility.yul\":6500:6506   */\n      dup2\n        /* \"#utility.yul\":6497:6527   */\n      gt\n        /* \"#utility.yul\":6494:6611   */\n      iszero\n      tag_232\n      jumpi\n        /* \"#utility.yul\":6530:6609   */\n      tag_233\n      tag_99\n      jump\t// in\n    tag_233:\n        /* \"#utility.yul\":6494:6611   */\n    tag_232:\n        /* \"#utility.yul\":6635:6698   */\n      tag_234\n        /* \"#utility.yul\":6690:6697   */\n      dup6\n        /* \"#utility.yul\":6681:6687   */\n      dup3\n        /* \"#utility.yul\":6670:6679   */\n      dup7\n        /* \"#utility.yul\":6666:6688   */\n      add\n        /* \"#utility.yul\":6635:6698   */\n      tag_122\n      jump\t// in\n    tag_234:\n        /* \"#utility.yul\":6625:6698   */\n      swap3\n      pop\n        /* \"#utility.yul\":6421:6708   */\n      pop\n        /* \"#utility.yul\":6775:6777   */\n      0x20\n        /* \"#utility.yul\":6764:6773   */\n      dup4\n        /* \"#utility.yul\":6760:6778   */\n      add\n        /* \"#utility.yul\":6747:6779   */\n      calldataload\n        /* \"#utility.yul\":6806:6824   */\n      0xffffffffffffffff\n        /* \"#utility.yul\":6798:6804   */\n      dup2\n        /* \"#utility.yul\":6795:6825   */\n      gt\n        /* \"#utility.yul\":6792:6909   */\n      iszero\n      tag_235\n      jumpi\n        /* \"#utility.yul\":6828:6907   */\n      tag_236\n      tag_99\n      jump\t// in\n    tag_236:\n        /* \"#utility.yul\":6792:6909   */\n    tag_235:\n        /* \"#utility.yul\":6933:6996   */\n      tag_237\n        /* \"#utility.yul\":6988:6995   */\n      dup6\n        /* \"#utility.yul\":6979:6985   */\n      dup3\n        /* \"#utility.yul\":6968:6977   */\n      dup7\n        /* \"#utility.yul\":6964:6986   */\n      add\n        /* \"#utility.yul\":6933:6996   */\n      tag_122\n      jump\t// in\n    tag_237:\n        /* \"#utility.yul\":6923:6996   */\n      swap2\n      pop\n        /* \"#utility.yul\":6718:7006   */\n      pop\n        /* \"#utility.yul\":6179:7013   */\n      swap3\n      pop\n      swap3\n      swap1\n      pop\n      jump\t// out\n        /* \"#utility.yul\":7019:7133   */\n    tag_123:\n        /* \"#utility.yul\":7086:7092   */\n      0x00\n        /* \"#utility.yul\":7120:7125   */\n      dup2\n        /* \"#utility.yul\":7114:7126   */\n      mload\n        /* \"#utility.yul\":7104:7126   */\n      swap1\n      pop\n        /* \"#utility.yul\":7019:7133   */\n      swap2\n      swap1\n      pop\n      jump\t// out\n        /* \"#utility.yul\":7139:7323   */\n    tag_124:\n        /* \"#utility.yul\":7238:7249   */\n      0x00\n        /* \"#utility.yul\":7272:7278   */\n      dup3\n        /* \"#utility.yul\":7267:7270   */\n      dup3\n        /* \"#utility.yul\":7260:7279   */\n      mstore\n        /* \"#utility.yul\":7312:7316   */\n      0x20\n        /* \"#utility.yul\":7307:7310   */\n      dup3\n        /* \"#utility.yul\":7303:7317   */\n      add\n        /* \"#utility.yul\":7288:7317   */\n      swap1\n      pop\n        /* \"#utility.yul\":7139:7323   */\n      swap3\n      swap2\n      pop\n      pop\n      jump\t// out\n        /* \"#utility.yul\":7329:7461   */\n    tag_125:\n        /* \"#utility.yul\":7396:7400   */\n      0x00\n        /* \"#utility.yul\":7419:7422   */\n      dup2\n        /* \"#utility.yul\":7411:7422   */\n      swap1\n      pop\n        /* \"#utility.yul\":7449:7453   */\n      0x20\n        /* \"#utility.yul\":7444:7447   */\n      dup3\n        /* \"#utility.yul\":7440:7454   */\n      add\n        /* \"#utility.yul\":7432:7454   */\n      swap1\n      pop\n        /* \"#utility.yul\":7329:7461   */\n      swap2\n      swap1\n      pop\n      jump\t// out\n        /* \"#utility.yul\":7467:7575   */\n    tag_126:\n        /* \"#utility.yul\":7544:7568   */\n      tag_242\n        /* \"#utility.yul\":7562:7567   */\n      dup2\n        /* \"#utility.yul\":7544:7568   */\n      tag_100\n      jump\t// in\n    tag_242:\n        /* \"#utility.yul\":7539:7542   */\n      dup3\n        /* \"#utility.yul\":7532:7569   */\n      mstore\n        /* \"#utility.yul\":7467:7575   */\n      pop\n      pop\n      jump\t// out\n        /* \"#utility.yul\":7581:7760   */\n    tag_127:\n        /* \"#utility.yul\":7650:7660   */\n      0x00\n        /* \"#utility.yul\":7671:7717   */\n      tag_244\n        /* \"#utility.yul\":7713:7716   */\n      dup4\n        /* \"#utility.yul\":7705:7711   */\n      dup4\n        /* \"#utility.yul\":7671:7717   */\n      tag_126\n      jump\t// in\n    tag_244:\n        /* \"#utility.yul\":7749:7753   */\n      0x20\n        /* \"#utility.yul\":7744:7747   */\n      dup4\n        /* \"#utility.yul\":7740:7754   */\n      add\n        /* \"#utility.yul\":7726:7754   */\n      swap1\n      pop\n        /* \"#utility.yul\":7581:7760   */\n      swap3\n      swap2\n      pop\n      pop\n      jump\t// out\n        /* \"#utility.yul\":7766:7879   */\n    tag_128:\n        /* \"#utility.yul\":7836:7840   */\n      0x00\n        /* \"#utility.yul\":7868:7872   */\n      0x20\n        /* \"#utility.yul\":7863:7866   */\n      dup3\n        /* \"#utility.yul\":7859:7873   */\n      add\n        /* \"#utility.yul\":7851:7873   */\n      swap1\n      pop\n        /* \"#utility.yul\":7766:7879   */\n      swap2\n      swap1\n      pop\n      jump\t// out\n        /* \"#utility.yul\":7915:8647   */\n    tag_129:\n        /* \"#utility.yul\":8034:8037   */\n      0x00\n        /* \"#utility.yul\":8063:8117   */\n      tag_247\n        /* \"#utility.yul\":8111:8116   */\n      dup3\n        /* \"#utility.yul\":8063:8117   */\n      tag_123\n      jump\t// in\n    tag_247:\n        /* \"#utility.yul\":8133:8219   */\n      tag_248\n        /* \"#utility.yul\":8212:8218   */\n      dup2\n        /* \"#utility.yul\":8207:8210   */\n      dup6\n        /* \"#utility.yul\":8133:8219   */\n      tag_124\n      jump\t// in\n    tag_248:\n        /* \"#utility.yul\":8126:8219   */\n      swap4\n      pop\n        /* \"#utility.yul\":8243:8299   */\n      tag_249\n        /* \"#utility.yul\":8293:8298   */\n      dup4\n        /* \"#utility.yul\":8243:8299   */\n      tag_125\n      jump\t// in\n    tag_249:\n        /* \"#utility.yul\":8322:8329   */\n      dup1\n        /* \"#utility.yul\":8353:8354   */\n      0x00\n        /* \"#utility.yul\":8338:8622   */\n    tag_250:\n        /* \"#utility.yul\":8363:8369   */\n      dup4\n        /* \"#utility.yul\":8360:8361   */\n      dup2\n        /* \"#utility.yul\":8357:8370   */\n      lt\n        /* \"#utility.yul\":8338:8622   */\n      iszero\n      tag_252\n      jumpi\n        /* \"#utility.yul\":8439:8445   */\n      dup2\n        /* \"#utility.yul\":8433:8446   */\n      mload\n        /* \"#utility.yul\":8466:8529   */\n      tag_253\n        /* \"#utility.yul\":8525:8528   */\n      dup9\n        /* \"#utility.yul\":8510:8523   */\n      dup3\n        /* \"#utility.yul\":8466:8529   */\n      tag_127\n      jump\t// in\n    tag_253:\n        /* \"#utility.yul\":8459:8529   */\n      swap8\n      pop\n        /* \"#utility.yul\":8552:8612   */\n      tag_254\n        /* \"#utility.yul\":8605:8611   */\n      dup4\n        /* \"#utility.yul\":8552:8612   */\n      tag_128\n      jump\t// in\n    tag_254:\n        /* \"#utility.yul\":8542:8612   */\n      swap3\n      pop\n        /* \"#utility.yul\":8398:8622   */\n      pop\n        /* \"#utility.yul\":8385:8386   */\n      0x01\n        /* \"#utility.yul\":8382:8383   */\n      dup2\n        /* \"#utility.yul\":8378:8387   */\n      add\n        /* \"#utility.yul\":8373:8387   */\n      swap1\n      pop\n        /* \"#utility.yul\":8338:8622   */\n      jump(tag_250)\n    tag_252:\n        /* \"#utility.yul\":8342:8356   */\n      pop\n        /* \"#utility.yul\":8638:8641   */\n      dup6\n        /* \"#utility.yul\":8631:8641   */\n      swap4\n      pop\n        /* \"#utility.yul\":8039:8647   */\n      pop\n      pop\n      pop\n        /* \"#utility.yul\":7915:8647   */\n      swap3\n      swap2\n      pop\n      pop\n      jump\t// out\n        /* \"#utility.yul\":8653:9638   */\n    tag_32:\n        /* \"#utility.yul\":8942:8946   */\n      0x00\n        /* \"#utility.yul\":8980:8983   */\n      0xa0\n        /* \"#utility.yul\":8969:8978   */\n      dup3\n        /* \"#utility.yul\":8965:8984   */\n      add\n        /* \"#utility.yul\":8957:8984   */\n      swap1\n      pop\n        /* \"#utility.yul\":9030:9039   */\n      dup2\n        /* \"#utility.yul\":9024:9028   */\n      dup2\n        /* \"#utility.yul\":9020:9040   */\n      sub\n        /* \"#utility.yul\":9016:9017   */\n      0x00\n        /* \"#utility.yul\":9005:9014   */\n      dup4\n        /* \"#utility.yul\":9001:9018   */\n      add\n        /* \"#utility.yul\":8994:9041   */\n      mstore\n        /* \"#utility.yul\":9058:9136   */\n      tag_256\n        /* \"#utility.yul\":9131:9135   */\n      dup2\n        /* \"#utility.yul\":9122:9128   */\n      dup9\n        /* \"#utility.yul\":9058:9136   */\n      tag_108\n      jump\t// in\n    tag_256:\n        /* \"#utility.yul\":9050:9136   */\n      swap1\n      pop\n        /* \"#utility.yul\":9146:9218   */\n      tag_257\n        /* \"#utility.yul\":9214:9216   */\n      0x20\n        /* \"#utility.yul\":9203:9212   */\n      dup4\n        /* \"#utility.yul\":9199:9217   */\n      add\n        /* \"#utility.yul\":9190:9196   */\n      dup8\n        /* \"#utility.yul\":9146:9218   */\n      tag_103\n      jump\t// in\n    tag_257:\n        /* \"#utility.yul\":9265:9274   */\n      dup2\n        /* \"#utility.yul\":9259:9263   */\n      dup2\n        /* \"#utility.yul\":9255:9275   */\n      sub\n        /* \"#utility.yul\":9250:9252   */\n      0x40\n        /* \"#utility.yul\":9239:9248   */\n      dup4\n        /* \"#utility.yul\":9235:9253   */\n      add\n        /* \"#utility.yul\":9228:9276   */\n      mstore\n        /* \"#utility.yul\":9293:9371   */\n      tag_258\n        /* \"#utility.yul\":9366:9370   */\n      dup2\n        /* \"#utility.yul\":9357:9363   */\n      dup7\n        /* \"#utility.yul\":9293:9371   */\n      tag_108\n      jump\t// in\n    tag_258:\n        /* \"#utility.yul\":9285:9371   */\n      swap1\n      pop\n        /* \"#utility.yul\":9418:9427   */\n      dup2\n        /* \"#utility.yul\":9412:9416   */\n      dup2\n        /* \"#utility.yul\":9408:9428   */\n      sub\n        /* \"#utility.yul\":9403:9405   */\n      0x60\n        /* \"#utility.yul\":9392:9401   */\n      dup4\n        /* \"#utility.yul\":9388:9406   */\n      add\n        /* \"#utility.yul\":9381:9429   */\n      mstore\n        /* \"#utility.yul\":9446:9554   */\n      tag_259\n        /* \"#utility.yul\":9549:9553   */\n      dup2\n        /* \"#utility.yul\":9540:9546   */\n      dup6\n        /* \"#utility.yul\":9446:9554   */\n      tag_129\n      jump\t// in\n    tag_259:\n        /* \"#utility.yul\":9438:9554   */\n      swap1\n      pop\n        /* \"#utility.yul\":9564:9631   */\n      tag_260\n        /* \"#utility.yul\":9626:9629   */\n      0x80\n        /* \"#utility.yul\":9615:9624   */\n      dup4\n        /* \"#utility.yul\":9611:9630   */\n      add\n        /* \"#utility.yul\":9602:9608   */\n      dup5\n        /* \"#utility.yul\":9564:9631   */\n      tag_110\n      jump\t// in\n    tag_260:\n        /* \"#utility.yul\":8653:9638   */\n      swap7\n      swap6\n      pop\n      pop\n      pop\n      pop\n      pop\n      pop\n      jump\t// out\n        /* \"#utility.yul\":9644:9770   */\n    tag_130:\n        /* \"#utility.yul\":9681:9688   */\n      0x00\n        /* \"#utility.yul\":9721:9763   */\n      0xffffffffffffffffffffffffffffffffffffffff\n        /* \"#utility.yul\":9714:9719   */\n      dup3\n        /* \"#utility.yul\":9710:9764   */\n      and\n        /* \"#utility.yul\":9699:9764   */\n      swap1\n      pop\n        /* \"#utility.yul\":9644:9770   */\n      swap2\n      swap1\n      pop\n      jump\t// out\n        /* \"#utility.yul\":9776:9872   */\n    tag_131:\n        /* \"#utility.yul\":9813:9820   */\n      0x00\n        /* \"#utility.yul\":9842:9866   */\n      tag_263\n        /* \"#utility.yul\":9860:9865   */\n      dup3\n        /* \"#utility.yul\":9842:9866   */\n      tag_130\n      jump\t// in\n    tag_263:\n        /* \"#utility.yul\":9831:9866   */\n      swap1\n      pop\n        /* \"#utility.yul\":9776:9872   */\n      swap2\n      swap1\n      pop\n      jump\t// out\n        /* \"#utility.yul\":9878:10000   */\n    tag_132:\n        /* \"#utility.yul\":9951:9975   */\n      tag_265\n        /* \"#utility.yul\":9969:9974   */\n      dup2\n        /* \"#utility.yul\":9951:9975   */\n      tag_131\n      jump\t// in\n    tag_265:\n        /* \"#utility.yul\":9944:9949   */\n      dup2\n        /* \"#utility.yul\":9941:9976   */\n      eq\n        /* \"#utility.yul\":9931:9994   */\n      tag_266\n      jumpi\n        /* \"#utility.yul\":9990:9991   */\n      0x00\n        /* \"#utility.yul\":9987:9988   */\n      0x00\n        /* \"#utility.yul\":9980:9992   */\n      revert\n        /* \"#utility.yul\":9931:9994   */\n    tag_266:\n        /* \"#utility.yul\":9878:10000   */\n      pop\n      jump\t// out\n        /* \"#utility.yul\":10006:10145   */\n    tag_133:\n        /* \"#utility.yul\":10052:10057   */\n      0x00\n        /* \"#utility.yul\":10090:10096   */\n      dup2\n        /* \"#utility.yul\":10077:10097   */\n      calldataload\n        /* \"#utility.yul\":10068:10097   */\n      swap1\n      pop\n        /* \"#utility.yul\":10106:10139   */\n      tag_268\n        /* \"#utility.yul\":10133:10138   */\n      dup2\n        /* \"#utility.yul\":10106:10139   */\n      tag_132\n      jump\t// in\n    tag_268:\n        /* \"#utility.yul\":10006:10145   */\n      swap3\n      swap2\n      pop\n      pop\n      jump\t// out\n        /* \"#utility.yul\":10151:10480   */\n    tag_35:\n        /* \"#utility.yul\":10210:10216   */\n      0x00\n        /* \"#utility.yul\":10259:10261   */\n      0x20\n        /* \"#utility.yul\":10247:10256   */\n      dup3\n        /* \"#utility.yul\":10238:10245   */\n      dup5\n        /* \"#utility.yul\":10234:10257   */\n      sub\n        /* \"#utility.yul\":10230:10262   */\n      slt\n        /* \"#utility.yul\":10227:10346   */\n      iszero\n      tag_270\n      jumpi\n        /* \"#utility.yul\":10265:10344   */\n      tag_271\n      tag_98\n      jump\t// in\n    tag_271:\n        /* \"#utility.yul\":10227:10346   */\n    tag_270:\n        /* \"#utility.yul\":10385:10386   */\n      0x00\n        /* \"#utility.yul\":10410:10463   */\n      tag_272\n        /* \"#utility.yul\":10455:10462   */\n      dup5\n        /* \"#utility.yul\":10446:10452   */\n      dup3\n        /* \"#utility.yul\":10435:10444   */\n      dup6\n        /* \"#utility.yul\":10431:10453   */\n      add\n        /* \"#utility.yul\":10410:10463   */\n      tag_133\n      jump\t// in\n    tag_272:\n        /* \"#utility.yul\":10400:10463   */\n      swap2\n      pop\n        /* \"#utility.yul\":10356:10473   */\n      pop\n        /* \"#utility.yul\":10151:10480   */\n      swap3\n      swap2\n      pop\n      pop\n      jump\t// out\n        /* \"#utility.yul\":10486:10696   */\n    tag_38:\n        /* \"#utility.yul\":10573:10577   */\n      0x00\n        /* \"#utility.yul\":10611:10613   */\n      0x20\n        /* \"#utility.yul\":10600:10609   */\n      dup3\n        /* \"#utility.yul\":10596:10614   */\n      add\n        /* \"#utility.yul\":10588:10614   */\n      swap1\n      pop\n        /* \"#utility.yul\":10624:10689   */\n      tag_274\n        /* \"#utility.yul\":10686:10687   */\n      0x00\n        /* \"#utility.yul\":10675:10684   */\n      dup4\n        /* \"#utility.yul\":10671:10688   */\n      add\n        /* \"#utility.yul\":10662:10668   */\n      dup5\n        /* \"#utility.yul\":10624:10689   */\n      tag_110\n      jump\t// in\n    tag_274:\n        /* \"#utility.yul\":10486:10696   */\n      swap3\n      swap2\n      pop\n      pop\n      jump\t// out\n        /* \"#utility.yul\":10702:10882   */\n    tag_134:\n        /* \"#utility.yul\":10750:10827   */\n      0x4e487b7100000000000000000000000000000000000000000000000000000000\n        /* \"#utility.yul\":10747:10748   */\n      0x00\n        /* \"#utility.yul\":10740:10828   */\n      mstore\n        /* \"#utility.yul\":10847:10851   */\n      0x22\n        /* \"#utility.yul\":10844:10845   */\n      0x04\n        /* \"#utility.yul\":10837:10852   */\n      mstore\n        /* \"#utility.yul\":10871:10875   */\n      0x24\n        /* \"#utility.yul\":10868:10869   */\n      0x00\n        /* \"#utility.yul\":10861:10876   */\n      revert\n        /* \"#utility.yul\":10888:11208   */\n    tag_42:\n        /* \"#utility.yul\":10932:10938   */\n      0x00\n        /* \"#utility.yul\":10969:10970   */\n      0x02\n        /* \"#utility.yul\":10963:10967   */\n      dup3\n        /* \"#utility.yul\":10959:10971   */\n      div\n        /* \"#utility.yul\":10949:10971   */\n      swap1\n      pop\n        /* \"#utility.yul\":11016:11017   */\n      0x01\n        /* \"#utility.yul\":11010:11014   */\n      dup3\n        /* \"#utility.yul\":11006:11018   */\n      and\n        /* \"#utility.yul\":11037:11055   */\n      dup1\n        /* \"#utility.yul\":11027:11108   */\n      tag_277\n      jumpi\n        /* \"#utility.yul\":11093:11097   */\n      0x7f\n        /* \"#utility.yul\":11085:11091   */\n      dup3\n        /* \"#utility.yul\":11081:11098   */\n      and\n        /* \"#utility.yul\":11071:11098   */\n      swap2\n      pop\n        /* \"#utility.yul\":11027:11108   */\n    tag_277:\n        /* \"#utility.yul\":11155:11157   */\n      0x20\n        /* \"#utility.yul\":11147:11153   */\n      dup3\n        /* \"#utility.yul\":11144:11158   */\n      lt\n        /* \"#utility.yul\":11124:11142   */\n      dup2\n        /* \"#utility.yul\":11121:11159   */\n      sub\n        /* \"#utility.yul\":11118:11202   */\n      tag_278\n      jumpi\n        /* \"#utility.yul\":11174:11192   */\n      tag_279\n      tag_134\n      jump\t// in\n    tag_279:\n        /* \"#utility.yul\":11118:11202   */\n    tag_278:\n        /* \"#utility.yul\":10939:11208   */\n      pop\n        /* \"#utility.yul\":10888:11208   */\n      swap2\n      swap1\n      pop\n      jump\t// out\n        /* \"#utility.yul\":11214:11384   */\n    tag_135:\n        /* \"#utility.yul\":11354:11376   */\n      0x546964616b206d656d696c696b6920616b736573000000000000000000000000\n        /* \"#utility.yul\":11350:11351   */\n      0x00\n        /* \"#utility.yul\":11342:11348   */\n      dup3\n        /* \"#utility.yul\":11338:11352   */\n      add\n        /* \"#utility.yul\":11331:11377   */\n      mstore\n        /* \"#utility.yul\":11214:11384   */\n      pop\n      jump\t// out\n        /* \"#utility.yul\":11390:11756   */\n    tag_136:\n        /* \"#utility.yul\":11532:11535   */\n      0x00\n        /* \"#utility.yul\":11553:11620   */\n      tag_282\n        /* \"#utility.yul\":11617:11619   */\n      0x14\n        /* \"#utility.yul\":11612:11615   */\n      dup4\n        /* \"#utility.yul\":11553:11620   */\n      tag_105\n      jump\t// in\n    tag_282:\n        /* \"#utility.yul\":11546:11620   */\n      swap2\n      pop\n        /* \"#utility.yul\":11629:11722   */\n      tag_283\n        /* \"#utility.yul\":11718:11721   */\n      dup3\n        /* \"#utility.yul\":11629:11722   */\n      tag_135\n      jump\t// in\n    tag_283:\n        /* \"#utility.yul\":11747:11749   */\n      0x20\n        /* \"#utility.yul\":11742:11745   */\n      dup3\n        /* \"#utility.yul\":11738:11750   */\n      add\n        /* \"#utility.yul\":11731:11750   */\n      swap1\n      pop\n        /* \"#utility.yul\":11390:11756   */\n      swap2\n      swap1\n      pop\n      jump\t// out\n        /* \"#utility.yul\":11762:12181   */\n    tag_55:\n        /* \"#utility.yul\":11928:11932   */\n      0x00\n        /* \"#utility.yul\":11966:11968   */\n      0x20\n        /* \"#utility.yul\":11955:11964   */\n      dup3\n        /* \"#utility.yul\":11951:11969   */\n      add\n        /* \"#utility.yul\":11943:11969   */\n      swap1\n      pop\n        /* \"#utility.yul\":12015:12024   */\n      dup2\n        /* \"#utility.yul\":12009:12013   */\n      dup2\n        /* \"#utility.yul\":12005:12025   */\n      sub\n        /* \"#utility.yul\":12001:12002   */\n      0x00\n        /* \"#utility.yul\":11990:11999   */\n      dup4\n        /* \"#utility.yul\":11986:12003   */\n      add\n        /* \"#utility.yul\":11979:12026   */\n      mstore\n        /* \"#utility.yul\":12043:12174   */\n      tag_285\n        /* \"#utility.yul\":12169:12173   */\n      dup2\n        /* \"#utility.yul\":12043:12174   */\n      tag_136\n      jump\t// in\n    tag_285:\n        /* \"#utility.yul\":12035:12174   */\n      swap1\n      pop\n        /* \"#utility.yul\":11762:12181   */\n      swap2\n      swap1\n      pop\n      jump\t// out\n        /* \"#utility.yul\":12187:12361   */\n    tag_137:\n        /* \"#utility.yul\":12327:12353   */\n      0x4e616d6120546964616b20426f6c6568204b6f736f6e67210000000000000000\n        /* \"#utility.yul\":12323:12324   */\n      0x00\n        /* \"#utility.yul\":12315:12321   */\n      dup3\n        /* \"#utility.yul\":12311:12325   */\n      add\n        /* \"#utility.yul\":12304:12354   */\n      mstore\n        /* \"#utility.yul\":12187:12361   */\n      pop\n      jump\t// out\n        /* \"#utility.yul\":12367:12733   */\n    tag_138:\n        /* \"#utility.yul\":12509:12512   */\n      0x00\n        /* \"#utility.yul\":12530:12597   */\n      tag_288\n        /* \"#utility.yul\":12594:12596   */\n      0x18\n        /* \"#utility.yul\":12589:12592   */\n      dup4\n        /* \"#utility.yul\":12530:12597   */\n      tag_105\n      jump\t// in\n    tag_288:\n        /* \"#utility.yul\":12523:12597   */\n      swap2\n      pop\n        /* \"#utility.yul\":12606:12699   */\n      tag_289\n        /* \"#utility.yul\":12695:12698   */\n      dup3\n        /* \"#utility.yul\":12606:12699   */\n      tag_137\n      jump\t// in\n    tag_289:\n        /* \"#utility.yul\":12724:12726   */\n      0x20\n        /* \"#utility.yul\":12719:12722   */\n      dup3\n        /* \"#utility.yul\":12715:12727   */\n      add\n        /* \"#utility.yul\":12708:12727   */\n      swap1\n      pop\n        /* \"#utility.yul\":12367:12733   */\n      swap2\n      swap1\n      pop\n      jump\t// out\n        /* \"#utility.yul\":12739:13158   */\n    tag_61:\n        /* \"#utility.yul\":12905:12909   */\n      0x00\n        /* \"#utility.yul\":12943:12945   */\n      0x20\n        /* \"#utility.yul\":12932:12941   */\n      dup3\n        /* \"#utility.yul\":12928:12946   */\n      add\n        /* \"#utility.yul\":12920:12946   */\n      swap1\n      pop\n        /* \"#utility.yul\":12992:13001   */\n      dup2\n        /* \"#utility.yul\":12986:12990   */\n      dup2\n        /* \"#utility.yul\":12982:13002   */\n      sub\n        /* \"#utility.yul\":12978:12979   */\n      0x00\n        /* \"#utility.yul\":12967:12976   */\n      dup4\n        /* \"#utility.yul\":12963:12980   */\n      add\n        /* \"#utility.yul\":12956:13003   */\n      mstore\n        /* \"#utility.yul\":13020:13151   */\n      tag_291\n        /* \"#utility.yul\":13146:13150   */\n      dup2\n        /* \"#utility.yul\":13020:13151   */\n      tag_138\n      jump\t// in\n    tag_291:\n        /* \"#utility.yul\":13012:13151   */\n      swap1\n      pop\n        /* \"#utility.yul\":12739:13158   */\n      swap2\n      swap1\n      pop\n      jump\t// out\n        /* \"#utility.yul\":13164:13341   */\n    tag_139:\n        /* \"#utility.yul\":13304:13333   */\n      0x4a75727573616e20546964616b20426f6c6568204b6f736f6e67210000000000\n        /* \"#utility.yul\":13300:13301   */\n      0x00\n        /* \"#utility.yul\":13292:13298   */\n      dup3\n        /* \"#utility.yul\":13288:13302   */\n      add\n        /* \"#utility.yul\":13281:13334   */\n      mstore\n        /* \"#utility.yul\":13164:13341   */\n      pop\n      jump\t// out\n        /* \"#utility.yul\":13347:13713   */\n    tag_140:\n        /* \"#utility.yul\":13489:13492   */\n      0x00\n        /* \"#utility.yul\":13510:13577   */\n      tag_294\n        /* \"#utility.yul\":13574:13576   */\n      0x1b\n        /* \"#utility.yul\":13569:13572   */\n      dup4\n        /* \"#utility.yul\":13510:13577   */\n      tag_105\n      jump\t// in\n    tag_294:\n        /* \"#utility.yul\":13503:13577   */\n      swap2\n      pop\n        /* \"#utility.yul\":13586:13679   */\n      tag_295\n        /* \"#utility.yul\":13675:13678   */\n      dup3\n        /* \"#utility.yul\":13586:13679   */\n      tag_139\n      jump\t// in\n    tag_295:\n        /* \"#utility.yul\":13704:13706   */\n      0x20\n        /* \"#utility.yul\":13699:13702   */\n      dup3\n        /* \"#utility.yul\":13695:13707   */\n      add\n        /* \"#utility.yul\":13688:13707   */\n      swap1\n      pop\n        /* \"#utility.yul\":13347:13713   */\n      swap2\n      swap1\n      pop\n      jump\t// out\n        /* \"#utility.yul\":13719:14138   */\n    tag_64:\n        /* \"#utility.yul\":13885:13889   */\n      0x00\n        /* \"#utility.yul\":13923:13925   */\n      0x20\n        /* \"#utility.yul\":13912:13921   */\n      dup3\n        /* \"#utility.yul\":13908:13926   */\n      add\n        /* \"#utility.yul\":13900:13926   */\n      swap1\n      pop\n        /* \"#utility.yul\":13972:13981   */\n      dup2\n        /* \"#utility.yul\":13966:13970   */\n      dup2\n        /* \"#utility.yul\":13962:13982   */\n      sub\n        /* \"#utility.yul\":13958:13959   */\n      0x00\n        /* \"#utility.yul\":13947:13956   */\n      dup4\n        /* \"#utility.yul\":13943:13960   */\n      add\n        /* \"#utility.yul\":13936:13983   */\n      mstore\n        /* \"#utility.yul\":14000:14131   */\n      tag_297\n        /* \"#utility.yul\":14126:14130   */\n      dup2\n        /* \"#utility.yul\":14000:14131   */\n      tag_140\n      jump\t// in\n    tag_297:\n        /* \"#utility.yul\":13992:14131   */\n      swap1\n      pop\n        /* \"#utility.yul\":13719:14138   */\n      swap2\n      swap1\n      pop\n      jump\t// out\n        /* \"#utility.yul\":14144:14285   */\n    tag_141:\n        /* \"#utility.yul\":14193:14197   */\n      0x00\n        /* \"#utility.yul\":14216:14219   */\n      dup2\n        /* \"#utility.yul\":14208:14219   */\n      swap1\n      pop\n        /* \"#utility.yul\":14239:14242   */\n      dup2\n        /* \"#utility.yul\":14236:14237   */\n      0x00\n        /* \"#utility.yul\":14229:14243   */\n      mstore\n        /* \"#utility.yul\":14273:14277   */\n      0x20\n        /* \"#utility.yul\":14270:14271   */\n      0x00\n        /* \"#utility.yul\":14260:14278   */\n      keccak256\n        /* \"#utility.yul\":14252:14278   */\n      swap1\n      pop\n        /* \"#utility.yul\":14144:14285   */\n      swap2\n      swap1\n      pop\n      jump\t// out\n        /* \"#utility.yul\":14291:14384   */\n    tag_142:\n        /* \"#utility.yul\":14328:14334   */\n      0x00\n        /* \"#utility.yul\":14375:14377   */\n      0x20\n        /* \"#utility.yul\":14370:14372   */\n      0x1f\n        /* \"#utility.yul\":14363:14368   */\n      dup4\n        /* \"#utility.yul\":14359:14373   */\n      add\n        /* \"#utility.yul\":14355:14378   */\n      div\n        /* \"#utility.yul\":14345:14378   */\n      swap1\n      pop\n        /* \"#utility.yul\":14291:14384   */\n      swap2\n      swap1\n      pop\n      jump\t// out\n        /* \"#utility.yul\":14390:14497   */\n    tag_143:\n        /* \"#utility.yul\":14434:14442   */\n      0x00\n        /* \"#utility.yul\":14484:14489   */\n      dup3\n        /* \"#utility.yul\":14478:14482   */\n      dup3\n        /* \"#utility.yul\":14474:14490   */\n      shl\n        /* \"#utility.yul\":14453:14490   */\n      swap1\n      pop\n        /* \"#utility.yul\":14390:14497   */\n      swap3\n      swap2\n      pop\n      pop\n      jump\t// out\n        /* \"#utility.yul\":14503:14896   */\n    tag_144:\n        /* \"#utility.yul\":14572:14578   */\n      0x00\n        /* \"#utility.yul\":14622:14623   */\n      0x08\n        /* \"#utility.yul\":14610:14620   */\n      dup4\n        /* \"#utility.yul\":14606:14624   */\n      mul\n        /* \"#utility.yul\":14645:14742   */\n      tag_302\n        /* \"#utility.yul\":14675:14741   */\n      0xffffffffffffffffffffffffffffffffffffffffffffffffffffffffffffffff\n        /* \"#utility.yul\":14664:14673   */\n      dup3\n        /* \"#utility.yul\":14645:14742   */\n      tag_143\n      jump\t// in\n    tag_302:\n        /* \"#utility.yul\":14763:14802   */\n      tag_303\n        /* \"#utility.yul\":14793:14801   */\n      dup7\n        /* \"#utility.yul\":14782:14791   */\n      dup4\n        /* \"#utility.yul\":14763:14802   */\n      tag_143\n      jump\t// in\n    tag_303:\n        /* \"#utility.yul\":14751:14802   */\n      swap6\n      pop\n        /* \"#utility.yul\":14835:14839   */\n      dup1\n        /* \"#utility.yul\":14831:14840   */\n      not\n        /* \"#utility.yul\":14824:14829   */\n      dup5\n        /* \"#utility.yul\":14820:14841   */\n      and\n        /* \"#utility.yul\":14811:14841   */\n      swap4\n      pop\n        /* \"#utility.yul\":14884:14888   */\n      dup1\n        /* \"#utility.yul\":14874:14882   */\n      dup7\n        /* \"#utility.yul\":14870:14889   */\n      and\n        /* \"#utility.yul\":14863:14868   */\n      dup5\n        /* \"#utility.yul\":14860:14890   */\n      or\n        /* \"#utility.yul\":14850:14890   */\n      swap3\n      pop\n        /* \"#utility.yul\":14579:14896   */\n      pop\n      pop\n        /* \"#utility.yul\":14503:14896   */\n      swap4\n      swap3\n      pop\n      pop\n      pop\n      jump\t// out\n        /* \"#utility.yul\":14902:14962   */\n    tag_145:\n        /* \"#utility.yul\":14930:14933   */\n      0x00\n        /* \"#utility.yul\":14951:14956   */\n      dup2\n        /* \"#utility.yul\":14944:14956   */\n      swap1\n      pop\n        /* \"#utility.yul\":14902:14962   */\n      swap2\n      swap1\n      pop\n      jump\t// out\n        /* \"#utility.yul\":14968:15110   */\n    tag_146:\n        /* \"#utility.yul\":15018:15027   */\n      0x00\n        /* \"#utility.yul\":15051:15104   */\n      tag_306\n        /* \"#utility.yul\":15069:15103   */\n      tag_307\n        /* \"#utility.yul\":15078:15102   */\n      tag_308\n        /* \"#utility.yul\":15096:15101   */\n      dup5\n        /* \"#utility.yul\":15078:15102   */\n      tag_100\n      jump\t// in\n    tag_308:\n        /* \"#utility.yul\":15069:15103   */\n      tag_145\n      jump\t// in\n    tag_307:\n        /* \"#utility.yul\":15051:15104   */\n      tag_100\n      jump\t// in\n    tag_306:\n        /* \"#utility.yul\":15038:15104   */\n      swap1\n      pop\n        /* \"#utility.yul\":14968:15110   */\n      swap2\n      swap1\n      pop\n      jump\t// out\n        /* \"#utility.yul\":15116:15191   */\n    tag_147:\n        /* \"#utility.yul\":15159:15162   */\n      0x00\n        /* \"#utility.yul\":15180:15185   */\n      dup2\n        /* \"#utility.yul\":15173:15185   */\n      swap1\n      pop\n        /* \"#utility.yul\":15116:15191   */\n      swap2\n      swap1\n      pop\n      jump\t// out\n        /* \"#utility.yul\":15197:15466   */\n    tag_148:\n        /* \"#utility.yul\":15307:15346   */\n      tag_311\n        /* \"#utility.yul\":15338:15345   */\n      dup4\n        /* \"#utility.yul\":15307:15346   */\n      tag_146\n      jump\t// in\n    tag_311:\n        /* \"#utility.yul\":15368:15459   */\n      tag_312\n        /* \"#utility.yul\":15417:15458   */\n      tag_313\n        /* \"#utility.yul\":15441:15457   */\n      dup3\n        /* \"#utility.yul\":15417:15458   */\n      tag_147\n      jump\t// in\n    tag_313:\n        /* \"#utility.yul\":15409:15415   */\n      dup5\n        /* \"#utility.yul\":15402:15406   */\n      dup5\n        /* \"#utility.yul\":15396:15407   */\n      sload\n        /* \"#utility.yul\":15368:15459   */\n      tag_144\n      jump\t// in\n    tag_312:\n        /* \"#utility.yul\":15362:15366   */\n      dup3\n        /* \"#utility.yul\":15355:15460   */\n      sstore\n        /* \"#utility.yul\":15273:15466   */\n      pop\n        /* \"#utility.yul\":15197:15466   */\n      pop\n      pop\n      pop\n      jump\t// out\n        /* \"#utility.yul\":15472:15545   */\n    tag_149:\n        /* \"#utility.yul\":15517:15520   */\n      0x00\n        /* \"#utility.yul\":15538:15539   */\n      0x00\n        /* \"#utility.yul\":15531:15539   */\n      swap1\n      pop\n        /* \"#utility.yul\":15472:15545   */\n      swap1\n      jump\t// out\n        /* \"#utility.yul\":15551:15740   */\n    tag_150:\n        /* \"#utility.yul\":15628:15660   */\n      tag_316\n      tag_149\n      jump\t// in\n    tag_316:\n        /* \"#utility.yul\":15669:15734   */\n      tag_317\n        /* \"#utility.yul\":15727:15733   */\n      dup2\n        /* \"#utility.yul\":15719:15725   */\n      dup5\n        /* \"#utility.yul\":15713:15717   */\n      dup5\n        /* \"#utility.yul\":15669:15734   */\n      tag_148\n      jump\t// in\n    tag_317:\n        /* \"#utility.yul\":15604:15740   */\n      pop\n        /* \"#utility.yul\":15551:15740   */\n      pop\n      pop\n      jump\t// out\n        /* \"#utility.yul\":15746:15932   */\n    tag_151:\n        /* \"#utility.yul\":15806:15926   */\n    tag_319:\n        /* \"#utility.yul\":15823:15826   */\n      dup2\n        /* \"#utility.yul\":15816:15821   */\n      dup2\n        /* \"#utility.yul\":15813:15827   */\n      lt\n        /* \"#utility.yul\":15806:15926   */\n      iszero\n      tag_321\n      jumpi\n        /* \"#utility.yul\":15877:15916   */\n      tag_322\n        /* \"#utility.yul\":15914:15915   */\n      0x00\n        /* \"#utility.yul\":15907:15912   */\n      dup3\n        /* \"#utility.yul\":15877:15916   */\n      tag_150\n      jump\t// in\n    tag_322:\n        /* \"#utility.yul\":15850:15851   */\n      0x01\n        /* \"#utility.yul\":15843:15848   */\n      dup2\n        /* \"#utility.yul\":15839:15852   */\n      add\n        /* \"#utility.yul\":15830:15852   */\n      swap1\n      pop\n        /* \"#utility.yul\":15806:15926   */\n      jump(tag_319)\n    tag_321:\n        /* \"#utility.yul\":15746:15932   */\n      pop\n      pop\n      jump\t// out\n        /* \"#utility.yul\":15938:16481   */\n    tag_152:\n        /* \"#utility.yul\":16039:16041   */\n      0x1f\n        /* \"#utility.yul\":16034:16037   */\n      dup3\n        /* \"#utility.yul\":16031:16042   */\n      gt\n        /* \"#utility.yul\":16028:16474   */\n      iszero\n      tag_324\n      jumpi\n        /* \"#utility.yul\":16073:16111   */\n      tag_325\n        /* \"#utility.yul\":16105:16110   */\n      dup2\n        /* \"#utility.yul\":16073:16111   */\n      tag_141\n      jump\t// in\n    tag_325:\n        /* \"#utility.yul\":16157:16186   */\n      tag_326\n        /* \"#utility.yul\":16175:16185   */\n      dup5\n        /* \"#utility.yul\":16157:16186   */\n      tag_142\n      jump\t// in\n    tag_326:\n        /* \"#utility.yul\":16147:16155   */\n      dup2\n        /* \"#utility.yul\":16143:16187   */\n      add\n        /* \"#utility.yul\":16340:16342   */\n      0x20\n        /* \"#utility.yul\":16328:16338   */\n      dup6\n        /* \"#utility.yul\":16325:16343   */\n      lt\n        /* \"#utility.yul\":16322:16371   */\n      iszero\n      tag_327\n      jumpi\n        /* \"#utility.yul\":16361:16369   */\n      dup2\n        /* \"#utility.yul\":16346:16369   */\n      swap1\n      pop\n        /* \"#utility.yul\":16322:16371   */\n    tag_327:\n        /* \"#utility.yul\":16384:16464   */\n      tag_328\n        /* \"#utility.yul\":16440:16462   */\n      tag_329\n        /* \"#utility.yul\":16458:16461   */\n      dup6\n        /* \"#utility.yul\":16440:16462   */\n      tag_142\n      jump\t// in\n    tag_329:\n        /* \"#utility.yul\":16430:16438   */\n      dup4\n        /* \"#utility.yul\":16426:16463   */\n      add\n        /* \"#utility.yul\":16413:16424   */\n      dup3\n        /* \"#utility.yul\":16384:16464   */\n      tag_151\n      jump\t// in\n    tag_328:\n        /* \"#utility.yul\":16043:16474   */\n      pop\n      pop\n        /* \"#utility.yul\":16028:16474   */\n    tag_324:\n        /* \"#utility.yul\":15938:16481   */\n      pop\n      pop\n      pop\n      jump\t// out\n        /* \"#utility.yul\":16487:16604   */\n    tag_153:\n        /* \"#utility.yul\":16541:16549   */\n      0x00\n        /* \"#utility.yul\":16591:16596   */\n      dup3\n        /* \"#utility.yul\":16585:16589   */\n      dup3\n        /* \"#utility.yul\":16581:16597   */\n      shr\n        /* \"#utility.yul\":16560:16597   */\n      swap1\n      pop\n        /* \"#utility.yul\":16487:16604   */\n      swap3\n      swap2\n      pop\n      pop\n      jump\t// out\n        /* \"#utility.yul\":16610:16779   */\n    tag_154:\n        /* \"#utility.yul\":16654:16660   */\n      0x00\n        /* \"#utility.yul\":16687:16738   */\n      tag_332\n        /* \"#utility.yul\":16735:16736   */\n      0x00\n        /* \"#utility.yul\":16731:16737   */\n      not\n        /* \"#utility.yul\":16723:16728   */\n      dup5\n        /* \"#utility.yul\":16720:16721   */\n      0x08\n        /* \"#utility.yul\":16716:16729   */\n      mul\n        /* \"#utility.yul\":16687:16738   */\n      tag_153\n      jump\t// in\n    tag_332:\n        /* \"#utility.yul\":16683:16739   */\n      not\n        /* \"#utility.yul\":16768:16772   */\n      dup1\n        /* \"#utility.yul\":16762:16766   */\n      dup4\n        /* \"#utility.yul\":16758:16773   */\n      and\n        /* \"#utility.yul\":16748:16773   */\n      swap2\n      pop\n        /* \"#utility.yul\":16661:16779   */\n      pop\n        /* \"#utility.yul\":16610:16779   */\n      swap3\n      swap2\n      pop\n      pop\n      jump\t// out\n        /* \"#utility.yul\":16784:17079   */\n    tag_155:\n        /* \"#utility.yul\":16860:16864   */\n      0x00\n        /* \"#utility.yul\":17006:17035   */\n      tag_334\n        /* \"#utility.yul\":17031:17034   */\n      dup4\n        /* \"#utility.yul\":17025:17029   */\n      dup4\n        /* \"#utility.yul\":17006:17035   */\n      tag_154\n      jump\t// in\n    tag_334:\n        /* \"#utility.yul\":16998:17035   */\n      swap2\n      pop\n        /* \"#utility.yul\":17068:17071   */\n      dup3\n        /* \"#utility.yul\":17065:17066   */\n      0x02\n        /* \"#utility.yul\":17061:17072   */\n      mul\n        /* \"#utility.yul\":17055:17059   */\n      dup3\n        /* \"#utility.yul\":17052:17073   */\n      or\n        /* \"#utility.yul\":17044:17073   */\n      swap1\n      pop\n        /* \"#utility.yul\":16784:17079   */\n      swap3\n      swap2\n      pop\n      pop\n      jump\t// out\n        /* \"#utility.yul\":17084:18479   */\n    tag_67:\n        /* \"#utility.yul\":17201:17238   */\n      tag_336\n        /* \"#utility.yul\":17234:17237   */\n      dup3\n        /* \"#utility.yul\":17201:17238   */\n      tag_104\n      jump\t// in\n    tag_336:\n        /* \"#utility.yul\":17303:17321   */\n      0xffffffffffffffff\n        /* \"#utility.yul\":17295:17301   */\n      dup2\n        /* \"#utility.yul\":17292:17322   */\n      gt\n        /* \"#utility.yul\":17289:17345   */\n      iszero\n      tag_337\n      jumpi\n        /* \"#utility.yul\":17325:17343   */\n      tag_338\n      tag_116\n      jump\t// in\n    tag_338:\n        /* \"#utility.yul\":17289:17345   */\n    tag_337:\n        /* \"#utility.yul\":17369:17407   */\n      tag_339\n        /* \"#utility.yul\":17401:17405   */\n      dup3\n        /* \"#utility.yul\":17395:17406   */\n      sload\n        /* \"#utility.yul\":17369:17407   */\n      tag_42\n      jump\t// in\n    tag_339:\n        /* \"#utility.yul\":17454:17521   */\n      tag_340\n        /* \"#utility.yul\":17514:17520   */\n      dup3\n        /* \"#utility.yul\":17506:17512   */\n      dup3\n        /* \"#utility.yul\":17500:17504   */\n      dup6\n        /* \"#utility.yul\":17454:17521   */\n      tag_152\n      jump\t// in\n    tag_340:\n        /* \"#utility.yul\":17548:17549   */\n      0x00\n        /* \"#utility.yul\":17572:17576   */\n      0x20\n        /* \"#utility.yul\":17559:17576   */\n      swap1\n      pop\n        /* \"#utility.yul\":17604:17606   */\n      0x1f\n        /* \"#utility.yul\":17596:17602   */\n      dup4\n        /* \"#utility.yul\":17593:17607   */\n      gt\n        /* \"#utility.yul\":17621:17622   */\n      0x01\n        /* \"#utility.yul\":17616:18234   */\n      dup2\n      eq\n      tag_342\n      jumpi\n        /* \"#utility.yul\":18278:18279   */\n      0x00\n        /* \"#utility.yul\":18295:18301   */\n      dup5\n        /* \"#utility.yul\":18292:18369   */\n      iszero\n      tag_343\n      jumpi\n        /* \"#utility.yul\":18344:18353   */\n      dup3\n        /* \"#utility.yul\":18339:18342   */\n      dup8\n        /* \"#utility.yul\":18335:18354   */\n      add\n        /* \"#utility.yul\":18329:18355   */\n      mload\n        /* \"#utility.yul\":18320:18355   */\n      swap1\n      pop\n        /* \"#utility.yul\":18292:18369   */\n    tag_343:\n        /* \"#utility.yul\":18395:18462   */\n      tag_344\n        /* \"#utility.yul\":18455:18461   */\n      dup6\n        /* \"#utility.yul\":18448:18453   */\n      dup3\n        /* \"#utility.yul\":18395:18462   */\n      tag_155\n      jump\t// in\n    tag_344:\n        /* \"#utility.yul\":18389:18393   */\n      dup7\n        /* \"#utility.yul\":18382:18463   */\n      sstore\n        /* \"#utility.yul\":18251:18473   */\n      pop\n        /* \"#utility.yul\":17586:18473   */\n      jump(tag_341)\n        /* \"#utility.yul\":17616:18234   */\n    tag_342:\n        /* \"#utility.yul\":17668:17672   */\n      0x1f\n        /* \"#utility.yul\":17664:17673   */\n      not\n        /* \"#utility.yul\":17656:17662   */\n      dup5\n        /* \"#utility.yul\":17652:17674   */\n      and\n        /* \"#utility.yul\":17702:17739   */\n      tag_345\n        /* \"#utility.yul\":17734:17738   */\n      dup7\n        /* \"#utility.yul\":17702:17739   */\n      tag_141\n      jump\t// in\n    tag_345:\n        /* \"#utility.yul\":17761:17762   */\n      0x00\n        /* \"#utility.yul\":17775:17983   */\n    tag_346:\n        /* \"#utility.yul\":17789:17796   */\n      dup3\n        /* \"#utility.yul\":17786:17787   */\n      dup2\n        /* \"#utility.yul\":17783:17797   */\n      lt\n        /* \"#utility.yul\":17775:17983   */\n      iszero\n      tag_348\n      jumpi\n        /* \"#utility.yul\":17868:17877   */\n      dup5\n        /* \"#utility.yul\":17863:17866   */\n      dup10\n        /* \"#utility.yul\":17859:17878   */\n      add\n        /* \"#utility.yul\":17853:17879   */\n      mload\n        /* \"#utility.yul\":17845:17851   */\n      dup3\n        /* \"#utility.yul\":17838:17880   */\n      sstore\n        /* \"#utility.yul\":17919:17920   */\n      0x01\n        /* \"#utility.yul\":17911:17917   */\n      dup3\n        /* \"#utility.yul\":17907:17921   */\n      add\n        /* \"#utility.yul\":17897:17921   */\n      swap2\n      pop\n        /* \"#utility.yul\":17966:17968   */\n      0x20\n        /* \"#utility.yul\":17955:17964   */\n      dup6\n        /* \"#utility.yul\":17951:17969   */\n      add\n        /* \"#utility.yul\":17938:17969   */\n      swap5\n      pop\n        /* \"#utility.yul\":17812:17816   */\n      0x20\n        /* \"#utility.yul\":17809:17810   */\n      dup2\n        /* \"#utility.yul\":17805:17817   */\n      add\n        /* \"#utility.yul\":17800:17817   */\n      swap1\n      pop\n        /* \"#utility.yul\":17775:17983   */\n      jump(tag_346)\n    tag_348:\n        /* \"#utility.yul\":18011:18017   */\n      dup7\n        /* \"#utility.yul\":18002:18009   */\n      dup4\n        /* \"#utility.yul\":17999:18018   */\n      lt\n        /* \"#utility.yul\":17996:18175   */\n      iszero\n      tag_349\n      jumpi\n        /* \"#utility.yul\":18069:18078   */\n      dup5\n        /* \"#utility.yul\":18064:18067   */\n      dup10\n        /* \"#utility.yul\":18060:18079   */\n      add\n        /* \"#utility.yul\":18054:18080   */\n      mload\n        /* \"#utility.yul\":18112:18160   */\n      tag_350\n        /* \"#utility.yul\":18154:18158   */\n      0x1f\n        /* \"#utility.yul\":18146:18152   */\n      dup10\n        /* \"#utility.yul\":18142:18159   */\n      and\n        /* \"#utility.yul\":18131:18140   */\n      dup3\n        /* \"#utility.yul\":18112:18160   */\n      tag_154\n      jump\t// in\n    tag_350:\n        /* \"#utility.yul\":18104:18110   */\n      dup4\n        /* \"#utility.yul\":18097:18161   */\n      sstore\n        /* \"#utility.yul\":18019:18175   */\n      pop\n        /* \"#utility.yul\":17996:18175   */\n    tag_349:\n        /* \"#utility.yul\":18221:18222   */\n      0x01\n        /* \"#utility.yul\":18217:18218   */\n      0x02\n        /* \"#utility.yul\":18209:18215   */\n      dup9\n        /* \"#utility.yul\":18205:18219   */\n      mul\n        /* \"#utility.yul\":18201:18223   */\n      add\n        /* \"#utility.yul\":18195:18199   */\n      dup9\n        /* \"#utility.yul\":18188:18224   */\n      sstore\n        /* \"#utility.yul\":17623:18234   */\n      pop\n      pop\n      pop\n        /* \"#utility.yul\":17586:18473   */\n    tag_341:\n      pop\n        /* \"#utility.yul\":17176:18479   */\n      pop\n      pop\n      pop\n        /* \"#utility.yul\":17084:18479   */\n      pop\n      pop\n      jump\t// out\n        /* \"#utility.yul\":18485:18656   */\n    tag_156:\n        /* \"#utility.yul\":18625:18648   */\n      0x4b616d7520537564616820746572646166746572210000000000000000000000\n        /* \"#utility.yul\":18621:18622   */\n      0x00\n        /* \"#utility.yul\":18613:18619   */\n      dup3\n        /* \"#utility.yul\":18609:18623   */\n      add\n        /* \"#utility.yul\":18602:18649   */\n      mstore\n        /* \"#utility.yul\":18485:18656   */\n      pop\n      jump\t// out\n        /* \"#utility.yul\":18662:19028   */\n    tag_157:\n        /* \"#utility.yul\":18804:18807   */\n      0x00\n        /* \"#utility.yul\":18825:18892   */\n      tag_353\n        /* \"#utility.yul\":18889:18891   */\n      0x15\n        /* \"#utility.yul\":18884:18887   */\n      dup4\n        /* \"#utility.yul\":18825:18892   */\n      tag_105\n      jump\t// in\n    tag_353:\n        /* \"#utility.yul\":18818:18892   */\n      swap2\n      pop\n        /* \"#utility.yul\":18901:18994   */\n      tag_354\n        /* \"#utility.yul\":18990:18993   */\n      dup3\n        /* \"#utility.yul\":18901:18994   */\n      tag_156\n      jump\t// in\n    tag_354:\n        /* \"#utility.yul\":19019:19021   */\n      0x20\n        /* \"#utility.yul\":19014:19017   */\n      dup3\n        /* \"#utility.yul\":19010:19022   */\n      add\n        /* \"#utility.yul\":19003:19022   */\n      swap1\n      pop\n        /* \"#utility.yul\":18662:19028   */\n      swap2\n      swap1\n      pop\n      jump\t// out\n        /* \"#utility.yul\":19034:19453   */\n    tag_74:\n        /* \"#utility.yul\":19200:19204   */\n      0x00\n        /* \"#utility.yul\":19238:19240   */\n      0x20\n        /* \"#utility.yul\":19227:19236   */\n      dup3\n        /* \"#utility.yul\":19223:19241   */\n      add\n        /* \"#utility.yul\":19215:19241   */\n      swap1\n      pop\n        /* \"#utility.yul\":19287:19296   */\n      dup2\n        /* \"#utility.yul\":19281:19285   */\n      dup2\n        /* \"#utility.yul\":19277:19297   */\n      sub\n        /* \"#utility.yul\":19273:19274   */\n      0x00\n        /* \"#utility.yul\":19262:19271   */\n      dup4\n        /* \"#utility.yul\":19258:19275   */\n      add\n        /* \"#utility.yul\":19251:19298   */\n      mstore\n        /* \"#utility.yul\":19315:19446   */\n      tag_356\n        /* \"#utility.yul\":19441:19445   */\n      dup2\n        /* \"#utility.yul\":19315:19446   */\n      tag_157\n      jump\t// in\n    tag_356:\n        /* \"#utility.yul\":19307:19446   */\n      swap1\n      pop\n        /* \"#utility.yul\":19034:19453   */\n      swap2\n      swap1\n      pop\n      jump\t// out\n        /* \"#utility.yul\":19459:19882   */\n    tag_76:\n        /* \"#utility.yul\":19600:19604   */\n      0x00\n        /* \"#utility.yul\":19638:19640   */\n      0x40\n        /* \"#utility.yul\":19627:19636   */\n      dup3\n        /* \"#utility.yul\":19623:19641   */\n      add\n        /* \"#utility.yul\":19615:19641   */\n      swap1\n      pop\n        /* \"#utility.yul\":19651:19722   */\n      tag_358\n        /* \"#utility.yul\":19719:19720   */\n      0x00\n        /* \"#utility.yul\":19708:19717   */\n      dup4\n        /* \"#utility.yul\":19704:19721   */\n      add\n        /* \"#utility.yul\":19695:19701   */\n      dup6\n        /* \"#utility.yul\":19651:19722   */\n      tag_103\n      jump\t// in\n    tag_358:\n        /* \"#utility.yul\":19769:19778   */\n      dup2\n        /* \"#utility.yul\":19763:19767   */\n      dup2\n        /* \"#utility.yul\":19759:19779   */\n      sub\n        /* \"#utility.yul\":19754:19756   */\n      0x20\n        /* \"#utility.yul\":19743:19752   */\n      dup4\n        /* \"#utility.yul\":19739:19757   */\n      add\n        /* \"#utility.yul\":19732:19780   */\n      mstore\n        /* \"#utility.yul\":19797:19875   */\n      tag_359\n        /* \"#utility.yul\":19870:19874   */\n      dup2\n        /* \"#utility.yul\":19861:19867   */\n      dup5\n        /* \"#utility.yul\":19797:19875   */\n      tag_108\n      jump\t// in\n    tag_359:\n        /* \"#utility.yul\":19789:19875   */\n      swap1\n      pop\n        /* \"#utility.yul\":19459:19882   */\n      swap4\n      swap3\n      pop\n      pop\n      pop\n      jump\t// out\n\n    auxdata: 0xa264697066735822122010e6c863bd4df88c21d29ef3ade26a1731c465dfc463437b58a6222152c8f39c64736f6c634300081e0033\n}\n",
				"bytecode": {
					"linkReferences": {},
					"object": "6080604052348015600e575f5ffd5b506001805f3373ffffffffffffffffffffffffffffffffffffffff1673ffffffffffffffffffffffffffffffffffffffff1681526020019081526020015f205f6101000a81548160ff021916908315150217905550611213806100705f395ff3fe608060405234801561000f575f5ffd5b506004361061005f575f3560e01c8062252bf6146100635780632d8eeabf14610093578063315fecd2146100c657806332c69833146100e2578063642f9163146100fe578063b918161114610132575b5f5ffd5b61007d60048036038101906100789190610844565b610162565b60405161008a919061087e565b60405180910390f35b6100ad60048036038101906100a89190610844565b610182565b6040516100bd9493929190610921565b60405180910390f35b6100e060048036038101906100db91906109a8565b6102c5565b005b6100fc60048036038101906100f79190610b12565b61038c565b005b61011860048036038101906101139190610844565b610593565b604051610129959493929190610c3f565b60405180910390f35b61014c60048036038101906101479190610cff565b61077d565b6040516101599190610d2a565b60405180910390f35b60028181548110610171575f80fd5b905f5260205f20015f915090505481565b5f602052805f5260405f205f91509050805f0180546101a090610d70565b80601f01602080910402602001604051908101604052809291908181526020018280546101cc90610d70565b80156102175780601f106101ee57610100808354040283529160200191610217565b820191905f5260205f20905b8154815290600101906020018083116101fa57829003601f168201915b50505050509080600101549080600201805461023290610d70565b80601f016020809104026020016040519081016040528092919081815260200182805461025e90610d70565b80156102a95780601f10610280576101008083540402835291602001916102a9565b820191905f5260205f20905b81548152906001019060200180831161028c57829003601f168201915b505050505090806004015f9054906101000a900460ff16905084565b60015f3373ffffffffffffffffffffffffffffffffffffffff1673ffffffffffffffffffffffffffffffffffffffff1681526020019081526020015f205f9054906101000a900460ff1661034e576040517f08c379a000000000000000000000000000000000000000000000000000000000815260040161034590610dea565b60405180910390fd5b5f5f8381526020019081526020015f2060030181908060018154018082558091505060019003905f5260205f20015f909160ff169091909150555050565b5f8251116103cf576040517f08c379a00000000000000000000000000000000000000000000000000000000081526004016103c690610e52565b60405180910390fd5b5f815111610412576040517f08c379a000000000000000000000000000000000000000000000000000000000815260040161040990610eba565b60405180910390fd5b5f600280549050905060605f5f8381526020019081526020015f206004015f9054906101000a900460ff16610519576040518060a00160405280858152602001838152602001848152602001828152602001600115158152505f5f8481526020019081526020015f205f820151815f01908161048e9190611078565b506020820151816001015560408201518160020190816104ae9190611078565b5060608201518160030190805190602001906104cb92919061079a565b506080820151816004015f6101000a81548160ff021916908315150217905550905050600282908060018154018082558091505060019003905f5260205f20015f9091909190915055610554565b6040517f08c379a000000000000000000000000000000000000000000000000000000000815260040161054b90611191565b60405180910390fd5b7f84c0940fcd7427394db63e40d363f4f9e1a5cd24650d3c841512d92ab617a18182856040516105859291906111af565b60405180910390a150505050565b60605f6060805f5f5f5f8881526020019081526020015f206040518060a00160405290815f820180546105c590610d70565b80601f01602080910402602001604051908101604052809291908181526020018280546105f190610d70565b801561063c5780601f106106135761010080835404028352916020019161063c565b820191905f5260205f20905b81548152906001019060200180831161061f57829003601f168201915b505050505081526020016001820154815260200160028201805461065f90610d70565b80601f016020809104026020016040519081016040528092919081815260200182805461068b90610d70565b80156106d65780601f106106ad576101008083540402835291602001916106d6565b820191905f5260205f20905b8154815290600101906020018083116106b957829003601f168201915b505050505081526020016003820180548060200260200160405190810160405280929190818152602001828054801561072c57602002820191905f5260205f20905b815481526020019060010190808311610718575b50505050508152602001600482015f9054906101000a900460ff1615151515815250509050805f01518160200151826040015183606001518460800151955095509550955095505091939590929450565b6001602052805f5260405f205f915054906101000a900460ff1681565b828054828255905f5260205f209081019282156107d4579160200282015b828111156107d35782518255916020019190600101906107b8565b5b5090506107e191906107e5565b5090565b5b808211156107fc575f815f9055506001016107e6565b5090565b5f604051905090565b5f5ffd5b5f5ffd5b5f819050919050565b61082381610811565b811461082d575f5ffd5b50565b5f8135905061083e8161081a565b92915050565b5f6020828403121561085957610858610809565b5b5f61086684828501610830565b91505092915050565b61087881610811565b82525050565b5f6020820190506108915f83018461086f565b92915050565b5f81519050919050565b5f82825260208201905092915050565b8281835e5f83830152505050565b5f601f19601f8301169050919050565b5f6108d982610897565b6108e381856108a1565b93506108f38185602086016108b1565b6108fc816108bf565b840191505092915050565b5f8115159050919050565b61091b81610907565b82525050565b5f6080820190508181035f83015261093981876108cf565b9050610948602083018661086f565b818103604083015261095a81856108cf565b90506109696060830184610912565b95945050505050565b5f60ff82169050919050565b61098781610972565b8114610991575f5ffd5b50565b5f813590506109a28161097e565b92915050565b5f5f604083850312156109be576109bd610809565b5b5f6109cb85828601610830565b92505060206109dc85828601610994565b9150509250929050565b5f5ffd5b5f5ffd5b7f4e487b71000000000000000000000000000000000000000000000000000000005f52604160045260245ffd5b610a24826108bf565b810181811067ffffffffffffffff82111715610a4357610a426109ee565b5b80604052505050565b5f610a55610800565b9050610a618282610a1b565b919050565b5f67ffffffffffffffff821115610a8057610a7f6109ee565b5b610a89826108bf565b9050602081019050919050565b828183375f83830152505050565b5f610ab6610ab184610a66565b610a4c565b905082815260208101848484011115610ad257610ad16109ea565b5b610add848285610a96565b509392505050565b5f82601f830112610af957610af86109e6565b5b8135610b09848260208601610aa4565b91505092915050565b5f5f60408385031215610b2857610b27610809565b5b5f83013567ffffffffffffffff811115610b4557610b4461080d565b5b610b5185828601610ae5565b925050602083013567ffffffffffffffff811115610b7257610b7161080d565b5b610b7e85828601610ae5565b9150509250929050565b5f81519050919050565b5f82825260208201905092915050565b5f819050602082019050919050565b610bba81610811565b82525050565b5f610bcb8383610bb1565b60208301905092915050565b5f602082019050919050565b5f610bed82610b88565b610bf78185610b92565b9350610c0283610ba2565b805f5b83811015610c32578151610c198882610bc0565b9750610c2483610bd7565b925050600181019050610c05565b5085935050505092915050565b5f60a0820190508181035f830152610c5781886108cf565b9050610c66602083018761086f565b8181036040830152610c7881866108cf565b90508181036060830152610c8c8185610be3565b9050610c9b6080830184610912565b9695505050505050565b5f73ffffffffffffffffffffffffffffffffffffffff82169050919050565b5f610cce82610ca5565b9050919050565b610cde81610cc4565b8114610ce8575f5ffd5b50565b5f81359050610cf981610cd5565b92915050565b5f60208284031215610d1457610d13610809565b5b5f610d2184828501610ceb565b91505092915050565b5f602082019050610d3d5f830184610912565b92915050565b7f4e487b71000000000000000000000000000000000000000000000000000000005f52602260045260245ffd5b5f6002820490506001821680610d8757607f821691505b602082108103610d9a57610d99610d43565b5b50919050565b7f546964616b206d656d696c696b6920616b7365730000000000000000000000005f82015250565b5f610dd46014836108a1565b9150610ddf82610da0565b602082019050919050565b5f6020820190508181035f830152610e0181610dc8565b9050919050565b7f4e616d6120546964616b20426f6c6568204b6f736f6e672100000000000000005f82015250565b5f610e3c6018836108a1565b9150610e4782610e08565b602082019050919050565b5f6020820190508181035f830152610e6981610e30565b9050919050565b7f4a75727573616e20546964616b20426f6c6568204b6f736f6e672100000000005f82015250565b5f610ea4601b836108a1565b9150610eaf82610e70565b602082019050919050565b5f6020820190508181035f830152610ed181610e98565b9050919050565b5f819050815f5260205f209050919050565b5f6020601f8301049050919050565b5f82821b905092915050565b5f60088302610f347fffffffffffffffffffffffffffffffffffffffffffffffffffffffffffffffff82610ef9565b610f3e8683610ef9565b95508019841693508086168417925050509392505050565b5f819050919050565b5f610f79610f74610f6f84610811565b610f56565b610811565b9050919050565b5f819050919050565b610f9283610f5f565b610fa6610f9e82610f80565b848454610f05565b825550505050565b5f5f905090565b610fbd610fae565b610fc8818484610f89565b505050565b5b81811015610feb57610fe05f82610fb5565b600181019050610fce565b5050565b601f8211156110305761100181610ed8565b61100a84610eea565b81016020851015611019578190505b61102d61102585610eea565b830182610fcd565b50505b505050565b5f82821c905092915050565b5f6110505f1984600802611035565b1980831691505092915050565b5f6110688383611041565b9150826002028217905092915050565b61108182610897565b67ffffffffffffffff81111561109a576110996109ee565b5b6110a48254610d70565b6110af828285610fef565b5f60209050601f8311600181146110e0575f84156110ce578287015190505b6110d8858261105d565b86555061113f565b601f1984166110ee86610ed8565b5f5b82811015611115578489015182556001820191506020850194506020810190506110f0565b86831015611132578489015161112e601f891682611041565b8355505b6001600288020188555050505b505050505050565b7f4b616d75205375646168207465726461667465722100000000000000000000005f82015250565b5f61117b6015836108a1565b915061118682611147565b602082019050919050565b5f6020820190508181035f8301526111a88161116f565b9050919050565b5f6040820190506111c25f83018561086f565b81810360208301526111d481846108cf565b9050939250505056fea264697066735822122010e6c863bd4df88c21d29ef3ade26a1731c465dfc463437b58a6222152c8f39c64736f6c634300081e0033",
					"opcodes": "PUSH1 0x80 PUSH1 0x40 MSTORE CALLVALUE DUP1 ISZERO PUSH1 0xE JUMPI PUSH0 PUSH0 REVERT JUMPDEST POP PUSH1 0x1 DUP1 PUSH0 CALLER PUSH20 0xFFFFFFFFFFFFFFFFFFFFFFFFFFFFFFFFFFFFFFFF AND PUSH20 0xFFFFFFFFFFFFFFFFFFFFFFFFFFFFFFFFFFFFFFFF AND DUP2 MSTORE PUSH1 0x20 ADD SWAP1 DUP2 MSTORE PUSH1 0x20 ADD PUSH0 KECCAK256 PUSH0 PUSH2 0x100 EXP DUP2 SLOAD DUP2 PUSH1 0xFF MUL NOT AND SWAP1 DUP4 ISZERO ISZERO MUL OR SWAP1 SSTORE POP PUSH2 0x1213 DUP1 PUSH2 0x70 PUSH0 CODECOPY PUSH0 RETURN INVALID PUSH1 0x80 PUSH1 0x40 MSTORE CALLVALUE DUP1 ISZERO PUSH2 0xF JUMPI PUSH0 PUSH0 REVERT JUMPDEST POP PUSH1 0x4 CALLDATASIZE LT PUSH2 0x5F JUMPI PUSH0 CALLDATALOAD PUSH1 0xE0 SHR DUP1 PUSH3 0x252BF6 EQ PUSH2 0x63 JUMPI DUP1 PUSH4 0x2D8EEABF EQ PUSH2 0x93 JUMPI DUP1 PUSH4 0x315FECD2 EQ PUSH2 0xC6 JUMPI DUP1 PUSH4 0x32C69833 EQ PUSH2 0xE2 JUMPI DUP1 PUSH4 0x642F9163 EQ PUSH2 0xFE JUMPI DUP1 PUSH4 0xB9181611 EQ PUSH2 0x132 JUMPI JUMPDEST PUSH0 PUSH0 REVERT JUMPDEST PUSH2 0x7D PUSH1 0x4 DUP1 CALLDATASIZE SUB DUP2 ADD SWAP1 PUSH2 0x78 SWAP2 SWAP1 PUSH2 0x844 JUMP JUMPDEST PUSH2 0x162 JUMP JUMPDEST PUSH1 0x40 MLOAD PUSH2 0x8A SWAP2 SWAP1 PUSH2 0x87E JUMP JUMPDEST PUSH1 0x40 MLOAD DUP1 SWAP2 SUB SWAP1 RETURN JUMPDEST PUSH2 0xAD PUSH1 0x4 DUP1 CALLDATASIZE SUB DUP2 ADD SWAP1 PUSH2 0xA8 SWAP2 SWAP1 PUSH2 0x844 JUMP JUMPDEST PUSH2 0x182 JUMP JUMPDEST PUSH1 0x40 MLOAD PUSH2 0xBD SWAP5 SWAP4 SWAP3 SWAP2 SWAP1 PUSH2 0x921 JUMP JUMPDEST PUSH1 0x40 MLOAD DUP1 SWAP2 SUB SWAP1 RETURN JUMPDEST PUSH2 0xE0 PUSH1 0x4 DUP1 CALLDATASIZE SUB DUP2 ADD SWAP1 PUSH2 0xDB SWAP2 SWAP1 PUSH2 0x9A8 JUMP JUMPDEST PUSH2 0x2C5 JUMP JUMPDEST STOP JUMPDEST PUSH2 0xFC PUSH1 0x4 DUP1 CALLDATASIZE SUB DUP2 ADD SWAP1 PUSH2 0xF7 SWAP2 SWAP1 PUSH2 0xB12 JUMP JUMPDEST PUSH2 0x38C JUMP JUMPDEST STOP JUMPDEST PUSH2 0x118 PUSH1 0x4 DUP1 CALLDATASIZE SUB DUP2 ADD SWAP1 PUSH2 0x113 SWAP2 SWAP1 PUSH2 0x844 JUMP JUMPDEST PUSH2 0x593 JUMP JUMPDEST PUSH1 0x40 MLOAD PUSH2 0x129 SWAP6 SWAP5 SWAP4 SWAP3 SWAP2 SWAP1 PUSH2 0xC3F JUMP JUMPDEST PUSH1 0x40 MLOAD DUP1 SWAP2 SUB SWAP1 RETURN JUMPDEST PUSH2 0x14C PUSH1 0x4 DUP1 CALLDATASIZE SUB DUP2 ADD SWAP1 PUSH2 0x147 SWAP2 SWAP1 PUSH2 0xCFF JUMP JUMPDEST PUSH2 0x77D JUMP JUMPDEST PUSH1 0x40 MLOAD PUSH2 0x159 SWAP2 SWAP1 PUSH2 0xD2A JUMP JUMPDEST PUSH1 0x40 MLOAD DUP1 SWAP2 SUB SWAP1 RETURN JUMPDEST PUSH1 0x2 DUP2 DUP2 SLOAD DUP2 LT PUSH2 0x171 JUMPI PUSH0 DUP1 REVERT JUMPDEST SWAP1 PUSH0 MSTORE PUSH1 0x20 PUSH0 KECCAK256 ADD PUSH0 SWAP2 POP SWAP1 POP SLOAD DUP2 JUMP JUMPDEST PUSH0 PUSH1 0x20 MSTORE DUP1 PUSH0 MSTORE PUSH1 0x40 PUSH0 KECCAK256 PUSH0 SWAP2 POP SWAP1 POP DUP1 PUSH0 ADD DUP1 SLOAD PUSH2 0x1A0 SWAP1 PUSH2 0xD70 JUMP JUMPDEST DUP1 PUSH1 0x1F ADD PUSH1 0x20 DUP1 SWAP2 DIV MUL PUSH1 0x20 ADD PUSH1 0x40 MLOAD SWAP1 DUP2 ADD PUSH1 0x40 MSTORE DUP1 SWAP3 SWAP2 SWAP1 DUP2 DUP2 MSTORE PUSH1 0x20 ADD DUP3 DUP1 SLOAD PUSH2 0x1CC SWAP1 PUSH2 0xD70 JUMP JUMPDEST DUP1 ISZERO PUSH2 0x217 JUMPI DUP1 PUSH1 0x1F LT PUSH2 0x1EE JUMPI PUSH2 0x100 DUP1 DUP4 SLOAD DIV MUL DUP4 MSTORE SWAP2 PUSH1 0x20 ADD SWAP2 PUSH2 0x217 JUMP JUMPDEST DUP3 ADD SWAP2 SWAP1 PUSH0 MSTORE PUSH1 0x20 PUSH0 KECCAK256 SWAP1 JUMPDEST DUP2 SLOAD DUP2 MSTORE SWAP1 PUSH1 0x1 ADD SWAP1 PUSH1 0x20 ADD DUP1 DUP4 GT PUSH2 0x1FA JUMPI DUP3 SWAP1 SUB PUSH1 0x1F AND DUP3 ADD SWAP2 JUMPDEST POP POP POP POP POP SWAP1 DUP1 PUSH1 0x1 ADD SLOAD SWAP1 DUP1 PUSH1 0x2 ADD DUP1 SLOAD PUSH2 0x232 SWAP1 PUSH2 0xD70 JUMP JUMPDEST DUP1 PUSH1 0x1F ADD PUSH1 0x20 DUP1 SWAP2 DIV MUL PUSH1 0x20 ADD PUSH1 0x40 MLOAD SWAP1 DUP2 ADD PUSH1 0x40 MSTORE DUP1 SWAP3 SWAP2 SWAP1 DUP2 DUP2 MSTORE PUSH1 0x20 ADD DUP3 DUP1 SLOAD PUSH2 0x25E SWAP1 PUSH2 0xD70 JUMP JUMPDEST DUP1 ISZERO PUSH2 0x2A9 JUMPI DUP1 PUSH1 0x1F LT PUSH2 0x280 JUMPI PUSH2 0x100 DUP1 DUP4 SLOAD DIV MUL DUP4 MSTORE SWAP2 PUSH1 0x20 ADD SWAP2 PUSH2 0x2A9 JUMP JUMPDEST DUP3 ADD SWAP2 SWAP1 PUSH0 MSTORE PUSH1 0x20 PUSH0 KECCAK256 SWAP1 JUMPDEST DUP2 SLOAD DUP2 MSTORE SWAP1 PUSH1 0x1 ADD SWAP1 PUSH1 0x20 ADD DUP1 DUP4 GT PUSH2 0x28C JUMPI DUP3 SWAP1 SUB PUSH1 0x1F AND DUP3 ADD SWAP2 JUMPDEST POP POP POP POP POP SWAP1 DUP1 PUSH1 0x4 ADD PUSH0 SWAP1 SLOAD SWAP1 PUSH2 0x100 EXP SWAP1 DIV PUSH1 0xFF AND SWAP1 POP DUP5 JUMP JUMPDEST PUSH1 0x1 PUSH0 CALLER PUSH20 0xFFFFFFFFFFFFFFFFFFFFFFFFFFFFFFFFFFFFFFFF AND PUSH20 0xFFFFFFFFFFFFFFFFFFFFFFFFFFFFFFFFFFFFFFFF AND DUP2 MSTORE PUSH1 0x20 ADD SWAP1 DUP2 MSTORE PUSH1 0x20 ADD PUSH0 KECCAK256 PUSH0 SWAP1 SLOAD SWAP1 PUSH2 0x100 EXP SWAP1 DIV PUSH1 0xFF AND PUSH2 0x34E JUMPI PUSH1 0x40 MLOAD PUSH32 0x8C379A000000000000000000000000000000000000000000000000000000000 DUP2 MSTORE PUSH1 0x4 ADD PUSH2 0x345 SWAP1 PUSH2 0xDEA JUMP JUMPDEST PUSH1 0x40 MLOAD DUP1 SWAP2 SUB SWAP1 REVERT JUMPDEST PUSH0 PUSH0 DUP4 DUP2 MSTORE PUSH1 0x20 ADD SWAP1 DUP2 MSTORE PUSH1 0x20 ADD PUSH0 KECCAK256 PUSH1 0x3 ADD DUP2 SWAP1 DUP1 PUSH1 0x1 DUP2 SLOAD ADD DUP1 DUP3 SSTORE DUP1 SWAP2 POP POP PUSH1 0x1 SWAP1 SUB SWAP1 PUSH0 MSTORE PUSH1 0x20 PUSH0 KECCAK256 ADD PUSH0 SWAP1 SWAP2 PUSH1 0xFF AND SWAP1 SWAP2 SWAP1 SWAP2 POP SSTORE POP POP JUMP JUMPDEST PUSH0 DUP3 MLOAD GT PUSH2 0x3CF JUMPI PUSH1 0x40 MLOAD PUSH32 0x8C379A000000000000000000000000000000000000000000000000000000000 DUP2 MSTORE PUSH1 0x4 ADD PUSH2 0x3C6 SWAP1 PUSH2 0xE52 JUMP JUMPDEST PUSH1 0x40 MLOAD DUP1 SWAP2 SUB SWAP1 REVERT JUMPDEST PUSH0 DUP2 MLOAD GT PUSH2 0x412 JUMPI PUSH1 0x40 MLOAD PUSH32 0x8C379A000000000000000000000000000000000000000000000000000000000 DUP2 MSTORE PUSH1 0x4 ADD PUSH2 0x409 SWAP1 PUSH2 0xEBA JUMP JUMPDEST PUSH1 0x40 MLOAD DUP1 SWAP2 SUB SWAP1 REVERT JUMPDEST PUSH0 PUSH1 0x2 DUP1 SLOAD SWAP1 POP SWAP1 POP PUSH1 0x60 PUSH0 PUSH0 DUP4 DUP2 MSTORE PUSH1 0x20 ADD SWAP1 DUP2 MSTORE PUSH1 0x20 ADD PUSH0 KECCAK256 PUSH1 0x4 ADD PUSH0 SWAP1 SLOAD SWAP1 PUSH2 0x100 EXP SWAP1 DIV PUSH1 0xFF AND PUSH2 0x519 JUMPI PUSH1 0x40 MLOAD DUP1 PUSH1 0xA0 ADD PUSH1 0x40 MSTORE DUP1 DUP6 DUP2 MSTORE PUSH1 0x20 ADD DUP4 DUP2 MSTORE PUSH1 0x20 ADD DUP5 DUP2 MSTORE PUSH1 0x20 ADD DUP3 DUP2 MSTORE PUSH1 0x20 ADD PUSH1 0x1 ISZERO ISZERO DUP2 MSTORE POP PUSH0 PUSH0 DUP5 DUP2 MSTORE PUSH1 0x20 ADD SWAP1 DUP2 MSTORE PUSH1 0x20 ADD PUSH0 KECCAK256 PUSH0 DUP3 ADD MLOAD DUP2 PUSH0 ADD SWAP1 DUP2 PUSH2 0x48E SWAP2 SWAP1 PUSH2 0x1078 JUMP JUMPDEST POP PUSH1 0x20 DUP3 ADD MLOAD DUP2 PUSH1 0x1 ADD SSTORE PUSH1 0x40 DUP3 ADD MLOAD DUP2 PUSH1 0x2 ADD SWAP1 DUP2 PUSH2 0x4AE SWAP2 SWAP1 PUSH2 0x1078 JUMP JUMPDEST POP PUSH1 0x60 DUP3 ADD MLOAD DUP2 PUSH1 0x3 ADD SWAP1 DUP1 MLOAD SWAP1 PUSH1 0x20 ADD SWAP1 PUSH2 0x4CB SWAP3 SWAP2 SWAP1 PUSH2 0x79A JUMP JUMPDEST POP PUSH1 0x80 DUP3 ADD MLOAD DUP2 PUSH1 0x4 ADD PUSH0 PUSH2 0x100 EXP DUP2 SLOAD DUP2 PUSH1 0xFF MUL NOT AND SWAP1 DUP4 ISZERO ISZERO MUL OR SWAP1 SSTORE POP SWAP1 POP POP PUSH1 0x2 DUP3 SWAP1 DUP1 PUSH1 0x1 DUP2 SLOAD ADD DUP1 DUP3 SSTORE DUP1 SWAP2 POP POP PUSH1 0x1 SWAP1 SUB SWAP1 PUSH0 MSTORE PUSH1 0x20 PUSH0 KECCAK256 ADD PUSH0 SWAP1 SWAP2 SWAP1 SWAP2 SWAP1 SWAP2 POP SSTORE PUSH2 0x554 JUMP JUMPDEST PUSH1 0x40 MLOAD PUSH32 0x8C379A000000000000000000000000000000000000000000000000000000000 DUP2 MSTORE PUSH1 0x4 ADD PUSH2 0x54B SWAP1 PUSH2 0x1191 JUMP JUMPDEST PUSH1 0x40 MLOAD DUP1 SWAP2 SUB SWAP1 REVERT JUMPDEST PUSH32 0x84C0940FCD7427394DB63E40D363F4F9E1A5CD24650D3C841512D92AB617A181 DUP3 DUP6 PUSH1 0x40 MLOAD PUSH2 0x585 SWAP3 SWAP2 SWAP1 PUSH2 0x11AF JUMP JUMPDEST PUSH1 0x40 MLOAD DUP1 SWAP2 SUB SWAP1 LOG1 POP POP POP POP JUMP JUMPDEST PUSH1 0x60 PUSH0 PUSH1 0x60 DUP1 PUSH0 PUSH0 PUSH0 PUSH0 DUP9 DUP2 MSTORE PUSH1 0x20 ADD SWAP1 DUP2 MSTORE PUSH1 0x20 ADD PUSH0 KECCAK256 PUSH1 0x40 MLOAD DUP1 PUSH1 0xA0 ADD PUSH1 0x40 MSTORE SWAP1 DUP2 PUSH0 DUP3 ADD DUP1 SLOAD PUSH2 0x5C5 SWAP1 PUSH2 0xD70 JUMP JUMPDEST DUP1 PUSH1 0x1F ADD PUSH1 0x20 DUP1 SWAP2 DIV MUL PUSH1 0x20 ADD PUSH1 0x40 MLOAD SWAP1 DUP2 ADD PUSH1 0x40 MSTORE DUP1 SWAP3 SWAP2 SWAP1 DUP2 DUP2 MSTORE PUSH1 0x20 ADD DUP3 DUP1 SLOAD PUSH2 0x5F1 SWAP1 PUSH2 0xD70 JUMP JUMPDEST DUP1 ISZERO PUSH2 0x63C JUMPI DUP1 PUSH1 0x1F LT PUSH2 0x613 JUMPI PUSH2 0x100 DUP1 DUP4 SLOAD DIV MUL DUP4 MSTORE SWAP2 PUSH1 0x20 ADD SWAP2 PUSH2 0x63C JUMP JUMPDEST DUP3 ADD SWAP2 SWAP1 PUSH0 MSTORE PUSH1 0x20 PUSH0 KECCAK256 SWAP1 JUMPDEST DUP2 SLOAD DUP2 MSTORE SWAP1 PUSH1 0x1 ADD SWAP1 PUSH1 0x20 ADD DUP1 DUP4 GT PUSH2 0x61F JUMPI DUP3 SWAP1 SUB PUSH1 0x1F AND DUP3 ADD SWAP2 JUMPDEST POP POP POP POP POP DUP2 MSTORE PUSH1 0x20 ADD PUSH1 0x1 DUP3 ADD SLOAD DUP2 MSTORE PUSH1 0x20 ADD PUSH1 0x2 DUP3 ADD DUP1 SLOAD PUSH2 0x65F SWAP1 PUSH2 0xD70 JUMP JUMPDEST DUP1 PUSH1 0x1F ADD PUSH1 0x20 DUP1 SWAP2 DIV MUL PUSH1 0x20 ADD PUSH1 0x40 MLOAD SWAP1 DUP2 ADD PUSH1 0x40 MSTORE DUP1 SWAP3 SWAP2 SWAP1 DUP2 DUP2 MSTORE PUSH1 0x20 ADD DUP3 DUP1 SLOAD PUSH2 0x68B SWAP1 PUSH2 0xD70 JUMP JUMPDEST DUP1 ISZERO PUSH2 0x6D6 JUMPI DUP1 PUSH1 0x1F LT PUSH2 0x6AD JUMPI PUSH2 0x100 DUP1 DUP4 SLOAD DIV MUL DUP4 MSTORE SWAP2 PUSH1 0x20 ADD SWAP2 PUSH2 0x6D6 JUMP JUMPDEST DUP3 ADD SWAP2 SWAP1 PUSH0 MSTORE PUSH1 0x20 PUSH0 KECCAK256 SWAP1 JUMPDEST DUP2 SLOAD DUP2 MSTORE SWAP1 PUSH1 0x1 ADD SWAP1 PUSH1 0x20 ADD DUP1 DUP4 GT PUSH2 0x6B9 JUMPI DUP3 SWAP1 SUB PUSH1 0x1F AND DUP3 ADD SWAP2 JUMPDEST POP POP POP POP POP DUP2 MSTORE PUSH1 0x20 ADD PUSH1 0x3 DUP3 ADD DUP1 SLOAD DUP1 PUSH1 0x20 MUL PUSH1 0x20 ADD PUSH1 0x40 MLOAD SWAP1 DUP2 ADD PUSH1 0x40 MSTORE DUP1 SWAP3 SWAP2 SWAP1 DUP2 DUP2 MSTORE PUSH1 0x20 ADD DUP3 DUP1 SLOAD DUP1 ISZERO PUSH2 0x72C JUMPI PUSH1 0x20 MUL DUP3 ADD SWAP2 SWAP1 PUSH0 MSTORE PUSH1 0x20 PUSH0 KECCAK256 SWAP1 JUMPDEST DUP2 SLOAD DUP2 MSTORE PUSH1 0x20 ADD SWAP1 PUSH1 0x1 ADD SWAP1 DUP1 DUP4 GT PUSH2 0x718 JUMPI JUMPDEST POP POP POP POP POP DUP2 MSTORE PUSH1 0x20 ADD PUSH1 0x4 DUP3 ADD PUSH0 SWAP1 SLOAD SWAP1 PUSH2 0x100 EXP SWAP1 DIV PUSH1 0xFF AND ISZERO ISZERO ISZERO ISZERO DUP2 MSTORE POP POP SWAP1 POP DUP1 PUSH0 ADD MLOAD DUP2 PUSH1 0x20 ADD MLOAD DUP3 PUSH1 0x40 ADD MLOAD DUP4 PUSH1 0x60 ADD MLOAD DUP5 PUSH1 0x80 ADD MLOAD SWAP6 POP SWAP6 POP SWAP6 POP SWAP6 POP SWAP6 POP POP SWAP2 SWAP4 SWAP6 SWAP1 SWAP3 SWAP5 POP JUMP JUMPDEST PUSH1 0x1 PUSH1 0x20 MSTORE DUP1 PUSH0 MSTORE PUSH1 0x40 PUSH0 KECCAK256 PUSH0 SWAP2 POP SLOAD SWAP1 PUSH2 0x100 EXP SWAP1 DIV PUSH1 0xFF AND DUP2 JUMP JUMPDEST DUP3 DUP1 SLOAD DUP3 DUP3 SSTORE SWAP1 PUSH0 MSTORE PUSH1 0x20 PUSH0 KECCAK256 SWAP1 DUP2 ADD SWAP3 DUP3 ISZERO PUSH2 0x7D4 JUMPI SWAP2 PUSH1 0x20 MUL DUP3 ADD JUMPDEST DUP3 DUP2 GT ISZERO PUSH2 0x7D3 JUMPI DUP3 MLOAD DUP3 SSTORE SWAP2 PUSH1 0x20 ADD SWAP2 SWAP1 PUSH1 0x1 ADD SWAP1 PUSH2 0x7B8 JUMP JUMPDEST JUMPDEST POP SWAP1 POP PUSH2 0x7E1 SWAP2 SWAP1 PUSH2 0x7E5 JUMP JUMPDEST POP SWAP1 JUMP JUMPDEST JUMPDEST DUP1 DUP3 GT ISZERO PUSH2 0x7FC JUMPI PUSH0 DUP2 PUSH0 SWAP1 SSTORE POP PUSH1 0x1 ADD PUSH2 0x7E6 JUMP JUMPDEST POP SWAP1 JUMP JUMPDEST PUSH0 PUSH1 0x40 MLOAD SWAP1 POP SWAP1 JUMP JUMPDEST PUSH0 PUSH0 REVERT JUMPDEST PUSH0 PUSH0 REVERT JUMPDEST PUSH0 DUP2 SWAP1 POP SWAP2 SWAP1 POP JUMP JUMPDEST PUSH2 0x823 DUP2 PUSH2 0x811 JUMP JUMPDEST DUP2 EQ PUSH2 0x82D JUMPI PUSH0 PUSH0 REVERT JUMPDEST POP JUMP JUMPDEST PUSH0 DUP2 CALLDATALOAD SWAP1 POP PUSH2 0x83E DUP2 PUSH2 0x81A JUMP JUMPDEST SWAP3 SWAP2 POP POP JUMP JUMPDEST PUSH0 PUSH1 0x20 DUP3 DUP5 SUB SLT ISZERO PUSH2 0x859 JUMPI PUSH2 0x858 PUSH2 0x809 JUMP JUMPDEST JUMPDEST PUSH0 PUSH2 0x866 DUP5 DUP3 DUP6 ADD PUSH2 0x830 JUMP JUMPDEST SWAP2 POP POP SWAP3 SWAP2 POP POP JUMP JUMPDEST PUSH2 0x878 DUP2 PUSH2 0x811 JUMP JUMPDEST DUP3 MSTORE POP POP JUMP JUMPDEST PUSH0 PUSH1 0x20 DUP3 ADD SWAP1 POP PUSH2 0x891 PUSH0 DUP4 ADD DUP5 PUSH2 0x86F JUMP JUMPDEST SWAP3 SWAP2 POP POP JUMP JUMPDEST PUSH0 DUP2 MLOAD SWAP1 POP SWAP2 SWAP1 POP JUMP JUMPDEST PUSH0 DUP3 DUP3 MSTORE PUSH1 0x20 DUP3 ADD SWAP1 POP SWAP3 SWAP2 POP POP JUMP JUMPDEST DUP3 DUP2 DUP4 MCOPY PUSH0 DUP4 DUP4 ADD MSTORE POP POP POP JUMP JUMPDEST PUSH0 PUSH1 0x1F NOT PUSH1 0x1F DUP4 ADD AND SWAP1 POP SWAP2 SWAP1 POP JUMP JUMPDEST PUSH0 PUSH2 0x8D9 DUP3 PUSH2 0x897 JUMP JUMPDEST PUSH2 0x8E3 DUP2 DUP6 PUSH2 0x8A1 JUMP JUMPDEST SWAP4 POP PUSH2 0x8F3 DUP2 DUP6 PUSH1 0x20 DUP7 ADD PUSH2 0x8B1 JUMP JUMPDEST PUSH2 0x8FC DUP2 PUSH2 0x8BF JUMP JUMPDEST DUP5 ADD SWAP2 POP POP SWAP3 SWAP2 POP POP JUMP JUMPDEST PUSH0 DUP2 ISZERO ISZERO SWAP1 POP SWAP2 SWAP1 POP JUMP JUMPDEST PUSH2 0x91B DUP2 PUSH2 0x907 JUMP JUMPDEST DUP3 MSTORE POP POP JUMP JUMPDEST PUSH0 PUSH1 0x80 DUP3 ADD SWAP1 POP DUP2 DUP2 SUB PUSH0 DUP4 ADD MSTORE PUSH2 0x939 DUP2 DUP8 PUSH2 0x8CF JUMP JUMPDEST SWAP1 POP PUSH2 0x948 PUSH1 0x20 DUP4 ADD DUP7 PUSH2 0x86F JUMP JUMPDEST DUP2 DUP2 SUB PUSH1 0x40 DUP4 ADD MSTORE PUSH2 0x95A DUP2 DUP6 PUSH2 0x8CF JUMP JUMPDEST SWAP1 POP PUSH2 0x969 PUSH1 0x60 DUP4 ADD DUP5 PUSH2 0x912 JUMP JUMPDEST SWAP6 SWAP5 POP POP POP POP POP JUMP JUMPDEST PUSH0 PUSH1 0xFF DUP3 AND SWAP1 POP SWAP2 SWAP1 POP JUMP JUMPDEST PUSH2 0x987 DUP2 PUSH2 0x972 JUMP JUMPDEST DUP2 EQ PUSH2 0x991 JUMPI PUSH0 PUSH0 REVERT JUMPDEST POP JUMP JUMPDEST PUSH0 DUP2 CALLDATALOAD SWAP1 POP PUSH2 0x9A2 DUP2 PUSH2 0x97E JUMP JUMPDEST SWAP3 SWAP2 POP POP JUMP JUMPDEST PUSH0 PUSH0 PUSH1 0x40 DUP4 DUP6 SUB SLT ISZERO PUSH2 0x9BE JUMPI PUSH2 0x9BD PUSH2 0x809 JUMP JUMPDEST JUMPDEST PUSH0 PUSH2 0x9CB DUP6 DUP3 DUP7 ADD PUSH2 0x830 JUMP JUMPDEST SWAP3 POP POP PUSH1 0x20 PUSH2 0x9DC DUP6 DUP3 DUP7 ADD PUSH2 0x994 JUMP JUMPDEST SWAP2 POP POP SWAP3 POP SWAP3 SWAP1 POP JUMP JUMPDEST PUSH0 PUSH0 REVERT JUMPDEST PUSH0 PUSH0 REVERT JUMPDEST PUSH32 0x4E487B7100000000000000000000000000000000000000000000000000000000 PUSH0 MSTORE PUSH1 0x41 PUSH1 0x4 MSTORE PUSH1 0x24 PUSH0 REVERT JUMPDEST PUSH2 0xA24 DUP3 PUSH2 0x8BF JUMP JUMPDEST DUP2 ADD DUP2 DUP2 LT PUSH8 0xFFFFFFFFFFFFFFFF DUP3 GT OR ISZERO PUSH2 0xA43 JUMPI PUSH2 0xA42 PUSH2 0x9EE JUMP JUMPDEST JUMPDEST DUP1 PUSH1 0x40 MSTORE POP POP POP JUMP JUMPDEST PUSH0 PUSH2 0xA55 PUSH2 0x800 JUMP JUMPDEST SWAP1 POP PUSH2 0xA61 DUP3 DUP3 PUSH2 0xA1B JUMP JUMPDEST SWAP2 SWAP1 POP JUMP JUMPDEST PUSH0 PUSH8 0xFFFFFFFFFFFFFFFF DUP3 GT ISZERO PUSH2 0xA80 JUMPI PUSH2 0xA7F PUSH2 0x9EE JUMP JUMPDEST JUMPDEST PUSH2 0xA89 DUP3 PUSH2 0x8BF JUMP JUMPDEST SWAP1 POP PUSH1 0x20 DUP2 ADD SWAP1 POP SWAP2 SWAP1 POP JUMP JUMPDEST DUP3 DUP2 DUP4 CALLDATACOPY PUSH0 DUP4 DUP4 ADD MSTORE POP POP POP JUMP JUMPDEST PUSH0 PUSH2 0xAB6 PUSH2 0xAB1 DUP5 PUSH2 0xA66 JUMP JUMPDEST PUSH2 0xA4C JUMP JUMPDEST SWAP1 POP DUP3 DUP2 MSTORE PUSH1 0x20 DUP2 ADD DUP5 DUP5 DUP5 ADD GT ISZERO PUSH2 0xAD2 JUMPI PUSH2 0xAD1 PUSH2 0x9EA JUMP JUMPDEST JUMPDEST PUSH2 0xADD DUP5 DUP3 DUP6 PUSH2 0xA96 JUMP JUMPDEST POP SWAP4 SWAP3 POP POP POP JUMP JUMPDEST PUSH0 DUP3 PUSH1 0x1F DUP4 ADD SLT PUSH2 0xAF9 JUMPI PUSH2 0xAF8 PUSH2 0x9E6 JUMP JUMPDEST JUMPDEST DUP2 CALLDATALOAD PUSH2 0xB09 DUP5 DUP3 PUSH1 0x20 DUP7 ADD PUSH2 0xAA4 JUMP JUMPDEST SWAP2 POP POP SWAP3 SWAP2 POP POP JUMP JUMPDEST PUSH0 PUSH0 PUSH1 0x40 DUP4 DUP6 SUB SLT ISZERO PUSH2 0xB28 JUMPI PUSH2 0xB27 PUSH2 0x809 JUMP JUMPDEST JUMPDEST PUSH0 DUP4 ADD CALLDATALOAD PUSH8 0xFFFFFFFFFFFFFFFF DUP2 GT ISZERO PUSH2 0xB45 JUMPI PUSH2 0xB44 PUSH2 0x80D JUMP JUMPDEST JUMPDEST PUSH2 0xB51 DUP6 DUP3 DUP7 ADD PUSH2 0xAE5 JUMP JUMPDEST SWAP3 POP POP PUSH1 0x20 DUP4 ADD CALLDATALOAD PUSH8 0xFFFFFFFFFFFFFFFF DUP2 GT ISZERO PUSH2 0xB72 JUMPI PUSH2 0xB71 PUSH2 0x80D JUMP JUMPDEST JUMPDEST PUSH2 0xB7E DUP6 DUP3 DUP7 ADD PUSH2 0xAE5 JUMP JUMPDEST SWAP2 POP POP SWAP3 POP SWAP3 SWAP1 POP JUMP JUMPDEST PUSH0 DUP2 MLOAD SWAP1 POP SWAP2 SWAP1 POP JUMP JUMPDEST PUSH0 DUP3 DUP3 MSTORE PUSH1 0x20 DUP3 ADD SWAP1 POP SWAP3 SWAP2 POP POP JUMP JUMPDEST PUSH0 DUP2 SWAP1 POP PUSH1 0x20 DUP3 ADD SWAP1 POP SWAP2 SWAP1 POP JUMP JUMPDEST PUSH2 0xBBA DUP2 PUSH2 0x811 JUMP JUMPDEST DUP3 MSTORE POP POP JUMP JUMPDEST PUSH0 PUSH2 0xBCB DUP4 DUP4 PUSH2 0xBB1 JUMP JUMPDEST PUSH1 0x20 DUP4 ADD SWAP1 POP SWAP3 SWAP2 POP POP JUMP JUMPDEST PUSH0 PUSH1 0x20 DUP3 ADD SWAP1 POP SWAP2 SWAP1 POP JUMP JUMPDEST PUSH0 PUSH2 0xBED DUP3 PUSH2 0xB88 JUMP JUMPDEST PUSH2 0xBF7 DUP2 DUP6 PUSH2 0xB92 JUMP JUMPDEST SWAP4 POP PUSH2 0xC02 DUP4 PUSH2 0xBA2 JUMP JUMPDEST DUP1 PUSH0 JUMPDEST DUP4 DUP2 LT ISZERO PUSH2 0xC32 JUMPI DUP2 MLOAD PUSH2 0xC19 DUP9 DUP3 PUSH2 0xBC0 JUMP JUMPDEST SWAP8 POP PUSH2 0xC24 DUP4 PUSH2 0xBD7 JUMP JUMPDEST SWAP3 POP POP PUSH1 0x1 DUP2 ADD SWAP1 POP PUSH2 0xC05 JUMP JUMPDEST POP DUP6 SWAP4 POP POP POP POP SWAP3 SWAP2 POP POP JUMP JUMPDEST PUSH0 PUSH1 0xA0 DUP3 ADD SWAP1 POP DUP2 DUP2 SUB PUSH0 DUP4 ADD MSTORE PUSH2 0xC57 DUP2 DUP9 PUSH2 0x8CF JUMP JUMPDEST SWAP1 POP PUSH2 0xC66 PUSH1 0x20 DUP4 ADD DUP8 PUSH2 0x86F JUMP JUMPDEST DUP2 DUP2 SUB PUSH1 0x40 DUP4 ADD MSTORE PUSH2 0xC78 DUP2 DUP7 PUSH2 0x8CF JUMP JUMPDEST SWAP1 POP DUP2 DUP2 SUB PUSH1 0x60 DUP4 ADD MSTORE PUSH2 0xC8C DUP2 DUP6 PUSH2 0xBE3 JUMP JUMPDEST SWAP1 POP PUSH2 0xC9B PUSH1 0x80 DUP4 ADD DUP5 PUSH2 0x912 JUMP JUMPDEST SWAP7 SWAP6 POP POP POP POP POP POP JUMP JUMPDEST PUSH0 PUSH20 0xFFFFFFFFFFFFFFFFFFFFFFFFFFFFFFFFFFFFFFFF DUP3 AND SWAP1 POP SWAP2 SWAP1 POP JUMP JUMPDEST PUSH0 PUSH2 0xCCE DUP3 PUSH2 0xCA5 JUMP JUMPDEST SWAP1 POP SWAP2 SWAP1 POP JUMP JUMPDEST PUSH2 0xCDE DUP2 PUSH2 0xCC4 JUMP JUMPDEST DUP2 EQ PUSH2 0xCE8 JUMPI PUSH0 PUSH0 REVERT JUMPDEST POP JUMP JUMPDEST PUSH0 DUP2 CALLDATALOAD SWAP1 POP PUSH2 0xCF9 DUP2 PUSH2 0xCD5 JUMP JUMPDEST SWAP3 SWAP2 POP POP JUMP JUMPDEST PUSH0 PUSH1 0x20 DUP3 DUP5 SUB SLT ISZERO PUSH2 0xD14 JUMPI PUSH2 0xD13 PUSH2 0x809 JUMP JUMPDEST JUMPDEST PUSH0 PUSH2 0xD21 DUP5 DUP3 DUP6 ADD PUSH2 0xCEB JUMP JUMPDEST SWAP2 POP POP SWAP3 SWAP2 POP POP JUMP JUMPDEST PUSH0 PUSH1 0x20 DUP3 ADD SWAP1 POP PUSH2 0xD3D PUSH0 DUP4 ADD DUP5 PUSH2 0x912 JUMP JUMPDEST SWAP3 SWAP2 POP POP JUMP JUMPDEST PUSH32 0x4E487B7100000000000000000000000000000000000000000000000000000000 PUSH0 MSTORE PUSH1 0x22 PUSH1 0x4 MSTORE PUSH1 0x24 PUSH0 REVERT JUMPDEST PUSH0 PUSH1 0x2 DUP3 DIV SWAP1 POP PUSH1 0x1 DUP3 AND DUP1 PUSH2 0xD87 JUMPI PUSH1 0x7F DUP3 AND SWAP2 POP JUMPDEST PUSH1 0x20 DUP3 LT DUP2 SUB PUSH2 0xD9A JUMPI PUSH2 0xD99 PUSH2 0xD43 JUMP JUMPDEST JUMPDEST POP SWAP2 SWAP1 POP JUMP JUMPDEST PUSH32 0x546964616B206D656D696C696B6920616B736573000000000000000000000000 PUSH0 DUP3 ADD MSTORE POP JUMP JUMPDEST PUSH0 PUSH2 0xDD4 PUSH1 0x14 DUP4 PUSH2 0x8A1 JUMP JUMPDEST SWAP2 POP PUSH2 0xDDF DUP3 PUSH2 0xDA0 JUMP JUMPDEST PUSH1 0x20 DUP3 ADD SWAP1 POP SWAP2 SWAP1 POP JUMP JUMPDEST PUSH0 PUSH1 0x20 DUP3 ADD SWAP1 POP DUP2 DUP2 SUB PUSH0 DUP4 ADD MSTORE PUSH2 0xE01 DUP2 PUSH2 0xDC8 JUMP JUMPDEST SWAP1 POP SWAP2 SWAP1 POP JUMP JUMPDEST PUSH32 0x4E616D6120546964616B20426F6C6568204B6F736F6E67210000000000000000 PUSH0 DUP3 ADD MSTORE POP JUMP JUMPDEST PUSH0 PUSH2 0xE3C PUSH1 0x18 DUP4 PUSH2 0x8A1 JUMP JUMPDEST SWAP2 POP PUSH2 0xE47 DUP3 PUSH2 0xE08 JUMP JUMPDEST PUSH1 0x20 DUP3 ADD SWAP1 POP SWAP2 SWAP1 POP JUMP JUMPDEST PUSH0 PUSH1 0x20 DUP3 ADD SWAP1 POP DUP2 DUP2 SUB PUSH0 DUP4 ADD MSTORE PUSH2 0xE69 DUP2 PUSH2 0xE30 JUMP JUMPDEST SWAP1 POP SWAP2 SWAP1 POP JUMP JUMPDEST PUSH32 0x4A75727573616E20546964616B20426F6C6568204B6F736F6E67210000000000 PUSH0 DUP3 ADD MSTORE POP JUMP JUMPDEST PUSH0 PUSH2 0xEA4 PUSH1 0x1B DUP4 PUSH2 0x8A1 JUMP JUMPDEST SWAP2 POP PUSH2 0xEAF DUP3 PUSH2 0xE70 JUMP JUMPDEST PUSH1 0x20 DUP3 ADD SWAP1 POP SWAP2 SWAP1 POP JUMP JUMPDEST PUSH0 PUSH1 0x20 DUP3 ADD SWAP1 POP DUP2 DUP2 SUB PUSH0 DUP4 ADD MSTORE PUSH2 0xED1 DUP2 PUSH2 0xE98 JUMP JUMPDEST SWAP1 POP SWAP2 SWAP1 POP JUMP JUMPDEST PUSH0 DUP2 SWAP1 POP DUP2 PUSH0 MSTORE PUSH1 0x20 PUSH0 KECCAK256 SWAP1 POP SWAP2 SWAP1 POP JUMP JUMPDEST PUSH0 PUSH1 0x20 PUSH1 0x1F DUP4 ADD DIV SWAP1 POP SWAP2 SWAP1 POP JUMP JUMPDEST PUSH0 DUP3 DUP3 SHL SWAP1 POP SWAP3 SWAP2 POP POP JUMP JUMPDEST PUSH0 PUSH1 0x8 DUP4 MUL PUSH2 0xF34 PUSH32 0xFFFFFFFFFFFFFFFFFFFFFFFFFFFFFFFFFFFFFFFFFFFFFFFFFFFFFFFFFFFFFFFF DUP3 PUSH2 0xEF9 JUMP JUMPDEST PUSH2 0xF3E DUP7 DUP4 PUSH2 0xEF9 JUMP JUMPDEST SWAP6 POP DUP1 NOT DUP5 AND SWAP4 POP DUP1 DUP7 AND DUP5 OR SWAP3 POP POP POP SWAP4 SWAP3 POP POP POP JUMP JUMPDEST PUSH0 DUP2 SWAP1 POP SWAP2 SWAP1 POP JUMP JUMPDEST PUSH0 PUSH2 0xF79 PUSH2 0xF74 PUSH2 0xF6F DUP5 PUSH2 0x811 JUMP JUMPDEST PUSH2 0xF56 JUMP JUMPDEST PUSH2 0x811 JUMP JUMPDEST SWAP1 POP SWAP2 SWAP1 POP JUMP JUMPDEST PUSH0 DUP2 SWAP1 POP SWAP2 SWAP1 POP JUMP JUMPDEST PUSH2 0xF92 DUP4 PUSH2 0xF5F JUMP JUMPDEST PUSH2 0xFA6 PUSH2 0xF9E DUP3 PUSH2 0xF80 JUMP JUMPDEST DUP5 DUP5 SLOAD PUSH2 0xF05 JUMP JUMPDEST DUP3 SSTORE POP POP POP POP JUMP JUMPDEST PUSH0 PUSH0 SWAP1 POP SWAP1 JUMP JUMPDEST PUSH2 0xFBD PUSH2 0xFAE JUMP JUMPDEST PUSH2 0xFC8 DUP2 DUP5 DUP5 PUSH2 0xF89 JUMP JUMPDEST POP POP POP JUMP JUMPDEST JUMPDEST DUP2 DUP2 LT ISZERO PUSH2 0xFEB JUMPI PUSH2 0xFE0 PUSH0 DUP3 PUSH2 0xFB5 JUMP JUMPDEST PUSH1 0x1 DUP2 ADD SWAP1 POP PUSH2 0xFCE JUMP JUMPDEST POP POP JUMP JUMPDEST PUSH1 0x1F DUP3 GT ISZERO PUSH2 0x1030 JUMPI PUSH2 0x1001 DUP2 PUSH2 0xED8 JUMP JUMPDEST PUSH2 0x100A DUP5 PUSH2 0xEEA JUMP JUMPDEST DUP2 ADD PUSH1 0x20 DUP6 LT ISZERO PUSH2 0x1019 JUMPI DUP2 SWAP1 POP JUMPDEST PUSH2 0x102D PUSH2 0x1025 DUP6 PUSH2 0xEEA JUMP JUMPDEST DUP4 ADD DUP3 PUSH2 0xFCD JUMP JUMPDEST POP POP JUMPDEST POP POP POP JUMP JUMPDEST PUSH0 DUP3 DUP3 SHR SWAP1 POP SWAP3 SWAP2 POP POP JUMP JUMPDEST PUSH0 PUSH2 0x1050 PUSH0 NOT DUP5 PUSH1 0x8 MUL PUSH2 0x1035 JUMP JUMPDEST NOT DUP1 DUP4 AND SWAP2 POP POP SWAP3 SWAP2 POP POP JUMP JUMPDEST PUSH0 PUSH2 0x1068 DUP4 DUP4 PUSH2 0x1041 JUMP JUMPDEST SWAP2 POP DUP3 PUSH1 0x2 MUL DUP3 OR SWAP1 POP SWAP3 SWAP2 POP POP JUMP JUMPDEST PUSH2 0x1081 DUP3 PUSH2 0x897 JUMP JUMPDEST PUSH8 0xFFFFFFFFFFFFFFFF DUP2 GT ISZERO PUSH2 0x109A JUMPI PUSH2 0x1099 PUSH2 0x9EE JUMP JUMPDEST JUMPDEST PUSH2 0x10A4 DUP3 SLOAD PUSH2 0xD70 JUMP JUMPDEST PUSH2 0x10AF DUP3 DUP3 DUP6 PUSH2 0xFEF JUMP JUMPDEST PUSH0 PUSH1 0x20 SWAP1 POP PUSH1 0x1F DUP4 GT PUSH1 0x1 DUP2 EQ PUSH2 0x10E0 JUMPI PUSH0 DUP5 ISZERO PUSH2 0x10CE JUMPI DUP3 DUP8 ADD MLOAD SWAP1 POP JUMPDEST PUSH2 0x10D8 DUP6 DUP3 PUSH2 0x105D JUMP JUMPDEST DUP7 SSTORE POP PUSH2 0x113F JUMP JUMPDEST PUSH1 0x1F NOT DUP5 AND PUSH2 0x10EE DUP7 PUSH2 0xED8 JUMP JUMPDEST PUSH0 JUMPDEST DUP3 DUP2 LT ISZERO PUSH2 0x1115 JUMPI DUP5 DUP10 ADD MLOAD DUP3 SSTORE PUSH1 0x1 DUP3 ADD SWAP2 POP PUSH1 0x20 DUP6 ADD SWAP5 POP PUSH1 0x20 DUP2 ADD SWAP1 POP PUSH2 0x10F0 JUMP JUMPDEST DUP7 DUP4 LT ISZERO PUSH2 0x1132 JUMPI DUP5 DUP10 ADD MLOAD PUSH2 0x112E PUSH1 0x1F DUP10 AND DUP3 PUSH2 0x1041 JUMP JUMPDEST DUP4 SSTORE POP JUMPDEST PUSH1 0x1 PUSH1 0x2 DUP9 MUL ADD DUP9 SSTORE POP POP POP JUMPDEST POP POP POP POP POP POP JUMP JUMPDEST PUSH32 0x4B616D7520537564616820746572646166746572210000000000000000000000 PUSH0 DUP3 ADD MSTORE POP JUMP JUMPDEST PUSH0 PUSH2 0x117B PUSH1 0x15 DUP4 PUSH2 0x8A1 JUMP JUMPDEST SWAP2 POP PUSH2 0x1186 DUP3 PUSH2 0x1147 JUMP JUMPDEST PUSH1 0x20 DUP3 ADD SWAP1 POP SWAP2 SWAP1 POP JUMP JUMPDEST PUSH0 PUSH1 0x20 DUP3 ADD SWAP1 POP DUP2 DUP2 SUB PUSH0 DUP4 ADD MSTORE PUSH2 0x11A8 DUP2 PUSH2 0x116F JUMP JUMPDEST SWAP1 POP SWAP2 SWAP1 POP JUMP JUMPDEST PUSH0 PUSH1 0x40 DUP3 ADD SWAP1 POP PUSH2 0x11C2 PUSH0 DUP4 ADD DUP6 PUSH2 0x86F JUMP JUMPDEST DUP2 DUP2 SUB PUSH1 0x20 DUP4 ADD MSTORE PUSH2 0x11D4 DUP2 DUP5 PUSH2 0x8CF JUMP JUMPDEST SWAP1 POP SWAP4 SWAP3 POP POP POP JUMP INVALID LOG2 PUSH5 0x6970667358 0x22 SLT KECCAK256 LT DUPN 0xC8 PUSH4 0xBD4DF88C 0x21 0xD2 SWAP15 RETURN 0xAD 0xE2 PUSH11 0x1731C465DFC463437B58A6 0x22 0x21 MSTORE 0xC8 RETURN SWAP13 PUSH5 0x736F6C6343 STOP ADDMOD 0x1E STOP CALLER "
				},
				"gasEstimates": {
					"creation": {
						"codeDepositCost": "925400",
						"executionCost": "25313",
						"totalCost": "950713"
					},
					"external": {
						"addGrade(uint256,uint8)": "49345",
						"authorized(address)": "2921",
						"daftarNIM(uint256)": "infinite",
						"enrollment(string,string)": "infinite",
						"getStudent(uint256)": "infinite",
						"mahasiswa(uint256)": "infinite"
					}
				},
				"methodIdentifiers": {
					"addGrade(uint256,uint8)": "315fecd2",
					"authorized(address)": "b9181611",
					"daftarNIM(uint256)": "00252bf6",
					"enrollment(string,string)": "32c69833",
					"getStudent(uint256)": "642f9163",
					"mahasiswa(uint256)": "2d8eeabf"
				}
			},
			"storageLayout": {
				"storage": [
					{
						"astId": 18,
						"contract": "contracts/SistemAkademik.sol:SistemAkademik",
						"label": "mahasiswa",
						"offset": 0,
						"slot": "0",
						"type": "t_mapping(t_uint256,t_struct(Mahasiswa)13_storage)"
					},
					{
						"astId": 22,
						"contract": "contracts/SistemAkademik.sol:SistemAkademik",
						"label": "authorized",
						"offset": 0,
						"slot": "1",
						"type": "t_mapping(t_address,t_bool)"
					},
					{
						"astId": 25,
						"contract": "contracts/SistemAkademik.sol:SistemAkademik",
						"label": "daftarNIM",
						"offset": 0,
						"slot": "2",
						"type": "t_array(t_uint256)dyn_storage"
					}
				],
				"types": {
					"t_address": {
						"encoding": "inplace",
						"label": "address",
						"numberOfBytes": "20"
					},
					"t_array(t_uint256)dyn_storage": {
						"base": "t_uint256",
						"encoding": "dynamic_array",
						"label": "uint256[]",
						"numberOfBytes": "32"
					},
					"t_bool": {
						"encoding": "inplace",
						"label": "bool",
						"numberOfBytes": "1"
					},
					"t_mapping(t_address,t_bool)": {
						"encoding": "mapping",
						"key": "t_address",
						"label": "mapping(address => bool)",
						"numberOfBytes": "32",
						"value": "t_bool"
					},
					"t_mapping(t_uint256,t_struct(Mahasiswa)13_storage)": {
						"encoding": "mapping",
						"key": "t_uint256",
						"label": "mapping(uint256 => struct SistemAkademik.Mahasiswa)",
						"numberOfBytes": "32",
						"value": "t_struct(Mahasiswa)13_storage"
					},
					"t_string_storage": {
						"encoding": "bytes",
						"label": "string",
						"numberOfBytes": "32"
					},
					"t_struct(Mahasiswa)13_storage": {
						"encoding": "inplace",
						"label": "struct SistemAkademik.Mahasiswa",
						"members": [
							{
								"astId": 3,
								"contract": "contracts/SistemAkademik.sol:SistemAkademik",
								"label": "nama",
								"offset": 0,
								"slot": "0",
								"type": "t_string_storage"
							},
							{
								"astId": 5,
								"contract": "contracts/SistemAkademik.sol:SistemAkademik",
								"label": "nim",
								"offset": 0,
								"slot": "1",
								"type": "t_uint256"
							},
							{
								"astId": 7,
								"contract": "contracts/SistemAkademik.sol:SistemAkademik",
								"label": "jurusan",
								"offset": 0,
								"slot": "2",
								"type": "t_string_storage"
							},
							{
								"astId": 10,
								"contract": "contracts/SistemAkademik.sol:SistemAkademik",
								"label": "nilai",
								"offset": 0,
								"slot": "3",
								"type": "t_array(t_uint256)dyn_storage"
							},
							{
								"astId": 12,
								"contract": "contracts/SistemAkademik.sol:SistemAkademik",
								"label": "isActive",
								"offset": 0,
								"slot": "4",
								"type": "t_bool"
							}
						],
						"numberOfBytes": "160"
					},
					"t_uint256": {
						"encoding": "inplace",
						"label": "uint256",
						"numberOfBytes": "32"
					}
				}
			},
			"userdoc": {
				"kind": "user",
				"methods": {},
				"version": 1
			}
		}
	}
}