{
	"contracts/PemilihanBEM.sol": {
		"PemilihanBEM": {
			"abi": [
				{
					"inputs": [
						{
							"internalType": "uint256",
							"name": "_waktuMulai",
							"type": "uint256"
						},
						{
							"internalType": "uint256",
							"name": "_waktuSelesai",
							"type": "uint256"
						}
					],
					"stateMutability": "nonpayable",
					"type": "constructor"
				},
				{
					"anonymous": false,
					"inputs": [
						{
							"indexed": false,
							"internalType": "string",
							"name": "nama",
							"type": "string"
						}
					],
					"name": "KandidatAdded",
					"type": "event"
				},
				{
					"anonymous": false,
					"inputs": [
						{
							"indexed": true,
							"internalType": "address",
							"name": "voter",
							"type": "address"
						},
						{
							"indexed": false,
							"internalType": "uint256",
							"name": "kandidatIndex",
							"type": "uint256"
						}
					],
					"name": "VoteCasted",
					"type": "event"
				},
				{
					"inputs": [
						{
							"internalType": "string",
							"name": "_nama",
							"type": "string"
						},
						{
							"internalType": "string",
							"name": "_visi",
							"type": "string"
						}
					],
					"name": "addCandidate",
					"outputs": [],
					"stateMutability": "nonpayable",
					"type": "function"
				},
				{
					"inputs": [],
					"name": "admin",
					"outputs": [
						{
							"internalType": "address",
							"name": "",
							"type": "address"
						}
					],
					"stateMutability": "view",
					"type": "function"
				},
				{
					"inputs": [
						{
							"internalType": "uint256",
							"name": "_noCandidate",
							"type": "uint256"
						}
					],
					"name": "cobaPaksaVote",
					"outputs": [],
					"stateMutability": "nonpayable",
					"type": "function"
				},
				{
					"inputs": [
						{
							"internalType": "address",
							"name": "_pemilih",
							"type": "address"
						}
					],
					"name": "daftarPemilih",
					"outputs": [],
					"stateMutability": "nonpayable",
					"type": "function"
				},
				{
					"inputs": [
						{
							"internalType": "uint256",
							"name": "_noCandidate",
							"type": "uint256"
						}
					],
					"name": "getResult",
					"outputs": [
						{
							"internalType": "string",
							"name": "nama",
							"type": "string"
						},
						{
							"internalType": "string",
							"name": "visi",
							"type": "string"
						},
						{
							"internalType": "uint256",
							"name": "suara",
							"type": "uint256"
						}
					],
					"stateMutability": "view",
					"type": "function"
				},
				{
					"inputs": [
						{
							"internalType": "uint256",
							"name": "",
							"type": "uint256"
						}
					],
					"name": "kandidat",
					"outputs": [
						{
							"internalType": "string",
							"name": "nama",
							"type": "string"
						},
						{
							"internalType": "string",
							"name": "visi",
							"type": "string"
						},
						{
							"internalType": "uint256",
							"name": "suara",
							"type": "uint256"
						}
					],
					"stateMutability": "view",
					"type": "function"
				},
				{
					"inputs": [
						{
							"internalType": "address",
							"name": "",
							"type": "address"
						}
					],
					"name": "pemilihTerdaftar",
					"outputs": [
						{
							"internalType": "bool",
							"name": "",
							"type": "bool"
						}
					],
					"stateMutability": "view",
					"type": "function"
				},
				{
					"inputs": [
						{
							"internalType": "address",
							"name": "",
							"type": "address"
						}
					],
					"name": "sudahMemilih",
					"outputs": [
						{
							"internalType": "bool",
							"name": "",
							"type": "bool"
						}
					],
					"stateMutability": "view",
					"type": "function"
				},
				{
					"inputs": [
						{
							"internalType": "uint256",
							"name": "_noCandidate",
							"type": "uint256"
						}
					],
					"name": "vote",
					"outputs": [],
					"stateMutability": "nonpayable",
					"type": "function"
				},
				{
					"inputs": [],
					"name": "waktuMulai",
					"outputs": [
						{
							"internalType": "uint256",
							"name": "",
							"type": "uint256"
						}
					],
					"stateMutability": "view",
					"type": "function"
				},
				{
					"inputs": [],
					"name": "waktuSelesai",
					"outputs": [
						{
							"internalType": "uint256",
							"name": "",
							"type": "uint256"
						}
					],
					"stateMutability": "view",
					"type": "function"
				}
			],
			"devdoc": {
				"kind": "dev",
				"methods": {},
				"version": 1
			},
			"evm": {
				"assembly": "    /* \"contracts/PemilihanBEM.sol\":61:2580  contract PemilihanBEM {... */\n  mstore(0x40, 0x80)\n    /* \"contracts/PemilihanBEM.sol\":548:715  constructor(uint256 _waktuMulai, uint256 _waktuSelesai) {... */\n  callvalue\n  dup1\n  iszero\n  tag_1\n  jumpi\n  revert(0x00, 0x00)\ntag_1:\n  pop\n  mload(0x40)\n  sub(codesize, bytecodeSize)\n  dup1\n  bytecodeSize\n  dup4\n  codecopy\n  dup2\n  dup2\n  add\n  0x40\n  mstore\n  dup2\n  add\n  swap1\n  tag_2\n  swap2\n  swap1\n  tag_3\n  jump\t// in\ntag_2:\n    /* \"contracts/PemilihanBEM.sol\":623:633  msg.sender */\n  caller\n    /* \"contracts/PemilihanBEM.sol\":615:620  admin */\n  0x05\n  0x00\n    /* \"contracts/PemilihanBEM.sol\":615:633  admin = msg.sender */\n  0x0100\n  exp\n  dup2\n  sload\n  dup2\n  0xffffffffffffffffffffffffffffffffffffffff\n  mul\n  not\n  and\n  swap1\n  dup4\n  0xffffffffffffffffffffffffffffffffffffffff\n  and\n  mul\n  or\n  swap1\n  sstore\n  pop\n    /* \"contracts/PemilihanBEM.sol\":657:668  _waktuMulai */\n  dup2\n    /* \"contracts/PemilihanBEM.sol\":644:654  waktuMulai */\n  0x03\n    /* \"contracts/PemilihanBEM.sol\":644:668  waktuMulai = _waktuMulai */\n  dup2\n  swap1\n  sstore\n  pop\n    /* \"contracts/PemilihanBEM.sol\":694:707  _waktuSelesai */\n  dup1\n    /* \"contracts/PemilihanBEM.sol\":679:691  waktuSelesai */\n  0x04\n    /* \"contracts/PemilihanBEM.sol\":679:707  waktuSelesai = _waktuSelesai */\n  dup2\n  swap1\n  sstore\n  pop\n    /* \"contracts/PemilihanBEM.sol\":548:715  constructor(uint256 _waktuMulai, uint256 _waktuSelesai) {... */\n  pop\n  pop\n    /* \"contracts/PemilihanBEM.sol\":61:2580  contract PemilihanBEM {... */\n  jump(tag_6)\n    /* \"#utility.yul\":88:205   */\ntag_8:\n    /* \"#utility.yul\":197:198   */\n  0x00\n    /* \"#utility.yul\":194:195   */\n  0x00\n    /* \"#utility.yul\":187:199   */\n  revert\n    /* \"#utility.yul\":334:411   */\ntag_10:\n    /* \"#utility.yul\":371:378   */\n  0x00\n    /* \"#utility.yul\":400:405   */\n  dup2\n    /* \"#utility.yul\":389:405   */\n  swap1\n  pop\n    /* \"#utility.yul\":334:411   */\n  swap2\n  swap1\n  pop\n  jump\t// out\n    /* \"#utility.yul\":417:539   */\ntag_11:\n    /* \"#utility.yul\":490:514   */\n  tag_19\n    /* \"#utility.yul\":508:513   */\n  dup2\n    /* \"#utility.yul\":490:514   */\n  tag_10\n  jump\t// in\ntag_19:\n    /* \"#utility.yul\":483:488   */\n  dup2\n    /* \"#utility.yul\":480:515   */\n  eq\n    /* \"#utility.yul\":470:533   */\n  tag_20\n  jumpi\n    /* \"#utility.yul\":529:530   */\n  0x00\n    /* \"#utility.yul\":526:527   */\n  0x00\n    /* \"#utility.yul\":519:531   */\n  revert\n    /* \"#utility.yul\":470:533   */\ntag_20:\n    /* \"#utility.yul\":417:539   */\n  pop\n  jump\t// out\n    /* \"#utility.yul\":545:688   */\ntag_12:\n    /* \"#utility.yul\":602:607   */\n  0x00\n    /* \"#utility.yul\":633:639   */\n  dup2\n    /* \"#utility.yul\":627:640   */\n  mload\n    /* \"#utility.yul\":618:640   */\n  swap1\n  pop\n    /* \"#utility.yul\":649:682   */\n  tag_22\n    /* \"#utility.yul\":676:681   */\n  dup2\n    /* \"#utility.yul\":649:682   */\n  tag_11\n  jump\t// in\ntag_22:\n    /* \"#utility.yul\":545:688   */\n  swap3\n  swap2\n  pop\n  pop\n  jump\t// out\n    /* \"#utility.yul\":694:1201   */\ntag_3:\n    /* \"#utility.yul\":773:779   */\n  0x00\n    /* \"#utility.yul\":781:787   */\n  0x00\n    /* \"#utility.yul\":830:832   */\n  0x40\n    /* \"#utility.yul\":818:827   */\n  dup4\n    /* \"#utility.yul\":809:816   */\n  dup6\n    /* \"#utility.yul\":805:828   */\n  sub\n    /* \"#utility.yul\":801:833   */\n  slt\n    /* \"#utility.yul\":798:917   */\n  iszero\n  tag_24\n  jumpi\n    /* \"#utility.yul\":836:915   */\n  tag_25\n  tag_8\n  jump\t// in\ntag_25:\n    /* \"#utility.yul\":798:917   */\ntag_24:\n    /* \"#utility.yul\":956:957   */\n  0x00\n    /* \"#utility.yul\":981:1045   */\n  tag_26\n    /* \"#utility.yul\":1037:1044   */\n  dup6\n    /* \"#utility.yul\":1028:1034   */\n  dup3\n    /* \"#utility.yul\":1017:1026   */\n  dup7\n    /* \"#utility.yul\":1013:1035   */\n  add\n    /* \"#utility.yul\":981:1045   */\n  tag_12\n  jump\t// in\ntag_26:\n    /* \"#utility.yul\":971:1045   */\n  swap3\n  pop\n    /* \"#utility.yul\":927:1055   */\n  pop\n    /* \"#utility.yul\":1094:1096   */\n  0x20\n    /* \"#utility.yul\":1120:1184   */\n  tag_27\n    /* \"#utility.yul\":1176:1183   */\n  dup6\n    /* \"#utility.yul\":1167:1173   */\n  dup3\n    /* \"#utility.yul\":1156:1165   */\n  dup7\n    /* \"#utility.yul\":1152:1174   */\n  add\n    /* \"#utility.yul\":1120:1184   */\n  tag_12\n  jump\t// in\ntag_27:\n    /* \"#utility.yul\":1110:1184   */\n  swap2\n  pop\n    /* \"#utility.yul\":1065:1194   */\n  pop\n    /* \"#utility.yul\":694:1201   */\n  swap3\n  pop\n  swap3\n  swap1\n  pop\n  jump\t// out\n    /* \"contracts/PemilihanBEM.sol\":61:2580  contract PemilihanBEM {... */\ntag_6:\n  dataSize(sub_0)\n  dup1\n  dataOffset(sub_0)\n  0x00\n  codecopy\n  0x00\n  return\nstop\n\nsub_0: assembly {\n        /* \"contracts/PemilihanBEM.sol\":61:2580  contract PemilihanBEM {... */\n      mstore(0x40, 0x80)\n      callvalue\n      dup1\n      iszero\n      tag_1\n      jumpi\n      revert(0x00, 0x00)\n    tag_1:\n      pop\n      jumpi(tag_2, lt(calldatasize, 0x04))\n      shr(0xe0, calldataload(0x00))\n      dup1\n      0x8e94dcfd\n      gt\n      tag_14\n      jumpi\n      dup1\n      0x8e94dcfd\n      eq\n      tag_8\n      jumpi\n      dup1\n      0x986c14b2\n      eq\n      tag_9\n      jumpi\n      dup1\n      0x995e4339\n      eq\n      tag_10\n      jumpi\n      dup1\n      0xbe2e8cd3\n      eq\n      tag_11\n      jumpi\n      dup1\n      0xdae770ef\n      eq\n      tag_12\n      jumpi\n      dup1\n      0xf851a440\n      eq\n      tag_13\n      jumpi\n      jump(tag_2)\n    tag_14:\n      dup1\n      0x0121b93f\n      eq\n      tag_3\n      jumpi\n      dup1\n      0x0cf57856\n      eq\n      tag_4\n      jumpi\n      dup1\n      0x26541b56\n      eq\n      tag_5\n      jumpi\n      dup1\n      0x657c3ef1\n      eq\n      tag_6\n      jumpi\n      dup1\n      0x79abf651\n      eq\n      tag_7\n      jumpi\n    tag_2:\n      revert(0x00, 0x00)\n        /* \"contracts/PemilihanBEM.sol\":1569:2114  function vote(uint256 _noCandidate) public onlyDuringVoting {... */\n    tag_3:\n      tag_15\n      0x04\n      dup1\n      calldatasize\n      sub\n      dup2\n      add\n      swap1\n      tag_16\n      swap2\n      swap1\n      tag_17\n      jump\t// in\n    tag_16:\n      tag_18\n      jump\t// in\n    tag_15:\n      stop\n        /* \"contracts/PemilihanBEM.sol\":278:326  mapping(address => bool) public pemilihTerdaftar */\n    tag_4:\n      tag_19\n      0x04\n      dup1\n      calldatasize\n      sub\n      dup2\n      add\n      swap1\n      tag_20\n      swap2\n      swap1\n      tag_21\n      jump\t// in\n    tag_20:\n      tag_22\n      jump\t// in\n    tag_19:\n      mload(0x40)\n      tag_23\n      swap2\n      swap1\n      tag_24\n      jump\t// in\n    tag_23:\n      mload(0x40)\n      dup1\n      swap2\n      sub\n      swap1\n      return\n        /* \"contracts/PemilihanBEM.sol\":1019:1331  function addCandidate(string memory _nama, string memory _visi) public {... */\n    tag_5:\n      tag_25\n      0x04\n      dup1\n      calldatasize\n      sub\n      dup2\n      add\n      swap1\n      tag_26\n      swap2\n      swap1\n      tag_27\n      jump\t// in\n    tag_26:\n      tag_28\n      jump\t// in\n    tag_25:\n      stop\n        /* \"contracts/PemilihanBEM.sol\":194:220  Kandidat[] public kandidat */\n    tag_6:\n      tag_29\n      0x04\n      dup1\n      calldatasize\n      sub\n      dup2\n      add\n      swap1\n      tag_30\n      swap2\n      swap1\n      tag_17\n      jump\t// in\n    tag_30:\n      tag_31\n      jump\t// in\n    tag_29:\n      mload(0x40)\n      tag_32\n      swap4\n      swap3\n      swap2\n      swap1\n      tag_33\n      jump\t// in\n    tag_32:\n      mload(0x40)\n      dup1\n      swap2\n      sub\n      swap1\n      return\n        /* \"contracts/PemilihanBEM.sol\":227:271  mapping(address => bool) public sudahMemilih */\n    tag_7:\n      tag_34\n      0x04\n      dup1\n      calldatasize\n      sub\n      dup2\n      add\n      swap1\n      tag_35\n      swap2\n      swap1\n      tag_21\n      jump\t// in\n    tag_35:\n      tag_36\n      jump\t// in\n    tag_34:\n      mload(0x40)\n      tag_37\n      swap2\n      swap1\n      tag_24\n      jump\t// in\n    tag_37:\n      mload(0x40)\n      dup1\n      swap2\n      sub\n      swap1\n      return\n        /* \"contracts/PemilihanBEM.sol\":2457:2577  function cobaPaksaVote(uint256 _noCandidate) public onlyDuringVoting{... */\n    tag_8:\n      tag_38\n      0x04\n      dup1\n      calldatasize\n      sub\n      dup2\n      add\n      swap1\n      tag_39\n      swap2\n      swap1\n      tag_17\n      jump\t// in\n    tag_39:\n      tag_40\n      jump\t// in\n    tag_38:\n      stop\n        /* \"contracts/PemilihanBEM.sol\":371:398  uint256 public waktuSelesai */\n    tag_9:\n      tag_41\n      tag_42\n      jump\t// in\n    tag_41:\n      mload(0x40)\n      tag_43\n      swap2\n      swap1\n      tag_44\n      jump\t// in\n    tag_43:\n      mload(0x40)\n      dup1\n      swap2\n      sub\n      swap1\n      return\n        /* \"contracts/PemilihanBEM.sol\":2173:2449  function getResult(uint256 _noCandidate) public view returns (... */\n    tag_10:\n      tag_45\n      0x04\n      dup1\n      calldatasize\n      sub\n      dup2\n      add\n      swap1\n      tag_46\n      swap2\n      swap1\n      tag_17\n      jump\t// in\n    tag_46:\n      tag_47\n      jump\t// in\n    tag_45:\n      mload(0x40)\n      tag_48\n      swap4\n      swap3\n      swap2\n      swap1\n      tag_33\n      jump\t// in\n    tag_48:\n      mload(0x40)\n      dup1\n      swap2\n      sub\n      swap1\n      return\n        /* \"contracts/PemilihanBEM.sol\":1339:1519  function daftarPemilih(address _pemilih) public {... */\n    tag_11:\n      tag_49\n      0x04\n      dup1\n      calldatasize\n      sub\n      dup2\n      add\n      swap1\n      tag_50\n      swap2\n      swap1\n      tag_21\n      jump\t// in\n    tag_50:\n      tag_51\n      jump\t// in\n    tag_49:\n      stop\n        /* \"contracts/PemilihanBEM.sol\":339:364  uint256 public waktuMulai */\n    tag_12:\n      tag_52\n      tag_53\n      jump\t// in\n    tag_52:\n      mload(0x40)\n      tag_54\n      swap2\n      swap1\n      tag_44\n      jump\t// in\n    tag_54:\n      mload(0x40)\n      dup1\n      swap2\n      sub\n      swap1\n      return\n        /* \"contracts/PemilihanBEM.sol\":405:425  address public admin */\n    tag_13:\n      tag_55\n      tag_56\n      jump\t// in\n    tag_55:\n      mload(0x40)\n      tag_57\n      swap2\n      swap1\n      tag_58\n      jump\t// in\n    tag_57:\n      mload(0x40)\n      dup1\n      swap2\n      sub\n      swap1\n      return\n        /* \"contracts/PemilihanBEM.sol\":1569:2114  function vote(uint256 _noCandidate) public onlyDuringVoting {... */\n    tag_18:\n        /* \"contracts/PemilihanBEM.sol\":807:817  waktuMulai */\n      sload(0x03)\n        /* \"contracts/PemilihanBEM.sol\":788:803  block.timestamp */\n      timestamp\n        /* \"contracts/PemilihanBEM.sol\":788:817  block.timestamp >= waktuMulai */\n      lt\n      iszero\n        /* \"contracts/PemilihanBEM.sol\":788:866  block.timestamp >= waktuMulai && ... */\n      dup1\n      iszero\n      tag_60\n      jumpi\n      pop\n        /* \"contracts/PemilihanBEM.sol\":854:866  waktuSelesai */\n      sload(0x04)\n        /* \"contracts/PemilihanBEM.sol\":835:850  block.timestamp */\n      timestamp\n        /* \"contracts/PemilihanBEM.sol\":835:866  block.timestamp <= waktuSelesai */\n      gt\n      iszero\n        /* \"contracts/PemilihanBEM.sol\":788:866  block.timestamp >= waktuMulai && ... */\n    tag_60:\n        /* \"contracts/PemilihanBEM.sol\":766:934  require(... */\n      tag_61\n      jumpi\n      mload(0x40)\n      0x08c379a000000000000000000000000000000000000000000000000000000000\n      dup2\n      mstore\n      0x04\n      add\n      tag_62\n      swap1\n      tag_63\n      jump\t// in\n    tag_62:\n      mload(0x40)\n      dup1\n      swap2\n      sub\n      swap1\n      revert\n    tag_61:\n        /* \"contracts/PemilihanBEM.sol\":1663:1671  kandidat */\n      0x00\n        /* \"contracts/PemilihanBEM.sol\":1663:1678  kandidat.length */\n      dup1\n      sload\n      swap1\n      pop\n        /* \"contracts/PemilihanBEM.sol\":1648:1660  _noCandidate */\n      dup2\n        /* \"contracts/PemilihanBEM.sol\":1648:1678  _noCandidate < kandidat.length */\n      lt\n        /* \"contracts/PemilihanBEM.sol\":1640:1708  require(_noCandidate < kandidat.length, \"Masukkan Id dengan benar!\") */\n      tag_65\n      jumpi\n      mload(0x40)\n      0x08c379a000000000000000000000000000000000000000000000000000000000\n      dup2\n      mstore\n      0x04\n      add\n      tag_66\n      swap1\n      tag_67\n      jump\t// in\n    tag_66:\n      mload(0x40)\n      dup1\n      swap2\n      sub\n      swap1\n      revert\n    tag_65:\n        /* \"contracts/PemilihanBEM.sol\":1835:1840  false */\n      0x00\n        /* \"contracts/PemilihanBEM.sol\":1807:1840  sudahMemilih[msg.sender] == false */\n      iszero\n      iszero\n        /* \"contracts/PemilihanBEM.sol\":1807:1819  sudahMemilih */\n      0x01\n        /* \"contracts/PemilihanBEM.sol\":1807:1831  sudahMemilih[msg.sender] */\n      0x00\n        /* \"contracts/PemilihanBEM.sol\":1820:1830  msg.sender */\n      caller\n        /* \"contracts/PemilihanBEM.sol\":1807:1831  sudahMemilih[msg.sender] */\n      0xffffffffffffffffffffffffffffffffffffffff\n      and\n      0xffffffffffffffffffffffffffffffffffffffff\n      and\n      dup2\n      mstore\n      0x20\n      add\n      swap1\n      dup2\n      mstore\n      0x20\n      add\n      0x00\n      keccak256\n      0x00\n      swap1\n      sload\n      swap1\n      0x0100\n      exp\n      swap1\n      div\n      0xff\n      and\n        /* \"contracts/PemilihanBEM.sol\":1807:1840  sudahMemilih[msg.sender] == false */\n      iszero\n      iszero\n      eq\n        /* \"contracts/PemilihanBEM.sol\":1799:1864  require(sudahMemilih[msg.sender] == false, \"Kamu sudah memilih!\") */\n      tag_68\n      jumpi\n      mload(0x40)\n      0x08c379a000000000000000000000000000000000000000000000000000000000\n      dup2\n      mstore\n      0x04\n      add\n      tag_69\n      swap1\n      tag_70\n      jump\t// in\n    tag_69:\n      mload(0x40)\n      dup1\n      swap2\n      sub\n      swap1\n      revert\n    tag_68:\n        /* \"contracts/PemilihanBEM.sol\":1915:1919  true */\n      0x01\n        /* \"contracts/PemilihanBEM.sol\":1883:1919  pemilihTerdaftar[msg.sender] == true */\n      iszero\n      iszero\n        /* \"contracts/PemilihanBEM.sol\":1883:1899  pemilihTerdaftar */\n      0x02\n        /* \"contracts/PemilihanBEM.sol\":1883:1911  pemilihTerdaftar[msg.sender] */\n      0x00\n        /* \"contracts/PemilihanBEM.sol\":1900:1910  msg.sender */\n      caller\n        /* \"contracts/PemilihanBEM.sol\":1883:1911  pemilihTerdaftar[msg.sender] */\n      0xffffffffffffffffffffffffffffffffffffffff\n      and\n      0xffffffffffffffffffffffffffffffffffffffff\n      and\n      dup2\n      mstore\n      0x20\n      add\n      swap1\n      dup2\n      mstore\n      0x20\n      add\n      0x00\n      keccak256\n      0x00\n      swap1\n      sload\n      swap1\n      0x0100\n      exp\n      swap1\n      div\n      0xff\n      and\n        /* \"contracts/PemilihanBEM.sol\":1883:1919  pemilihTerdaftar[msg.sender] == true */\n      iszero\n      iszero\n      eq\n        /* \"contracts/PemilihanBEM.sol\":1875:1962  require(pemilihTerdaftar[msg.sender] == true, \"Kamu bukan pemilih yang terverifikasi!\") */\n      tag_71\n      jumpi\n      mload(0x40)\n      0x08c379a000000000000000000000000000000000000000000000000000000000\n      dup2\n      mstore\n      0x04\n      add\n      tag_72\n      swap1\n      tag_73\n      jump\t// in\n    tag_72:\n      mload(0x40)\n      dup1\n      swap2\n      sub\n      swap1\n      revert\n    tag_71:\n        /* \"contracts/PemilihanBEM.sol\":2007:2008  1 */\n      0x01\n        /* \"contracts/PemilihanBEM.sol\":1975:1983  kandidat */\n      0x00\n        /* \"contracts/PemilihanBEM.sol\":1984:1996  _noCandidate */\n      dup3\n        /* \"contracts/PemilihanBEM.sol\":1975:1997  kandidat[_noCandidate] */\n      dup2\n      sload\n      dup2\n      lt\n      tag_74\n      jumpi\n      tag_75\n      tag_76\n      jump\t// in\n    tag_75:\n    tag_74:\n      swap1\n      0x00\n      mstore\n      keccak256(0x00, 0x20)\n      swap1\n      0x03\n      mul\n      add\n        /* \"contracts/PemilihanBEM.sol\":1975:2003  kandidat[_noCandidate].suara */\n      0x02\n      add\n      0x00\n        /* \"contracts/PemilihanBEM.sol\":1975:2008  kandidat[_noCandidate].suara += 1 */\n      dup3\n      dup3\n      sload\n      tag_78\n      swap2\n      swap1\n      tag_79\n      jump\t// in\n    tag_78:\n      swap3\n      pop\n      pop\n      dup2\n      swap1\n      sstore\n      pop\n        /* \"contracts/PemilihanBEM.sol\":2048:2052  true */\n      0x01\n        /* \"contracts/PemilihanBEM.sol\":2021:2033  sudahMemilih */\n      dup1\n        /* \"contracts/PemilihanBEM.sol\":2021:2045  sudahMemilih[msg.sender] */\n      0x00\n        /* \"contracts/PemilihanBEM.sol\":2034:2044  msg.sender */\n      caller\n        /* \"contracts/PemilihanBEM.sol\":2021:2045  sudahMemilih[msg.sender] */\n      0xffffffffffffffffffffffffffffffffffffffff\n      and\n      0xffffffffffffffffffffffffffffffffffffffff\n      and\n      dup2\n      mstore\n      0x20\n      add\n      swap1\n      dup2\n      mstore\n      0x20\n      add\n      0x00\n      keccak256\n      0x00\n        /* \"contracts/PemilihanBEM.sol\":2021:2052  sudahMemilih[msg.sender] = true */\n      0x0100\n      exp\n      dup2\n      sload\n      dup2\n      0xff\n      mul\n      not\n      and\n      swap1\n      dup4\n      iszero\n      iszero\n      mul\n      or\n      swap1\n      sstore\n      pop\n        /* \"contracts/PemilihanBEM.sol\":2081:2091  msg.sender */\n      caller\n        /* \"contracts/PemilihanBEM.sol\":2070:2106  VoteCasted(msg.sender, _noCandidate) */\n      0xffffffffffffffffffffffffffffffffffffffff\n      and\n      0xd0e6c39f2e086dc49f1524b47725526a56945cd1ff661f37976f1725a1e56986\n        /* \"contracts/PemilihanBEM.sol\":2093:2105  _noCandidate */\n      dup3\n        /* \"contracts/PemilihanBEM.sol\":2070:2106  VoteCasted(msg.sender, _noCandidate) */\n      mload(0x40)\n      tag_80\n      swap2\n      swap1\n      tag_44\n      jump\t// in\n    tag_80:\n      mload(0x40)\n      dup1\n      swap2\n      sub\n      swap1\n      log2\n        /* \"contracts/PemilihanBEM.sol\":1569:2114  function vote(uint256 _noCandidate) public onlyDuringVoting {... */\n      pop\n      jump\t// out\n        /* \"contracts/PemilihanBEM.sol\":278:326  mapping(address => bool) public pemilihTerdaftar */\n    tag_22:\n      mstore(0x20, 0x02)\n      dup1\n      0x00\n      mstore\n      keccak256(0x00, 0x40)\n      0x00\n      swap2\n      pop\n      sload\n      swap1\n      0x0100\n      exp\n      swap1\n      div\n      0xff\n      and\n      dup2\n      jump\t// out\n        /* \"contracts/PemilihanBEM.sol\":1019:1331  function addCandidate(string memory _nama, string memory _visi) public {... */\n    tag_28:\n        /* \"contracts/PemilihanBEM.sol\":1131:1132  0 */\n      0x00\n        /* \"contracts/PemilihanBEM.sol\":1115:1120  _nama */\n      dup3\n        /* \"contracts/PemilihanBEM.sol\":1109:1128  bytes(_nama).length */\n      mload\n        /* \"contracts/PemilihanBEM.sol\":1109:1132  bytes(_nama).length > 0 */\n      gt\n        /* \"contracts/PemilihanBEM.sol\":1101:1161  require(bytes(_nama).length > 0, \"Nama Tidak Boleh Kosong!\") */\n      tag_82\n      jumpi\n      mload(0x40)\n      0x08c379a000000000000000000000000000000000000000000000000000000000\n      dup2\n      mstore\n      0x04\n      add\n      tag_83\n      swap1\n      tag_84\n      jump\t// in\n    tag_83:\n      mload(0x40)\n      dup1\n      swap2\n      sub\n      swap1\n      revert\n    tag_82:\n        /* \"contracts/PemilihanBEM.sol\":1202:1203  0 */\n      0x00\n        /* \"contracts/PemilihanBEM.sol\":1186:1191  _visi */\n      dup2\n        /* \"contracts/PemilihanBEM.sol\":1180:1199  bytes(_visi).length */\n      mload\n        /* \"contracts/PemilihanBEM.sol\":1180:1203  bytes(_visi).length > 0 */\n      gt\n        /* \"contracts/PemilihanBEM.sol\":1172:1232  require(bytes(_visi).length > 0, \"Nama Tidak Boleh Kosong!\") */\n      tag_85\n      jumpi\n      mload(0x40)\n      0x08c379a000000000000000000000000000000000000000000000000000000000\n      dup2\n      mstore\n      0x04\n      add\n      tag_86\n      swap1\n      tag_84\n      jump\t// in\n    tag_86:\n      mload(0x40)\n      dup1\n      swap2\n      sub\n      swap1\n      revert\n    tag_85:\n        /* \"contracts/PemilihanBEM.sol\":1245:1253  kandidat */\n      0x00\n        /* \"contracts/PemilihanBEM.sol\":1259:1284  Kandidat(_nama, _visi, 0) */\n      mload(0x40)\n      dup1\n      0x60\n      add\n      0x40\n      mstore\n      dup1\n        /* \"contracts/PemilihanBEM.sol\":1268:1273  _nama */\n      dup5\n        /* \"contracts/PemilihanBEM.sol\":1259:1284  Kandidat(_nama, _visi, 0) */\n      dup2\n      mstore\n      0x20\n      add\n        /* \"contracts/PemilihanBEM.sol\":1275:1280  _visi */\n      dup4\n        /* \"contracts/PemilihanBEM.sol\":1259:1284  Kandidat(_nama, _visi, 0) */\n      dup2\n      mstore\n      0x20\n      add\n        /* \"contracts/PemilihanBEM.sol\":1282:1283  0 */\n      0x00\n        /* \"contracts/PemilihanBEM.sol\":1259:1284  Kandidat(_nama, _visi, 0) */\n      dup2\n      mstore\n      pop\n        /* \"contracts/PemilihanBEM.sol\":1245:1285  kandidat.push(Kandidat(_nama, _visi, 0)) */\n      swap1\n      dup1\n      0x01\n      dup2\n      sload\n      add\n      dup1\n      dup3\n      sstore\n      dup1\n      swap2\n      pop\n      pop\n      0x01\n      swap1\n      sub\n      swap1\n      0x00\n      mstore\n      keccak256(0x00, 0x20)\n      swap1\n      0x03\n      mul\n      add\n      0x00\n      swap1\n      swap2\n      swap1\n      swap2\n      swap1\n      swap2\n      pop\n      0x00\n      dup3\n      add\n      mload\n      dup2\n      0x00\n      add\n      swap1\n      dup2\n      tag_88\n      swap2\n      swap1\n      tag_89\n      jump\t// in\n    tag_88:\n      pop\n      0x20\n      dup3\n      add\n      mload\n      dup2\n      0x01\n      add\n      swap1\n      dup2\n      tag_90\n      swap2\n      swap1\n      tag_89\n      jump\t// in\n    tag_90:\n      pop\n      0x40\n      dup3\n      add\n      mload\n      dup2\n      0x02\n      add\n      sstore\n      pop\n      pop\n        /* \"contracts/PemilihanBEM.sol\":1303:1323  KandidatAdded(_nama) */\n      0xc86c45a2c2450845967b481f33078b0d7f6144696013327082df9bd9567a44fe\n        /* \"contracts/PemilihanBEM.sol\":1317:1322  _nama */\n      dup3\n        /* \"contracts/PemilihanBEM.sol\":1303:1323  KandidatAdded(_nama) */\n      mload(0x40)\n      tag_91\n      swap2\n      swap1\n      tag_92\n      jump\t// in\n    tag_91:\n      mload(0x40)\n      dup1\n      swap2\n      sub\n      swap1\n      log1\n        /* \"contracts/PemilihanBEM.sol\":1019:1331  function addCandidate(string memory _nama, string memory _visi) public {... */\n      pop\n      pop\n      jump\t// out\n        /* \"contracts/PemilihanBEM.sol\":194:220  Kandidat[] public kandidat */\n    tag_31:\n      0x00\n      dup2\n      dup2\n      sload\n      dup2\n      lt\n      tag_93\n      jumpi\n      0x00\n      dup1\n      revert\n    tag_93:\n      swap1\n      0x00\n      mstore\n      keccak256(0x00, 0x20)\n      swap1\n      0x03\n      mul\n      add\n      0x00\n      swap2\n      pop\n      swap1\n      pop\n      dup1\n      0x00\n      add\n      dup1\n      sload\n      tag_95\n      swap1\n      tag_96\n      jump\t// in\n    tag_95:\n      dup1\n      0x1f\n      add\n      0x20\n      dup1\n      swap2\n      div\n      mul\n      0x20\n      add\n      mload(0x40)\n      swap1\n      dup2\n      add\n      0x40\n      mstore\n      dup1\n      swap3\n      swap2\n      swap1\n      dup2\n      dup2\n      mstore\n      0x20\n      add\n      dup3\n      dup1\n      sload\n      tag_97\n      swap1\n      tag_96\n      jump\t// in\n    tag_97:\n      dup1\n      iszero\n      tag_98\n      jumpi\n      dup1\n      0x1f\n      lt\n      tag_99\n      jumpi\n      0x0100\n      dup1\n      dup4\n      sload\n      div\n      mul\n      dup4\n      mstore\n      swap2\n      0x20\n      add\n      swap2\n      jump(tag_98)\n    tag_99:\n      dup3\n      add\n      swap2\n      swap1\n      0x00\n      mstore\n      keccak256(0x00, 0x20)\n      swap1\n    tag_100:\n      dup2\n      sload\n      dup2\n      mstore\n      swap1\n      0x01\n      add\n      swap1\n      0x20\n      add\n      dup1\n      dup4\n      gt\n      tag_100\n      jumpi\n      dup3\n      swap1\n      sub\n      0x1f\n      and\n      dup3\n      add\n      swap2\n    tag_98:\n      pop\n      pop\n      pop\n      pop\n      pop\n      swap1\n      dup1\n      0x01\n      add\n      dup1\n      sload\n      tag_101\n      swap1\n      tag_96\n      jump\t// in\n    tag_101:\n      dup1\n      0x1f\n      add\n      0x20\n      dup1\n      swap2\n      div\n      mul\n      0x20\n      add\n      mload(0x40)\n      swap1\n      dup2\n      add\n      0x40\n      mstore\n      dup1\n      swap3\n      swap2\n      swap1\n      dup2\n      dup2\n      mstore\n      0x20\n      add\n      dup3\n      dup1\n      sload\n      tag_102\n      swap1\n      tag_96\n      jump\t// in\n    tag_102:\n      dup1\n      iszero\n      tag_103\n      jumpi\n      dup1\n      0x1f\n      lt\n      tag_104\n      jumpi\n      0x0100\n      dup1\n      dup4\n      sload\n      div\n      mul\n      dup4\n      mstore\n      swap2\n      0x20\n      add\n      swap2\n      jump(tag_103)\n    tag_104:\n      dup3\n      add\n      swap2\n      swap1\n      0x00\n      mstore\n      keccak256(0x00, 0x20)\n      swap1\n    tag_105:\n      dup2\n      sload\n      dup2\n      mstore\n      swap1\n      0x01\n      add\n      swap1\n      0x20\n      add\n      dup1\n      dup4\n      gt\n      tag_105\n      jumpi\n      dup3\n      swap1\n      sub\n      0x1f\n      and\n      dup3\n      add\n      swap2\n    tag_103:\n      pop\n      pop\n      pop\n      pop\n      pop\n      swap1\n      dup1\n      0x02\n      add\n      sload\n      swap1\n      pop\n      dup4\n      jump\t// out\n        /* \"contracts/PemilihanBEM.sol\":227:271  mapping(address => bool) public sudahMemilih */\n    tag_36:\n      mstore(0x20, 0x01)\n      dup1\n      0x00\n      mstore\n      keccak256(0x00, 0x40)\n      0x00\n      swap2\n      pop\n      sload\n      swap1\n      0x0100\n      exp\n      swap1\n      div\n      0xff\n      and\n      dup2\n      jump\t// out\n        /* \"contracts/PemilihanBEM.sol\":2457:2577  function cobaPaksaVote(uint256 _noCandidate) public onlyDuringVoting{... */\n    tag_40:\n        /* \"contracts/PemilihanBEM.sol\":807:817  waktuMulai */\n      sload(0x03)\n        /* \"contracts/PemilihanBEM.sol\":788:803  block.timestamp */\n      timestamp\n        /* \"contracts/PemilihanBEM.sol\":788:817  block.timestamp >= waktuMulai */\n      lt\n      iszero\n        /* \"contracts/PemilihanBEM.sol\":788:866  block.timestamp >= waktuMulai && ... */\n      dup1\n      iszero\n      tag_107\n      jumpi\n      pop\n        /* \"contracts/PemilihanBEM.sol\":854:866  waktuSelesai */\n      sload(0x04)\n        /* \"contracts/PemilihanBEM.sol\":835:850  block.timestamp */\n      timestamp\n        /* \"contracts/PemilihanBEM.sol\":835:866  block.timestamp <= waktuSelesai */\n      gt\n      iszero\n        /* \"contracts/PemilihanBEM.sol\":788:866  block.timestamp >= waktuMulai && ... */\n    tag_107:\n        /* \"contracts/PemilihanBEM.sol\":766:934  require(... */\n      tag_108\n      jumpi\n      mload(0x40)\n      0x08c379a000000000000000000000000000000000000000000000000000000000\n      dup2\n      mstore\n      0x04\n      add\n      tag_109\n      swap1\n      tag_63\n      jump\t// in\n    tag_109:\n      mload(0x40)\n      dup1\n      swap2\n      sub\n      swap1\n      revert\n    tag_108:\n        /* \"contracts/PemilihanBEM.sol\":2568:2569  1 */\n      0x01\n        /* \"contracts/PemilihanBEM.sol\":2536:2544  kandidat */\n      0x00\n        /* \"contracts/PemilihanBEM.sol\":2545:2557  _noCandidate */\n      dup3\n        /* \"contracts/PemilihanBEM.sol\":2536:2558  kandidat[_noCandidate] */\n      dup2\n      sload\n      dup2\n      lt\n      tag_111\n      jumpi\n      tag_112\n      tag_76\n      jump\t// in\n    tag_112:\n    tag_111:\n      swap1\n      0x00\n      mstore\n      keccak256(0x00, 0x20)\n      swap1\n      0x03\n      mul\n      add\n        /* \"contracts/PemilihanBEM.sol\":2536:2564  kandidat[_noCandidate].suara */\n      0x02\n      add\n      0x00\n        /* \"contracts/PemilihanBEM.sol\":2536:2569  kandidat[_noCandidate].suara += 1 */\n      dup3\n      dup3\n      sload\n      tag_114\n      swap2\n      swap1\n      tag_79\n      jump\t// in\n    tag_114:\n      swap3\n      pop\n      pop\n      dup2\n      swap1\n      sstore\n      pop\n        /* \"contracts/PemilihanBEM.sol\":2457:2577  function cobaPaksaVote(uint256 _noCandidate) public onlyDuringVoting{... */\n      pop\n      jump\t// out\n        /* \"contracts/PemilihanBEM.sol\":371:398  uint256 public waktuSelesai */\n    tag_42:\n      sload(0x04)\n      dup2\n      jump\t// out\n        /* \"contracts/PemilihanBEM.sol\":2173:2449  function getResult(uint256 _noCandidate) public view returns (... */\n    tag_47:\n        /* \"contracts/PemilihanBEM.sol\":2245:2263  string memory nama */\n      0x60\n        /* \"contracts/PemilihanBEM.sol\":2274:2292  string memory visi */\n      dup1\n        /* \"contracts/PemilihanBEM.sol\":2303:2316  uint256 suara */\n      0x00\n        /* \"contracts/PemilihanBEM.sol\":2335:2357  Kandidat memory person */\n      0x00\n        /* \"contracts/PemilihanBEM.sol\":2360:2368  kandidat */\n      0x00\n        /* \"contracts/PemilihanBEM.sol\":2369:2381  _noCandidate */\n      dup6\n        /* \"contracts/PemilihanBEM.sol\":2360:2382  kandidat[_noCandidate] */\n      dup2\n      sload\n      dup2\n      lt\n      tag_116\n      jumpi\n      tag_117\n      tag_76\n      jump\t// in\n    tag_117:\n    tag_116:\n      swap1\n      0x00\n      mstore\n      keccak256(0x00, 0x20)\n      swap1\n      0x03\n      mul\n      add\n        /* \"contracts/PemilihanBEM.sol\":2335:2382  Kandidat memory person = kandidat[_noCandidate] */\n      mload(0x40)\n      dup1\n      0x60\n      add\n      0x40\n      mstore\n      swap1\n      dup2\n      0x00\n      dup3\n      add\n      dup1\n      sload\n      tag_119\n      swap1\n      tag_96\n      jump\t// in\n    tag_119:\n      dup1\n      0x1f\n      add\n      0x20\n      dup1\n      swap2\n      div\n      mul\n      0x20\n      add\n      mload(0x40)\n      swap1\n      dup2\n      add\n      0x40\n      mstore\n      dup1\n      swap3\n      swap2\n      swap1\n      dup2\n      dup2\n      mstore\n      0x20\n      add\n      dup3\n      dup1\n      sload\n      tag_120\n      swap1\n      tag_96\n      jump\t// in\n    tag_120:\n      dup1\n      iszero\n      tag_121\n      jumpi\n      dup1\n      0x1f\n      lt\n      tag_122\n      jumpi\n      0x0100\n      dup1\n      dup4\n      sload\n      div\n      mul\n      dup4\n      mstore\n      swap2\n      0x20\n      add\n      swap2\n      jump(tag_121)\n    tag_122:\n      dup3\n      add\n      swap2\n      swap1\n      0x00\n      mstore\n      keccak256(0x00, 0x20)\n      swap1\n    tag_123:\n      dup2\n      sload\n      dup2\n      mstore\n      swap1\n      0x01\n      add\n      swap1\n      0x20\n      add\n      dup1\n      dup4\n      gt\n      tag_123\n      jumpi\n      dup3\n      swap1\n      sub\n      0x1f\n      and\n      dup3\n      add\n      swap2\n    tag_121:\n      pop\n      pop\n      pop\n      pop\n      pop\n      dup2\n      mstore\n      0x20\n      add\n      0x01\n      dup3\n      add\n      dup1\n      sload\n      tag_124\n      swap1\n      tag_96\n      jump\t// in\n    tag_124:\n      dup1\n      0x1f\n      add\n      0x20\n      dup1\n      swap2\n      div\n      mul\n      0x20\n      add\n      mload(0x40)\n      swap1\n      dup2\n      add\n      0x40\n      mstore\n      dup1\n      swap3\n      swap2\n      swap1\n      dup2\n      dup2\n      mstore\n      0x20\n      add\n      dup3\n      dup1\n      sload\n      tag_125\n      swap1\n      tag_96\n      jump\t// in\n    tag_125:\n      dup1\n      iszero\n      tag_126\n      jumpi\n      dup1\n      0x1f\n      lt\n      tag_127\n      jumpi\n      0x0100\n      dup1\n      dup4\n      sload\n      div\n      mul\n      dup4\n      mstore\n      swap2\n      0x20\n      add\n      swap2\n      jump(tag_126)\n    tag_127:\n      dup3\n      add\n      swap2\n      swap1\n      0x00\n      mstore\n      keccak256(0x00, 0x20)\n      swap1\n    tag_128:\n      dup2\n      sload\n      dup2\n      mstore\n      swap1\n      0x01\n      add\n      swap1\n      0x20\n      add\n      dup1\n      dup4\n      gt\n      tag_128\n      jumpi\n      dup3\n      swap1\n      sub\n      0x1f\n      and\n      dup3\n      add\n      swap2\n    tag_126:\n      pop\n      pop\n      pop\n      pop\n      pop\n      dup2\n      mstore\n      0x20\n      add\n      0x02\n      dup3\n      add\n      sload\n      dup2\n      mstore\n      pop\n      pop\n      swap1\n      pop\n        /* \"contracts/PemilihanBEM.sol\":2403:2409  person */\n      dup1\n        /* \"contracts/PemilihanBEM.sol\":2403:2414  person.nama */\n      0x00\n      add\n      mload\n        /* \"contracts/PemilihanBEM.sol\":2416:2422  person */\n      dup2\n        /* \"contracts/PemilihanBEM.sol\":2416:2427  person.visi */\n      0x20\n      add\n      mload\n        /* \"contracts/PemilihanBEM.sol\":2428:2434  person */\n      dup3\n        /* \"contracts/PemilihanBEM.sol\":2428:2440  person.suara */\n      0x40\n      add\n      mload\n        /* \"contracts/PemilihanBEM.sol\":2395:2441  return (person.nama, person.visi,person.suara) */\n      swap4\n      pop\n      swap4\n      pop\n      swap4\n      pop\n      pop\n        /* \"contracts/PemilihanBEM.sol\":2173:2449  function getResult(uint256 _noCandidate) public view returns (... */\n      swap2\n      swap4\n      swap1\n      swap3\n      pop\n      jump\t// out\n        /* \"contracts/PemilihanBEM.sol\":1339:1519  function daftarPemilih(address _pemilih) public {... */\n    tag_51:\n        /* \"contracts/PemilihanBEM.sol\":1420:1425  admin */\n      0x05\n      0x00\n      swap1\n      sload\n      swap1\n      0x0100\n      exp\n      swap1\n      div\n      0xffffffffffffffffffffffffffffffffffffffff\n      and\n        /* \"contracts/PemilihanBEM.sol\":1406:1425  msg.sender == admin */\n      0xffffffffffffffffffffffffffffffffffffffff\n      and\n        /* \"contracts/PemilihanBEM.sol\":1406:1416  msg.sender */\n      caller\n        /* \"contracts/PemilihanBEM.sol\":1406:1425  msg.sender == admin */\n      0xffffffffffffffffffffffffffffffffffffffff\n      and\n      eq\n        /* \"contracts/PemilihanBEM.sol\":1398:1467  require(msg.sender == admin, \"Hanya admin yang boleh daftar pemilih\") */\n      tag_130\n      jumpi\n      mload(0x40)\n      0x08c379a000000000000000000000000000000000000000000000000000000000\n      dup2\n      mstore\n      0x04\n      add\n      tag_131\n      swap1\n      tag_132\n      jump\t// in\n    tag_131:\n      mload(0x40)\n      dup1\n      swap2\n      sub\n      swap1\n      revert\n    tag_130:\n        /* \"contracts/PemilihanBEM.sol\":1507:1511  true */\n      0x01\n        /* \"contracts/PemilihanBEM.sol\":1478:1494  pemilihTerdaftar */\n      0x02\n        /* \"contracts/PemilihanBEM.sol\":1478:1504  pemilihTerdaftar[_pemilih] */\n      0x00\n        /* \"contracts/PemilihanBEM.sol\":1495:1503  _pemilih */\n      dup4\n        /* \"contracts/PemilihanBEM.sol\":1478:1504  pemilihTerdaftar[_pemilih] */\n      0xffffffffffffffffffffffffffffffffffffffff\n      and\n      0xffffffffffffffffffffffffffffffffffffffff\n      and\n      dup2\n      mstore\n      0x20\n      add\n      swap1\n      dup2\n      mstore\n      0x20\n      add\n      0x00\n      keccak256\n      0x00\n        /* \"contracts/PemilihanBEM.sol\":1478:1511  pemilihTerdaftar[_pemilih] = true */\n      0x0100\n      exp\n      dup2\n      sload\n      dup2\n      0xff\n      mul\n      not\n      and\n      swap1\n      dup4\n      iszero\n      iszero\n      mul\n      or\n      swap1\n      sstore\n      pop\n        /* \"contracts/PemilihanBEM.sol\":1339:1519  function daftarPemilih(address _pemilih) public {... */\n      pop\n      jump\t// out\n        /* \"contracts/PemilihanBEM.sol\":339:364  uint256 public waktuMulai */\n    tag_53:\n      sload(0x03)\n      dup2\n      jump\t// out\n        /* \"contracts/PemilihanBEM.sol\":405:425  address public admin */\n    tag_56:\n      0x05\n      0x00\n      swap1\n      sload\n      swap1\n      0x0100\n      exp\n      swap1\n      div\n      0xffffffffffffffffffffffffffffffffffffffff\n      and\n      dup2\n      jump\t// out\n        /* \"#utility.yul\":7:82   */\n    tag_133:\n        /* \"#utility.yul\":40:46   */\n      0x00\n        /* \"#utility.yul\":73:75   */\n      0x40\n        /* \"#utility.yul\":67:76   */\n      mload\n        /* \"#utility.yul\":57:76   */\n      swap1\n      pop\n        /* \"#utility.yul\":7:82   */\n      swap1\n      jump\t// out\n        /* \"#utility.yul\":88:205   */\n    tag_134:\n        /* \"#utility.yul\":197:198   */\n      0x00\n        /* \"#utility.yul\":194:195   */\n      0x00\n        /* \"#utility.yul\":187:199   */\n      revert\n        /* \"#utility.yul\":211:328   */\n    tag_135:\n        /* \"#utility.yul\":320:321   */\n      0x00\n        /* \"#utility.yul\":317:318   */\n      0x00\n        /* \"#utility.yul\":310:322   */\n      revert\n        /* \"#utility.yul\":334:411   */\n    tag_136:\n        /* \"#utility.yul\":371:378   */\n      0x00\n        /* \"#utility.yul\":400:405   */\n      dup2\n        /* \"#utility.yul\":389:405   */\n      swap1\n      pop\n        /* \"#utility.yul\":334:411   */\n      swap2\n      swap1\n      pop\n      jump\t// out\n        /* \"#utility.yul\":417:539   */\n    tag_137:\n        /* \"#utility.yul\":490:514   */\n      tag_196\n        /* \"#utility.yul\":508:513   */\n      dup2\n        /* \"#utility.yul\":490:514   */\n      tag_136\n      jump\t// in\n    tag_196:\n        /* \"#utility.yul\":483:488   */\n      dup2\n        /* \"#utility.yul\":480:515   */\n      eq\n        /* \"#utility.yul\":470:533   */\n      tag_197\n      jumpi\n        /* \"#utility.yul\":529:530   */\n      0x00\n        /* \"#utility.yul\":526:527   */\n      0x00\n        /* \"#utility.yul\":519:531   */\n      revert\n        /* \"#utility.yul\":470:533   */\n    tag_197:\n        /* \"#utility.yul\":417:539   */\n      pop\n      jump\t// out\n        /* \"#utility.yul\":545:684   */\n    tag_138:\n        /* \"#utility.yul\":591:596   */\n      0x00\n        /* \"#utility.yul\":629:635   */\n      dup2\n        /* \"#utility.yul\":616:636   */\n      calldataload\n        /* \"#utility.yul\":607:636   */\n      swap1\n      pop\n        /* \"#utility.yul\":645:678   */\n      tag_199\n        /* \"#utility.yul\":672:677   */\n      dup2\n        /* \"#utility.yul\":645:678   */\n      tag_137\n      jump\t// in\n    tag_199:\n        /* \"#utility.yul\":545:684   */\n      swap3\n      swap2\n      pop\n      pop\n      jump\t// out\n        /* \"#utility.yul\":690:1019   */\n    tag_17:\n        /* \"#utility.yul\":749:755   */\n      0x00\n        /* \"#utility.yul\":798:800   */\n      0x20\n        /* \"#utility.yul\":786:795   */\n      dup3\n        /* \"#utility.yul\":777:784   */\n      dup5\n        /* \"#utility.yul\":773:796   */\n      sub\n        /* \"#utility.yul\":769:801   */\n      slt\n        /* \"#utility.yul\":766:885   */\n      iszero\n      tag_201\n      jumpi\n        /* \"#utility.yul\":804:883   */\n      tag_202\n      tag_134\n      jump\t// in\n    tag_202:\n        /* \"#utility.yul\":766:885   */\n    tag_201:\n        /* \"#utility.yul\":924:925   */\n      0x00\n        /* \"#utility.yul\":949:1002   */\n      tag_203\n        /* \"#utility.yul\":994:1001   */\n      dup5\n        /* \"#utility.yul\":985:991   */\n      dup3\n        /* \"#utility.yul\":974:983   */\n      dup6\n        /* \"#utility.yul\":970:992   */\n      add\n        /* \"#utility.yul\":949:1002   */\n      tag_138\n      jump\t// in\n    tag_203:\n        /* \"#utility.yul\":939:1002   */\n      swap2\n      pop\n        /* \"#utility.yul\":895:1012   */\n      pop\n        /* \"#utility.yul\":690:1019   */\n      swap3\n      swap2\n      pop\n      pop\n      jump\t// out\n        /* \"#utility.yul\":1025:1151   */\n    tag_139:\n        /* \"#utility.yul\":1062:1069   */\n      0x00\n        /* \"#utility.yul\":1102:1144   */\n      0xffffffffffffffffffffffffffffffffffffffff\n        /* \"#utility.yul\":1095:1100   */\n      dup3\n        /* \"#utility.yul\":1091:1145   */\n      and\n        /* \"#utility.yul\":1080:1145   */\n      swap1\n      pop\n        /* \"#utility.yul\":1025:1151   */\n      swap2\n      swap1\n      pop\n      jump\t// out\n        /* \"#utility.yul\":1157:1253   */\n    tag_140:\n        /* \"#utility.yul\":1194:1201   */\n      0x00\n        /* \"#utility.yul\":1223:1247   */\n      tag_206\n        /* \"#utility.yul\":1241:1246   */\n      dup3\n        /* \"#utility.yul\":1223:1247   */\n      tag_139\n      jump\t// in\n    tag_206:\n        /* \"#utility.yul\":1212:1247   */\n      swap1\n      pop\n        /* \"#utility.yul\":1157:1253   */\n      swap2\n      swap1\n      pop\n      jump\t// out\n        /* \"#utility.yul\":1259:1381   */\n    tag_141:\n        /* \"#utility.yul\":1332:1356   */\n      tag_208\n        /* \"#utility.yul\":1350:1355   */\n      dup2\n        /* \"#utility.yul\":1332:1356   */\n      tag_140\n      jump\t// in\n    tag_208:\n        /* \"#utility.yul\":1325:1330   */\n      dup2\n        /* \"#utility.yul\":1322:1357   */\n      eq\n        /* \"#utility.yul\":1312:1375   */\n      tag_209\n      jumpi\n        /* \"#utility.yul\":1371:1372   */\n      0x00\n        /* \"#utility.yul\":1368:1369   */\n      0x00\n        /* \"#utility.yul\":1361:1373   */\n      revert\n        /* \"#utility.yul\":1312:1375   */\n    tag_209:\n        /* \"#utility.yul\":1259:1381   */\n      pop\n      jump\t// out\n        /* \"#utility.yul\":1387:1526   */\n    tag_142:\n        /* \"#utility.yul\":1433:1438   */\n      0x00\n        /* \"#utility.yul\":1471:1477   */\n      dup2\n        /* \"#utility.yul\":1458:1478   */\n      calldataload\n        /* \"#utility.yul\":1449:1478   */\n      swap1\n      pop\n        /* \"#utility.yul\":1487:1520   */\n      tag_211\n        /* \"#utility.yul\":1514:1519   */\n      dup2\n        /* \"#utility.yul\":1487:1520   */\n      tag_141\n      jump\t// in\n    tag_211:\n        /* \"#utility.yul\":1387:1526   */\n      swap3\n      swap2\n      pop\n      pop\n      jump\t// out\n        /* \"#utility.yul\":1532:1861   */\n    tag_21:\n        /* \"#utility.yul\":1591:1597   */\n      0x00\n        /* \"#utility.yul\":1640:1642   */\n      0x20\n        /* \"#utility.yul\":1628:1637   */\n      dup3\n        /* \"#utility.yul\":1619:1626   */\n      dup5\n        /* \"#utility.yul\":1615:1638   */\n      sub\n        /* \"#utility.yul\":1611:1643   */\n      slt\n        /* \"#utility.yul\":1608:1727   */\n      iszero\n      tag_213\n      jumpi\n        /* \"#utility.yul\":1646:1725   */\n      tag_214\n      tag_134\n      jump\t// in\n    tag_214:\n        /* \"#utility.yul\":1608:1727   */\n    tag_213:\n        /* \"#utility.yul\":1766:1767   */\n      0x00\n        /* \"#utility.yul\":1791:1844   */\n      tag_215\n        /* \"#utility.yul\":1836:1843   */\n      dup5\n        /* \"#utility.yul\":1827:1833   */\n      dup3\n        /* \"#utility.yul\":1816:1825   */\n      dup6\n        /* \"#utility.yul\":1812:1834   */\n      add\n        /* \"#utility.yul\":1791:1844   */\n      tag_142\n      jump\t// in\n    tag_215:\n        /* \"#utility.yul\":1781:1844   */\n      swap2\n      pop\n        /* \"#utility.yul\":1737:1854   */\n      pop\n        /* \"#utility.yul\":1532:1861   */\n      swap3\n      swap2\n      pop\n      pop\n      jump\t// out\n        /* \"#utility.yul\":1867:1957   */\n    tag_143:\n        /* \"#utility.yul\":1901:1908   */\n      0x00\n        /* \"#utility.yul\":1944:1949   */\n      dup2\n        /* \"#utility.yul\":1937:1950   */\n      iszero\n        /* \"#utility.yul\":1930:1951   */\n      iszero\n        /* \"#utility.yul\":1919:1951   */\n      swap1\n      pop\n        /* \"#utility.yul\":1867:1957   */\n      swap2\n      swap1\n      pop\n      jump\t// out\n        /* \"#utility.yul\":1963:2072   */\n    tag_144:\n        /* \"#utility.yul\":2044:2065   */\n      tag_218\n        /* \"#utility.yul\":2059:2064   */\n      dup2\n        /* \"#utility.yul\":2044:2065   */\n      tag_143\n      jump\t// in\n    tag_218:\n        /* \"#utility.yul\":2039:2042   */\n      dup3\n        /* \"#utility.yul\":2032:2066   */\n      mstore\n        /* \"#utility.yul\":1963:2072   */\n      pop\n      pop\n      jump\t// out\n        /* \"#utility.yul\":2078:2288   */\n    tag_24:\n        /* \"#utility.yul\":2165:2169   */\n      0x00\n        /* \"#utility.yul\":2203:2205   */\n      0x20\n        /* \"#utility.yul\":2192:2201   */\n      dup3\n        /* \"#utility.yul\":2188:2206   */\n      add\n        /* \"#utility.yul\":2180:2206   */\n      swap1\n      pop\n        /* \"#utility.yul\":2216:2281   */\n      tag_220\n        /* \"#utility.yul\":2278:2279   */\n      0x00\n        /* \"#utility.yul\":2267:2276   */\n      dup4\n        /* \"#utility.yul\":2263:2280   */\n      add\n        /* \"#utility.yul\":2254:2260   */\n      dup5\n        /* \"#utility.yul\":2216:2281   */\n      tag_144\n      jump\t// in\n    tag_220:\n        /* \"#utility.yul\":2078:2288   */\n      swap3\n      swap2\n      pop\n      pop\n      jump\t// out\n        /* \"#utility.yul\":2294:2411   */\n    tag_145:\n        /* \"#utility.yul\":2403:2404   */\n      0x00\n        /* \"#utility.yul\":2400:2401   */\n      0x00\n        /* \"#utility.yul\":2393:2405   */\n      revert\n        /* \"#utility.yul\":2417:2534   */\n    tag_146:\n        /* \"#utility.yul\":2526:2527   */\n      0x00\n        /* \"#utility.yul\":2523:2524   */\n      0x00\n        /* \"#utility.yul\":2516:2528   */\n      revert\n        /* \"#utility.yul\":2540:2642   */\n    tag_147:\n        /* \"#utility.yul\":2581:2587   */\n      0x00\n        /* \"#utility.yul\":2632:2634   */\n      0x1f\n        /* \"#utility.yul\":2628:2635   */\n      not\n        /* \"#utility.yul\":2623:2625   */\n      0x1f\n        /* \"#utility.yul\":2616:2621   */\n      dup4\n        /* \"#utility.yul\":2612:2626   */\n      add\n        /* \"#utility.yul\":2608:2636   */\n      and\n        /* \"#utility.yul\":2598:2636   */\n      swap1\n      pop\n        /* \"#utility.yul\":2540:2642   */\n      swap2\n      swap1\n      pop\n      jump\t// out\n        /* \"#utility.yul\":2648:2828   */\n    tag_148:\n        /* \"#utility.yul\":2696:2773   */\n      0x4e487b7100000000000000000000000000000000000000000000000000000000\n        /* \"#utility.yul\":2693:2694   */\n      0x00\n        /* \"#utility.yul\":2686:2774   */\n      mstore\n        /* \"#utility.yul\":2793:2797   */\n      0x41\n        /* \"#utility.yul\":2790:2791   */\n      0x04\n        /* \"#utility.yul\":2783:2798   */\n      mstore\n        /* \"#utility.yul\":2817:2821   */\n      0x24\n        /* \"#utility.yul\":2814:2815   */\n      0x00\n        /* \"#utility.yul\":2807:2822   */\n      revert\n        /* \"#utility.yul\":2834:3115   */\n    tag_149:\n        /* \"#utility.yul\":2917:2944   */\n      tag_226\n        /* \"#utility.yul\":2939:2943   */\n      dup3\n        /* \"#utility.yul\":2917:2944   */\n      tag_147\n      jump\t// in\n    tag_226:\n        /* \"#utility.yul\":2909:2915   */\n      dup2\n        /* \"#utility.yul\":2905:2945   */\n      add\n        /* \"#utility.yul\":3047:3053   */\n      dup2\n        /* \"#utility.yul\":3035:3045   */\n      dup2\n        /* \"#utility.yul\":3032:3054   */\n      lt\n        /* \"#utility.yul\":3011:3029   */\n      0xffffffffffffffff\n        /* \"#utility.yul\":2999:3009   */\n      dup3\n        /* \"#utility.yul\":2996:3030   */\n      gt\n        /* \"#utility.yul\":2993:3055   */\n      or\n        /* \"#utility.yul\":2990:3078   */\n      iszero\n      tag_227\n      jumpi\n        /* \"#utility.yul\":3058:3076   */\n      tag_228\n      tag_148\n      jump\t// in\n    tag_228:\n        /* \"#utility.yul\":2990:3078   */\n    tag_227:\n        /* \"#utility.yul\":3098:3108   */\n      dup1\n        /* \"#utility.yul\":3094:3096   */\n      0x40\n        /* \"#utility.yul\":3087:3109   */\n      mstore\n        /* \"#utility.yul\":2877:3115   */\n      pop\n        /* \"#utility.yul\":2834:3115   */\n      pop\n      pop\n      jump\t// out\n        /* \"#utility.yul\":3121:3250   */\n    tag_150:\n        /* \"#utility.yul\":3155:3161   */\n      0x00\n        /* \"#utility.yul\":3182:3202   */\n      tag_230\n      tag_133\n      jump\t// in\n    tag_230:\n        /* \"#utility.yul\":3172:3202   */\n      swap1\n      pop\n        /* \"#utility.yul\":3211:3244   */\n      tag_231\n        /* \"#utility.yul\":3239:3243   */\n      dup3\n        /* \"#utility.yul\":3231:3237   */\n      dup3\n        /* \"#utility.yul\":3211:3244   */\n      tag_149\n      jump\t// in\n    tag_231:\n        /* \"#utility.yul\":3121:3250   */\n      swap2\n      swap1\n      pop\n      jump\t// out\n        /* \"#utility.yul\":3256:3564   */\n    tag_151:\n        /* \"#utility.yul\":3318:3322   */\n      0x00\n        /* \"#utility.yul\":3408:3426   */\n      0xffffffffffffffff\n        /* \"#utility.yul\":3400:3406   */\n      dup3\n        /* \"#utility.yul\":3397:3427   */\n      gt\n        /* \"#utility.yul\":3394:3450   */\n      iszero\n      tag_233\n      jumpi\n        /* \"#utility.yul\":3430:3448   */\n      tag_234\n      tag_148\n      jump\t// in\n    tag_234:\n        /* \"#utility.yul\":3394:3450   */\n    tag_233:\n        /* \"#utility.yul\":3468:3497   */\n      tag_235\n        /* \"#utility.yul\":3490:3496   */\n      dup3\n        /* \"#utility.yul\":3468:3497   */\n      tag_147\n      jump\t// in\n    tag_235:\n        /* \"#utility.yul\":3460:3497   */\n      swap1\n      pop\n        /* \"#utility.yul\":3552:3556   */\n      0x20\n        /* \"#utility.yul\":3546:3550   */\n      dup2\n        /* \"#utility.yul\":3542:3557   */\n      add\n        /* \"#utility.yul\":3534:3557   */\n      swap1\n      pop\n        /* \"#utility.yul\":3256:3564   */\n      swap2\n      swap1\n      pop\n      jump\t// out\n        /* \"#utility.yul\":3570:3718   */\n    tag_152:\n        /* \"#utility.yul\":3668:3674   */\n      dup3\n        /* \"#utility.yul\":3663:3666   */\n      dup2\n        /* \"#utility.yul\":3658:3661   */\n      dup4\n        /* \"#utility.yul\":3645:3675   */\n      calldatacopy\n        /* \"#utility.yul\":3709:3710   */\n      0x00\n        /* \"#utility.yul\":3700:3706   */\n      dup4\n        /* \"#utility.yul\":3695:3698   */\n      dup4\n        /* \"#utility.yul\":3691:3707   */\n      add\n        /* \"#utility.yul\":3684:3711   */\n      mstore\n        /* \"#utility.yul\":3570:3718   */\n      pop\n      pop\n      pop\n      jump\t// out\n        /* \"#utility.yul\":3724:4149   */\n    tag_153:\n        /* \"#utility.yul\":3802:3807   */\n      0x00\n        /* \"#utility.yul\":3827:3893   */\n      tag_238\n        /* \"#utility.yul\":3843:3892   */\n      tag_239\n        /* \"#utility.yul\":3885:3891   */\n      dup5\n        /* \"#utility.yul\":3843:3892   */\n      tag_151\n      jump\t// in\n    tag_239:\n        /* \"#utility.yul\":3827:3893   */\n      tag_150\n      jump\t// in\n    tag_238:\n        /* \"#utility.yul\":3818:3893   */\n      swap1\n      pop\n        /* \"#utility.yul\":3916:3922   */\n      dup3\n        /* \"#utility.yul\":3909:3914   */\n      dup2\n        /* \"#utility.yul\":3902:3923   */\n      mstore\n        /* \"#utility.yul\":3954:3958   */\n      0x20\n        /* \"#utility.yul\":3947:3952   */\n      dup2\n        /* \"#utility.yul\":3943:3959   */\n      add\n        /* \"#utility.yul\":3992:3995   */\n      dup5\n        /* \"#utility.yul\":3983:3989   */\n      dup5\n        /* \"#utility.yul\":3978:3981   */\n      dup5\n        /* \"#utility.yul\":3974:3990   */\n      add\n        /* \"#utility.yul\":3971:3996   */\n      gt\n        /* \"#utility.yul\":3968:4080   */\n      iszero\n      tag_240\n      jumpi\n        /* \"#utility.yul\":3999:4078   */\n      tag_241\n      tag_146\n      jump\t// in\n    tag_241:\n        /* \"#utility.yul\":3968:4080   */\n    tag_240:\n        /* \"#utility.yul\":4089:4143   */\n      tag_242\n        /* \"#utility.yul\":4136:4142   */\n      dup5\n        /* \"#utility.yul\":4131:4134   */\n      dup3\n        /* \"#utility.yul\":4126:4129   */\n      dup6\n        /* \"#utility.yul\":4089:4143   */\n      tag_152\n      jump\t// in\n    tag_242:\n        /* \"#utility.yul\":3808:4149   */\n      pop\n        /* \"#utility.yul\":3724:4149   */\n      swap4\n      swap3\n      pop\n      pop\n      pop\n      jump\t// out\n        /* \"#utility.yul\":4169:4509   */\n    tag_154:\n        /* \"#utility.yul\":4225:4230   */\n      0x00\n        /* \"#utility.yul\":4274:4277   */\n      dup3\n        /* \"#utility.yul\":4267:4271   */\n      0x1f\n        /* \"#utility.yul\":4259:4265   */\n      dup4\n        /* \"#utility.yul\":4255:4272   */\n      add\n        /* \"#utility.yul\":4251:4278   */\n      slt\n        /* \"#utility.yul\":4241:4363   */\n      tag_244\n      jumpi\n        /* \"#utility.yul\":4282:4361   */\n      tag_245\n      tag_145\n      jump\t// in\n    tag_245:\n        /* \"#utility.yul\":4241:4363   */\n    tag_244:\n        /* \"#utility.yul\":4399:4405   */\n      dup2\n        /* \"#utility.yul\":4386:4406   */\n      calldataload\n        /* \"#utility.yul\":4424:4503   */\n      tag_246\n        /* \"#utility.yul\":4499:4502   */\n      dup5\n        /* \"#utility.yul\":4491:4497   */\n      dup3\n        /* \"#utility.yul\":4484:4488   */\n      0x20\n        /* \"#utility.yul\":4476:4482   */\n      dup7\n        /* \"#utility.yul\":4472:4489   */\n      add\n        /* \"#utility.yul\":4424:4503   */\n      tag_153\n      jump\t// in\n    tag_246:\n        /* \"#utility.yul\":4415:4503   */\n      swap2\n      pop\n        /* \"#utility.yul\":4231:4509   */\n      pop\n        /* \"#utility.yul\":4169:4509   */\n      swap3\n      swap2\n      pop\n      pop\n      jump\t// out\n        /* \"#utility.yul\":4515:5349   */\n    tag_27:\n        /* \"#utility.yul\":4603:4609   */\n      0x00\n        /* \"#utility.yul\":4611:4617   */\n      0x00\n        /* \"#utility.yul\":4660:4662   */\n      0x40\n        /* \"#utility.yul\":4648:4657   */\n      dup4\n        /* \"#utility.yul\":4639:4646   */\n      dup6\n        /* \"#utility.yul\":4635:4658   */\n      sub\n        /* \"#utility.yul\":4631:4663   */\n      slt\n        /* \"#utility.yul\":4628:4747   */\n      iszero\n      tag_248\n      jumpi\n        /* \"#utility.yul\":4666:4745   */\n      tag_249\n      tag_134\n      jump\t// in\n    tag_249:\n        /* \"#utility.yul\":4628:4747   */\n    tag_248:\n        /* \"#utility.yul\":4814:4815   */\n      0x00\n        /* \"#utility.yul\":4803:4812   */\n      dup4\n        /* \"#utility.yul\":4799:4816   */\n      add\n        /* \"#utility.yul\":4786:4817   */\n      calldataload\n        /* \"#utility.yul\":4844:4862   */\n      0xffffffffffffffff\n        /* \"#utility.yul\":4836:4842   */\n      dup2\n        /* \"#utility.yul\":4833:4863   */\n      gt\n        /* \"#utility.yul\":4830:4947   */\n      iszero\n      tag_250\n      jumpi\n        /* \"#utility.yul\":4866:4945   */\n      tag_251\n      tag_135\n      jump\t// in\n    tag_251:\n        /* \"#utility.yul\":4830:4947   */\n    tag_250:\n        /* \"#utility.yul\":4971:5034   */\n      tag_252\n        /* \"#utility.yul\":5026:5033   */\n      dup6\n        /* \"#utility.yul\":5017:5023   */\n      dup3\n        /* \"#utility.yul\":5006:5015   */\n      dup7\n        /* \"#utility.yul\":5002:5024   */\n      add\n        /* \"#utility.yul\":4971:5034   */\n      tag_154\n      jump\t// in\n    tag_252:\n        /* \"#utility.yul\":4961:5034   */\n      swap3\n      pop\n        /* \"#utility.yul\":4757:5044   */\n      pop\n        /* \"#utility.yul\":5111:5113   */\n      0x20\n        /* \"#utility.yul\":5100:5109   */\n      dup4\n        /* \"#utility.yul\":5096:5114   */\n      add\n        /* \"#utility.yul\":5083:5115   */\n      calldataload\n        /* \"#utility.yul\":5142:5160   */\n      0xffffffffffffffff\n        /* \"#utility.yul\":5134:5140   */\n      dup2\n        /* \"#utility.yul\":5131:5161   */\n      gt\n        /* \"#utility.yul\":5128:5245   */\n      iszero\n      tag_253\n      jumpi\n        /* \"#utility.yul\":5164:5243   */\n      tag_254\n      tag_135\n      jump\t// in\n    tag_254:\n        /* \"#utility.yul\":5128:5245   */\n    tag_253:\n        /* \"#utility.yul\":5269:5332   */\n      tag_255\n        /* \"#utility.yul\":5324:5331   */\n      dup6\n        /* \"#utility.yul\":5315:5321   */\n      dup3\n        /* \"#utility.yul\":5304:5313   */\n      dup7\n        /* \"#utility.yul\":5300:5322   */\n      add\n        /* \"#utility.yul\":5269:5332   */\n      tag_154\n      jump\t// in\n    tag_255:\n        /* \"#utility.yul\":5259:5332   */\n      swap2\n      pop\n        /* \"#utility.yul\":5054:5342   */\n      pop\n        /* \"#utility.yul\":4515:5349   */\n      swap3\n      pop\n      swap3\n      swap1\n      pop\n      jump\t// out\n        /* \"#utility.yul\":5355:5454   */\n    tag_155:\n        /* \"#utility.yul\":5407:5413   */\n      0x00\n        /* \"#utility.yul\":5441:5446   */\n      dup2\n        /* \"#utility.yul\":5435:5447   */\n      mload\n        /* \"#utility.yul\":5425:5447   */\n      swap1\n      pop\n        /* \"#utility.yul\":5355:5454   */\n      swap2\n      swap1\n      pop\n      jump\t// out\n        /* \"#utility.yul\":5460:5629   */\n    tag_156:\n        /* \"#utility.yul\":5544:5555   */\n      0x00\n        /* \"#utility.yul\":5578:5584   */\n      dup3\n        /* \"#utility.yul\":5573:5576   */\n      dup3\n        /* \"#utility.yul\":5566:5585   */\n      mstore\n        /* \"#utility.yul\":5618:5622   */\n      0x20\n        /* \"#utility.yul\":5613:5616   */\n      dup3\n        /* \"#utility.yul\":5609:5623   */\n      add\n        /* \"#utility.yul\":5594:5623   */\n      swap1\n      pop\n        /* \"#utility.yul\":5460:5629   */\n      swap3\n      swap2\n      pop\n      pop\n      jump\t// out\n        /* \"#utility.yul\":5635:5774   */\n    tag_157:\n        /* \"#utility.yul\":5724:5730   */\n      dup3\n        /* \"#utility.yul\":5719:5722   */\n      dup2\n        /* \"#utility.yul\":5714:5717   */\n      dup4\n        /* \"#utility.yul\":5708:5731   */\n      mcopy\n        /* \"#utility.yul\":5765:5766   */\n      0x00\n        /* \"#utility.yul\":5756:5762   */\n      dup4\n        /* \"#utility.yul\":5751:5754   */\n      dup4\n        /* \"#utility.yul\":5747:5763   */\n      add\n        /* \"#utility.yul\":5740:5767   */\n      mstore\n        /* \"#utility.yul\":5635:5774   */\n      pop\n      pop\n      pop\n      jump\t// out\n        /* \"#utility.yul\":5780:6157   */\n    tag_158:\n        /* \"#utility.yul\":5868:5871   */\n      0x00\n        /* \"#utility.yul\":5896:5935   */\n      tag_260\n        /* \"#utility.yul\":5929:5934   */\n      dup3\n        /* \"#utility.yul\":5896:5935   */\n      tag_155\n      jump\t// in\n    tag_260:\n        /* \"#utility.yul\":5951:6022   */\n      tag_261\n        /* \"#utility.yul\":6015:6021   */\n      dup2\n        /* \"#utility.yul\":6010:6013   */\n      dup6\n        /* \"#utility.yul\":5951:6022   */\n      tag_156\n      jump\t// in\n    tag_261:\n        /* \"#utility.yul\":5944:6022   */\n      swap4\n      pop\n        /* \"#utility.yul\":6031:6096   */\n      tag_262\n        /* \"#utility.yul\":6089:6095   */\n      dup2\n        /* \"#utility.yul\":6084:6087   */\n      dup6\n        /* \"#utility.yul\":6077:6081   */\n      0x20\n        /* \"#utility.yul\":6070:6075   */\n      dup7\n        /* \"#utility.yul\":6066:6082   */\n      add\n        /* \"#utility.yul\":6031:6096   */\n      tag_157\n      jump\t// in\n    tag_262:\n        /* \"#utility.yul\":6121:6150   */\n      tag_263\n        /* \"#utility.yul\":6143:6149   */\n      dup2\n        /* \"#utility.yul\":6121:6150   */\n      tag_147\n      jump\t// in\n    tag_263:\n        /* \"#utility.yul\":6116:6119   */\n      dup5\n        /* \"#utility.yul\":6112:6151   */\n      add\n        /* \"#utility.yul\":6105:6151   */\n      swap2\n      pop\n        /* \"#utility.yul\":5872:6157   */\n      pop\n        /* \"#utility.yul\":5780:6157   */\n      swap3\n      swap2\n      pop\n      pop\n      jump\t// out\n        /* \"#utility.yul\":6163:6281   */\n    tag_159:\n        /* \"#utility.yul\":6250:6274   */\n      tag_265\n        /* \"#utility.yul\":6268:6273   */\n      dup2\n        /* \"#utility.yul\":6250:6274   */\n      tag_136\n      jump\t// in\n    tag_265:\n        /* \"#utility.yul\":6245:6248   */\n      dup3\n        /* \"#utility.yul\":6238:6275   */\n      mstore\n        /* \"#utility.yul\":6163:6281   */\n      pop\n      pop\n      jump\t// out\n        /* \"#utility.yul\":6287:6911   */\n    tag_33:\n        /* \"#utility.yul\":6476:6480   */\n      0x00\n        /* \"#utility.yul\":6514:6516   */\n      0x60\n        /* \"#utility.yul\":6503:6512   */\n      dup3\n        /* \"#utility.yul\":6499:6517   */\n      add\n        /* \"#utility.yul\":6491:6517   */\n      swap1\n      pop\n        /* \"#utility.yul\":6563:6572   */\n      dup2\n        /* \"#utility.yul\":6557:6561   */\n      dup2\n        /* \"#utility.yul\":6553:6573   */\n      sub\n        /* \"#utility.yul\":6549:6550   */\n      0x00\n        /* \"#utility.yul\":6538:6547   */\n      dup4\n        /* \"#utility.yul\":6534:6551   */\n      add\n        /* \"#utility.yul\":6527:6574   */\n      mstore\n        /* \"#utility.yul\":6591:6669   */\n      tag_267\n        /* \"#utility.yul\":6664:6668   */\n      dup2\n        /* \"#utility.yul\":6655:6661   */\n      dup7\n        /* \"#utility.yul\":6591:6669   */\n      tag_158\n      jump\t// in\n    tag_267:\n        /* \"#utility.yul\":6583:6669   */\n      swap1\n      pop\n        /* \"#utility.yul\":6716:6725   */\n      dup2\n        /* \"#utility.yul\":6710:6714   */\n      dup2\n        /* \"#utility.yul\":6706:6726   */\n      sub\n        /* \"#utility.yul\":6701:6703   */\n      0x20\n        /* \"#utility.yul\":6690:6699   */\n      dup4\n        /* \"#utility.yul\":6686:6704   */\n      add\n        /* \"#utility.yul\":6679:6727   */\n      mstore\n        /* \"#utility.yul\":6744:6822   */\n      tag_268\n        /* \"#utility.yul\":6817:6821   */\n      dup2\n        /* \"#utility.yul\":6808:6814   */\n      dup6\n        /* \"#utility.yul\":6744:6822   */\n      tag_158\n      jump\t// in\n    tag_268:\n        /* \"#utility.yul\":6736:6822   */\n      swap1\n      pop\n        /* \"#utility.yul\":6832:6904   */\n      tag_269\n        /* \"#utility.yul\":6900:6902   */\n      0x40\n        /* \"#utility.yul\":6889:6898   */\n      dup4\n        /* \"#utility.yul\":6885:6903   */\n      add\n        /* \"#utility.yul\":6876:6882   */\n      dup5\n        /* \"#utility.yul\":6832:6904   */\n      tag_159\n      jump\t// in\n    tag_269:\n        /* \"#utility.yul\":6287:6911   */\n      swap5\n      swap4\n      pop\n      pop\n      pop\n      pop\n      jump\t// out\n        /* \"#utility.yul\":6917:7139   */\n    tag_44:\n        /* \"#utility.yul\":7010:7014   */\n      0x00\n        /* \"#utility.yul\":7048:7050   */\n      0x20\n        /* \"#utility.yul\":7037:7046   */\n      dup3\n        /* \"#utility.yul\":7033:7051   */\n      add\n        /* \"#utility.yul\":7025:7051   */\n      swap1\n      pop\n        /* \"#utility.yul\":7061:7132   */\n      tag_271\n        /* \"#utility.yul\":7129:7130   */\n      0x00\n        /* \"#utility.yul\":7118:7127   */\n      dup4\n        /* \"#utility.yul\":7114:7131   */\n      add\n        /* \"#utility.yul\":7105:7111   */\n      dup5\n        /* \"#utility.yul\":7061:7132   */\n      tag_159\n      jump\t// in\n    tag_271:\n        /* \"#utility.yul\":6917:7139   */\n      swap3\n      swap2\n      pop\n      pop\n      jump\t// out\n        /* \"#utility.yul\":7145:7263   */\n    tag_160:\n        /* \"#utility.yul\":7232:7256   */\n      tag_273\n        /* \"#utility.yul\":7250:7255   */\n      dup2\n        /* \"#utility.yul\":7232:7256   */\n      tag_140\n      jump\t// in\n    tag_273:\n        /* \"#utility.yul\":7227:7230   */\n      dup3\n        /* \"#utility.yul\":7220:7257   */\n      mstore\n        /* \"#utility.yul\":7145:7263   */\n      pop\n      pop\n      jump\t// out\n        /* \"#utility.yul\":7269:7491   */\n    tag_58:\n        /* \"#utility.yul\":7362:7366   */\n      0x00\n        /* \"#utility.yul\":7400:7402   */\n      0x20\n        /* \"#utility.yul\":7389:7398   */\n      dup3\n        /* \"#utility.yul\":7385:7403   */\n      add\n        /* \"#utility.yul\":7377:7403   */\n      swap1\n      pop\n        /* \"#utility.yul\":7413:7484   */\n      tag_275\n        /* \"#utility.yul\":7481:7482   */\n      0x00\n        /* \"#utility.yul\":7470:7479   */\n      dup4\n        /* \"#utility.yul\":7466:7483   */\n      add\n        /* \"#utility.yul\":7457:7463   */\n      dup5\n        /* \"#utility.yul\":7413:7484   */\n      tag_160\n      jump\t// in\n    tag_275:\n        /* \"#utility.yul\":7269:7491   */\n      swap3\n      swap2\n      pop\n      pop\n      jump\t// out\n        /* \"#utility.yul\":7497:7723   */\n    tag_161:\n        /* \"#utility.yul\":7637:7671   */\n      0x566f74696e672062656c756d2064696d756c6169206174617520737564616820\n        /* \"#utility.yul\":7633:7634   */\n      0x00\n        /* \"#utility.yul\":7625:7631   */\n      dup3\n        /* \"#utility.yul\":7621:7635   */\n      add\n        /* \"#utility.yul\":7614:7672   */\n      mstore\n        /* \"#utility.yul\":7706:7715   */\n      0x73656c6573616900000000000000000000000000000000000000000000000000\n        /* \"#utility.yul\":7701:7703   */\n      0x20\n        /* \"#utility.yul\":7693:7699   */\n      dup3\n        /* \"#utility.yul\":7689:7704   */\n      add\n        /* \"#utility.yul\":7682:7716   */\n      mstore\n        /* \"#utility.yul\":7497:7723   */\n      pop\n      jump\t// out\n        /* \"#utility.yul\":7729:8095   */\n    tag_162:\n        /* \"#utility.yul\":7871:7874   */\n      0x00\n        /* \"#utility.yul\":7892:7959   */\n      tag_278\n        /* \"#utility.yul\":7956:7958   */\n      0x27\n        /* \"#utility.yul\":7951:7954   */\n      dup4\n        /* \"#utility.yul\":7892:7959   */\n      tag_156\n      jump\t// in\n    tag_278:\n        /* \"#utility.yul\":7885:7959   */\n      swap2\n      pop\n        /* \"#utility.yul\":7968:8061   */\n      tag_279\n        /* \"#utility.yul\":8057:8060   */\n      dup3\n        /* \"#utility.yul\":7968:8061   */\n      tag_161\n      jump\t// in\n    tag_279:\n        /* \"#utility.yul\":8086:8088   */\n      0x40\n        /* \"#utility.yul\":8081:8084   */\n      dup3\n        /* \"#utility.yul\":8077:8089   */\n      add\n        /* \"#utility.yul\":8070:8089   */\n      swap1\n      pop\n        /* \"#utility.yul\":7729:8095   */\n      swap2\n      swap1\n      pop\n      jump\t// out\n        /* \"#utility.yul\":8101:8520   */\n    tag_63:\n        /* \"#utility.yul\":8267:8271   */\n      0x00\n        /* \"#utility.yul\":8305:8307   */\n      0x20\n        /* \"#utility.yul\":8294:8303   */\n      dup3\n        /* \"#utility.yul\":8290:8308   */\n      add\n        /* \"#utility.yul\":8282:8308   */\n      swap1\n      pop\n        /* \"#utility.yul\":8354:8363   */\n      dup2\n        /* \"#utility.yul\":8348:8352   */\n      dup2\n        /* \"#utility.yul\":8344:8364   */\n      sub\n        /* \"#utility.yul\":8340:8341   */\n      0x00\n        /* \"#utility.yul\":8329:8338   */\n      dup4\n        /* \"#utility.yul\":8325:8342   */\n      add\n        /* \"#utility.yul\":8318:8365   */\n      mstore\n        /* \"#utility.yul\":8382:8513   */\n      tag_281\n        /* \"#utility.yul\":8508:8512   */\n      dup2\n        /* \"#utility.yul\":8382:8513   */\n      tag_162\n      jump\t// in\n    tag_281:\n        /* \"#utility.yul\":8374:8513   */\n      swap1\n      pop\n        /* \"#utility.yul\":8101:8520   */\n      swap2\n      swap1\n      pop\n      jump\t// out\n        /* \"#utility.yul\":8526:8701   */\n    tag_163:\n        /* \"#utility.yul\":8666:8693   */\n      0x4d6173756b6b616e2049642064656e67616e2062656e61722100000000000000\n        /* \"#utility.yul\":8662:8663   */\n      0x00\n        /* \"#utility.yul\":8654:8660   */\n      dup3\n        /* \"#utility.yul\":8650:8664   */\n      add\n        /* \"#utility.yul\":8643:8694   */\n      mstore\n        /* \"#utility.yul\":8526:8701   */\n      pop\n      jump\t// out\n        /* \"#utility.yul\":8707:9073   */\n    tag_164:\n        /* \"#utility.yul\":8849:8852   */\n      0x00\n        /* \"#utility.yul\":8870:8937   */\n      tag_284\n        /* \"#utility.yul\":8934:8936   */\n      0x19\n        /* \"#utility.yul\":8929:8932   */\n      dup4\n        /* \"#utility.yul\":8870:8937   */\n      tag_156\n      jump\t// in\n    tag_284:\n        /* \"#utility.yul\":8863:8937   */\n      swap2\n      pop\n        /* \"#utility.yul\":8946:9039   */\n      tag_285\n        /* \"#utility.yul\":9035:9038   */\n      dup3\n        /* \"#utility.yul\":8946:9039   */\n      tag_163\n      jump\t// in\n    tag_285:\n        /* \"#utility.yul\":9064:9066   */\n      0x20\n        /* \"#utility.yul\":9059:9062   */\n      dup3\n        /* \"#utility.yul\":9055:9067   */\n      add\n        /* \"#utility.yul\":9048:9067   */\n      swap1\n      pop\n        /* \"#utility.yul\":8707:9073   */\n      swap2\n      swap1\n      pop\n      jump\t// out\n        /* \"#utility.yul\":9079:9498   */\n    tag_67:\n        /* \"#utility.yul\":9245:9249   */\n      0x00\n        /* \"#utility.yul\":9283:9285   */\n      0x20\n        /* \"#utility.yul\":9272:9281   */\n      dup3\n        /* \"#utility.yul\":9268:9286   */\n      add\n        /* \"#utility.yul\":9260:9286   */\n      swap1\n      pop\n        /* \"#utility.yul\":9332:9341   */\n      dup2\n        /* \"#utility.yul\":9326:9330   */\n      dup2\n        /* \"#utility.yul\":9322:9342   */\n      sub\n        /* \"#utility.yul\":9318:9319   */\n      0x00\n        /* \"#utility.yul\":9307:9316   */\n      dup4\n        /* \"#utility.yul\":9303:9320   */\n      add\n        /* \"#utility.yul\":9296:9343   */\n      mstore\n        /* \"#utility.yul\":9360:9491   */\n      tag_287\n        /* \"#utility.yul\":9486:9490   */\n      dup2\n        /* \"#utility.yul\":9360:9491   */\n      tag_164\n      jump\t// in\n    tag_287:\n        /* \"#utility.yul\":9352:9491   */\n      swap1\n      pop\n        /* \"#utility.yul\":9079:9498   */\n      swap2\n      swap1\n      pop\n      jump\t// out\n        /* \"#utility.yul\":9504:9673   */\n    tag_165:\n        /* \"#utility.yul\":9644:9665   */\n      0x4b616d75207375646168206d656d696c69682100000000000000000000000000\n        /* \"#utility.yul\":9640:9641   */\n      0x00\n        /* \"#utility.yul\":9632:9638   */\n      dup3\n        /* \"#utility.yul\":9628:9642   */\n      add\n        /* \"#utility.yul\":9621:9666   */\n      mstore\n        /* \"#utility.yul\":9504:9673   */\n      pop\n      jump\t// out\n        /* \"#utility.yul\":9679:10045   */\n    tag_166:\n        /* \"#utility.yul\":9821:9824   */\n      0x00\n        /* \"#utility.yul\":9842:9909   */\n      tag_290\n        /* \"#utility.yul\":9906:9908   */\n      0x13\n        /* \"#utility.yul\":9901:9904   */\n      dup4\n        /* \"#utility.yul\":9842:9909   */\n      tag_156\n      jump\t// in\n    tag_290:\n        /* \"#utility.yul\":9835:9909   */\n      swap2\n      pop\n        /* \"#utility.yul\":9918:10011   */\n      tag_291\n        /* \"#utility.yul\":10007:10010   */\n      dup3\n        /* \"#utility.yul\":9918:10011   */\n      tag_165\n      jump\t// in\n    tag_291:\n        /* \"#utility.yul\":10036:10038   */\n      0x20\n        /* \"#utility.yul\":10031:10034   */\n      dup3\n        /* \"#utility.yul\":10027:10039   */\n      add\n        /* \"#utility.yul\":10020:10039   */\n      swap1\n      pop\n        /* \"#utility.yul\":9679:10045   */\n      swap2\n      swap1\n      pop\n      jump\t// out\n        /* \"#utility.yul\":10051:10470   */\n    tag_70:\n        /* \"#utility.yul\":10217:10221   */\n      0x00\n        /* \"#utility.yul\":10255:10257   */\n      0x20\n        /* \"#utility.yul\":10244:10253   */\n      dup3\n        /* \"#utility.yul\":10240:10258   */\n      add\n        /* \"#utility.yul\":10232:10258   */\n      swap1\n      pop\n        /* \"#utility.yul\":10304:10313   */\n      dup2\n        /* \"#utility.yul\":10298:10302   */\n      dup2\n        /* \"#utility.yul\":10294:10314   */\n      sub\n        /* \"#utility.yul\":10290:10291   */\n      0x00\n        /* \"#utility.yul\":10279:10288   */\n      dup4\n        /* \"#utility.yul\":10275:10292   */\n      add\n        /* \"#utility.yul\":10268:10315   */\n      mstore\n        /* \"#utility.yul\":10332:10463   */\n      tag_293\n        /* \"#utility.yul\":10458:10462   */\n      dup2\n        /* \"#utility.yul\":10332:10463   */\n      tag_166\n      jump\t// in\n    tag_293:\n        /* \"#utility.yul\":10324:10463   */\n      swap1\n      pop\n        /* \"#utility.yul\":10051:10470   */\n      swap2\n      swap1\n      pop\n      jump\t// out\n        /* \"#utility.yul\":10476:10701   */\n    tag_167:\n        /* \"#utility.yul\":10616:10650   */\n      0x4b616d752062756b616e2070656d696c69682079616e67207465727665726966\n        /* \"#utility.yul\":10612:10613   */\n      0x00\n        /* \"#utility.yul\":10604:10610   */\n      dup3\n        /* \"#utility.yul\":10600:10614   */\n      add\n        /* \"#utility.yul\":10593:10651   */\n      mstore\n        /* \"#utility.yul\":10685:10693   */\n      0x696b617369210000000000000000000000000000000000000000000000000000\n        /* \"#utility.yul\":10680:10682   */\n      0x20\n        /* \"#utility.yul\":10672:10678   */\n      dup3\n        /* \"#utility.yul\":10668:10683   */\n      add\n        /* \"#utility.yul\":10661:10694   */\n      mstore\n        /* \"#utility.yul\":10476:10701   */\n      pop\n      jump\t// out\n        /* \"#utility.yul\":10707:11073   */\n    tag_168:\n        /* \"#utility.yul\":10849:10852   */\n      0x00\n        /* \"#utility.yul\":10870:10937   */\n      tag_296\n        /* \"#utility.yul\":10934:10936   */\n      0x26\n        /* \"#utility.yul\":10929:10932   */\n      dup4\n        /* \"#utility.yul\":10870:10937   */\n      tag_156\n      jump\t// in\n    tag_296:\n        /* \"#utility.yul\":10863:10937   */\n      swap2\n      pop\n        /* \"#utility.yul\":10946:11039   */\n      tag_297\n        /* \"#utility.yul\":11035:11038   */\n      dup3\n        /* \"#utility.yul\":10946:11039   */\n      tag_167\n      jump\t// in\n    tag_297:\n        /* \"#utility.yul\":11064:11066   */\n      0x40\n        /* \"#utility.yul\":11059:11062   */\n      dup3\n        /* \"#utility.yul\":11055:11067   */\n      add\n        /* \"#utility.yul\":11048:11067   */\n      swap1\n      pop\n        /* \"#utility.yul\":10707:11073   */\n      swap2\n      swap1\n      pop\n      jump\t// out\n        /* \"#utility.yul\":11079:11498   */\n    tag_73:\n        /* \"#utility.yul\":11245:11249   */\n      0x00\n        /* \"#utility.yul\":11283:11285   */\n      0x20\n        /* \"#utility.yul\":11272:11281   */\n      dup3\n        /* \"#utility.yul\":11268:11286   */\n      add\n        /* \"#utility.yul\":11260:11286   */\n      swap1\n      pop\n        /* \"#utility.yul\":11332:11341   */\n      dup2\n        /* \"#utility.yul\":11326:11330   */\n      dup2\n        /* \"#utility.yul\":11322:11342   */\n      sub\n        /* \"#utility.yul\":11318:11319   */\n      0x00\n        /* \"#utility.yul\":11307:11316   */\n      dup4\n        /* \"#utility.yul\":11303:11320   */\n      add\n        /* \"#utility.yul\":11296:11343   */\n      mstore\n        /* \"#utility.yul\":11360:11491   */\n      tag_299\n        /* \"#utility.yul\":11486:11490   */\n      dup2\n        /* \"#utility.yul\":11360:11491   */\n      tag_168\n      jump\t// in\n    tag_299:\n        /* \"#utility.yul\":11352:11491   */\n      swap1\n      pop\n        /* \"#utility.yul\":11079:11498   */\n      swap2\n      swap1\n      pop\n      jump\t// out\n        /* \"#utility.yul\":11504:11684   */\n    tag_76:\n        /* \"#utility.yul\":11552:11629   */\n      0x4e487b7100000000000000000000000000000000000000000000000000000000\n        /* \"#utility.yul\":11549:11550   */\n      0x00\n        /* \"#utility.yul\":11542:11630   */\n      mstore\n        /* \"#utility.yul\":11649:11653   */\n      0x32\n        /* \"#utility.yul\":11646:11647   */\n      0x04\n        /* \"#utility.yul\":11639:11654   */\n      mstore\n        /* \"#utility.yul\":11673:11677   */\n      0x24\n        /* \"#utility.yul\":11670:11671   */\n      0x00\n        /* \"#utility.yul\":11663:11678   */\n      revert\n        /* \"#utility.yul\":11690:11870   */\n    tag_169:\n        /* \"#utility.yul\":11738:11815   */\n      0x4e487b7100000000000000000000000000000000000000000000000000000000\n        /* \"#utility.yul\":11735:11736   */\n      0x00\n        /* \"#utility.yul\":11728:11816   */\n      mstore\n        /* \"#utility.yul\":11835:11839   */\n      0x11\n        /* \"#utility.yul\":11832:11833   */\n      0x04\n        /* \"#utility.yul\":11825:11840   */\n      mstore\n        /* \"#utility.yul\":11859:11863   */\n      0x24\n        /* \"#utility.yul\":11856:11857   */\n      0x00\n        /* \"#utility.yul\":11849:11864   */\n      revert\n        /* \"#utility.yul\":11876:12067   */\n    tag_79:\n        /* \"#utility.yul\":11916:11919   */\n      0x00\n        /* \"#utility.yul\":11935:11955   */\n      tag_303\n        /* \"#utility.yul\":11953:11954   */\n      dup3\n        /* \"#utility.yul\":11935:11955   */\n      tag_136\n      jump\t// in\n    tag_303:\n        /* \"#utility.yul\":11930:11955   */\n      swap2\n      pop\n        /* \"#utility.yul\":11969:11989   */\n      tag_304\n        /* \"#utility.yul\":11987:11988   */\n      dup4\n        /* \"#utility.yul\":11969:11989   */\n      tag_136\n      jump\t// in\n    tag_304:\n        /* \"#utility.yul\":11964:11989   */\n      swap3\n      pop\n        /* \"#utility.yul\":12012:12013   */\n      dup3\n        /* \"#utility.yul\":12009:12010   */\n      dup3\n        /* \"#utility.yul\":12005:12014   */\n      add\n        /* \"#utility.yul\":11998:12014   */\n      swap1\n      pop\n        /* \"#utility.yul\":12033:12036   */\n      dup1\n        /* \"#utility.yul\":12030:12031   */\n      dup3\n        /* \"#utility.yul\":12027:12037   */\n      gt\n        /* \"#utility.yul\":12024:12060   */\n      iszero\n      tag_305\n      jumpi\n        /* \"#utility.yul\":12040:12058   */\n      tag_306\n      tag_169\n      jump\t// in\n    tag_306:\n        /* \"#utility.yul\":12024:12060   */\n    tag_305:\n        /* \"#utility.yul\":11876:12067   */\n      swap3\n      swap2\n      pop\n      pop\n      jump\t// out\n        /* \"#utility.yul\":12073:12247   */\n    tag_170:\n        /* \"#utility.yul\":12213:12239   */\n      0x4e616d6120546964616b20426f6c6568204b6f736f6e67210000000000000000\n        /* \"#utility.yul\":12209:12210   */\n      0x00\n        /* \"#utility.yul\":12201:12207   */\n      dup3\n        /* \"#utility.yul\":12197:12211   */\n      add\n        /* \"#utility.yul\":12190:12240   */\n      mstore\n        /* \"#utility.yul\":12073:12247   */\n      pop\n      jump\t// out\n        /* \"#utility.yul\":12253:12619   */\n    tag_171:\n        /* \"#utility.yul\":12395:12398   */\n      0x00\n        /* \"#utility.yul\":12416:12483   */\n      tag_309\n        /* \"#utility.yul\":12480:12482   */\n      0x18\n        /* \"#utility.yul\":12475:12478   */\n      dup4\n        /* \"#utility.yul\":12416:12483   */\n      tag_156\n      jump\t// in\n    tag_309:\n        /* \"#utility.yul\":12409:12483   */\n      swap2\n      pop\n        /* \"#utility.yul\":12492:12585   */\n      tag_310\n        /* \"#utility.yul\":12581:12584   */\n      dup3\n        /* \"#utility.yul\":12492:12585   */\n      tag_170\n      jump\t// in\n    tag_310:\n        /* \"#utility.yul\":12610:12612   */\n      0x20\n        /* \"#utility.yul\":12605:12608   */\n      dup3\n        /* \"#utility.yul\":12601:12613   */\n      add\n        /* \"#utility.yul\":12594:12613   */\n      swap1\n      pop\n        /* \"#utility.yul\":12253:12619   */\n      swap2\n      swap1\n      pop\n      jump\t// out\n        /* \"#utility.yul\":12625:13044   */\n    tag_84:\n        /* \"#utility.yul\":12791:12795   */\n      0x00\n        /* \"#utility.yul\":12829:12831   */\n      0x20\n        /* \"#utility.yul\":12818:12827   */\n      dup3\n        /* \"#utility.yul\":12814:12832   */\n      add\n        /* \"#utility.yul\":12806:12832   */\n      swap1\n      pop\n        /* \"#utility.yul\":12878:12887   */\n      dup2\n        /* \"#utility.yul\":12872:12876   */\n      dup2\n        /* \"#utility.yul\":12868:12888   */\n      sub\n        /* \"#utility.yul\":12864:12865   */\n      0x00\n        /* \"#utility.yul\":12853:12862   */\n      dup4\n        /* \"#utility.yul\":12849:12866   */\n      add\n        /* \"#utility.yul\":12842:12889   */\n      mstore\n        /* \"#utility.yul\":12906:13037   */\n      tag_312\n        /* \"#utility.yul\":13032:13036   */\n      dup2\n        /* \"#utility.yul\":12906:13037   */\n      tag_171\n      jump\t// in\n    tag_312:\n        /* \"#utility.yul\":12898:13037   */\n      swap1\n      pop\n        /* \"#utility.yul\":12625:13044   */\n      swap2\n      swap1\n      pop\n      jump\t// out\n        /* \"#utility.yul\":13050:13230   */\n    tag_172:\n        /* \"#utility.yul\":13098:13175   */\n      0x4e487b7100000000000000000000000000000000000000000000000000000000\n        /* \"#utility.yul\":13095:13096   */\n      0x00\n        /* \"#utility.yul\":13088:13176   */\n      mstore\n        /* \"#utility.yul\":13195:13199   */\n      0x22\n        /* \"#utility.yul\":13192:13193   */\n      0x04\n        /* \"#utility.yul\":13185:13200   */\n      mstore\n        /* \"#utility.yul\":13219:13223   */\n      0x24\n        /* \"#utility.yul\":13216:13217   */\n      0x00\n        /* \"#utility.yul\":13209:13224   */\n      revert\n        /* \"#utility.yul\":13236:13556   */\n    tag_96:\n        /* \"#utility.yul\":13280:13286   */\n      0x00\n        /* \"#utility.yul\":13317:13318   */\n      0x02\n        /* \"#utility.yul\":13311:13315   */\n      dup3\n        /* \"#utility.yul\":13307:13319   */\n      div\n        /* \"#utility.yul\":13297:13319   */\n      swap1\n      pop\n        /* \"#utility.yul\":13364:13365   */\n      0x01\n        /* \"#utility.yul\":13358:13362   */\n      dup3\n        /* \"#utility.yul\":13354:13366   */\n      and\n        /* \"#utility.yul\":13385:13403   */\n      dup1\n        /* \"#utility.yul\":13375:13456   */\n      tag_315\n      jumpi\n        /* \"#utility.yul\":13441:13445   */\n      0x7f\n        /* \"#utility.yul\":13433:13439   */\n      dup3\n        /* \"#utility.yul\":13429:13446   */\n      and\n        /* \"#utility.yul\":13419:13446   */\n      swap2\n      pop\n        /* \"#utility.yul\":13375:13456   */\n    tag_315:\n        /* \"#utility.yul\":13503:13505   */\n      0x20\n        /* \"#utility.yul\":13495:13501   */\n      dup3\n        /* \"#utility.yul\":13492:13506   */\n      lt\n        /* \"#utility.yul\":13472:13490   */\n      dup2\n        /* \"#utility.yul\":13469:13507   */\n      sub\n        /* \"#utility.yul\":13466:13550   */\n      tag_316\n      jumpi\n        /* \"#utility.yul\":13522:13540   */\n      tag_317\n      tag_172\n      jump\t// in\n    tag_317:\n        /* \"#utility.yul\":13466:13550   */\n    tag_316:\n        /* \"#utility.yul\":13287:13556   */\n      pop\n        /* \"#utility.yul\":13236:13556   */\n      swap2\n      swap1\n      pop\n      jump\t// out\n        /* \"#utility.yul\":13562:13703   */\n    tag_173:\n        /* \"#utility.yul\":13611:13615   */\n      0x00\n        /* \"#utility.yul\":13634:13637   */\n      dup2\n        /* \"#utility.yul\":13626:13637   */\n      swap1\n      pop\n        /* \"#utility.yul\":13657:13660   */\n      dup2\n        /* \"#utility.yul\":13654:13655   */\n      0x00\n        /* \"#utility.yul\":13647:13661   */\n      mstore\n        /* \"#utility.yul\":13691:13695   */\n      0x20\n        /* \"#utility.yul\":13688:13689   */\n      0x00\n        /* \"#utility.yul\":13678:13696   */\n      keccak256\n        /* \"#utility.yul\":13670:13696   */\n      swap1\n      pop\n        /* \"#utility.yul\":13562:13703   */\n      swap2\n      swap1\n      pop\n      jump\t// out\n        /* \"#utility.yul\":13709:13802   */\n    tag_174:\n        /* \"#utility.yul\":13746:13752   */\n      0x00\n        /* \"#utility.yul\":13793:13795   */\n      0x20\n        /* \"#utility.yul\":13788:13790   */\n      0x1f\n        /* \"#utility.yul\":13781:13786   */\n      dup4\n        /* \"#utility.yul\":13777:13791   */\n      add\n        /* \"#utility.yul\":13773:13796   */\n      div\n        /* \"#utility.yul\":13763:13796   */\n      swap1\n      pop\n        /* \"#utility.yul\":13709:13802   */\n      swap2\n      swap1\n      pop\n      jump\t// out\n        /* \"#utility.yul\":13808:13915   */\n    tag_175:\n        /* \"#utility.yul\":13852:13860   */\n      0x00\n        /* \"#utility.yul\":13902:13907   */\n      dup3\n        /* \"#utility.yul\":13896:13900   */\n      dup3\n        /* \"#utility.yul\":13892:13908   */\n      shl\n        /* \"#utility.yul\":13871:13908   */\n      swap1\n      pop\n        /* \"#utility.yul\":13808:13915   */\n      swap3\n      swap2\n      pop\n      pop\n      jump\t// out\n        /* \"#utility.yul\":13921:14314   */\n    tag_176:\n        /* \"#utility.yul\":13990:13996   */\n      0x00\n        /* \"#utility.yul\":14040:14041   */\n      0x08\n        /* \"#utility.yul\":14028:14038   */\n      dup4\n        /* \"#utility.yul\":14024:14042   */\n      mul\n        /* \"#utility.yul\":14063:14160   */\n      tag_322\n        /* \"#utility.yul\":14093:14159   */\n      0xffffffffffffffffffffffffffffffffffffffffffffffffffffffffffffffff\n        /* \"#utility.yul\":14082:14091   */\n      dup3\n        /* \"#utility.yul\":14063:14160   */\n      tag_175\n      jump\t// in\n    tag_322:\n        /* \"#utility.yul\":14181:14220   */\n      tag_323\n        /* \"#utility.yul\":14211:14219   */\n      dup7\n        /* \"#utility.yul\":14200:14209   */\n      dup4\n        /* \"#utility.yul\":14181:14220   */\n      tag_175\n      jump\t// in\n    tag_323:\n        /* \"#utility.yul\":14169:14220   */\n      swap6\n      pop\n        /* \"#utility.yul\":14253:14257   */\n      dup1\n        /* \"#utility.yul\":14249:14258   */\n      not\n        /* \"#utility.yul\":14242:14247   */\n      dup5\n        /* \"#utility.yul\":14238:14259   */\n      and\n        /* \"#utility.yul\":14229:14259   */\n      swap4\n      pop\n        /* \"#utility.yul\":14302:14306   */\n      dup1\n        /* \"#utility.yul\":14292:14300   */\n      dup7\n        /* \"#utility.yul\":14288:14307   */\n      and\n        /* \"#utility.yul\":14281:14286   */\n      dup5\n        /* \"#utility.yul\":14278:14308   */\n      or\n        /* \"#utility.yul\":14268:14308   */\n      swap3\n      pop\n        /* \"#utility.yul\":13997:14314   */\n      pop\n      pop\n        /* \"#utility.yul\":13921:14314   */\n      swap4\n      swap3\n      pop\n      pop\n      pop\n      jump\t// out\n        /* \"#utility.yul\":14320:14380   */\n    tag_177:\n        /* \"#utility.yul\":14348:14351   */\n      0x00\n        /* \"#utility.yul\":14369:14374   */\n      dup2\n        /* \"#utility.yul\":14362:14374   */\n      swap1\n      pop\n        /* \"#utility.yul\":14320:14380   */\n      swap2\n      swap1\n      pop\n      jump\t// out\n        /* \"#utility.yul\":14386:14528   */\n    tag_178:\n        /* \"#utility.yul\":14436:14445   */\n      0x00\n        /* \"#utility.yul\":14469:14522   */\n      tag_326\n        /* \"#utility.yul\":14487:14521   */\n      tag_327\n        /* \"#utility.yul\":14496:14520   */\n      tag_328\n        /* \"#utility.yul\":14514:14519   */\n      dup5\n        /* \"#utility.yul\":14496:14520   */\n      tag_136\n      jump\t// in\n    tag_328:\n        /* \"#utility.yul\":14487:14521   */\n      tag_177\n      jump\t// in\n    tag_327:\n        /* \"#utility.yul\":14469:14522   */\n      tag_136\n      jump\t// in\n    tag_326:\n        /* \"#utility.yul\":14456:14522   */\n      swap1\n      pop\n        /* \"#utility.yul\":14386:14528   */\n      swap2\n      swap1\n      pop\n      jump\t// out\n        /* \"#utility.yul\":14534:14609   */\n    tag_179:\n        /* \"#utility.yul\":14577:14580   */\n      0x00\n        /* \"#utility.yul\":14598:14603   */\n      dup2\n        /* \"#utility.yul\":14591:14603   */\n      swap1\n      pop\n        /* \"#utility.yul\":14534:14609   */\n      swap2\n      swap1\n      pop\n      jump\t// out\n        /* \"#utility.yul\":14615:14884   */\n    tag_180:\n        /* \"#utility.yul\":14725:14764   */\n      tag_331\n        /* \"#utility.yul\":14756:14763   */\n      dup4\n        /* \"#utility.yul\":14725:14764   */\n      tag_178\n      jump\t// in\n    tag_331:\n        /* \"#utility.yul\":14786:14877   */\n      tag_332\n        /* \"#utility.yul\":14835:14876   */\n      tag_333\n        /* \"#utility.yul\":14859:14875   */\n      dup3\n        /* \"#utility.yul\":14835:14876   */\n      tag_179\n      jump\t// in\n    tag_333:\n        /* \"#utility.yul\":14827:14833   */\n      dup5\n        /* \"#utility.yul\":14820:14824   */\n      dup5\n        /* \"#utility.yul\":14814:14825   */\n      sload\n        /* \"#utility.yul\":14786:14877   */\n      tag_176\n      jump\t// in\n    tag_332:\n        /* \"#utility.yul\":14780:14784   */\n      dup3\n        /* \"#utility.yul\":14773:14878   */\n      sstore\n        /* \"#utility.yul\":14691:14884   */\n      pop\n        /* \"#utility.yul\":14615:14884   */\n      pop\n      pop\n      pop\n      jump\t// out\n        /* \"#utility.yul\":14890:14963   */\n    tag_181:\n        /* \"#utility.yul\":14935:14938   */\n      0x00\n        /* \"#utility.yul\":14956:14957   */\n      0x00\n        /* \"#utility.yul\":14949:14957   */\n      swap1\n      pop\n        /* \"#utility.yul\":14890:14963   */\n      swap1\n      jump\t// out\n        /* \"#utility.yul\":14969:15158   */\n    tag_182:\n        /* \"#utility.yul\":15046:15078   */\n      tag_336\n      tag_181\n      jump\t// in\n    tag_336:\n        /* \"#utility.yul\":15087:15152   */\n      tag_337\n        /* \"#utility.yul\":15145:15151   */\n      dup2\n        /* \"#utility.yul\":15137:15143   */\n      dup5\n        /* \"#utility.yul\":15131:15135   */\n      dup5\n        /* \"#utility.yul\":15087:15152   */\n      tag_180\n      jump\t// in\n    tag_337:\n        /* \"#utility.yul\":15022:15158   */\n      pop\n        /* \"#utility.yul\":14969:15158   */\n      pop\n      pop\n      jump\t// out\n        /* \"#utility.yul\":15164:15350   */\n    tag_183:\n        /* \"#utility.yul\":15224:15344   */\n    tag_339:\n        /* \"#utility.yul\":15241:15244   */\n      dup2\n        /* \"#utility.yul\":15234:15239   */\n      dup2\n        /* \"#utility.yul\":15231:15245   */\n      lt\n        /* \"#utility.yul\":15224:15344   */\n      iszero\n      tag_341\n      jumpi\n        /* \"#utility.yul\":15295:15334   */\n      tag_342\n        /* \"#utility.yul\":15332:15333   */\n      0x00\n        /* \"#utility.yul\":15325:15330   */\n      dup3\n        /* \"#utility.yul\":15295:15334   */\n      tag_182\n      jump\t// in\n    tag_342:\n        /* \"#utility.yul\":15268:15269   */\n      0x01\n        /* \"#utility.yul\":15261:15266   */\n      dup2\n        /* \"#utility.yul\":15257:15270   */\n      add\n        /* \"#utility.yul\":15248:15270   */\n      swap1\n      pop\n        /* \"#utility.yul\":15224:15344   */\n      jump(tag_339)\n    tag_341:\n        /* \"#utility.yul\":15164:15350   */\n      pop\n      pop\n      jump\t// out\n        /* \"#utility.yul\":15356:15899   */\n    tag_184:\n        /* \"#utility.yul\":15457:15459   */\n      0x1f\n        /* \"#utility.yul\":15452:15455   */\n      dup3\n        /* \"#utility.yul\":15449:15460   */\n      gt\n        /* \"#utility.yul\":15446:15892   */\n      iszero\n      tag_344\n      jumpi\n        /* \"#utility.yul\":15491:15529   */\n      tag_345\n        /* \"#utility.yul\":15523:15528   */\n      dup2\n        /* \"#utility.yul\":15491:15529   */\n      tag_173\n      jump\t// in\n    tag_345:\n        /* \"#utility.yul\":15575:15604   */\n      tag_346\n        /* \"#utility.yul\":15593:15603   */\n      dup5\n        /* \"#utility.yul\":15575:15604   */\n      tag_174\n      jump\t// in\n    tag_346:\n        /* \"#utility.yul\":15565:15573   */\n      dup2\n        /* \"#utility.yul\":15561:15605   */\n      add\n        /* \"#utility.yul\":15758:15760   */\n      0x20\n        /* \"#utility.yul\":15746:15756   */\n      dup6\n        /* \"#utility.yul\":15743:15761   */\n      lt\n        /* \"#utility.yul\":15740:15789   */\n      iszero\n      tag_347\n      jumpi\n        /* \"#utility.yul\":15779:15787   */\n      dup2\n        /* \"#utility.yul\":15764:15787   */\n      swap1\n      pop\n        /* \"#utility.yul\":15740:15789   */\n    tag_347:\n        /* \"#utility.yul\":15802:15882   */\n      tag_348\n        /* \"#utility.yul\":15858:15880   */\n      tag_349\n        /* \"#utility.yul\":15876:15879   */\n      dup6\n        /* \"#utility.yul\":15858:15880   */\n      tag_174\n      jump\t// in\n    tag_349:\n        /* \"#utility.yul\":15848:15856   */\n      dup4\n        /* \"#utility.yul\":15844:15881   */\n      add\n        /* \"#utility.yul\":15831:15842   */\n      dup3\n        /* \"#utility.yul\":15802:15882   */\n      tag_183\n      jump\t// in\n    tag_348:\n        /* \"#utility.yul\":15461:15892   */\n      pop\n      pop\n        /* \"#utility.yul\":15446:15892   */\n    tag_344:\n        /* \"#utility.yul\":15356:15899   */\n      pop\n      pop\n      pop\n      jump\t// out\n        /* \"#utility.yul\":15905:16022   */\n    tag_185:\n        /* \"#utility.yul\":15959:15967   */\n      0x00\n        /* \"#utility.yul\":16009:16014   */\n      dup3\n        /* \"#utility.yul\":16003:16007   */\n      dup3\n        /* \"#utility.yul\":15999:16015   */\n      shr\n        /* \"#utility.yul\":15978:16015   */\n      swap1\n      pop\n        /* \"#utility.yul\":15905:16022   */\n      swap3\n      swap2\n      pop\n      pop\n      jump\t// out\n        /* \"#utility.yul\":16028:16197   */\n    tag_186:\n        /* \"#utility.yul\":16072:16078   */\n      0x00\n        /* \"#utility.yul\":16105:16156   */\n      tag_352\n        /* \"#utility.yul\":16153:16154   */\n      0x00\n        /* \"#utility.yul\":16149:16155   */\n      not\n        /* \"#utility.yul\":16141:16146   */\n      dup5\n        /* \"#utility.yul\":16138:16139   */\n      0x08\n        /* \"#utility.yul\":16134:16147   */\n      mul\n        /* \"#utility.yul\":16105:16156   */\n      tag_185\n      jump\t// in\n    tag_352:\n        /* \"#utility.yul\":16101:16157   */\n      not\n        /* \"#utility.yul\":16186:16190   */\n      dup1\n        /* \"#utility.yul\":16180:16184   */\n      dup4\n        /* \"#utility.yul\":16176:16191   */\n      and\n        /* \"#utility.yul\":16166:16191   */\n      swap2\n      pop\n        /* \"#utility.yul\":16079:16197   */\n      pop\n        /* \"#utility.yul\":16028:16197   */\n      swap3\n      swap2\n      pop\n      pop\n      jump\t// out\n        /* \"#utility.yul\":16202:16497   */\n    tag_187:\n        /* \"#utility.yul\":16278:16282   */\n      0x00\n        /* \"#utility.yul\":16424:16453   */\n      tag_354\n        /* \"#utility.yul\":16449:16452   */\n      dup4\n        /* \"#utility.yul\":16443:16447   */\n      dup4\n        /* \"#utility.yul\":16424:16453   */\n      tag_186\n      jump\t// in\n    tag_354:\n        /* \"#utility.yul\":16416:16453   */\n      swap2\n      pop\n        /* \"#utility.yul\":16486:16489   */\n      dup3\n        /* \"#utility.yul\":16483:16484   */\n      0x02\n        /* \"#utility.yul\":16479:16490   */\n      mul\n        /* \"#utility.yul\":16473:16477   */\n      dup3\n        /* \"#utility.yul\":16470:16491   */\n      or\n        /* \"#utility.yul\":16462:16491   */\n      swap1\n      pop\n        /* \"#utility.yul\":16202:16497   */\n      swap3\n      swap2\n      pop\n      pop\n      jump\t// out\n        /* \"#utility.yul\":16502:17897   */\n    tag_89:\n        /* \"#utility.yul\":16619:16656   */\n      tag_356\n        /* \"#utility.yul\":16652:16655   */\n      dup3\n        /* \"#utility.yul\":16619:16656   */\n      tag_155\n      jump\t// in\n    tag_356:\n        /* \"#utility.yul\":16721:16739   */\n      0xffffffffffffffff\n        /* \"#utility.yul\":16713:16719   */\n      dup2\n        /* \"#utility.yul\":16710:16740   */\n      gt\n        /* \"#utility.yul\":16707:16763   */\n      iszero\n      tag_357\n      jumpi\n        /* \"#utility.yul\":16743:16761   */\n      tag_358\n      tag_148\n      jump\t// in\n    tag_358:\n        /* \"#utility.yul\":16707:16763   */\n    tag_357:\n        /* \"#utility.yul\":16787:16825   */\n      tag_359\n        /* \"#utility.yul\":16819:16823   */\n      dup3\n        /* \"#utility.yul\":16813:16824   */\n      sload\n        /* \"#utility.yul\":16787:16825   */\n      tag_96\n      jump\t// in\n    tag_359:\n        /* \"#utility.yul\":16872:16939   */\n      tag_360\n        /* \"#utility.yul\":16932:16938   */\n      dup3\n        /* \"#utility.yul\":16924:16930   */\n      dup3\n        /* \"#utility.yul\":16918:16922   */\n      dup6\n        /* \"#utility.yul\":16872:16939   */\n      tag_184\n      jump\t// in\n    tag_360:\n        /* \"#utility.yul\":16966:16967   */\n      0x00\n        /* \"#utility.yul\":16990:16994   */\n      0x20\n        /* \"#utility.yul\":16977:16994   */\n      swap1\n      pop\n        /* \"#utility.yul\":17022:17024   */\n      0x1f\n        /* \"#utility.yul\":17014:17020   */\n      dup4\n        /* \"#utility.yul\":17011:17025   */\n      gt\n        /* \"#utility.yul\":17039:17040   */\n      0x01\n        /* \"#utility.yul\":17034:17652   */\n      dup2\n      eq\n      tag_362\n      jumpi\n        /* \"#utility.yul\":17696:17697   */\n      0x00\n        /* \"#utility.yul\":17713:17719   */\n      dup5\n        /* \"#utility.yul\":17710:17787   */\n      iszero\n      tag_363\n      jumpi\n        /* \"#utility.yul\":17762:17771   */\n      dup3\n        /* \"#utility.yul\":17757:17760   */\n      dup8\n        /* \"#utility.yul\":17753:17772   */\n      add\n        /* \"#utility.yul\":17747:17773   */\n      mload\n        /* \"#utility.yul\":17738:17773   */\n      swap1\n      pop\n        /* \"#utility.yul\":17710:17787   */\n    tag_363:\n        /* \"#utility.yul\":17813:17880   */\n      tag_364\n        /* \"#utility.yul\":17873:17879   */\n      dup6\n        /* \"#utility.yul\":17866:17871   */\n      dup3\n        /* \"#utility.yul\":17813:17880   */\n      tag_187\n      jump\t// in\n    tag_364:\n        /* \"#utility.yul\":17807:17811   */\n      dup7\n        /* \"#utility.yul\":17800:17881   */\n      sstore\n        /* \"#utility.yul\":17669:17891   */\n      pop\n        /* \"#utility.yul\":17004:17891   */\n      jump(tag_361)\n        /* \"#utility.yul\":17034:17652   */\n    tag_362:\n        /* \"#utility.yul\":17086:17090   */\n      0x1f\n        /* \"#utility.yul\":17082:17091   */\n      not\n        /* \"#utility.yul\":17074:17080   */\n      dup5\n        /* \"#utility.yul\":17070:17092   */\n      and\n        /* \"#utility.yul\":17120:17157   */\n      tag_365\n        /* \"#utility.yul\":17152:17156   */\n      dup7\n        /* \"#utility.yul\":17120:17157   */\n      tag_173\n      jump\t// in\n    tag_365:\n        /* \"#utility.yul\":17179:17180   */\n      0x00\n        /* \"#utility.yul\":17193:17401   */\n    tag_366:\n        /* \"#utility.yul\":17207:17214   */\n      dup3\n        /* \"#utility.yul\":17204:17205   */\n      dup2\n        /* \"#utility.yul\":17201:17215   */\n      lt\n        /* \"#utility.yul\":17193:17401   */\n      iszero\n      tag_368\n      jumpi\n        /* \"#utility.yul\":17286:17295   */\n      dup5\n        /* \"#utility.yul\":17281:17284   */\n      dup10\n        /* \"#utility.yul\":17277:17296   */\n      add\n        /* \"#utility.yul\":17271:17297   */\n      mload\n        /* \"#utility.yul\":17263:17269   */\n      dup3\n        /* \"#utility.yul\":17256:17298   */\n      sstore\n        /* \"#utility.yul\":17337:17338   */\n      0x01\n        /* \"#utility.yul\":17329:17335   */\n      dup3\n        /* \"#utility.yul\":17325:17339   */\n      add\n        /* \"#utility.yul\":17315:17339   */\n      swap2\n      pop\n        /* \"#utility.yul\":17384:17386   */\n      0x20\n        /* \"#utility.yul\":17373:17382   */\n      dup6\n        /* \"#utility.yul\":17369:17387   */\n      add\n        /* \"#utility.yul\":17356:17387   */\n      swap5\n      pop\n        /* \"#utility.yul\":17230:17234   */\n      0x20\n        /* \"#utility.yul\":17227:17228   */\n      dup2\n        /* \"#utility.yul\":17223:17235   */\n      add\n        /* \"#utility.yul\":17218:17235   */\n      swap1\n      pop\n        /* \"#utility.yul\":17193:17401   */\n      jump(tag_366)\n    tag_368:\n        /* \"#utility.yul\":17429:17435   */\n      dup7\n        /* \"#utility.yul\":17420:17427   */\n      dup4\n        /* \"#utility.yul\":17417:17436   */\n      lt\n        /* \"#utility.yul\":17414:17593   */\n      iszero\n      tag_369\n      jumpi\n        /* \"#utility.yul\":17487:17496   */\n      dup5\n        /* \"#utility.yul\":17482:17485   */\n      dup10\n        /* \"#utility.yul\":17478:17497   */\n      add\n        /* \"#utility.yul\":17472:17498   */\n      mload\n        /* \"#utility.yul\":17530:17578   */\n      tag_370\n        /* \"#utility.yul\":17572:17576   */\n      0x1f\n        /* \"#utility.yul\":17564:17570   */\n      dup10\n        /* \"#utility.yul\":17560:17577   */\n      and\n        /* \"#utility.yul\":17549:17558   */\n      dup3\n        /* \"#utility.yul\":17530:17578   */\n      tag_186\n      jump\t// in\n    tag_370:\n        /* \"#utility.yul\":17522:17528   */\n      dup4\n        /* \"#utility.yul\":17515:17579   */\n      sstore\n        /* \"#utility.yul\":17437:17593   */\n      pop\n        /* \"#utility.yul\":17414:17593   */\n    tag_369:\n        /* \"#utility.yul\":17639:17640   */\n      0x01\n        /* \"#utility.yul\":17635:17636   */\n      0x02\n        /* \"#utility.yul\":17627:17633   */\n      dup9\n        /* \"#utility.yul\":17623:17637   */\n      mul\n        /* \"#utility.yul\":17619:17641   */\n      add\n        /* \"#utility.yul\":17613:17617   */\n      dup9\n        /* \"#utility.yul\":17606:17642   */\n      sstore\n        /* \"#utility.yul\":17041:17652   */\n      pop\n      pop\n      pop\n        /* \"#utility.yul\":17004:17891   */\n    tag_361:\n      pop\n        /* \"#utility.yul\":16594:17897   */\n      pop\n      pop\n      pop\n        /* \"#utility.yul\":16502:17897   */\n      pop\n      pop\n      jump\t// out\n        /* \"#utility.yul\":17903:18216   */\n    tag_92:\n        /* \"#utility.yul\":18016:18020   */\n      0x00\n        /* \"#utility.yul\":18054:18056   */\n      0x20\n        /* \"#utility.yul\":18043:18052   */\n      dup3\n        /* \"#utility.yul\":18039:18057   */\n      add\n        /* \"#utility.yul\":18031:18057   */\n      swap1\n      pop\n        /* \"#utility.yul\":18103:18112   */\n      dup2\n        /* \"#utility.yul\":18097:18101   */\n      dup2\n        /* \"#utility.yul\":18093:18113   */\n      sub\n        /* \"#utility.yul\":18089:18090   */\n      0x00\n        /* \"#utility.yul\":18078:18087   */\n      dup4\n        /* \"#utility.yul\":18074:18091   */\n      add\n        /* \"#utility.yul\":18067:18114   */\n      mstore\n        /* \"#utility.yul\":18131:18209   */\n      tag_372\n        /* \"#utility.yul\":18204:18208   */\n      dup2\n        /* \"#utility.yul\":18195:18201   */\n      dup5\n        /* \"#utility.yul\":18131:18209   */\n      tag_158\n      jump\t// in\n    tag_372:\n        /* \"#utility.yul\":18123:18209   */\n      swap1\n      pop\n        /* \"#utility.yul\":17903:18216   */\n      swap3\n      swap2\n      pop\n      pop\n      jump\t// out\n        /* \"#utility.yul\":18222:18446   */\n    tag_188:\n        /* \"#utility.yul\":18362:18396   */\n      0x48616e79612061646d696e2079616e6720626f6c656820646166746172207065\n        /* \"#utility.yul\":18358:18359   */\n      0x00\n        /* \"#utility.yul\":18350:18356   */\n      dup3\n        /* \"#utility.yul\":18346:18360   */\n      add\n        /* \"#utility.yul\":18339:18397   */\n      mstore\n        /* \"#utility.yul\":18431:18438   */\n      0x6d696c6968000000000000000000000000000000000000000000000000000000\n        /* \"#utility.yul\":18426:18428   */\n      0x20\n        /* \"#utility.yul\":18418:18424   */\n      dup3\n        /* \"#utility.yul\":18414:18429   */\n      add\n        /* \"#utility.yul\":18407:18439   */\n      mstore\n        /* \"#utility.yul\":18222:18446   */\n      pop\n      jump\t// out\n        /* \"#utility.yul\":18452:18818   */\n    tag_189:\n        /* \"#utility.yul\":18594:18597   */\n      0x00\n        /* \"#utility.yul\":18615:18682   */\n      tag_375\n        /* \"#utility.yul\":18679:18681   */\n      0x25\n        /* \"#utility.yul\":18674:18677   */\n      dup4\n        /* \"#utility.yul\":18615:18682   */\n      tag_156\n      jump\t// in\n    tag_375:\n        /* \"#utility.yul\":18608:18682   */\n      swap2\n      pop\n        /* \"#utility.yul\":18691:18784   */\n      tag_376\n        /* \"#utility.yul\":18780:18783   */\n      dup3\n        /* \"#utility.yul\":18691:18784   */\n      tag_188\n      jump\t// in\n    tag_376:\n        /* \"#utility.yul\":18809:18811   */\n      0x40\n        /* \"#utility.yul\":18804:18807   */\n      dup3\n        /* \"#utility.yul\":18800:18812   */\n      add\n        /* \"#utility.yul\":18793:18812   */\n      swap1\n      pop\n        /* \"#utility.yul\":18452:18818   */\n      swap2\n      swap1\n      pop\n      jump\t// out\n        /* \"#utility.yul\":18824:19243   */\n    tag_132:\n        /* \"#utility.yul\":18990:18994   */\n      0x00\n        /* \"#utility.yul\":19028:19030   */\n      0x20\n        /* \"#utility.yul\":19017:19026   */\n      dup3\n        /* \"#utility.yul\":19013:19031   */\n      add\n        /* \"#utility.yul\":19005:19031   */\n      swap1\n      pop\n        /* \"#utility.yul\":19077:19086   */\n      dup2\n        /* \"#utility.yul\":19071:19075   */\n      dup2\n        /* \"#utility.yul\":19067:19087   */\n      sub\n        /* \"#utility.yul\":19063:19064   */\n      0x00\n        /* \"#utility.yul\":19052:19061   */\n      dup4\n        /* \"#utility.yul\":19048:19065   */\n      add\n        /* \"#utility.yul\":19041:19088   */\n      mstore\n        /* \"#utility.yul\":19105:19236   */\n      tag_378\n        /* \"#utility.yul\":19231:19235   */\n      dup2\n        /* \"#utility.yul\":19105:19236   */\n      tag_189\n      jump\t// in\n    tag_378:\n        /* \"#utility.yul\":19097:19236   */\n      swap1\n      pop\n        /* \"#utility.yul\":18824:19243   */\n      swap2\n      swap1\n      pop\n      jump\t// out\n\n    auxdata: 0xa264697066735822122085d059c3d2cdcbfaf149886ad1d711f3a748e52302619cf22b860bd95b8da1cf64736f6c634300081e0033\n}\n",
				"bytecode": {
					"linkReferences": {},
					"object": "608060405234801561000f575f5ffd5b50604051611604380380611604833981810160405281019061003191906100bd565b3360055f6101000a81548173ffffffffffffffffffffffffffffffffffffffff021916908373ffffffffffffffffffffffffffffffffffffffff160217905550816003819055508060048190555050506100fb565b5f5ffd5b5f819050919050565b61009c8161008a565b81146100a6575f5ffd5b50565b5f815190506100b781610093565b92915050565b5f5f604083850312156100d3576100d2610086565b5b5f6100e0858286016100a9565b92505060206100f1858286016100a9565b9150509250929050565b6114fc806101085f395ff3fe608060405234801561000f575f5ffd5b50600436106100a7575f3560e01c80638e94dcfd1161006f5780638e94dcfd14610175578063986c14b214610191578063995e4339146101af578063be2e8cd3146101e1578063dae770ef146101fd578063f851a4401461021b576100a7565b80630121b93f146100ab5780630cf57856146100c757806326541b56146100f7578063657c3ef11461011357806379abf65114610145575b5f5ffd5b6100c560048036038101906100c09190610ae3565b610239565b005b6100e160048036038101906100dc9190610b68565b6104cf565b6040516100ee9190610bad565b60405180910390f35b610111600480360381019061010c9190610d02565b6104ec565b005b61012d60048036038101906101289190610ae3565b610625565b60405161013c93929190610de7565b60405180910390f35b61015f600480360381019061015a9190610b68565b610765565b60405161016c9190610bad565b60405180910390f35b61018f600480360381019061018a9190610ae3565b610782565b005b610199610811565b6040516101a69190610e2a565b60405180910390f35b6101c960048036038101906101c49190610ae3565b610817565b6040516101d893929190610de7565b60405180910390f35b6101fb60048036038101906101f69190610b68565b61098d565b005b610205610a74565b6040516102129190610e2a565b60405180910390f35b610223610a7a565b6040516102309190610e52565b60405180910390f35b600354421015801561024d57506004544211155b61028c576040517f08c379a000000000000000000000000000000000000000000000000000000000815260040161028390610edb565b60405180910390fd5b5f8054905081106102d2576040517f08c379a00000000000000000000000000000000000000000000000000000000081526004016102c990610f43565b60405180910390fd5b5f151560015f3373ffffffffffffffffffffffffffffffffffffffff1673ffffffffffffffffffffffffffffffffffffffff1681526020019081526020015f205f9054906101000a900460ff16151514610361576040517f08c379a000000000000000000000000000000000000000000000000000000000815260040161035890610fab565b60405180910390fd5b6001151560025f3373ffffffffffffffffffffffffffffffffffffffff1673ffffffffffffffffffffffffffffffffffffffff1681526020019081526020015f205f9054906101000a900460ff161515146103f1576040517f08c379a00000000000000000000000000000000000000000000000000000000081526004016103e890611039565b60405180910390fd5b60015f828154811061040657610405611057565b5b905f5260205f2090600302016002015f82825461042391906110b1565b925050819055506001805f3373ffffffffffffffffffffffffffffffffffffffff1673ffffffffffffffffffffffffffffffffffffffff1681526020019081526020015f205f6101000a81548160ff0219169083151502179055503373ffffffffffffffffffffffffffffffffffffffff167fd0e6c39f2e086dc49f1524b47725526a56945cd1ff661f37976f1725a1e56986826040516104c49190610e2a565b60405180910390a250565b6002602052805f5260405f205f915054906101000a900460ff1681565b5f82511161052f576040517f08c379a00000000000000000000000000000000000000000000000000000000081526004016105269061112e565b60405180910390fd5b5f815111610572576040517f08c379a00000000000000000000000000000000000000000000000000000000081526004016105699061112e565b60405180910390fd5b5f60405180606001604052808481526020018381526020015f815250908060018154018082558091505060019003905f5260205f2090600302015f909190919091505f820151815f0190816105c79190611349565b5060208201518160010190816105dd9190611349565b506040820151816002015550507fc86c45a2c2450845967b481f33078b0d7f6144696013327082df9bd9567a44fe826040516106199190611418565b60405180910390a15050565b5f8181548110610633575f80fd5b905f5260205f2090600302015f91509050805f01805461065290611179565b80601f016020809104026020016040519081016040528092919081815260200182805461067e90611179565b80156106c95780601f106106a0576101008083540402835291602001916106c9565b820191905f5260205f20905b8154815290600101906020018083116106ac57829003601f168201915b5050505050908060010180546106de90611179565b80601f016020809104026020016040519081016040528092919081815260200182805461070a90611179565b80156107555780601f1061072c57610100808354040283529160200191610755565b820191905f5260205f20905b81548152906001019060200180831161073857829003601f168201915b5050505050908060020154905083565b6001602052805f5260405f205f915054906101000a900460ff1681565b600354421015801561079657506004544211155b6107d5576040517f08c379a00000000000000000000000000000000000000000000000000000000081526004016107cc90610edb565b60405180910390fd5b60015f82815481106107ea576107e9611057565b5b905f5260205f2090600302016002015f82825461080791906110b1565b9250508190555050565b60045481565b6060805f5f5f858154811061082f5761082e611057565b5b905f5260205f2090600302016040518060600160405290815f8201805461085590611179565b80601f016020809104026020016040519081016040528092919081815260200182805461088190611179565b80156108cc5780601f106108a3576101008083540402835291602001916108cc565b820191905f5260205f20905b8154815290600101906020018083116108af57829003601f168201915b505050505081526020016001820180546108e590611179565b80601f016020809104026020016040519081016040528092919081815260200182805461091190611179565b801561095c5780601f106109335761010080835404028352916020019161095c565b820191905f5260205f20905b81548152906001019060200180831161093f57829003601f168201915b505050505081526020016002820154815250509050805f015181602001518260400151935093509350509193909250565b60055f9054906101000a900473ffffffffffffffffffffffffffffffffffffffff1673ffffffffffffffffffffffffffffffffffffffff163373ffffffffffffffffffffffffffffffffffffffff1614610a1c576040517f08c379a0000000000000000000000000000000000000000000000000000000008152600401610a13906114a8565b60405180910390fd5b600160025f8373ffffffffffffffffffffffffffffffffffffffff1673ffffffffffffffffffffffffffffffffffffffff1681526020019081526020015f205f6101000a81548160ff02191690831515021790555050565b60035481565b60055f9054906101000a900473ffffffffffffffffffffffffffffffffffffffff1681565b5f604051905090565b5f5ffd5b5f5ffd5b5f819050919050565b610ac281610ab0565b8114610acc575f5ffd5b50565b5f81359050610add81610ab9565b92915050565b5f60208284031215610af857610af7610aa8565b5b5f610b0584828501610acf565b91505092915050565b5f73ffffffffffffffffffffffffffffffffffffffff82169050919050565b5f610b3782610b0e565b9050919050565b610b4781610b2d565b8114610b51575f5ffd5b50565b5f81359050610b6281610b3e565b92915050565b5f60208284031215610b7d57610b7c610aa8565b5b5f610b8a84828501610b54565b91505092915050565b5f8115159050919050565b610ba781610b93565b82525050565b5f602082019050610bc05f830184610b9e565b92915050565b5f5ffd5b5f5ffd5b5f601f19601f8301169050919050565b7f4e487b71000000000000000000000000000000000000000000000000000000005f52604160045260245ffd5b610c1482610bce565b810181811067ffffffffffffffff82111715610c3357610c32610bde565b5b80604052505050565b5f610c45610a9f565b9050610c518282610c0b565b919050565b5f67ffffffffffffffff821115610c7057610c6f610bde565b5b610c7982610bce565b9050602081019050919050565b828183375f83830152505050565b5f610ca6610ca184610c56565b610c3c565b905082815260208101848484011115610cc257610cc1610bca565b5b610ccd848285610c86565b509392505050565b5f82601f830112610ce957610ce8610bc6565b5b8135610cf9848260208601610c94565b91505092915050565b5f5f60408385031215610d1857610d17610aa8565b5b5f83013567ffffffffffffffff811115610d3557610d34610aac565b5b610d4185828601610cd5565b925050602083013567ffffffffffffffff811115610d6257610d61610aac565b5b610d6e85828601610cd5565b9150509250929050565b5f81519050919050565b5f82825260208201905092915050565b8281835e5f83830152505050565b5f610daa82610d78565b610db48185610d82565b9350610dc4818560208601610d92565b610dcd81610bce565b840191505092915050565b610de181610ab0565b82525050565b5f6060820190508181035f830152610dff8186610da0565b90508181036020830152610e138185610da0565b9050610e226040830184610dd8565b949350505050565b5f602082019050610e3d5f830184610dd8565b92915050565b610e4c81610b2d565b82525050565b5f602082019050610e655f830184610e43565b92915050565b7f566f74696e672062656c756d2064696d756c61692061746175207375646168205f8201527f73656c6573616900000000000000000000000000000000000000000000000000602082015250565b5f610ec5602783610d82565b9150610ed082610e6b565b604082019050919050565b5f6020820190508181035f830152610ef281610eb9565b9050919050565b7f4d6173756b6b616e2049642064656e67616e2062656e617221000000000000005f82015250565b5f610f2d601983610d82565b9150610f3882610ef9565b602082019050919050565b5f6020820190508181035f830152610f5a81610f21565b9050919050565b7f4b616d75207375646168206d656d696c696821000000000000000000000000005f82015250565b5f610f95601383610d82565b9150610fa082610f61565b602082019050919050565b5f6020820190508181035f830152610fc281610f89565b9050919050565b7f4b616d752062756b616e2070656d696c69682079616e672074657276657269665f8201527f696b617369210000000000000000000000000000000000000000000000000000602082015250565b5f611023602683610d82565b915061102e82610fc9565b604082019050919050565b5f6020820190508181035f83015261105081611017565b9050919050565b7f4e487b71000000000000000000000000000000000000000000000000000000005f52603260045260245ffd5b7f4e487b71000000000000000000000000000000000000000000000000000000005f52601160045260245ffd5b5f6110bb82610ab0565b91506110c683610ab0565b92508282019050808211156110de576110dd611084565b5b92915050565b7f4e616d6120546964616b20426f6c6568204b6f736f6e672100000000000000005f82015250565b5f611118601883610d82565b9150611123826110e4565b602082019050919050565b5f6020820190508181035f8301526111458161110c565b9050919050565b7f4e487b71000000000000000000000000000000000000000000000000000000005f52602260045260245ffd5b5f600282049050600182168061119057607f821691505b6020821081036111a3576111a261114c565b5b50919050565b5f819050815f5260205f209050919050565b5f6020601f8301049050919050565b5f82821b905092915050565b5f600883026112057fffffffffffffffffffffffffffffffffffffffffffffffffffffffffffffffff826111ca565b61120f86836111ca565b95508019841693508086168417925050509392505050565b5f819050919050565b5f61124a61124561124084610ab0565b611227565b610ab0565b9050919050565b5f819050919050565b61126383611230565b61127761126f82611251565b8484546111d6565b825550505050565b5f5f905090565b61128e61127f565b61129981848461125a565b505050565b5b818110156112bc576112b15f82611286565b60018101905061129f565b5050565b601f821115611301576112d2816111a9565b6112db846111bb565b810160208510156112ea578190505b6112fe6112f6856111bb565b83018261129e565b50505b505050565b5f82821c905092915050565b5f6113215f1984600802611306565b1980831691505092915050565b5f6113398383611312565b9150826002028217905092915050565b61135282610d78565b67ffffffffffffffff81111561136b5761136a610bde565b5b6113758254611179565b6113808282856112c0565b5f60209050601f8311600181146113b1575f841561139f578287015190505b6113a9858261132e565b865550611410565b601f1984166113bf866111a9565b5f5b828110156113e6578489015182556001820191506020850194506020810190506113c1565b8683101561140357848901516113ff601f891682611312565b8355505b6001600288020188555050505b505050505050565b5f6020820190508181035f8301526114308184610da0565b905092915050565b7f48616e79612061646d696e2079616e6720626f6c6568206461667461722070655f8201527f6d696c6968000000000000000000000000000000000000000000000000000000602082015250565b5f611492602583610d82565b915061149d82611438565b604082019050919050565b5f6020820190508181035f8301526114bf81611486565b905091905056fea264697066735822122085d059c3d2cdcbfaf149886ad1d711f3a748e52302619cf22b860bd95b8da1cf64736f6c634300081e0033",
					"opcodes": "PUSH1 0x80 PUSH1 0x40 MSTORE CALLVALUE DUP1 ISZERO PUSH2 0xF JUMPI PUSH0 PUSH0 REVERT JUMPDEST POP PUSH1 0x40 MLOAD PUSH2 0x1604 CODESIZE SUB DUP1 PUSH2 0x1604 DUP4 CODECOPY DUP2 DUP2 ADD PUSH1 0x40 MSTORE DUP2 ADD SWAP1 PUSH2 0x31 SWAP2 SWAP1 PUSH2 0xBD JUMP JUMPDEST CALLER PUSH1 0x5 PUSH0 PUSH2 0x100 EXP DUP2 SLOAD DUP2 PUSH20 0xFFFFFFFFFFFFFFFFFFFFFFFFFFFFFFFFFFFFFFFF MUL NOT AND SWAP1 DUP4 PUSH20 0xFFFFFFFFFFFFFFFFFFFFFFFFFFFFFFFFFFFFFFFF AND MUL OR SWAP1 SSTORE POP DUP2 PUSH1 0x3 DUP2 SWAP1 SSTORE POP DUP1 PUSH1 0x4 DUP2 SWAP1 SSTORE POP POP POP PUSH2 0xFB JUMP JUMPDEST PUSH0 PUSH0 REVERT JUMPDEST PUSH0 DUP2 SWAP1 POP SWAP2 SWAP1 POP JUMP JUMPDEST PUSH2 0x9C DUP2 PUSH2 0x8A JUMP JUMPDEST DUP2 EQ PUSH2 0xA6 JUMPI PUSH0 PUSH0 REVERT JUMPDEST POP JUMP JUMPDEST PUSH0 DUP2 MLOAD SWAP1 POP PUSH2 0xB7 DUP2 PUSH2 0x93 JUMP JUMPDEST SWAP3 SWAP2 POP POP JUMP JUMPDEST PUSH0 PUSH0 PUSH1 0x40 DUP4 DUP6 SUB SLT ISZERO PUSH2 0xD3 JUMPI PUSH2 0xD2 PUSH2 0x86 JUMP JUMPDEST JUMPDEST PUSH0 PUSH2 0xE0 DUP6 DUP3 DUP7 ADD PUSH2 0xA9 JUMP JUMPDEST SWAP3 POP POP PUSH1 0x20 PUSH2 0xF1 DUP6 DUP3 DUP7 ADD PUSH2 0xA9 JUMP JUMPDEST SWAP2 POP POP SWAP3 POP SWAP3 SWAP1 POP JUMP JUMPDEST PUSH2 0x14FC DUP1 PUSH2 0x108 PUSH0 CODECOPY PUSH0 RETURN INVALID PUSH1 0x80 PUSH1 0x40 MSTORE CALLVALUE DUP1 ISZERO PUSH2 0xF JUMPI PUSH0 PUSH0 REVERT JUMPDEST POP PUSH1 0x4 CALLDATASIZE LT PUSH2 0xA7 JUMPI PUSH0 CALLDATALOAD PUSH1 0xE0 SHR DUP1 PUSH4 0x8E94DCFD GT PUSH2 0x6F JUMPI DUP1 PUSH4 0x8E94DCFD EQ PUSH2 0x175 JUMPI DUP1 PUSH4 0x986C14B2 EQ PUSH2 0x191 JUMPI DUP1 PUSH4 0x995E4339 EQ PUSH2 0x1AF JUMPI DUP1 PUSH4 0xBE2E8CD3 EQ PUSH2 0x1E1 JUMPI DUP1 PUSH4 0xDAE770EF EQ PUSH2 0x1FD JUMPI DUP1 PUSH4 0xF851A440 EQ PUSH2 0x21B JUMPI PUSH2 0xA7 JUMP JUMPDEST DUP1 PUSH4 0x121B93F EQ PUSH2 0xAB JUMPI DUP1 PUSH4 0xCF57856 EQ PUSH2 0xC7 JUMPI DUP1 PUSH4 0x26541B56 EQ PUSH2 0xF7 JUMPI DUP1 PUSH4 0x657C3EF1 EQ PUSH2 0x113 JUMPI DUP1 PUSH4 0x79ABF651 EQ PUSH2 0x145 JUMPI JUMPDEST PUSH0 PUSH0 REVERT JUMPDEST PUSH2 0xC5 PUSH1 0x4 DUP1 CALLDATASIZE SUB DUP2 ADD SWAP1 PUSH2 0xC0 SWAP2 SWAP1 PUSH2 0xAE3 JUMP JUMPDEST PUSH2 0x239 JUMP JUMPDEST STOP JUMPDEST PUSH2 0xE1 PUSH1 0x4 DUP1 CALLDATASIZE SUB DUP2 ADD SWAP1 PUSH2 0xDC SWAP2 SWAP1 PUSH2 0xB68 JUMP JUMPDEST PUSH2 0x4CF JUMP JUMPDEST PUSH1 0x40 MLOAD PUSH2 0xEE SWAP2 SWAP1 PUSH2 0xBAD JUMP JUMPDEST PUSH1 0x40 MLOAD DUP1 SWAP2 SUB SWAP1 RETURN JUMPDEST PUSH2 0x111 PUSH1 0x4 DUP1 CALLDATASIZE SUB DUP2 ADD SWAP1 PUSH2 0x10C SWAP2 SWAP1 PUSH2 0xD02 JUMP JUMPDEST PUSH2 0x4EC JUMP JUMPDEST STOP JUMPDEST PUSH2 0x12D PUSH1 0x4 DUP1 CALLDATASIZE SUB DUP2 ADD SWAP1 PUSH2 0x128 SWAP2 SWAP1 PUSH2 0xAE3 JUMP JUMPDEST PUSH2 0x625 JUMP JUMPDEST PUSH1 0x40 MLOAD PUSH2 0x13C SWAP4 SWAP3 SWAP2 SWAP1 PUSH2 0xDE7 JUMP JUMPDEST PUSH1 0x40 MLOAD DUP1 SWAP2 SUB SWAP1 RETURN JUMPDEST PUSH2 0x15F PUSH1 0x4 DUP1 CALLDATASIZE SUB DUP2 ADD SWAP1 PUSH2 0x15A SWAP2 SWAP1 PUSH2 0xB68 JUMP JUMPDEST PUSH2 0x765 JUMP JUMPDEST PUSH1 0x40 MLOAD PUSH2 0x16C SWAP2 SWAP1 PUSH2 0xBAD JUMP JUMPDEST PUSH1 0x40 MLOAD DUP1 SWAP2 SUB SWAP1 RETURN JUMPDEST PUSH2 0x18F PUSH1 0x4 DUP1 CALLDATASIZE SUB DUP2 ADD SWAP1 PUSH2 0x18A SWAP2 SWAP1 PUSH2 0xAE3 JUMP JUMPDEST PUSH2 0x782 JUMP JUMPDEST STOP JUMPDEST PUSH2 0x199 PUSH2 0x811 JUMP JUMPDEST PUSH1 0x40 MLOAD PUSH2 0x1A6 SWAP2 SWAP1 PUSH2 0xE2A JUMP JUMPDEST PUSH1 0x40 MLOAD DUP1 SWAP2 SUB SWAP1 RETURN JUMPDEST PUSH2 0x1C9 PUSH1 0x4 DUP1 CALLDATASIZE SUB DUP2 ADD SWAP1 PUSH2 0x1C4 SWAP2 SWAP1 PUSH2 0xAE3 JUMP JUMPDEST PUSH2 0x817 JUMP JUMPDEST PUSH1 0x40 MLOAD PUSH2 0x1D8 SWAP4 SWAP3 SWAP2 SWAP1 PUSH2 0xDE7 JUMP JUMPDEST PUSH1 0x40 MLOAD DUP1 SWAP2 SUB SWAP1 RETURN JUMPDEST PUSH2 0x1FB PUSH1 0x4 DUP1 CALLDATASIZE SUB DUP2 ADD SWAP1 PUSH2 0x1F6 SWAP2 SWAP1 PUSH2 0xB68 JUMP JUMPDEST PUSH2 0x98D JUMP JUMPDEST STOP JUMPDEST PUSH2 0x205 PUSH2 0xA74 JUMP JUMPDEST PUSH1 0x40 MLOAD PUSH2 0x212 SWAP2 SWAP1 PUSH2 0xE2A JUMP JUMPDEST PUSH1 0x40 MLOAD DUP1 SWAP2 SUB SWAP1 RETURN JUMPDEST PUSH2 0x223 PUSH2 0xA7A JUMP JUMPDEST PUSH1 0x40 MLOAD PUSH2 0x230 SWAP2 SWAP1 PUSH2 0xE52 JUMP JUMPDEST PUSH1 0x40 MLOAD DUP1 SWAP2 SUB SWAP1 RETURN JUMPDEST PUSH1 0x3 SLOAD TIMESTAMP LT ISZERO DUP1 ISZERO PUSH2 0x24D JUMPI POP PUSH1 0x4 SLOAD TIMESTAMP GT ISZERO JUMPDEST PUSH2 0x28C JUMPI PUSH1 0x40 MLOAD PUSH32 0x8C379A000000000000000000000000000000000000000000000000000000000 DUP2 MSTORE PUSH1 0x4 ADD PUSH2 0x283 SWAP1 PUSH2 0xEDB JUMP JUMPDEST PUSH1 0x40 MLOAD DUP1 SWAP2 SUB SWAP1 REVERT JUMPDEST PUSH0 DUP1 SLOAD SWAP1 POP DUP2 LT PUSH2 0x2D2 JUMPI PUSH1 0x40 MLOAD PUSH32 0x8C379A000000000000000000000000000000000000000000000000000000000 DUP2 MSTORE PUSH1 0x4 ADD PUSH2 0x2C9 SWAP1 PUSH2 0xF43 JUMP JUMPDEST PUSH1 0x40 MLOAD DUP1 SWAP2 SUB SWAP1 REVERT JUMPDEST PUSH0 ISZERO ISZERO PUSH1 0x1 PUSH0 CALLER PUSH20 0xFFFFFFFFFFFFFFFFFFFFFFFFFFFFFFFFFFFFFFFF AND PUSH20 0xFFFFFFFFFFFFFFFFFFFFFFFFFFFFFFFFFFFFFFFF AND DUP2 MSTORE PUSH1 0x20 ADD SWAP1 DUP2 MSTORE PUSH1 0x20 ADD PUSH0 KECCAK256 PUSH0 SWAP1 SLOAD SWAP1 PUSH2 0x100 EXP SWAP1 DIV PUSH1 0xFF AND ISZERO ISZERO EQ PUSH2 0x361 JUMPI PUSH1 0x40 MLOAD PUSH32 0x8C379A000000000000000000000000000000000000000000000000000000000 DUP2 MSTORE PUSH1 0x4 ADD PUSH2 0x358 SWAP1 PUSH2 0xFAB JUMP JUMPDEST PUSH1 0x40 MLOAD DUP1 SWAP2 SUB SWAP1 REVERT JUMPDEST PUSH1 0x1 ISZERO ISZERO PUSH1 0x2 PUSH0 CALLER PUSH20 0xFFFFFFFFFFFFFFFFFFFFFFFFFFFFFFFFFFFFFFFF AND PUSH20 0xFFFFFFFFFFFFFFFFFFFFFFFFFFFFFFFFFFFFFFFF AND DUP2 MSTORE PUSH1 0x20 ADD SWAP1 DUP2 MSTORE PUSH1 0x20 ADD PUSH0 KECCAK256 PUSH0 SWAP1 SLOAD SWAP1 PUSH2 0x100 EXP SWAP1 DIV PUSH1 0xFF AND ISZERO ISZERO EQ PUSH2 0x3F1 JUMPI PUSH1 0x40 MLOAD PUSH32 0x8C379A000000000000000000000000000000000000000000000000000000000 DUP2 MSTORE PUSH1 0x4 ADD PUSH2 0x3E8 SWAP1 PUSH2 0x1039 JUMP JUMPDEST PUSH1 0x40 MLOAD DUP1 SWAP2 SUB SWAP1 REVERT JUMPDEST PUSH1 0x1 PUSH0 DUP3 DUP2 SLOAD DUP2 LT PUSH2 0x406 JUMPI PUSH2 0x405 PUSH2 0x1057 JUMP JUMPDEST JUMPDEST SWAP1 PUSH0 MSTORE PUSH1 0x20 PUSH0 KECCAK256 SWAP1 PUSH1 0x3 MUL ADD PUSH1 0x2 ADD PUSH0 DUP3 DUP3 SLOAD PUSH2 0x423 SWAP2 SWAP1 PUSH2 0x10B1 JUMP JUMPDEST SWAP3 POP POP DUP2 SWAP1 SSTORE POP PUSH1 0x1 DUP1 PUSH0 CALLER PUSH20 0xFFFFFFFFFFFFFFFFFFFFFFFFFFFFFFFFFFFFFFFF AND PUSH20 0xFFFFFFFFFFFFFFFFFFFFFFFFFFFFFFFFFFFFFFFF AND DUP2 MSTORE PUSH1 0x20 ADD SWAP1 DUP2 MSTORE PUSH1 0x20 ADD PUSH0 KECCAK256 PUSH0 PUSH2 0x100 EXP DUP2 SLOAD DUP2 PUSH1 0xFF MUL NOT AND SWAP1 DUP4 ISZERO ISZERO MUL OR SWAP1 SSTORE POP CALLER PUSH20 0xFFFFFFFFFFFFFFFFFFFFFFFFFFFFFFFFFFFFFFFF AND PUSH32 0xD0E6C39F2E086DC49F1524B47725526A56945CD1FF661F37976F1725A1E56986 DUP3 PUSH1 0x40 MLOAD PUSH2 0x4C4 SWAP2 SWAP1 PUSH2 0xE2A JUMP JUMPDEST PUSH1 0x40 MLOAD DUP1 SWAP2 SUB SWAP1 LOG2 POP JUMP JUMPDEST PUSH1 0x2 PUSH1 0x20 MSTORE DUP1 PUSH0 MSTORE PUSH1 0x40 PUSH0 KECCAK256 PUSH0 SWAP2 POP SLOAD SWAP1 PUSH2 0x100 EXP SWAP1 DIV PUSH1 0xFF AND DUP2 JUMP JUMPDEST PUSH0 DUP3 MLOAD GT PUSH2 0x52F JUMPI PUSH1 0x40 MLOAD PUSH32 0x8C379A000000000000000000000000000000000000000000000000000000000 DUP2 MSTORE PUSH1 0x4 ADD PUSH2 0x526 SWAP1 PUSH2 0x112E JUMP JUMPDEST PUSH1 0x40 MLOAD DUP1 SWAP2 SUB SWAP1 REVERT JUMPDEST PUSH0 DUP2 MLOAD GT PUSH2 0x572 JUMPI PUSH1 0x40 MLOAD PUSH32 0x8C379A000000000000000000000000000000000000000000000000000000000 DUP2 MSTORE PUSH1 0x4 ADD PUSH2 0x569 SWAP1 PUSH2 0x112E JUMP JUMPDEST PUSH1 0x40 MLOAD DUP1 SWAP2 SUB SWAP1 REVERT JUMPDEST PUSH0 PUSH1 0x40 MLOAD DUP1 PUSH1 0x60 ADD PUSH1 0x40 MSTORE DUP1 DUP5 DUP2 MSTORE PUSH1 0x20 ADD DUP4 DUP2 MSTORE PUSH1 0x20 ADD PUSH0 DUP2 MSTORE POP SWAP1 DUP1 PUSH1 0x1 DUP2 SLOAD ADD DUP1 DUP3 SSTORE DUP1 SWAP2 POP POP PUSH1 0x1 SWAP1 SUB SWAP1 PUSH0 MSTORE PUSH1 0x20 PUSH0 KECCAK256 SWAP1 PUSH1 0x3 MUL ADD PUSH0 SWAP1 SWAP2 SWAP1 SWAP2 SWAP1 SWAP2 POP PUSH0 DUP3 ADD MLOAD DUP2 PUSH0 ADD SWAP1 DUP2 PUSH2 0x5C7 SWAP2 SWAP1 PUSH2 0x1349 JUMP JUMPDEST POP PUSH1 0x20 DUP3 ADD MLOAD DUP2 PUSH1 0x1 ADD SWAP1 DUP2 PUSH2 0x5DD SWAP2 SWAP1 PUSH2 0x1349 JUMP JUMPDEST POP PUSH1 0x40 DUP3 ADD MLOAD DUP2 PUSH1 0x2 ADD SSTORE POP POP PUSH32 0xC86C45A2C2450845967B481F33078B0D7F6144696013327082DF9BD9567A44FE DUP3 PUSH1 0x40 MLOAD PUSH2 0x619 SWAP2 SWAP1 PUSH2 0x1418 JUMP JUMPDEST PUSH1 0x40 MLOAD DUP1 SWAP2 SUB SWAP1 LOG1 POP POP JUMP JUMPDEST PUSH0 DUP2 DUP2 SLOAD DUP2 LT PUSH2 0x633 JUMPI PUSH0 DUP1 REVERT JUMPDEST SWAP1 PUSH0 MSTORE PUSH1 0x20 PUSH0 KECCAK256 SWAP1 PUSH1 0x3 MUL ADD PUSH0 SWAP2 POP SWAP1 POP DUP1 PUSH0 ADD DUP1 SLOAD PUSH2 0x652 SWAP1 PUSH2 0x1179 JUMP JUMPDEST DUP1 PUSH1 0x1F ADD PUSH1 0x20 DUP1 SWAP2 DIV MUL PUSH1 0x20 ADD PUSH1 0x40 MLOAD SWAP1 DUP2 ADD PUSH1 0x40 MSTORE DUP1 SWAP3 SWAP2 SWAP1 DUP2 DUP2 MSTORE PUSH1 0x20 ADD DUP3 DUP1 SLOAD PUSH2 0x67E SWAP1 PUSH2 0x1179 JUMP JUMPDEST DUP1 ISZERO PUSH2 0x6C9 JUMPI DUP1 PUSH1 0x1F LT PUSH2 0x6A0 JUMPI PUSH2 0x100 DUP1 DUP4 SLOAD DIV MUL DUP4 MSTORE SWAP2 PUSH1 0x20 ADD SWAP2 PUSH2 0x6C9 JUMP JUMPDEST DUP3 ADD SWAP2 SWAP1 PUSH0 MSTORE PUSH1 0x20 PUSH0 KECCAK256 SWAP1 JUMPDEST DUP2 SLOAD DUP2 MSTORE SWAP1 PUSH1 0x1 ADD SWAP1 PUSH1 0x20 ADD DUP1 DUP4 GT PUSH2 0x6AC JUMPI DUP3 SWAP1 SUB PUSH1 0x1F AND DUP3 ADD SWAP2 JUMPDEST POP POP POP POP POP SWAP1 DUP1 PUSH1 0x1 ADD DUP1 SLOAD PUSH2 0x6DE SWAP1 PUSH2 0x1179 JUMP JUMPDEST DUP1 PUSH1 0x1F ADD PUSH1 0x20 DUP1 SWAP2 DIV MUL PUSH1 0x20 ADD PUSH1 0x40 MLOAD SWAP1 DUP2 ADD PUSH1 0x40 MSTORE DUP1 SWAP3 SWAP2 SWAP1 DUP2 DUP2 MSTORE PUSH1 0x20 ADD DUP3 DUP1 SLOAD PUSH2 0x70A SWAP1 PUSH2 0x1179 JUMP JUMPDEST DUP1 ISZERO PUSH2 0x755 JUMPI DUP1 PUSH1 0x1F LT PUSH2 0x72C JUMPI PUSH2 0x100 DUP1 DUP4 SLOAD DIV MUL DUP4 MSTORE SWAP2 PUSH1 0x20 ADD SWAP2 PUSH2 0x755 JUMP JUMPDEST DUP3 ADD SWAP2 SWAP1 PUSH0 MSTORE PUSH1 0x20 PUSH0 KECCAK256 SWAP1 JUMPDEST DUP2 SLOAD DUP2 MSTORE SWAP1 PUSH1 0x1 ADD SWAP1 PUSH1 0x20 ADD DUP1 DUP4 GT PUSH2 0x738 JUMPI DUP3 SWAP1 SUB PUSH1 0x1F AND DUP3 ADD SWAP2 JUMPDEST POP POP POP POP POP SWAP1 DUP1 PUSH1 0x2 ADD SLOAD SWAP1 POP DUP4 JUMP JUMPDEST PUSH1 0x1 PUSH1 0x20 MSTORE DUP1 PUSH0 MSTORE PUSH1 0x40 PUSH0 KECCAK256 PUSH0 SWAP2 POP SLOAD SWAP1 PUSH2 0x100 EXP SWAP1 DIV PUSH1 0xFF AND DUP2 JUMP JUMPDEST PUSH1 0x3 SLOAD TIMESTAMP LT ISZERO DUP1 ISZERO PUSH2 0x796 JUMPI POP PUSH1 0x4 SLOAD TIMESTAMP GT ISZERO JUMPDEST PUSH2 0x7D5 JUMPI PUSH1 0x40 MLOAD PUSH32 0x8C379A000000000000000000000000000000000000000000000000000000000 DUP2 MSTORE PUSH1 0x4 ADD PUSH2 0x7CC SWAP1 PUSH2 0xEDB JUMP JUMPDEST PUSH1 0x40 MLOAD DUP1 SWAP2 SUB SWAP1 REVERT JUMPDEST PUSH1 0x1 PUSH0 DUP3 DUP2 SLOAD DUP2 LT PUSH2 0x7EA JUMPI PUSH2 0x7E9 PUSH2 0x1057 JUMP JUMPDEST JUMPDEST SWAP1 PUSH0 MSTORE PUSH1 0x20 PUSH0 KECCAK256 SWAP1 PUSH1 0x3 MUL ADD PUSH1 0x2 ADD PUSH0 DUP3 DUP3 SLOAD PUSH2 0x807 SWAP2 SWAP1 PUSH2 0x10B1 JUMP JUMPDEST SWAP3 POP POP DUP2 SWAP1 SSTORE POP POP JUMP JUMPDEST PUSH1 0x4 SLOAD DUP2 JUMP JUMPDEST PUSH1 0x60 DUP1 PUSH0 PUSH0 PUSH0 DUP6 DUP2 SLOAD DUP2 LT PUSH2 0x82F JUMPI PUSH2 0x82E PUSH2 0x1057 JUMP JUMPDEST JUMPDEST SWAP1 PUSH0 MSTORE PUSH1 0x20 PUSH0 KECCAK256 SWAP1 PUSH1 0x3 MUL ADD PUSH1 0x40 MLOAD DUP1 PUSH1 0x60 ADD PUSH1 0x40 MSTORE SWAP1 DUP2 PUSH0 DUP3 ADD DUP1 SLOAD PUSH2 0x855 SWAP1 PUSH2 0x1179 JUMP JUMPDEST DUP1 PUSH1 0x1F ADD PUSH1 0x20 DUP1 SWAP2 DIV MUL PUSH1 0x20 ADD PUSH1 0x40 MLOAD SWAP1 DUP2 ADD PUSH1 0x40 MSTORE DUP1 SWAP3 SWAP2 SWAP1 DUP2 DUP2 MSTORE PUSH1 0x20 ADD DUP3 DUP1 SLOAD PUSH2 0x881 SWAP1 PUSH2 0x1179 JUMP JUMPDEST DUP1 ISZERO PUSH2 0x8CC JUMPI DUP1 PUSH1 0x1F LT PUSH2 0x8A3 JUMPI PUSH2 0x100 DUP1 DUP4 SLOAD DIV MUL DUP4 MSTORE SWAP2 PUSH1 0x20 ADD SWAP2 PUSH2 0x8CC JUMP JUMPDEST DUP3 ADD SWAP2 SWAP1 PUSH0 MSTORE PUSH1 0x20 PUSH0 KECCAK256 SWAP1 JUMPDEST DUP2 SLOAD DUP2 MSTORE SWAP1 PUSH1 0x1 ADD SWAP1 PUSH1 0x20 ADD DUP1 DUP4 GT PUSH2 0x8AF JUMPI DUP3 SWAP1 SUB PUSH1 0x1F AND DUP3 ADD SWAP2 JUMPDEST POP POP POP POP POP DUP2 MSTORE PUSH1 0x20 ADD PUSH1 0x1 DUP3 ADD DUP1 SLOAD PUSH2 0x8E5 SWAP1 PUSH2 0x1179 JUMP JUMPDEST DUP1 PUSH1 0x1F ADD PUSH1 0x20 DUP1 SWAP2 DIV MUL PUSH1 0x20 ADD PUSH1 0x40 MLOAD SWAP1 DUP2 ADD PUSH1 0x40 MSTORE DUP1 SWAP3 SWAP2 SWAP1 DUP2 DUP2 MSTORE PUSH1 0x20 ADD DUP3 DUP1 SLOAD PUSH2 0x911 SWAP1 PUSH2 0x1179 JUMP JUMPDEST DUP1 ISZERO PUSH2 0x95C JUMPI DUP1 PUSH1 0x1F LT PUSH2 0x933 JUMPI PUSH2 0x100 DUP1 DUP4 SLOAD DIV MUL DUP4 MSTORE SWAP2 PUSH1 0x20 ADD SWAP2 PUSH2 0x95C JUMP JUMPDEST DUP3 ADD SWAP2 SWAP1 PUSH0 MSTORE PUSH1 0x20 PUSH0 KECCAK256 SWAP1 JUMPDEST DUP2 SLOAD DUP2 MSTORE SWAP1 PUSH1 0x1 ADD SWAP1 PUSH1 0x20 ADD DUP1 DUP4 GT PUSH2 0x93F JUMPI DUP3 SWAP1 SUB PUSH1 0x1F AND DUP3 ADD SWAP2 JUMPDEST POP POP POP POP POP DUP2 MSTORE PUSH1 0x20 ADD PUSH1 0x2 DUP3 ADD SLOAD DUP2 MSTORE POP POP SWAP1 POP DUP1 PUSH0 ADD MLOAD DUP2 PUSH1 0x20 ADD MLOAD DUP3 PUSH1 0x40 ADD MLOAD SWAP4 POP SWAP4 POP SWAP4 POP POP SWAP2 SWAP4 SWAP1 SWAP3 POP JUMP JUMPDEST PUSH1 0x5 PUSH0 SWAP1 SLOAD SWAP1 PUSH2 0x100 EXP SWAP1 DIV PUSH20 0xFFFFFFFFFFFFFFFFFFFFFFFFFFFFFFFFFFFFFFFF AND PUSH20 0xFFFFFFFFFFFFFFFFFFFFFFFFFFFFFFFFFFFFFFFF AND CALLER PUSH20 0xFFFFFFFFFFFFFFFFFFFFFFFFFFFFFFFFFFFFFFFF AND EQ PUSH2 0xA1C JUMPI PUSH1 0x40 MLOAD PUSH32 0x8C379A000000000000000000000000000000000000000000000000000000000 DUP2 MSTORE PUSH1 0x4 ADD PUSH2 0xA13 SWAP1 PUSH2 0x14A8 JUMP JUMPDEST PUSH1 0x40 MLOAD DUP1 SWAP2 SUB SWAP1 REVERT JUMPDEST PUSH1 0x1 PUSH1 0x2 PUSH0 DUP4 PUSH20 0xFFFFFFFFFFFFFFFFFFFFFFFFFFFFFFFFFFFFFFFF AND PUSH20 0xFFFFFFFFFFFFFFFFFFFFFFFFFFFFFFFFFFFFFFFF AND DUP2 MSTORE PUSH1 0x20 ADD SWAP1 DUP2 MSTORE PUSH1 0x20 ADD PUSH0 KECCAK256 PUSH0 PUSH2 0x100 EXP DUP2 SLOAD DUP2 PUSH1 0xFF MUL NOT AND SWAP1 DUP4 ISZERO ISZERO MUL OR SWAP1 SSTORE POP POP JUMP JUMPDEST PUSH1 0x3 SLOAD DUP2 JUMP JUMPDEST PUSH1 0x5 PUSH0 SWAP1 SLOAD SWAP1 PUSH2 0x100 EXP SWAP1 DIV PUSH20 0xFFFFFFFFFFFFFFFFFFFFFFFFFFFFFFFFFFFFFFFF AND DUP2 JUMP JUMPDEST PUSH0 PUSH1 0x40 MLOAD SWAP1 POP SWAP1 JUMP JUMPDEST PUSH0 PUSH0 REVERT JUMPDEST PUSH0 PUSH0 REVERT JUMPDEST PUSH0 DUP2 SWAP1 POP SWAP2 SWAP1 POP JUMP JUMPDEST PUSH2 0xAC2 DUP2 PUSH2 0xAB0 JUMP JUMPDEST DUP2 EQ PUSH2 0xACC JUMPI PUSH0 PUSH0 REVERT JUMPDEST POP JUMP JUMPDEST PUSH0 DUP2 CALLDATALOAD SWAP1 POP PUSH2 0xADD DUP2 PUSH2 0xAB9 JUMP JUMPDEST SWAP3 SWAP2 POP POP JUMP JUMPDEST PUSH0 PUSH1 0x20 DUP3 DUP5 SUB SLT ISZERO PUSH2 0xAF8 JUMPI PUSH2 0xAF7 PUSH2 0xAA8 JUMP JUMPDEST JUMPDEST PUSH0 PUSH2 0xB05 DUP5 DUP3 DUP6 ADD PUSH2 0xACF JUMP JUMPDEST SWAP2 POP POP SWAP3 SWAP2 POP POP JUMP JUMPDEST PUSH0 PUSH20 0xFFFFFFFFFFFFFFFFFFFFFFFFFFFFFFFFFFFFFFFF DUP3 AND SWAP1 POP SWAP2 SWAP1 POP JUMP JUMPDEST PUSH0 PUSH2 0xB37 DUP3 PUSH2 0xB0E JUMP JUMPDEST SWAP1 POP SWAP2 SWAP1 POP JUMP JUMPDEST PUSH2 0xB47 DUP2 PUSH2 0xB2D JUMP JUMPDEST DUP2 EQ PUSH2 0xB51 JUMPI PUSH0 PUSH0 REVERT JUMPDEST POP JUMP JUMPDEST PUSH0 DUP2 CALLDATALOAD SWAP1 POP PUSH2 0xB62 DUP2 PUSH2 0xB3E JUMP JUMPDEST SWAP3 SWAP2 POP POP JUMP JUMPDEST PUSH0 PUSH1 0x20 DUP3 DUP5 SUB SLT ISZERO PUSH2 0xB7D JUMPI PUSH2 0xB7C PUSH2 0xAA8 JUMP JUMPDEST JUMPDEST PUSH0 PUSH2 0xB8A DUP5 DUP3 DUP6 ADD PUSH2 0xB54 JUMP JUMPDEST SWAP2 POP POP SWAP3 SWAP2 POP POP JUMP JUMPDEST PUSH0 DUP2 ISZERO ISZERO SWAP1 POP SWAP2 SWAP1 POP JUMP JUMPDEST PUSH2 0xBA7 DUP2 PUSH2 0xB93 JUMP JUMPDEST DUP3 MSTORE POP POP JUMP JUMPDEST PUSH0 PUSH1 0x20 DUP3 ADD SWAP1 POP PUSH2 0xBC0 PUSH0 DUP4 ADD DUP5 PUSH2 0xB9E JUMP JUMPDEST SWAP3 SWAP2 POP POP JUMP JUMPDEST PUSH0 PUSH0 REVERT JUMPDEST PUSH0 PUSH0 REVERT JUMPDEST PUSH0 PUSH1 0x1F NOT PUSH1 0x1F DUP4 ADD AND SWAP1 POP SWAP2 SWAP1 POP JUMP JUMPDEST PUSH32 0x4E487B7100000000000000000000000000000000000000000000000000000000 PUSH0 MSTORE PUSH1 0x41 PUSH1 0x4 MSTORE PUSH1 0x24 PUSH0 REVERT JUMPDEST PUSH2 0xC14 DUP3 PUSH2 0xBCE JUMP JUMPDEST DUP2 ADD DUP2 DUP2 LT PUSH8 0xFFFFFFFFFFFFFFFF DUP3 GT OR ISZERO PUSH2 0xC33 JUMPI PUSH2 0xC32 PUSH2 0xBDE JUMP JUMPDEST JUMPDEST DUP1 PUSH1 0x40 MSTORE POP POP POP JUMP JUMPDEST PUSH0 PUSH2 0xC45 PUSH2 0xA9F JUMP JUMPDEST SWAP1 POP PUSH2 0xC51 DUP3 DUP3 PUSH2 0xC0B JUMP JUMPDEST SWAP2 SWAP1 POP JUMP JUMPDEST PUSH0 PUSH8 0xFFFFFFFFFFFFFFFF DUP3 GT ISZERO PUSH2 0xC70 JUMPI PUSH2 0xC6F PUSH2 0xBDE JUMP JUMPDEST JUMPDEST PUSH2 0xC79 DUP3 PUSH2 0xBCE JUMP JUMPDEST SWAP1 POP PUSH1 0x20 DUP2 ADD SWAP1 POP SWAP2 SWAP1 POP JUMP JUMPDEST DUP3 DUP2 DUP4 CALLDATACOPY PUSH0 DUP4 DUP4 ADD MSTORE POP POP POP JUMP JUMPDEST PUSH0 PUSH2 0xCA6 PUSH2 0xCA1 DUP5 PUSH2 0xC56 JUMP JUMPDEST PUSH2 0xC3C JUMP JUMPDEST SWAP1 POP DUP3 DUP2 MSTORE PUSH1 0x20 DUP2 ADD DUP5 DUP5 DUP5 ADD GT ISZERO PUSH2 0xCC2 JUMPI PUSH2 0xCC1 PUSH2 0xBCA JUMP JUMPDEST JUMPDEST PUSH2 0xCCD DUP5 DUP3 DUP6 PUSH2 0xC86 JUMP JUMPDEST POP SWAP4 SWAP3 POP POP POP JUMP JUMPDEST PUSH0 DUP3 PUSH1 0x1F DUP4 ADD SLT PUSH2 0xCE9 JUMPI PUSH2 0xCE8 PUSH2 0xBC6 JUMP JUMPDEST JUMPDEST DUP2 CALLDATALOAD PUSH2 0xCF9 DUP5 DUP3 PUSH1 0x20 DUP7 ADD PUSH2 0xC94 JUMP JUMPDEST SWAP2 POP POP SWAP3 SWAP2 POP POP JUMP JUMPDEST PUSH0 PUSH0 PUSH1 0x40 DUP4 DUP6 SUB SLT ISZERO PUSH2 0xD18 JUMPI PUSH2 0xD17 PUSH2 0xAA8 JUMP JUMPDEST JUMPDEST PUSH0 DUP4 ADD CALLDATALOAD PUSH8 0xFFFFFFFFFFFFFFFF DUP2 GT ISZERO PUSH2 0xD35 JUMPI PUSH2 0xD34 PUSH2 0xAAC JUMP JUMPDEST JUMPDEST PUSH2 0xD41 DUP6 DUP3 DUP7 ADD PUSH2 0xCD5 JUMP JUMPDEST SWAP3 POP POP PUSH1 0x20 DUP4 ADD CALLDATALOAD PUSH8 0xFFFFFFFFFFFFFFFF DUP2 GT ISZERO PUSH2 0xD62 JUMPI PUSH2 0xD61 PUSH2 0xAAC JUMP JUMPDEST JUMPDEST PUSH2 0xD6E DUP6 DUP3 DUP7 ADD PUSH2 0xCD5 JUMP JUMPDEST SWAP2 POP POP SWAP3 POP SWAP3 SWAP1 POP JUMP JUMPDEST PUSH0 DUP2 MLOAD SWAP1 POP SWAP2 SWAP1 POP JUMP JUMPDEST PUSH0 DUP3 DUP3 MSTORE PUSH1 0x20 DUP3 ADD SWAP1 POP SWAP3 SWAP2 POP POP JUMP JUMPDEST DUP3 DUP2 DUP4 MCOPY PUSH0 DUP4 DUP4 ADD MSTORE POP POP POP JUMP JUMPDEST PUSH0 PUSH2 0xDAA DUP3 PUSH2 0xD78 JUMP JUMPDEST PUSH2 0xDB4 DUP2 DUP6 PUSH2 0xD82 JUMP JUMPDEST SWAP4 POP PUSH2 0xDC4 DUP2 DUP6 PUSH1 0x20 DUP7 ADD PUSH2 0xD92 JUMP JUMPDEST PUSH2 0xDCD DUP2 PUSH2 0xBCE JUMP JUMPDEST DUP5 ADD SWAP2 POP POP SWAP3 SWAP2 POP POP JUMP JUMPDEST PUSH2 0xDE1 DUP2 PUSH2 0xAB0 JUMP JUMPDEST DUP3 MSTORE POP POP JUMP JUMPDEST PUSH0 PUSH1 0x60 DUP3 ADD SWAP1 POP DUP2 DUP2 SUB PUSH0 DUP4 ADD MSTORE PUSH2 0xDFF DUP2 DUP7 PUSH2 0xDA0 JUMP JUMPDEST SWAP1 POP DUP2 DUP2 SUB PUSH1 0x20 DUP4 ADD MSTORE PUSH2 0xE13 DUP2 DUP6 PUSH2 0xDA0 JUMP JUMPDEST SWAP1 POP PUSH2 0xE22 PUSH1 0x40 DUP4 ADD DUP5 PUSH2 0xDD8 JUMP JUMPDEST SWAP5 SWAP4 POP POP POP POP JUMP JUMPDEST PUSH0 PUSH1 0x20 DUP3 ADD SWAP1 POP PUSH2 0xE3D PUSH0 DUP4 ADD DUP5 PUSH2 0xDD8 JUMP JUMPDEST SWAP3 SWAP2 POP POP JUMP JUMPDEST PUSH2 0xE4C DUP2 PUSH2 0xB2D JUMP JUMPDEST DUP3 MSTORE POP POP JUMP JUMPDEST PUSH0 PUSH1 0x20 DUP3 ADD SWAP1 POP PUSH2 0xE65 PUSH0 DUP4 ADD DUP5 PUSH2 0xE43 JUMP JUMPDEST SWAP3 SWAP2 POP POP JUMP JUMPDEST PUSH32 0x566F74696E672062656C756D2064696D756C6169206174617520737564616820 PUSH0 DUP3 ADD MSTORE PUSH32 0x73656C6573616900000000000000000000000000000000000000000000000000 PUSH1 0x20 DUP3 ADD MSTORE POP JUMP JUMPDEST PUSH0 PUSH2 0xEC5 PUSH1 0x27 DUP4 PUSH2 0xD82 JUMP JUMPDEST SWAP2 POP PUSH2 0xED0 DUP3 PUSH2 0xE6B JUMP JUMPDEST PUSH1 0x40 DUP3 ADD SWAP1 POP SWAP2 SWAP1 POP JUMP JUMPDEST PUSH0 PUSH1 0x20 DUP3 ADD SWAP1 POP DUP2 DUP2 SUB PUSH0 DUP4 ADD MSTORE PUSH2 0xEF2 DUP2 PUSH2 0xEB9 JUMP JUMPDEST SWAP1 POP SWAP2 SWAP1 POP JUMP JUMPDEST PUSH32 0x4D6173756B6B616E2049642064656E67616E2062656E61722100000000000000 PUSH0 DUP3 ADD MSTORE POP JUMP JUMPDEST PUSH0 PUSH2 0xF2D PUSH1 0x19 DUP4 PUSH2 0xD82 JUMP JUMPDEST SWAP2 POP PUSH2 0xF38 DUP3 PUSH2 0xEF9 JUMP JUMPDEST PUSH1 0x20 DUP3 ADD SWAP1 POP SWAP2 SWAP1 POP JUMP JUMPDEST PUSH0 PUSH1 0x20 DUP3 ADD SWAP1 POP DUP2 DUP2 SUB PUSH0 DUP4 ADD MSTORE PUSH2 0xF5A DUP2 PUSH2 0xF21 JUMP JUMPDEST SWAP1 POP SWAP2 SWAP1 POP JUMP JUMPDEST PUSH32 0x4B616D75207375646168206D656D696C69682100000000000000000000000000 PUSH0 DUP3 ADD MSTORE POP JUMP JUMPDEST PUSH0 PUSH2 0xF95 PUSH1 0x13 DUP4 PUSH2 0xD82 JUMP JUMPDEST SWAP2 POP PUSH2 0xFA0 DUP3 PUSH2 0xF61 JUMP JUMPDEST PUSH1 0x20 DUP3 ADD SWAP1 POP SWAP2 SWAP1 POP JUMP JUMPDEST PUSH0 PUSH1 0x20 DUP3 ADD SWAP1 POP DUP2 DUP2 SUB PUSH0 DUP4 ADD MSTORE PUSH2 0xFC2 DUP2 PUSH2 0xF89 JUMP JUMPDEST SWAP1 POP SWAP2 SWAP1 POP JUMP JUMPDEST PUSH32 0x4B616D752062756B616E2070656D696C69682079616E67207465727665726966 PUSH0 DUP3 ADD MSTORE PUSH32 0x696B617369210000000000000000000000000000000000000000000000000000 PUSH1 0x20 DUP3 ADD MSTORE POP JUMP JUMPDEST PUSH0 PUSH2 0x1023 PUSH1 0x26 DUP4 PUSH2 0xD82 JUMP JUMPDEST SWAP2 POP PUSH2 0x102E DUP3 PUSH2 0xFC9 JUMP JUMPDEST PUSH1 0x40 DUP3 ADD SWAP1 POP SWAP2 SWAP1 POP JUMP JUMPDEST PUSH0 PUSH1 0x20 DUP3 ADD SWAP1 POP DUP2 DUP2 SUB PUSH0 DUP4 ADD MSTORE PUSH2 0x1050 DUP2 PUSH2 0x1017 JUMP JUMPDEST SWAP1 POP SWAP2 SWAP1 POP JUMP JUMPDEST PUSH32 0x4E487B7100000000000000000000000000000000000000000000000000000000 PUSH0 MSTORE PUSH1 0x32 PUSH1 0x4 MSTORE PUSH1 0x24 PUSH0 REVERT JUMPDEST PUSH32 0x4E487B7100000000000000000000000000000000000000000000000000000000 PUSH0 MSTORE PUSH1 0x11 PUSH1 0x4 MSTORE PUSH1 0x24 PUSH0 REVERT JUMPDEST PUSH0 PUSH2 0x10BB DUP3 PUSH2 0xAB0 JUMP JUMPDEST SWAP2 POP PUSH2 0x10C6 DUP4 PUSH2 0xAB0 JUMP JUMPDEST SWAP3 POP DUP3 DUP3 ADD SWAP1 POP DUP1 DUP3 GT ISZERO PUSH2 0x10DE JUMPI PUSH2 0x10DD PUSH2 0x1084 JUMP JUMPDEST JUMPDEST SWAP3 SWAP2 POP POP JUMP JUMPDEST PUSH32 0x4E616D6120546964616B20426F6C6568204B6F736F6E67210000000000000000 PUSH0 DUP3 ADD MSTORE POP JUMP JUMPDEST PUSH0 PUSH2 0x1118 PUSH1 0x18 DUP4 PUSH2 0xD82 JUMP JUMPDEST SWAP2 POP PUSH2 0x1123 DUP3 PUSH2 0x10E4 JUMP JUMPDEST PUSH1 0x20 DUP3 ADD SWAP1 POP SWAP2 SWAP1 POP JUMP JUMPDEST PUSH0 PUSH1 0x20 DUP3 ADD SWAP1 POP DUP2 DUP2 SUB PUSH0 DUP4 ADD MSTORE PUSH2 0x1145 DUP2 PUSH2 0x110C JUMP JUMPDEST SWAP1 POP SWAP2 SWAP1 POP JUMP JUMPDEST PUSH32 0x4E487B7100000000000000000000000000000000000000000000000000000000 PUSH0 MSTORE PUSH1 0x22 PUSH1 0x4 MSTORE PUSH1 0x24 PUSH0 REVERT JUMPDEST PUSH0 PUSH1 0x2 DUP3 DIV SWAP1 POP PUSH1 0x1 DUP3 AND DUP1 PUSH2 0x1190 JUMPI PUSH1 0x7F DUP3 AND SWAP2 POP JUMPDEST PUSH1 0x20 DUP3 LT DUP2 SUB PUSH2 0x11A3 JUMPI PUSH2 0x11A2 PUSH2 0x114C JUMP JUMPDEST JUMPDEST POP SWAP2 SWAP1 POP JUMP JUMPDEST PUSH0 DUP2 SWAP1 POP DUP2 PUSH0 MSTORE PUSH1 0x20 PUSH0 KECCAK256 SWAP1 POP SWAP2 SWAP1 POP JUMP JUMPDEST PUSH0 PUSH1 0x20 PUSH1 0x1F DUP4 ADD DIV SWAP1 POP SWAP2 SWAP1 POP JUMP JUMPDEST PUSH0 DUP3 DUP3 SHL SWAP1 POP SWAP3 SWAP2 POP POP JUMP JUMPDEST PUSH0 PUSH1 0x8 DUP4 MUL PUSH2 0x1205 PUSH32 0xFFFFFFFFFFFFFFFFFFFFFFFFFFFFFFFFFFFFFFFFFFFFFFFFFFFFFFFFFFFFFFFF DUP3 PUSH2 0x11CA JUMP JUMPDEST PUSH2 0x120F DUP7 DUP4 PUSH2 0x11CA JUMP JUMPDEST SWAP6 POP DUP1 NOT DUP5 AND SWAP4 POP DUP1 DUP7 AND DUP5 OR SWAP3 POP POP POP SWAP4 SWAP3 POP POP POP JUMP JUMPDEST PUSH0 DUP2 SWAP1 POP SWAP2 SWAP1 POP JUMP JUMPDEST PUSH0 PUSH2 0x124A PUSH2 0x1245 PUSH2 0x1240 DUP5 PUSH2 0xAB0 JUMP JUMPDEST PUSH2 0x1227 JUMP JUMPDEST PUSH2 0xAB0 JUMP JUMPDEST SWAP1 POP SWAP2 SWAP1 POP JUMP JUMPDEST PUSH0 DUP2 SWAP1 POP SWAP2 SWAP1 POP JUMP JUMPDEST PUSH2 0x1263 DUP4 PUSH2 0x1230 JUMP JUMPDEST PUSH2 0x1277 PUSH2 0x126F DUP3 PUSH2 0x1251 JUMP JUMPDEST DUP5 DUP5 SLOAD PUSH2 0x11D6 JUMP JUMPDEST DUP3 SSTORE POP POP POP POP JUMP JUMPDEST PUSH0 PUSH0 SWAP1 POP SWAP1 JUMP JUMPDEST PUSH2 0x128E PUSH2 0x127F JUMP JUMPDEST PUSH2 0x1299 DUP2 DUP5 DUP5 PUSH2 0x125A JUMP JUMPDEST POP POP POP JUMP JUMPDEST JUMPDEST DUP2 DUP2 LT ISZERO PUSH2 0x12BC JUMPI PUSH2 0x12B1 PUSH0 DUP3 PUSH2 0x1286 JUMP JUMPDEST PUSH1 0x1 DUP2 ADD SWAP1 POP PUSH2 0x129F JUMP JUMPDEST POP POP JUMP JUMPDEST PUSH1 0x1F DUP3 GT ISZERO PUSH2 0x1301 JUMPI PUSH2 0x12D2 DUP2 PUSH2 0x11A9 JUMP JUMPDEST PUSH2 0x12DB DUP5 PUSH2 0x11BB JUMP JUMPDEST DUP2 ADD PUSH1 0x20 DUP6 LT ISZERO PUSH2 0x12EA JUMPI DUP2 SWAP1 POP JUMPDEST PUSH2 0x12FE PUSH2 0x12F6 DUP6 PUSH2 0x11BB JUMP JUMPDEST DUP4 ADD DUP3 PUSH2 0x129E JUMP JUMPDEST POP POP JUMPDEST POP POP POP JUMP JUMPDEST PUSH0 DUP3 DUP3 SHR SWAP1 POP SWAP3 SWAP2 POP POP JUMP JUMPDEST PUSH0 PUSH2 0x1321 PUSH0 NOT DUP5 PUSH1 0x8 MUL PUSH2 0x1306 JUMP JUMPDEST NOT DUP1 DUP4 AND SWAP2 POP POP SWAP3 SWAP2 POP POP JUMP JUMPDEST PUSH0 PUSH2 0x1339 DUP4 DUP4 PUSH2 0x1312 JUMP JUMPDEST SWAP2 POP DUP3 PUSH1 0x2 MUL DUP3 OR SWAP1 POP SWAP3 SWAP2 POP POP JUMP JUMPDEST PUSH2 0x1352 DUP3 PUSH2 0xD78 JUMP JUMPDEST PUSH8 0xFFFFFFFFFFFFFFFF DUP2 GT ISZERO PUSH2 0x136B JUMPI PUSH2 0x136A PUSH2 0xBDE JUMP JUMPDEST JUMPDEST PUSH2 0x1375 DUP3 SLOAD PUSH2 0x1179 JUMP JUMPDEST PUSH2 0x1380 DUP3 DUP3 DUP6 PUSH2 0x12C0 JUMP JUMPDEST PUSH0 PUSH1 0x20 SWAP1 POP PUSH1 0x1F DUP4 GT PUSH1 0x1 DUP2 EQ PUSH2 0x13B1 JUMPI PUSH0 DUP5 ISZERO PUSH2 0x139F JUMPI DUP3 DUP8 ADD MLOAD SWAP1 POP JUMPDEST PUSH2 0x13A9 DUP6 DUP3 PUSH2 0x132E JUMP JUMPDEST DUP7 SSTORE POP PUSH2 0x1410 JUMP JUMPDEST PUSH1 0x1F NOT DUP5 AND PUSH2 0x13BF DUP7 PUSH2 0x11A9 JUMP JUMPDEST PUSH0 JUMPDEST DUP3 DUP2 LT ISZERO PUSH2 0x13E6 JUMPI DUP5 DUP10 ADD MLOAD DUP3 SSTORE PUSH1 0x1 DUP3 ADD SWAP2 POP PUSH1 0x20 DUP6 ADD SWAP5 POP PUSH1 0x20 DUP2 ADD SWAP1 POP PUSH2 0x13C1 JUMP JUMPDEST DUP7 DUP4 LT ISZERO PUSH2 0x1403 JUMPI DUP5 DUP10 ADD MLOAD PUSH2 0x13FF PUSH1 0x1F DUP10 AND DUP3 PUSH2 0x1312 JUMP JUMPDEST DUP4 SSTORE POP JUMPDEST PUSH1 0x1 PUSH1 0x2 DUP9 MUL ADD DUP9 SSTORE POP POP POP JUMPDEST POP POP POP POP POP POP JUMP JUMPDEST PUSH0 PUSH1 0x20 DUP3 ADD SWAP1 POP DUP2 DUP2 SUB PUSH0 DUP4 ADD MSTORE PUSH2 0x1430 DUP2 DUP5 PUSH2 0xDA0 JUMP JUMPDEST SWAP1 POP SWAP3 SWAP2 POP POP JUMP JUMPDEST PUSH32 0x48616E79612061646D696E2079616E6720626F6C656820646166746172207065 PUSH0 DUP3 ADD MSTORE PUSH32 0x6D696C6968000000000000000000000000000000000000000000000000000000 PUSH1 0x20 DUP3 ADD MSTORE POP JUMP JUMPDEST PUSH0 PUSH2 0x1492 PUSH1 0x25 DUP4 PUSH2 0xD82 JUMP JUMPDEST SWAP2 POP PUSH2 0x149D DUP3 PUSH2 0x1438 JUMP JUMPDEST PUSH1 0x40 DUP3 ADD SWAP1 POP SWAP2 SWAP1 POP JUMP JUMPDEST PUSH0 PUSH1 0x20 DUP3 ADD SWAP1 POP DUP2 DUP2 SUB PUSH0 DUP4 ADD MSTORE PUSH2 0x14BF DUP2 PUSH2 0x1486 JUMP JUMPDEST SWAP1 POP SWAP2 SWAP1 POP JUMP INVALID LOG2 PUSH5 0x6970667358 0x22 SLT KECCAK256 DUP6 0xD0 MSIZE 0xC3 0xD2 0xCD 0xCB STATICCALL CALL BLOBHASH DUP9 PUSH11 0xD1D711F3A748E52302619C CALLCODE 0x2B DUP7 SIGNEXTEND 0xD9 JUMPDEST DUP14 LOG1 0xCF PUSH5 0x736F6C6343 STOP ADDMOD 0x1E STOP CALLER "
				},
				"gasEstimates": {
					"creation": {
						"codeDepositCost": "1074400",
						"executionCost": "infinite",
						"totalCost": "infinite"
					},
					"external": {
						"addCandidate(string,string)": "infinite",
						"admin()": "2618",
						"cobaPaksaVote(uint256)": "infinite",
						"daftarPemilih(address)": "27038",
						"getResult(uint256)": "infinite",
						"kandidat(uint256)": "infinite",
						"pemilihTerdaftar(address)": "2856",
						"sudahMemilih(address)": "2922",
						"vote(uint256)": "infinite",
						"waktuMulai()": "2513",
						"waktuSelesai()": "2447"
					}
				},
				"methodIdentifiers": {
					"addCandidate(string,string)": "26541b56",
					"admin()": "f851a440",
					"cobaPaksaVote(uint256)": "8e94dcfd",
					"daftarPemilih(address)": "be2e8cd3",
					"getResult(uint256)": "995e4339",
					"kandidat(uint256)": "657c3ef1",
					"pemilihTerdaftar(address)": "0cf57856",
					"sudahMemilih(address)": "79abf651",
					"vote(uint256)": "0121b93f",
					"waktuMulai()": "dae770ef",
					"waktuSelesai()": "986c14b2"
				}
			},
			"storageLayout": {
				"storage": [
					{
						"astId": 12,
						"contract": "contracts/PemilihanBEM.sol:PemilihanBEM",
						"label": "kandidat",
						"offset": 0,
						"slot": "0",
						"type": "t_array(t_struct(Kandidat)8_storage)dyn_storage"
					},
					{
						"astId": 16,
						"contract": "contracts/PemilihanBEM.sol:PemilihanBEM",
						"label": "sudahMemilih",
						"offset": 0,
						"slot": "1",
						"type": "t_mapping(t_address,t_bool)"
					},
					{
						"astId": 20,
						"contract": "contracts/PemilihanBEM.sol:PemilihanBEM",
						"label": "pemilihTerdaftar",
						"offset": 0,
						"slot": "2",
						"type": "t_mapping(t_address,t_bool)"
					},
					{
						"astId": 22,
						"contract": "contracts/PemilihanBEM.sol:PemilihanBEM",
						"label": "waktuMulai",
						"offset": 0,
						"slot": "3",
						"type": "t_uint256"
					},
					{
						"astId": 24,
						"contract": "contracts/PemilihanBEM.sol:PemilihanBEM",
						"label": "waktuSelesai",
						"offset": 0,
						"slot": "4",
						"type": "t_uint256"
					},
					{
						"astId": 26,
						"contract": "contracts/PemilihanBEM.sol:PemilihanBEM",
						"label": "admin",
						"offset": 0,
						"slot": "5",
						"type": "t_address"
					}
				],
				"types": {
					"t_address": {
						"encoding": "inplace",
						"label": "address",
						"numberOfBytes": "20"
					},
					"t_array(t_struct(Kandidat)8_storage)dyn_storage": {
						"base": "t_struct(Kandidat)8_storage",
						"encoding": "dynamic_array",
						"label": "struct PemilihanBEM.Kandidat[]",
						"numberOfBytes": "32"
					},
					"t_bool": {
						"encoding": "inplace",
						"label": "bool",
						"numberOfBytes": "1"
					},
					"t_mapping(t_address,t_bool)": {
						"encoding": "mapping",
						"key": "t_address",
						"label": "mapping(address => bool)",
						"numberOfBytes": "32",
						"value": "t_bool"
					},
					"t_string_storage": {
						"encoding": "bytes",
						"label": "string",
						"numberOfBytes": "32"
					},
					"t_struct(Kandidat)8_storage": {
						"encoding": "inplace",
						"label": "struct PemilihanBEM.Kandidat",
						"members": [
							{
								"astId": 3,
								"contract": "contracts/PemilihanBEM.sol:PemilihanBEM",
								"label": "nama",
								"offset": 0,
								"slot": "0",
								"type": "t_string_storage"
							},
							{
								"astId": 5,
								"contract": "contracts/PemilihanBEM.sol:PemilihanBEM",
								"label": "visi",
								"offset": 0,
								"slot": "1",
								"type": "t_string_storage"
							},
							{
								"astId": 7,
								"contract": "contracts/PemilihanBEM.sol:PemilihanBEM",
								"label": "suara",
								"offset": 0,
								"slot": "2",
								"type": "t_uint256"
							}
						],
						"numberOfBytes": "96"
					},
					"t_uint256": {
						"encoding": "inplace",
						"label": "uint256",
						"numberOfBytes": "32"
					}
				}
			},
			"userdoc": {
				"kind": "user",
				"methods": {},
				"version": 1
			}
		}
	}
}