{
	"data": {
		"bytecode": {
			"linkReferences": {},
			"object": "608060405260fa600160006101000a81548160ff021916908360ff16021790555060106001806101000a81548160ff021916908360ff1602179055507ffffffffffffffffffffffffffffffffffffffffffffffffffffffffffffffff660025534801561006b57600080fd5b506104598061007b6000396000f3fe608060405234801561001057600080fd5b50600436106100935760003560e01c80639fa39ec8116100665780639fa39ec8146100e8578063da50eaee14610106578063e2a4b2af14610110578063e492fd841461012e578063f102a71d1461014a57610093565b806306540f7e146100985780632cb777a6146100b657806384ea3606146100d45780638d5833cb146100de575b600080fd5b6100a0610154565b6040516100ad919061022e565b60405180910390f35b6100be61015a565b6040516100cb9190610262565b60405180910390f35b6100dc610160565b005b6100e661019a565b005b6100f06101b4565b6040516100fd9190610299565b60405180910390f35b61010e6101c5565b005b6101186101de565b6040516101259190610299565b60405180910390f35b610148600480360381019061014391906102e5565b6101f1565b005b6101526101fb565b005b60005481565b60025481565b6001600081819054906101000a900460ff168092919061017f90610341565b91906101000a81548160ff021916908360ff16021790555050565b600260008154809291906101ad9061036a565b9190505550565b60018054906101000a900460ff1681565b6000808154809291906101d7906103b2565b9190505550565b600160009054906101000a900460ff1681565b8060008190555050565b6002600081548092919061020e906103db565b9190505550565b6000819050919050565b61022881610215565b82525050565b6000602082019050610243600083018461021f565b92915050565b6000819050919050565b61025c81610249565b82525050565b60006020820190506102776000830184610253565b92915050565b600060ff82169050919050565b6102938161027d565b82525050565b60006020820190506102ae600083018461028a565b92915050565b600080fd5b6102c281610215565b81146102cd57600080fd5b50565b6000813590506102df816102b9565b92915050565b6000602082840312156102fb576102fa6102b4565b5b6000610309848285016102d0565b91505092915050565b7f4e487b7100000000000000000000000000000000000000000000000000000000600052601160045260246000fd5b600061034c8261027d565b915060ff820361035f5761035e610312565b5b600182019050919050565b600061037582610249565b91507f800000000000000000000000000000000000000000000000000000000000000082036103a7576103a6610312565b5b600182039050919050565b60006103bd82610215565b9150600082036103d0576103cf610312565b5b600182039050919050565b60006103e682610249565b91507f7fffffffffffffffffffffffffffffffffffffffffffffffffffffffffffffff820361041857610417610312565b5b60018201905091905056fea2646970667358221220ecf6552e7b4df58a053eba203c549c1d61341b1620b69271e6fdc3790a88035764736f6c634300080e0033",
			"opcodes": "PUSH1 0x80 PUSH1 0x40 MSTORE PUSH1 0xFA PUSH1 0x1 PUSH1 0x0 PUSH2 0x100 EXP DUP2 SLOAD DUP2 PUSH1 0xFF MUL NOT AND SWAP1 DUP4 PUSH1 0xFF AND MUL OR SWAP1 SSTORE POP PUSH1 0x10 PUSH1 0x1 DUP1 PUSH2 0x100 EXP DUP2 SLOAD DUP2 PUSH1 0xFF MUL NOT AND SWAP1 DUP4 PUSH1 0xFF AND MUL OR SWAP1 SSTORE POP PUSH32 0xFFFFFFFFFFFFFFFFFFFFFFFFFFFFFFFFFFFFFFFFFFFFFFFFFFFFFFFFFFFFFFF6 PUSH1 0x2 SSTORE CALLVALUE DUP1 ISZERO PUSH2 0x6B JUMPI PUSH1 0x0 DUP1 REVERT JUMPDEST POP PUSH2 0x459 DUP1 PUSH2 0x7B PUSH1 0x0 CODECOPY PUSH1 0x0 RETURN INVALID PUSH1 0x80 PUSH1 0x40 MSTORE CALLVALUE DUP1 ISZERO PUSH2 0x10 JUMPI PUSH1 0x0 DUP1 REVERT JUMPDEST POP PUSH1 0x4 CALLDATASIZE LT PUSH2 0x93 JUMPI PUSH1 0x0 CALLDATALOAD PUSH1 0xE0 SHR DUP1 PUSH4 0x9FA39EC8 GT PUSH2 0x66 JUMPI DUP1 PUSH4 0x9FA39EC8 EQ PUSH2 0xE8 JUMPI DUP1 PUSH4 0xDA50EAEE EQ PUSH2 0x106 JUMPI DUP1 PUSH4 0xE2A4B2AF EQ PUSH2 0x110 JUMPI DUP1 PUSH4 0xE492FD84 EQ PUSH2 0x12E JUMPI DUP1 PUSH4 0xF102A71D EQ PUSH2 0x14A JUMPI PUSH2 0x93 JUMP JUMPDEST DUP1 PUSH4 0x6540F7E EQ PUSH2 0x98 JUMPI DUP1 PUSH4 0x2CB777A6 EQ PUSH2 0xB6 JUMPI DUP1 PUSH4 0x84EA3606 EQ PUSH2 0xD4 JUMPI DUP1 PUSH4 0x8D5833CB EQ PUSH2 0xDE JUMPI JUMPDEST PUSH1 0x0 DUP1 REVERT JUMPDEST PUSH2 0xA0 PUSH2 0x154 JUMP JUMPDEST PUSH1 0x40 MLOAD PUSH2 0xAD SWAP2 SWAP1 PUSH2 0x22E JUMP JUMPDEST PUSH1 0x40 MLOAD DUP1 SWAP2 SUB SWAP1 RETURN JUMPDEST PUSH2 0xBE PUSH2 0x15A JUMP JUMPDEST PUSH1 0x40 MLOAD PUSH2 0xCB SWAP2 SWAP1 PUSH2 0x262 JUMP JUMPDEST PUSH1 0x40 MLOAD DUP1 SWAP2 SUB SWAP1 RETURN JUMPDEST PUSH2 0xDC PUSH2 0x160 JUMP JUMPDEST STOP JUMPDEST PUSH2 0xE6 PUSH2 0x19A JUMP JUMPDEST STOP JUMPDEST PUSH2 0xF0 PUSH2 0x1B4 JUMP JUMPDEST PUSH1 0x40 MLOAD PUSH2 0xFD SWAP2 SWAP1 PUSH2 0x299 JUMP JUMPDEST PUSH1 0x40 MLOAD DUP1 SWAP2 SUB SWAP1 RETURN JUMPDEST PUSH2 0x10E PUSH2 0x1C5 JUMP JUMPDEST STOP JUMPDEST PUSH2 0x118 PUSH2 0x1DE JUMP JUMPDEST PUSH1 0x40 MLOAD PUSH2 0x125 SWAP2 SWAP1 PUSH2 0x299 JUMP JUMPDEST PUSH1 0x40 MLOAD DUP1 SWAP2 SUB SWAP1 RETURN JUMPDEST PUSH2 0x148 PUSH1 0x4 DUP1 CALLDATASIZE SUB DUP2 ADD SWAP1 PUSH2 0x143 SWAP2 SWAP1 PUSH2 0x2E5 JUMP JUMPDEST PUSH2 0x1F1 JUMP JUMPDEST STOP JUMPDEST PUSH2 0x152 PUSH2 0x1FB JUMP JUMPDEST STOP JUMPDEST PUSH1 0x0 SLOAD DUP2 JUMP JUMPDEST PUSH1 0x2 SLOAD DUP2 JUMP JUMPDEST PUSH1 0x1 PUSH1 0x0 DUP2 DUP2 SWAP1 SLOAD SWAP1 PUSH2 0x100 EXP SWAP1 DIV PUSH1 0xFF AND DUP1 SWAP3 SWAP2 SWAP1 PUSH2 0x17F SWAP1 PUSH2 0x341 JUMP JUMPDEST SWAP2 SWAP1 PUSH2 0x100 EXP DUP2 SLOAD DUP2 PUSH1 0xFF MUL NOT AND SWAP1 DUP4 PUSH1 0xFF AND MUL OR SWAP1 SSTORE POP POP JUMP JUMPDEST PUSH1 0x2 PUSH1 0x0 DUP2 SLOAD DUP1 SWAP3 SWAP2 SWAP1 PUSH2 0x1AD SWAP1 PUSH2 0x36A JUMP JUMPDEST SWAP2 SWAP1 POP SSTORE POP JUMP JUMPDEST PUSH1 0x1 DUP1 SLOAD SWAP1 PUSH2 0x100 EXP SWAP1 DIV PUSH1 0xFF AND DUP2 JUMP JUMPDEST PUSH1 0x0 DUP1 DUP2 SLOAD DUP1 SWAP3 SWAP2 SWAP1 PUSH2 0x1D7 SWAP1 PUSH2 0x3B2 JUMP JUMPDEST SWAP2 SWAP1 POP SSTORE POP JUMP JUMPDEST PUSH1 0x1 PUSH1 0x0 SWAP1 SLOAD SWAP1 PUSH2 0x100 EXP SWAP1 DIV PUSH1 0xFF AND DUP2 JUMP JUMPDEST DUP1 PUSH1 0x0 DUP2 SWAP1 SSTORE POP POP JUMP JUMPDEST PUSH1 0x2 PUSH1 0x0 DUP2 SLOAD DUP1 SWAP3 SWAP2 SWAP1 PUSH2 0x20E SWAP1 PUSH2 0x3DB JUMP JUMPDEST SWAP2 SWAP1 POP SSTORE POP JUMP JUMPDEST PUSH1 0x0 DUP2 SWAP1 POP SWAP2 SWAP1 POP JUMP JUMPDEST PUSH2 0x228 DUP2 PUSH2 0x215 JUMP JUMPDEST DUP3 MSTORE POP POP JUMP JUMPDEST PUSH1 0x0 PUSH1 0x20 DUP3 ADD SWAP1 POP PUSH2 0x243 PUSH1 0x0 DUP4 ADD DUP5 PUSH2 0x21F JUMP JUMPDEST SWAP3 SWAP2 POP POP JUMP JUMPDEST PUSH1 0x0 DUP2 SWAP1 POP SWAP2 SWAP1 POP JUMP JUMPDEST PUSH2 0x25C DUP2 PUSH2 0x249 JUMP JUMPDEST DUP3 MSTORE POP POP JUMP JUMPDEST PUSH1 0x0 PUSH1 0x20 DUP3 ADD SWAP1 POP PUSH2 0x277 PUSH1 0x0 DUP4 ADD DUP5 PUSH2 0x253 JUMP JUMPDEST SWAP3 SWAP2 POP POP JUMP JUMPDEST PUSH1 0x0 PUSH1 0xFF DUP3 AND SWAP1 POP SWAP2 SWAP1 POP JUMP JUMPDEST PUSH2 0x293 DUP2 PUSH2 0x27D JUMP JUMPDEST DUP3 MSTORE POP POP JUMP JUMPDEST PUSH1 0x0 PUSH1 0x20 DUP3 ADD SWAP1 POP PUSH2 0x2AE PUSH1 0x0 DUP4 ADD DUP5 PUSH2 0x28A JUMP JUMPDEST SWAP3 SWAP2 POP POP JUMP JUMPDEST PUSH1 0x0 DUP1 REVERT JUMPDEST PUSH2 0x2C2 DUP2 PUSH2 0x215 JUMP JUMPDEST DUP2 EQ PUSH2 0x2CD JUMPI PUSH1 0x0 DUP1 REVERT JUMPDEST POP JUMP JUMPDEST PUSH1 0x0 DUP2 CALLDATALOAD SWAP1 POP PUSH2 0x2DF DUP2 PUSH2 0x2B9 JUMP JUMPDEST SWAP3 SWAP2 POP POP JUMP JUMPDEST PUSH1 0x0 PUSH1 0x20 DUP3 DUP5 SUB SLT ISZERO PUSH2 0x2FB JUMPI PUSH2 0x2FA PUSH2 0x2B4 JUMP JUMPDEST JUMPDEST PUSH1 0x0 PUSH2 0x309 DUP5 DUP3 DUP6 ADD PUSH2 0x2D0 JUMP JUMPDEST SWAP2 POP POP SWAP3 SWAP2 POP POP JUMP JUMPDEST PUSH32 0x4E487B7100000000000000000000000000000000000000000000000000000000 PUSH1 0x0 MSTORE PUSH1 0x11 PUSH1 0x4 MSTORE PUSH1 0x24 PUSH1 0x0 REVERT JUMPDEST PUSH1 0x0 PUSH2 0x34C DUP3 PUSH2 0x27D JUMP JUMPDEST SWAP2 POP PUSH1 0xFF DUP3 SUB PUSH2 0x35F JUMPI PUSH2 0x35E PUSH2 0x312 JUMP JUMPDEST JUMPDEST PUSH1 0x1 DUP3 ADD SWAP1 POP SWAP2 SWAP1 POP JUMP JUMPDEST PUSH1 0x0 PUSH2 0x375 DUP3 PUSH2 0x249 JUMP JUMPDEST SWAP2 POP PUSH32 0x8000000000000000000000000000000000000000000000000000000000000000 DUP3 SUB PUSH2 0x3A7 JUMPI PUSH2 0x3A6 PUSH2 0x312 JUMP JUMPDEST JUMPDEST PUSH1 0x1 DUP3 SUB SWAP1 POP SWAP2 SWAP1 POP JUMP JUMPDEST PUSH1 0x0 PUSH2 0x3BD DUP3 PUSH2 0x215 JUMP JUMPDEST SWAP2 POP PUSH1 0x0 DUP3 SUB PUSH2 0x3D0 JUMPI PUSH2 0x3CF PUSH2 0x312 JUMP JUMPDEST JUMPDEST PUSH1 0x1 DUP3 SUB SWAP1 POP SWAP2 SWAP1 POP JUMP JUMPDEST PUSH1 0x0 PUSH2 0x3E6 DUP3 PUSH2 0x249 JUMP JUMPDEST SWAP2 POP PUSH32 0x7FFFFFFFFFFFFFFFFFFFFFFFFFFFFFFFFFFFFFFFFFFFFFFFFFFFFFFFFFFFFFFF DUP3 SUB PUSH2 0x418 JUMPI PUSH2 0x417 PUSH2 0x312 JUMP JUMPDEST JUMPDEST PUSH1 0x1 DUP3 ADD SWAP1 POP SWAP2 SWAP1 POP JUMP INVALID LOG2 PUSH5 0x6970667358 0x22 SLT KECCAK256 0xEC 0xF6 SSTORE 0x2E PUSH28 0x4DF58A053EBA203C549C1D61341B1620B69271E6FDC3790A88035764 PUSH20 0x6F6C634300080E00330000000000000000000000 "
		},
		"gasEstimates": {
			"creation": {
				"codeDepositCost": "222600",
				"executionCost": "70953",
				"totalCost": "293553"
			},
			"external": {
				"decrementInt()": "24568",
				"decrementUint()": "24523",
				"incrementInt()": "24589",
				"incrementUint8()": "26744",
				"myInt()": "2452",
				"myUint()": "2430",
				"myUint8()": "2515",
				"myUint8_EXP()": "2518",
				"setMyUint(uint256)": "22586"
			}
		},
		"methodIdentifiers": {
			"decrementInt()": "8d5833cb",
			"decrementUint()": "da50eaee",
			"incrementInt()": "f102a71d",
			"incrementUint8()": "84ea3606",
			"myInt()": "2cb777a6",
			"myUint()": "06540f7e",
			"myUint8()": "e2a4b2af",
			"myUint8_EXP()": "9fa39ec8",
			"setMyUint(uint256)": "e492fd84"
		}
	},
	"abi": [
		{
			"inputs": [],
			"name": "decrementInt",
			"outputs": [],
			"stateMutability": "nonpayable",
			"type": "function"
		},
		{
			"inputs": [],
			"name": "decrementUint",
			"outputs": [],
			"stateMutability": "nonpayable",
			"type": "function"
		},
		{
			"inputs": [],
			"name": "incrementInt",
			"outputs": [],
			"stateMutability": "nonpayable",
			"type": "function"
		},
		{
			"inputs": [],
			"name": "incrementUint8",
			"outputs": [],
			"stateMutability": "nonpayable",
			"type": "function"
		},
		{
			"inputs": [],
			"name": "myInt",
			"outputs": [
				{
					"internalType": "int256",
					"name": "",
					"type": "int256"
				}
			],
			"stateMutability": "view",
			"type": "function"
		},
		{
			"inputs": [],
			"name": "myUint",
			"outputs": [
				{
					"internalType": "uint256",
					"name": "",
					"type": "uint256"
				}
			],
			"stateMutability": "view",
			"type": "function"
		},
		{
			"inputs": [],
			"name": "myUint8",
			"outputs": [
				{
					"internalType": "uint8",
					"name": "",
					"type": "uint8"
				}
			],
			"stateMutability": "view",
			"type": "function"
		},
		{
			"inputs": [],
			"name": "myUint8_EXP",
			"outputs": [
				{
					"internalType": "uint8",
					"name": "",
					"type": "uint8"
				}
			],
			"stateMutability": "view",
			"type": "function"
		},
		{
			"inputs": [
				{
					"internalType": "uint256",
					"name": "_myUint",
					"type": "uint256"
				}
			],
			"name": "setMyUint",
			"outputs": [],
			"stateMutability": "nonpayable",
			"type": "function"
		}
	]
}